:020000040800F2
:100000003808002029020008471D0008771800085A
:10001000451D0008C9040008F9210008000000007F
:10002000000000000000000000000000611E000849
:100030004D05000800000000491D0008631E00086F
:10004000430200084302000843020008430200087C
:10005000430200084302000843020008430200086C
:10006000430200084302000843020008430200085C
:10007000430200084302000843020008430200084C
:10008000430200084302000843020008430200083C
:10009000430200084302000843020008430200082C
:1000A000430200084302000843020008430200081C
:1000B000430200084302000843020008430200080C
:1000C00043020008430200084302000843020008FC
:1000D0004302000843020008E1210008ED21000866
:1000E00043020008430200084302000843020008DC
:1000F00043020008430200084302000843020008CC
:1001000043020008430200084302000843020008BB
:1001100043020008430200084302000843020008AB
:10012000430200084302000843020008430200089B
:10013000430200084302000843020008430200088B
:10014000430200084302000843020008430200087B
:10015000430200084302000843020008430200086B
:10016000430200084302000843020008430200085B
:100170004302000843020008430200080000000098
:10018000430200084302000800F002F800F03CF8C7
:100190000AA090E8000C82448344AAF10107DA45E2
:1001A00001D100F031F8AFF2090EBAE80F0013F0F8
:1001B000010F18BFFB1A43F0010318475026000037
:1001C00070260000103A24BF78C878C1FAD85207C8
:1001D00024BF30C830C144BF04680C6070470000C1
:1001E0000023002400250026103A28BF78C1FBD840
:1001F000520728BF30C148BF0B6070471FB502F0DF
:1002000074F91FBD10B510BD00F001F91146FFF7DC
:10021000F5FF02F047F800F01FF903B4FFF7F2FF13
:1002200003BC00F027F9000009488047094800474F
:10023000FEE7FEE7FEE7FEE7FEE7FEE7FEE7FEE796
:10024000FEE7FEE704480549054A064B70470000F3
:10025000FD1E00088901000838020020380800202F
:10026000380400203804002053EA020C00F06980B2
:100270002DE9F04B4FF00006002B1FBFB3FA83F5BA
:1002800003FA05F424FA05F65E4012BF1643B2FAEB
:1002900082F502FA05F4C5F120051EBF22FA05FC1D
:1002A00044EA0C04203556EA044C4FEA144418BFC3
:1002B000641C4FF000084FF00009904271EB030CF2
:1002C00039D3002919BFB1FA81F701FA07F6B0FA5C
:1002D00080F700FA07F6C7F120071EBF20FA07FCD7
:1002E00046EA0C062037B6FBF4FCA7EB0507103FE7
:1002F00007F01F0BCBF120060CFA0BFB2CFA06F6CD
:1003000044BFB3460026202FA4BF5E464FF0000B2B
:100310005BEA060C08BF4FF0010B19EB0B09ABFBB6
:10032000027C48EB0608C01B06FB02CC0BFB03CC8F
:1003300071EB0C01C1E70B46024641464846BDE859
:10034000F08B13B54FF000004FF00001AFF30080C9
:10035000BDE81C40704710B5203AC0F00B80B1E8F2
:100360001850203AA0E81850B1E81850A0E81850EA
:10037000BFF4F5AF5FEA027C24BFB1E81850A0E8F3
:10038000185044BF18C918C0BDE810405FEA827C0D
:1003900024BF51F8043B40F8043B08BF7047D20724
:1003A00028BF31F8023B48BF11F8012B28BF20F8C5
:1003B000023B48BF00F8012B70474FF0000200B528
:1003C000134694469646203922BFA0E80C50A0E878
:1003D0000C50B1F12001BFF4F7AF090728BFA0E826
:1003E0000C5048BF0CC05DF804EB890028BF40F8F2
:1003F000042B08BF704748BF20F8022B11F0804F34
:1004000018BF00F8012B704770477047704775465A
:1004100000F02CF8AE4605006946534620F0070070
:10042000854618B020B5FFF70DFFBDE820404FF01E
:1004300000064FF000074FF000084FF0000B21F0CE
:100440000701AC46ACE8C009ACE8C009ACE8C0099B
:10045000ACE8C0098D46704710B50446AFF3008084
:100460002046BDE81040FFF7D8BE000000487047A6
:10047000D401002001491820ABBEFEE7260002008F
:100480007047000030B50C4605000CD0022C0AD98C
:100490000548A11E0288284600F05CF8291901F8D9
:1004A000020D000A487030BD0000002030B50C4637
:1004B000050008D0022C06D9FF22611E00F060F86A
:1004C000291901F8010C30BDFEE7000070B51C4C85
:1004D000A5201C4D2070082060706878E070401CDA
:1004E000687005212046FFF7E1FF022060710320BC
:1004F000A071154890ED000ABCEEC00A10EE100A7B
:10050000000AE07110EE100A207295ED020ABCEEAE
:10051000C00A10EE100A000A607210EE100AA072F3
:10052000A81C0178E1724178217381786173C078E9
:10053000A0732046BDE870401121FFF7A3BF000063
:1005400034000020100000200C000020704772B61C
:10055000FEE7000010B558B1084C491E0BD310F847
:10056000013B5340DBB234F8133083EA1222F4E744
:100570004FF6FF7010BD104610BD0000F4250008B6
:1005800010B5054C04E000BF10F8013B5340E25C9D
:10059000491EF9D2104610BDF42400082DE9F0419F
:1005A0000446876D00F060F9064694F83500002592
:1005B000022806D08020606584F834500120BDE810
:1005C000F0812068016821F016010160206841690E
:1005D00021F080014161206C08B9A06C20B1206835
:1005E000016821F0080101602068016821F0010123
:1005F00001600CE000F038F9801B052807D92020A5
:100600006065032084F8350084F83450D7E720680B
:100610000068C007EED194F85C103F208840B860B5
:10062000012084F8350084F834500020C7E790F8A2
:100630003510022903D08021416501207047052132
:1006400080F835100068016821F001010160002088
:100650007047000070B5044600F006F90546601CBE
:1006600002D004480078044400F0FEF8401BA04289
:10067000FAD370BD240000202DE9F84FDFF8BCA1AB
:100680000022012503264FF00F090AF1040BAAF1FD
:10069000040E00BF0B6805FA02F42340A34270D198
:1006A0000F7907F00307012F01D0022F16D18768B9
:1006B0004FEA420806FA08FC27EA0C07D1F80CC0FA
:1006C0000CFA08FC4CEA070CC0F808C04768A743BE
:1006D0000C79C4F3001494403C4344600C79E44327
:1006E000A4070AD0C4684FEA420C06FA0CF7BC43D0
:1006F0008F6807FA0CF72743C7600C7904F00304EE
:10070000022C12D1D40800EB840CDCF820405707EF
:10071000FF0E09FA07F824EA0804D1F8108008FA55
:1007200007F848EA0408CCF8208004684FEA420C35
:1007300006FA0CF7BC430F7907F0030707FA0CF72A
:10074000274307604C6814F4403F70D03C4C276846
:1007500047F480472760246822F0030704F48044AC
:100760000094384C07EB040CDCF8084897074FEA74
:10077000177809FA08F7BC43334FB84202D1002773
:1007800024E054E0314FB84201D101271EE0304F40
:10079000B84201D1022719E02E4FB84201D10327F8
:1007A00014E02D4FB84201D104270FE02B4FB8427F
:1007B00001D105270AE02A4FB84201D1062705E0FA
:1007C000284FB84201D1072700E0082707FA08F7A9
:1007D0002743CCF80878DAF800405746D1F804C02F
:1007E0009C435FEACC2C00D51C433C60DBF8004006
:1007F0005F46D1F804C09C435FEA8C2C00D51C43B3
:100800003C60DEF800407746D1F804C09C435FEAC4
:100810008C3C00D51C433C60084F083F3C68D1F835
:1008200004C09C435FEACC3C00D51C433C60521C96
:10083000102AFFF42FAFBDE8F88F0000083C0140FC
:1008400044380240003001400000024000040240F1
:1008500000080240000C0240001002400014024058
:1008600000180240001C02400148806870470000E8
:100870002400002070B5040025D094F83D00002528
:1008800020B984F83C50204600F0BAF9242084F8BE
:100890003D002068016821F00101016020680168C5
:1008A00041F4004101602068016821F400410160C9
:1008B00000F066FB4D4A6168914201D84C4900E066
:1008C0004C49884201D2012070BD4B492368B0FBDE
:1008D000F1F15E6826F03F060E435E606368934266
:1008E00006D94FF4967359434FF47A73B1FBF3F181
:1008F0002368491C1E6A26F03F063143196261686D
:10090000914210D84900401EB0FBF1F2521CC2F3D4
:100910000B02042A01D2042022E0B0FBF1F0401CBB
:10092000C0F30B001CE0A268F2B301EBC10303EBC0
:100930000116431EB3FBF6F35B1C43F480431B0517
:1009400049D092B301EBC10202EB0111401EB0FB92
:10095000F1F0401CC0F30B0040F4804040F4004034
:100960002168CA694CF6FF739A431043C861D4E901
:10097000071001432068026822F0C00211430160A1
:10098000D4E9030101432068826848F2FF339A43A7
:1009900011438160D4E9050108432168CA6822F047
:1009A000FF021043C86001E00EE016E02068016815
:1009B00041F0010101602564202084F83D00256399
:1009C00084F83E50002070BD01EB4106431EB3FB8E
:1009D000F6F35B1CB3E70120C2E701EB4101401EC7
:1009E000B0FBF1F0401CC0F30B00B7E7A08601009C
:1009F00080841E0000093D0040420F002DE9FF4F9A
:100A000083B09A46DDE9118793460446DDF84090AD
:100A1000FFF72AFF054694F83D00202870D11923DE
:100A2000012274492046009500F0BCFF0028F5D152
:100A300094F83C00012863D0012084F83C00206831
:100A40000168C90703D1016841F001010160206814
:100A5000016821F400610160222084F83D004020FB
:100A600084F83E0000262664C4F82490A4F82A8066
:100A7000608D20856048E062CDE9007553465A4696
:100A80002046049900F010FF002879D1208DD0B1C4
:100A9000012821D00228206824D041698069009073
:100AA000208D032866D801282BD0544902283B46C4
:100AB0004FF00002009557D08846204600F072FFA4
:100AC00000285DD13AE020684169816900910168A0
:100AD00041F4007101607DE02068016821F48061CB
:100AE0000160F0E7016821F480610160206801681D
:100AF00041F400610160206841698069009069E00B
:100B000075E02A463946204600F0F2FF88BB54E0E3
:100B10002068016841F40071016020680069616A21
:100B20000870606A401C6062218D491E2185618DBC
:100B3000491E618521680969017042E020680168E9
:100B400021F48061016020680069616A0870606A50
:100B5000401C6062208D401E2085608D401E608597
:100B60003B46002241460095204600F01BFF00B99D
:100B7000CEE705E02A463946204600F0B9FF18B115
:100B8000012007B0BDE8F08F20680069616A087035
:100B9000606A401C6062208D401E81B22185608D9C
:100BA000401E608520684269D243520712D403294F
:100BB00003D1016821F48061016020680069616AE5
:100BC0000870606A401C6062208D401E2085608D28
:100BD000401E6085208D00287FF462AF202084F8BD
:100BE0003D0084F83E6084F83C600020C9E70220A4
:100BF000C7E70000020010000000FFFF0400010032
:100C00002DE9F04186B0044614216846FFF7D5FB74
:100C100022683A4C384B0021384812260325042715
:100C200010349A4219D1026842F002020260006850
:100C300002AA00F00200059082E8A200C020CDE9DF
:100C4000000669462E48FFF717FD206840F40010A3
:100C50002060206800F400101AE02A4B9A421BD151
:100C6000026842F020020260006802AA00F0200040
:100C70000590CDE9005682E8A20069462248FFF7B8
:100C8000FBFC206840F480002060206800F48000B5
:100C9000059006B0BDE8F0811C4B9A42F9D1884618
:100CA000016841F004010160016801F0040105914F
:100CB000016841F0010101600068694600F001002F
:100CC000059050158DE84101CDE903571048FFF715
:100CD000D3FC4FF480708DE84101CDE9035769469C
:100CE0000C48FFF7C9FC206840F400002060206831
:100CF00000F40000CCE7000000540040303802400F
:100D0000000402400058004000140240005C004013
:100D10000008024000000240024881680278114445
:100D200081607047240000200B4810B5016841F431
:100D300000710160016841F480610160016841F463
:100D400080710160032000F06FF80F2000F006F8BA
:100D500000F024F8002010BD003C024070B50D4D9D
:100D600004464FF47A712878B1FBF0F00A4909681B
:100D7000B1FBF0F000F00AFB48B9102C07D20022BA
:100D80002146501E00F030F800206C6070BD01203C
:100D900070BD000024000020300000200A4808B583
:100DA000016841F480410160006800F480400090D7
:100DB0000548001F016841F080510160006800F0A3
:100DC0008050009008BD000044380240002809DB34
:100DD00000F01F02012191404009800000F1E02055
:100DE000C0F8001170470000F0B40E4B1B680C46B1
:100DF000C3F30223C3F10705042D00D90425191DEF
:100E0000072901D2002300E0DB1E012606FA05F1C6
:100E1000491E214099409E40761E16403143F0BC49
:100E200001F0EBB90CED00E0064900F0070208689C
:100E30004FF6FF03184040EA0220034A10430860BF
:100E4000704700000CED00E00000FA052DE9F047C6
:100E50000E46050065D0DFF81481D8F80000F7B21F
:100E600000F00700B04207D288F80070D8F8000000
:100E700000F00700B04254D128683D4C810712D5DC
:100E8000400703D5206840F4E05020602878000730
:100E900003D5206840F4604020602068A96820F0F5
:100EA000F000084320602878C0072DD030496868DA
:100EB0000839012812D0022813D0032811D009685C
:100EC000890700292DDA216821F0030101432160FF
:100ED000FFF7CAFC814641F2883A0EE009688903AF
:100EE000EFE709688901ECE7FFF7BEFCA0EB090119
:100EF000514502D90320BDE8F0872068696800F0F9
:100F00000C00B0EB810FEFD1D8F80010404601F093
:100F10000701B14207D90770006800F00700B0422E
:100F200001D00120E7E72878400705D52068E96867
:100F300020F4E050084320602878000706D5206898
:100F4000296920F4604040EAC100206000F038F8D0
:100F50002168084AC1F30311515CC8400649086082
:100F600006480068FFF7FAFE0020C4E7003C024094
:100F700008380240F4270008300000202800002034
:100F80000448054900680968044AC1F38221515C9C
:100F9000C84070473000002008380240042800088C
:100FA0000448054900680968044AC1F34231515CAC
:100FB000C84070473000002008380240042800086C
:100FC000154810B5006810F00C02144813D04110F9
:100FD000042A0FD0082A0ED10F4C241F2268236840
:100FE00002F03F025B0207D52068C0F38810A0FB27
:100FF000010106E0084610BD2168C1F38811A1FB7C
:1010000000010023FFF730F92168C1F30141491CB9
:101010004900B0FBF1F010BD083802400024F40094
:101020002DE9F84F04006ED02078DFF84C93C0070C
:10103000A9F104054AD009F104000168C1F3810156
:10104000012908D00068C0F3810002280AD1D9F82C
:101050000000400206D52868800337D56068002864
:10106000E1D033E06068B0F5803F10D0B0F5A02F3C
:10107000286810D020F480302860286820F4802070
:1010800028606068A8B1FFF7EFFB06460DE028680E
:1010900040F48030F4E740F480202860F7E700BF98
:1010A000FFF7E2FB801B642873D828688003F7D51C
:1010B0000CE0FFF7D9FB064605E000BFFFF7D4FBC5
:1010C000801B6428F0D828688003F7D42078DFF8E4
:1010D000AC8280074FF0000A3ED5A748001D01688A
:1010E00011F00C0F08D00068C0F3810002280BD16A
:1010F000D9F80000400207D42868800716D5E068B8
:10110000012800D112E033E1E068B8B10120C8F84D
:101110000000FFF7A9FB064605E000BFFFF7A4FBB0
:10112000801B0228C0D828688007F7D52868216965
:1011300020F0F80040EAC10028600DE0C8F800A0E7
:10114000FFF792FB064604E0FFF78EFB801B0228A8
:101150001FD828688007F7D42078000722D5864F4B
:1011600087486169703771B101210160FFF77CFB2D
:10117000064604E0FFF778FB801B022809D8386890
:101180008007F7D50EE0C0F800A0FFF76DFB06461C
:1011900005E082E0FFF768FB801B02287DD83868F5
:1011A0008007F7D42078400768D5DFF8CCB1002756
:1011B0000BF13C0BDBF80000C0000BD4DBF8001097
:1011C00041F08051CBF80010DBF80000012700F05F
:1011D000805000906B4E3068C00510D4306840F4E9
:1011E00080703060FFF740FB009005E0FFF73CFBAC
:1011F0000099401A022850D83068C005F6D55E4ED6
:10120000A0686C3601280FD00528306810D020F077
:1012100001003060306820F004003060A068B8B190
:10122000FFF722FB00900FE0306840F00100F4E788
:1012300040F004003060F7E7FFF716FB0099411A11
:1012400041F28830814266D830688007F4D50EE0DC
:10125000FFF70AFB009007E0FFF706FB0099411A31
:1012600041F28830814256D830688007F4D42FB1DB
:10127000DBF8001021F08051CBF80010A069C8B352
:101280003D49091D0968C1F3810102294AD002289C
:10129000504607D0C8F8600000E03CE0FFF7E4FAF1
:1012A00004463BE04746C8F86000FFF7DDFA064613
:1012B00005E000BFFFF7D8FA801B02282BD828686A
:1012C0008001F7D4D4E907010843A16A2E4A4908EE
:1012D00002EB0141626A41EA8211084394F82C1042
:1012E00040EA0161C9F8001001203866FFF7BCFA36
:1012F000044606E03EE000BFFFF7B6FA001B0228F6
:1013000009D828688001F7D534E000BFFFF7ACFAB0
:10131000001B022802D90320BDE8F88F286880014D
:10132000F4D427E00128F7D0D9F80000E26900F4EE
:10133000800191421CD1226A00F03F01914217D1F5
:1013400047F6C071626A0140B1EB821F10D1A26AF8
:101350004FF0FF3300F4403103EB5202B1EB024F88
:1013600006D194F82C1000F07060B0EB016F01D042
:101370000120D1E70020CFE70438024000004742B7
:10138000800E4742007000400000FFFF10B5401E75
:10139000B0F1807F01D3012010BD4FF0E0246061E7
:1013A0000F21601700F029FF0020A06107202061B5
:1013B000002010BD70477047F8B501680446086802
:1013C000CA684B6910F00F0F4FF0000559D003F0B9
:1013D000010602F49077374365D0C10705D0D105E7
:1013E00003D5616C41F001016164410705D5D9075E
:1013F00003D0616C41F002016164810705D5D90712
:1014000003D0616C41F004016164010707D502F06B
:101410002001314303D0616C41F008016164616CCB
:1014200000293AD0800604D5900602D5204600F067
:101430009CFD20684069616CC0F38010090700D4EE
:1014400060B3204600F06AFD20684069400621D55F
:101450002068143050E8001F21F0400140E80012DD
:10146000002AF5D1E06BA8B16E490165E06BFFF78A
:10147000DEF8002811D0E06B016D01B0BDE8F0404E
:10148000084783060FD593060DD52046BDE8F840E2
:1014900000F06BBD2046FFF78EFFF8BD2046FFF73A
:1014A0008AFF6564F8BD266B2023012E7DD1C60618
:1014B0007BD5D60679D508684868009048694FF012
:1014C0000206400641D5E16B086840680004000C44
:1014D000E8D0A28D8242E5D9E085C869B0F5807F69
:1014E0002DD020680C3050E8001F21F4807140E8B6
:1014F0000012002AF5D12068143050E8001F21F0B6
:10150000010140E80012002AF5D12068143050E8AB
:10151000001F21F0400140E80012002AF5D184F8B4
:101520004230256320680C3050E8001F21F0100184
:1015300040E80012002AF5D1E06BFFF72FF8666350
:10154000A08DE18D401A81B22AE0A08DE18D401A74
:1015500081B2E08D0028A5D00029A3D022680C32EA
:1015600052E8000F20F4907042E80007002FF5D1F8
:101570002068143050E8002F22F0010240E80027D4
:10158000002FF5D184F84230256320680C3050E8F4
:10159000002F22F0100240E80023002BF5D16663F3
:1015A0002046FFF707FFF8BDFFE705062BD5150618
:1015B00029D594F841002128F5D1A068B0F5805FC5
:1015C00001D12069B0B1206A411C216221680078F4
:1015D0004860E08C401E0004000CE084E3D12068E9
:1015E000C16821F08001C1602068C16841F04001FC
:1015F000C160D8E7206A0088C0F308004860206A0C
:10160000801C2062E5E74006CDD55006CBD5CA68E0
:10161000204622F04002CA6084F8413000F02AF9E6
:10162000C1E700000D1F000870B5040004D094F855
:101630004100002510B106E0012070BD84F8405043
:10164000204600F023F8242084F841002068C16877
:1016500021F40051C160204600F0E8FC20680169D7
:1016600021F4904101612068416921F02A01416122
:101670002068C16841F40051C1606564202084F88D
:10168000410084F842006563002070BDF0B587B06A
:10169000044614216846FEF790FE2B48294F266821
:1016A000002229491038022303240725BE4220D1F5
:1016B0000E6846F400360E60096801F400310591A9
:1016C000016841F001010160006802AE00F0010014
:1016D00005900C20CDE9000386E8340069461B48DC
:1016E000FEF7CAFF002211462620FFF77DFB2620C9
:1016F00023E0174FBE4222D10E6846F480260E60CA
:10170000096801F480210591016841F0020101603E
:10171000006802AE00F0020005904FF44060CDE991
:10172000000386E8340069460A48FEF7A5FF002258
:1017300011462720FFF758FB2720FFF747FB07B08C
:10174000F0BD00000044004040380240000002406C
:10175000004800400004024090F84230202B01D0A5
:101760000220704721B11AB10023036300F0E4BCEA
:10177000012070470068144988421FD1134901F1C4
:101780000C000A7822B1012A07D0022A11D015E0F4
:1017900000780A2812D101200FE00C4A4378921CED
:1017A000137083785370C37893700079D0700220DF
:1017B00003E04079FE2801D1002008700349062289
:1017C0000C310348FFF7C8BF00480040100000205C
:1017D0008C0100202DE9F843044690F8410098461A
:1017E00016460D46202802D00220BDE8F88385B1B8
:1017F0007EB100206064212084F84100FFF734F8B6
:10180000A6848146E684A0682027B0F5805F02D0D8
:1018100003E00120E9E7206910B12E4600250EE023
:1018200000260CE08021204600F0A1FCA8B9C6B13A
:1018300016F8010B21684860E08C401EE084E08CC3
:101840004B464FF00002CDF800800028EAD14FF05F
:101850004001204600F08BFC40B184F84170032029
:10186000C3E735F8020BC0F30800E3E784F84170E2
:101870000020BAE77047FEE701684A69D243520583
:101880000FD46FF480624A61002140F8301F20229B
:1018900042738173026942F0040202610173012004
:1018A00070470020704700002DE9F84F044600689B
:1018B00089460B9D01689846174641F48061016096
:1018C0002068016841F48071016000954FF0011BB0
:1018D0000022594620460A9B00F064F84FF4007A33
:1018E00040B120680068C00501D5C4F840A00320BD
:1018F000BDE8F88F216809F0FE0008612B462849F1
:1019000020460A9A00F096F8F0BB20684169806989
:1019100000902A4620460A9900F022F940B1206C36
:1019200004283AD12068016841F40071016034E074
:10193000FEB2B8F1010F09D02168380A08612A46C1
:1019400020460A9900F00CF90028E8D120680661C9
:101950002A4620460A9900F003F90028DFD12068C2
:10196000016841F4807101600095002259462046CB
:101970000A9B00F017F80028B3D1216809F0FF0096
:1019800040F00100086100E007E02B4604492046D2
:101990000A9A00F04FF80028AAD00120A8E700001A
:1019A000020001002DE9F047984617460D4604460F
:1019B000C1F30746DDF820902AE000BFB8F1FF3FF1
:1019C00026D0FEF751FFA0EB0901414502D8B8F13E
:1019D000000F1DD12068012E16D0806925EA000075
:1019E0000004000C12D00020B84211D1002044F8AD
:1019F000300F20216173A073216941F02001216122
:101A000020730120BDE8F0874069E7E70120EBE79C
:101A10002068012E0AD0806925EA00000004000C2D
:101A200006D00020B842C9D00020EBE74069F3E7B8
:101A30000120F7E72DE9F047984616460D46044683
:101A40004FF000094FF0200AC1F3074723E0206858
:101A50004069C043400515D42068016841F4007115
:101A6000016021686FF480604861C4F8309084F8A8
:101A70003DA084F83E90216C41F00401216484F87B
:101A80003C9021E0701C06D0FEF7EEFEA0EB0800B3
:101A9000B04203D816B1012F1FD021E02068012FDA
:101AA00015D0806925EA00000004000C18D000BFA2
:101AB00044F8309F84F80DA084F80E90216941F01D
:101AC0002001216184F80C900120BDE8F087406975
:101AD00025EA00000004000CEAD12068406901E01A
:101AE0002068806925EA00000004000CAFD1ECE713
:101AF0002DE9F041002590460E460446202728E0B7
:101B00004069C043C0060CD454F8301B6FF010007D
:101B1000486144F810596777A577206A20622577D5
:101B200014E0FEF7A1FEA0EB0800B04200D886B991
:101B300020684069C04340060BD544F8305F6773A6
:101B4000A573206940F02000206125730120BDE8C5
:101B5000F08120684169C9434906D1D40020F6E7E5
:101B600070B516460D4604461EE02046FFF784FE7B
:101B700008B1012070BD681C16D0FEF775FE801BF1
:101B8000A84200D885B920684069C04300060BD53B
:101B9000002044F8300F20216173A073216941F0C7
:101BA000200121612073E4E720684069C0430006FA
:101BB000DBD4002070BD0000154808B5016841F075
:101BC00020010160016801F020010091016841F0ED
:101BD00080010160016801F080010091016841F01D
:101BE00001010160016801F001010091016841F00B
:101BF00002010160016801F002010091016841F0F9
:101C000004010160006800F00400009008BD0000BD
:101C1000303802400D4810B50B4901600C49416055
:101C200000214FF480428160C0E90312416181616B
:101C3000C1610162FEF71EFE002803D0BDE810401E
:101C4000FEF785BC10BD0000005400404800002095
:101C5000801A06000D4810B50B4901600C4941601F
:101C600000214FF480428160C0E90312416181612B
:101C7000C1610162FEF7FEFD002803D0BDE81040FF
:101C8000FEF765BC10BD0000005800409C0000201D
:101C9000801A06000D4810B50B4901600C494160DF
:101CA00000214FF480428160C0E9031241618161EB
:101CB000C1610162FEF7DEFD002803D0BDE81040DF
:101CC000FEF745BC10BD0000005C0040F0000020A5
:101CD000801A06000C4810B50A4901604FF4E13142
:101CE0004160002181600C22C160C0E90412816161
:101CF000C161FFF799FC002803D0BDE81040FEF752
:101D000026BC10BD00440040440100200C4810B522
:101D10000A4901604FF4E1314160002181600C22E9
:101D2000C160C0E904128161C161FFF77DFC002838
:101D300003D0BDE81040FEF70ABC10BD00480040CB
:101D40008C010020FEE7FEE7704700000FB42A2256
:101D500030B5A9B02CA911A8FEF7FDFABDF8DA003C
:101D6000ADF86E0037981C9038981D9039A909225B
:101D70000D461EA8FEF7EFFA9DF8ED008DF88100E4
:101D80009DF8EE008DF882003C9821903D982290BD
:101D90003E9823903F98249040982590442215A97E
:101DA0006846FEF7D8FA11AC94E80F0000F036FA56
:101DB000284CE8B32A222CA913A8FEF7CCFABDF8C8
:101DC000DA00ADF8760037981E9038981F900922F7
:101DD000294620A8FEF7BFFA9DF8ED008DF889008E
:101DE0009DF8EE008DF88A003C9823903D98249051
:101DF0003E9825903F982690409827904C2215A910
:101E00006846FEF7A8FADDE913230D210C2000F047
:101E1000FFFA00EE100ADFED100ADFED101AB8EE3F
:101E2000400A84ED000A20EE201A81EE210A00E02B
:101E30000AE0B5EEC00A84ED010AF1EE10FA03D211
:101E400030EE200A84ED010A94ED010A29B030BC7D
:101E50005DF814FB040000200000B44300F07F454F
:101E60007047FEF759BF000030B593B03021684687
:101E7000FEF7A3FA14210CA8FEF79FFA1D480025CF
:101E8000016841F080510160006800F080501190BD
:101E90001948016841F4804101600068022400F49F
:101EA0008040119001200090000401908001CDE954
:101EB000064008AA0420A82182E813000B90684677
:101EC000FFF7AEF808B172B6FEE70CA90F2081E863
:101ED00031004FF4A0500F904FF480501090052126
:101EE0000CA8FEF7B3FF002801D072B6FEE713B0CE
:101EF00030BD0000403802400070004002480168D8
:101F000041F470010160704788ED00E010B5806B0E
:101F10000021C185C184FFF74EFA10BD01680C3164
:101F200051E8002F22F4907241E80023002BF5D1F4
:101F30000168143151E8002F22F0010241E800232A
:101F4000002BF5D1016B012909D101680C3151E851
:101F5000002F22F0100241E80023002BF5D12021B0
:101F600080F8421000210163704708B590F84210D4
:101F7000222901D0022008BD82684FF480539A4282
:101F800001D1016921B1816A9A421BD04AB10AE0AC
:101F90000268816A5268C2F308020A80816A891C59
:101FA00008E0026972B10268526802F07F020A70AA
:101FB000816A491C8162C18D491E0904090CC185D1
:101FC00003D01BE002685268F1E70168CA6822F09A
:101FD0002002CA600168CA6822F48072CA6001687F
:101FE0004A6922F001024A61202180F84210002152
:101FF0004163026B012A03D0FFF7BCFB002008BD40
:10200000016301680C3151E8002F22F0100241E811
:102010000023002BF5D101680A68D20602D50A68B0
:1020200049680091818DFFF7C5F9E7E770B504466F
:1020300000680169E26821F440511143016121699E
:10204000A068E26908436169114308432168CA68CE
:1020500049F20C639A430243CA6020684169A2694D
:1020600021F440711143416131492068884202D016
:102070003049884202D1FEF793FF01E0FEF780FF6E
:10208000E2690023192164253226B2F5004F626807
:1020900028D0A0FB0101930F9200FEF7E5F801465E
:1020A000B0FBF5F06FF01802504301EB800006EB37
:1020B0000010B0FBF5F000F0F002B1FBF5F002EB20
:1020C0000012B1FBF5F06FF01803584301EB8000EC
:1020D00006EB0010B0FBF5F000F00F002168104493
:1020E000886070BDA0FB010192185B41FEF7BCF84F
:1020F0000146B0FBF5F00201B1FBF5F06FF01803FB
:10210000584301EB800006EBC000B0FBF5F000F097
:10211000F80002EB4002B1FBF5F0584301EB800000
:1021200006EBC000B0FBF5F000F00700D6E70000BA
:10213000001001400014014081628285C2850021A7
:102140004164222180F84210016921B10168CA6806
:1021500042F48072CA6001684A6942F001024A6131
:102160000068C16841F02001C160002070472DE97E
:10217000F843984617460D460446089E24E0701C16
:1021800022D0FEF771FBA0EB0800B0421AD8CEB106
:102190002068C168490717D5802D15D0402D13D070
:1021A0000168C94309070FD4016800254068009001
:1021B0002046FFF7B3FE0820606484F840500120F9
:1021C000BDE8F8830320FBE72068006835EA0000DB
:1021D00004D00020B842D2D00020F1E70120F9E776
:1021E0000148FFF7E9B80000440100200148FFF76B
:1021F000E3B800008C010020FEE70907090E002863
:1022000004DB00F1E02080F80014704700F00F00BC
:1022100000F1E02080F8141D704700000FB42A225E
:1022200000B5A7B028A912A8FEF795F8BDF8CA0016
:10223000ADF8720033981D9034981E90092235A98C
:102240001FA8FEF788F89DF8DD008DF885009DF841
:10225000DE008DF8860038982290399823903A98BD
:1022600024903B9825903C982690482215A96846D2
:10227000FEF771F80DF1480C0B209CE80E0000F001
:10228000B1F8810603D5012027B05DF814FB04499D
:102290009FED020A81ED010AF6E700000000C84345
:1022A00004000020ACB0FEF73FFDFFF7DDFDFFF7B7
:1022B00083FCFFF7AFFCFFF7CDFCFFF7EBFCFFF76C
:1022C00009FDFFF723FD06223F494048FFF744FA86
:1022D0003F4C22A904F134003F4D3B4FCDE92A1079
:1022E0000DF1640B3B4E05F1340A8946D8460C3F8C
:1022F0002A22374915A8FEF72EF8608DADF87E002A
:10230000E06A2090206B2190DDE92A010922FEF786
:1023100022F894F83D008DF8910094F83E008DF875
:102320009200206C2590606C2690A06C2790E06C49
:102330002890206D2990442259466846FEF70BF8F4
:102340000DF1540C9CE80F00FFF700FD86ED000A2C
:102350002A22214915A8FDF7FEFF688DADF87E0001
:10236000E86A2090286B2190092251464846FDF7E3
:10237000F2FF95F83D008DF8910095F83E008DF83C
:102380009200286C2590686C2690A86C2790E86CC9
:102390002890286D2990442241466846FDF7DBFFCE
:1023A0000DF1540C9CE80F00FFF7D0FC87ED020AFA
:1023B000FEF78CF83223112208490948FFF70AFA80
:1023C000FA20FEF747F993E71C0000208C0100205B
:1023D000480000200C0000209C0000203400002059
:1023E000440100200FB41FB500218DF80C10FF230D
:1023F000012203A98DE80E00134602466C2107A8AE
:10240000FEF7FCFA9DF80C0004B010BC5DF814FB5C
:102410000FB42A2270B5A8B00E4604462EA912A801
:10242000FDF799FFBDF8E200ADF8720039981D90F4
:102430003A981E903BA909220D461FA8FDF78BFF75
:102440009DF8F5008DF885009DF8F6008DF8860062
:102450003E9822903F982390409824904198259050
:1024600042982690482215A96846FDF774FF0DF1A1
:10247000480C20469CE80E00FFF7B4FF00F00F0464
:102480002A222EA912A8FDF766FFBDF8E200ADF8DA
:10249000720039981D903A981E90092229461FA86B
:1024A000FDF759FF9DF8F5008DF885009DF8F600C1
:1024B0008DF886003E9822903F9823904098249073
:1024C0004198259042982690482215A96846FDF724
:1024D00042FF12AD304695E80E00FFF783FF28B0AB
:1024E00040EA042070BC5DF814FB4FF04070E1EE50
:1024F000100A7047005EBCE2613FDD83C29C7E2013
:10250000A3FD1F419DC3217FFCA2401E5F01E3BDCF
:102510003E6082DC237D9FC1421CFEA0E1BF5D03C3
:1025200080DE3C62BEE0025CDF81633D7C22C09EB7
:102530001D43A1FF4618FAA427799BC584DA3866A3
:10254000E5BB5907DB856739BAE406581947A5FB8F
:102550007826C49A653BD987045AB8E6A7F91B4583
:10256000C6987A24F8A6441A99C7257B3A6486D877
:102570005B05E7B98CD2306EEDB3510F4E10F2AC63
:102580002F7193CD114FADF3702ECC92D38D6F314F
:10259000B2EC0E50AFF1134DCE90722C6D33D18F43
:1025A0000C52B0EE326C8ED0530DEFB1F0AE4C1237
:1025B00091CF2D73CA947628ABF517490856B4EA23
:1025C0006937D58B5709EBB536688AD495CB29770F
:1025D000F4AA4816E9B7550B88D6346A2B7597C903
:1025E0004A14F6A8742AC896154BA9F7B6E80A54F7
:1025F000D7896B350000891112239B322446AD57D1
:102600003665BF74488CC19D5AAFD3BE6CCAE5DB3A
:102610007EE9F7F88110080193331A22A5562C475A
:10262000B7753E64C99C408DDBBF52AEEDDA64CB1A
:10263000FFF976E802218B30100299132667AF76F6
:102640003444BD554AADC3BC588ED19F6EEBE7FAFA
:102650007CC8F5D983310A2091121803A7772E661A
:10266000B5543C45CBBD42ACD99E508FEFFB66EADA
:10267000FDD874C904428D5316619F702004A915BA
:102680003227BB364CCEC5DF5EEDD7FC6888E199BA
:102690007AABF3BA85520C4397711E60A1142805DA
:1026A000B3373A26CDDE44CFDFFD56ECE99860899A
:1026B000FBBB72AA06638F7214409D512225AB3476
:1026C0003006B9174EEFC7FE5CCCD5DD6AA9E3B87A
:1026D000788AF19B87730E6295501C41A3352A249A
:1026E000B1163807CFFF46EEDDDC54CDEBB962A85A
:1026F000F99A708B088481951AA793B62CC2A5D33A
:102700003EE1B7F04008C919522BDB3A644EED5F49
:10271000766DFF7C899400859BB712A6ADD224C349
:10272000BFF136E0C1184809D33B5A2AE55E6C4F29
:10273000F77D7E6C0AA583B4188691972EE3A7F2E5
:102740003CC0B5D14229CB38500AD91B666FEF7E09
:10275000744CFD5D8BB502A499961087AFF326E209
:10276000BDD034C1C3394A28D11A580BE77F6E6EE9
:10277000F55C7C4D0CC685D71EE597F42880A191A9
:102780003AA3B3B2444ACD5B5669DF78600CE91DC9
:10279000722FFB3E8DD604C79FF516E4A9902081C9
:1027A000BBB332A2C55A4C4BD7795E68E11C680DA9
:1027B000F33F7A2E0EE787F61CC495D52AA1A3B065
:1027C0003882B193466BCF7A5448DD59622DEB3C89
:1027D000700EF91F8FF706E69DD414C5ABB122A089
:1027E000B9923083C77B4E6AD5585C49E33D6A2C69
:1027F000F11E780F00000000000000000102030439
:102800000607080900000000010203042C28000844
:102810000000002034000000C40100086028000807
:102820003400002004080000E0010008FFFF000061
:102830000000000000000000000000000000000098
:102840000000000000000000000000000000000088
:102850000100000010000000000000000024F4004F
:040000050800018965
:00000001FF
