:020000040800F2
:1000000088530020290300085342000841390008A2
:10001000D14100080B0600082D4D0008000000002B
:10002000000000000000000000000000690200085D
:100030009110000800000000C502000801440008FB
:100040004303000843030008430300084303000878
:100050004303000843030008430300084303000868
:100060004303000893100008991000084303000898
:10007000110D0008430300081D0D0008430300088C
:100080004303000843030008430300085506000823
:100090004906000843030008430300089F100008B6
:1000A000D144000843030008430300084303000849
:1000B000ED440008F9440008430300084303000826
:1000C00043030008430300084303000855420008A7
:1000D00043030008CD4A000843030008D94A00083A
:1000E00043030008430300084303000805450008D4
:1000F00011450008430300084303000843030008B8
:1001000043030008430300084303000843030008B7
:1001100043030008430300084303000843030008A7
:10012000290D0008350D0008510D00085D0D00086F
:10013000430300084303000843030008A90600081E
:100140009D0600084303000843030008430300081A
:1001500043030008690D0008750D00083D4C0008B8
:100160004303000843030008430300084303000857
:100170004303000843030008430300080000000095
:10018000430300084303000800F002F800F05CF8A5
:100190000AA090E8000C82448344AAF10107DA45E2
:1001A00001D100F051F8AFF2090EBAE80F0013F0D8
:1001B000010F18BFFB1A43F001031847AC68000099
:1001C000CC6800000A444FF0000C10F8013B13F01B
:1001D000070408BF10F8014B1D1108BF10F8015BA0
:1001E000641E05D010F8016B641E01F8016BF9D193
:1001F00013F0080F1EBF10F8014BAD1C0C1B09D1EA
:100200006D1E58BF01F801CBFAD505E014F8016B5B
:1002100001F8016B6D1EF9D59142D6D370470000ED
:100220000023002400250026103A28BF78C1FBD8FF
:10023000520728BF30C148BF0B6070471FB506F09A
:1002400028FA1FBD10B510BD00F0A6F91146FFF742
:10025000F5FF04F003FE00F0C4F903B4FFF7F2FF6A
:1002600003BC00F0CBF900002C4B19680868B0E81B
:10027000F04F80F30988BFF36F8F4FF0000080F3D9
:10028000118870470000000008480068006880F38B
:1002900008884FF0000080F3148862B661B6BFF39F
:1002A0004F8FBFF36F8F00DF00BF00BF08ED00E08E
:1002B000DFF80C00016841F470010160704700BF75
:1002C00088ED00E0EFF30980BFF36F8F134B1A68DE
:1002D0001EF0100F08BF20ED108A20E9F04F1060CB
:1002E00009B44FF0500080F31188BFF34F8FBFF374
:1002F0006F8F05F0EDFA4FF0000080F3118809BC14
:1003000019680868B0E8F04F1EF0100F08BFB0EC95
:10031000108A80F30988BFF36F8F70472400002094
:10032000EFF30580704700000948804709480047FF
:10033000FEE7FEE7FEE7FEE7FEE7FEE7FEE7FEE795
:10034000FEE7FEE704480549054A064B70470000F2
:10035000C144000889010008884D0020885300200E
:10036000884F0020884F002053EA020C00F069807B
:100370002DE9F04B4FF00006002B1FBFB3FA83F5B9
:1003800003FA05F424FA05F65E4012BF1643B2FAEA
:1003900082F502FA05F4C5F120051EBF22FA05FC1C
:1003A00044EA0C04203556EA044C4FEA144418BFC2
:1003B000641C4FF000084FF00009904271EB030CF1
:1003C00039D3002919BFB1FA81F701FA07F6B0FA5B
:1003D00080F700FA07F6C7F120071EBF20FA07FCD6
:1003E00046EA0C062037B6FBF4FCA7EB0507103FE6
:1003F00007F01F0BCBF120060CFA0BFB2CFA06F6CC
:1004000044BFB3460026202FA4BF5E464FF0000B2A
:100410005BEA060C08BF4FF0010B19EB0B09ABFBB5
:10042000027C48EB0608C01B06FB02CC0BFB03CC8E
:1004300071EB0C01C1E70B46024641464846BDE858
:10044000F08B13B54FF000004FF00001AFF30080C8
:10045000BDE81C407047032A40F2308010F0030CC6
:1004600000F0158011F8013BBCF1020F624498BF07
:1004700011F801CB00F8013B38BF11F8013BA2F1A4
:10048000040298BF00F801CB38BF00F8013B11F01F
:10049000030300F02580083AC0F0088051F8043BBF
:1004A000083A51F804CBA0E80810F5E7121D5CBF2C
:1004B00051F8043B40F8043BAFF30080D20724BF5F
:1004C00011F8013B11F801CB48BF11F8012B24BFF3
:1004D00000F8013B00F801CB48BF00F8012B704742
:1004E00010B5203AC0F00B80B1E81850203AA0E8CF
:1004F0001850B1E81850A0E81850BFF4F5AF5FEA03
:10050000027C24BFB1E81850A0E8185044BF18C9B5
:1005100018C0BDE810405FEA827C24BF51F8043B5C
:1005200040F8043B08BF7047D20728BF31F8023BB0
:1005300048BF11F8012B28BF20F8023B48BF00F844
:10054000012B70474FF0000200B5134694469646C3
:10055000203922BFA0E80C50A0E80C50B1F12001D6
:10056000BFF4F7AF090728BFA0E80C5048BF0CC084
:100570005DF804EB890028BF40F8042B08BF7047E2
:1005800048BF20F8022B11F0804F18BF00F8012B54
:100590007047704770477047754600F02BF8AE46BD
:1005A00005006946534620F00700854618B020B57F
:1005B000FFF7C8FEBDE820404FF000064FF00007EF
:1005C0004FF000084FF0000B21F00701AC46ACE8FB
:1005D000C009ACE8C009ACE8C009ACE8C0098D4668
:1005E000704710B50446AFF300802046BDE81040C8
:1005F000FFF733BE00487047284D002001491820FE
:10060000ABBEFEE7260002007047FEE700B58BB0E8
:1006100000200121CDE90601059000900190029093
:10062000039004900E20CDE908106946054800F0BB
:100630003BFE0221034800F0C1FD024801F0A4F98D
:100640000BB000BD34070020014800F028BF0000B7
:1006500034070020014800F022BF000034070020CA
:1006600000B58BB001220E2100200792CDE90510C4
:1006700003900490CDE90821009001900290694612
:10068000054800F011FE0221034800F097FD0248E2
:1006900001F07AF90BB000BD5C070020014800F0C2
:1006A000FEBE00005C070020014800F0F8BE00001C
:1006B0005C07002070B5BE4CBE482DED088BB0EE37
:1006C000409AF0EE609A94ED020A84ED040A006804
:1006D0009FEDB90A606184ED060A9FEDB80AB8493A
:1006E000B84E84ED070A04F14005884208DDBDECF0
:1006F000088B28464FF48051BDE8704003F06ABD76
:10070000B5F90600B6F92A10401A05F052FD41EC81
:10071000100B04F04EFBB5F90400B0EE408AF0EE89
:10072000608AB6F91E10401A05F043FD41EC100B2B
:1007300004F03FFBB5F90200B0EE40BAF0EE60BA4B
:10074000B6F91210401A05F034FD41EC100B04F01C
:1007500030FBB0EE401AF0EE601AB5F90000B0EED2
:1007600041AAF0EE61AAB6F90610401A05F021FD83
:1007700041EC100B04F01DFB53EC1A2B51EC100B49
:1007800005F0A0FA53EC1B2B05F09CFA53EC182B48
:1007900005F098FA41EC100B84ED120B9FED8A1BCB
:1007A00053EC112B05F09AFC36D0B5F90000B6F9E0
:1007B0000610401A05F0FDFC94ED128B53EC182B3B
:1007C00005F034FBC4E90801B5F90200B6F91210CE
:1007D000401A05F0EEFC53EC182B05F027FBC4E99A
:1007E0000A01B5F90400B6F91E10401A05F0E1FC43
:1007F00053EC182B05F01AFBC4E90C01B5F90600FF
:10080000B6F92A10401A05F0D4FC53EC182B05F069
:100810000DFBC4E90E0109E09FED6D0B84ED080BA3
:1008200084ED0A0B84ED0C0B84ED0E0B94ED120B92
:1008300053EC192B51EC100B05F0F8FA05F010FAF7
:10084000F7EE000AA060B0F17E5F02DDC4ED020A9F
:1008500006E010F1814F03D9BFEE000A84ED020AD1
:1008600094ED060A5C4910EE100A0844B0F5201F0A
:1008700002D29FED5A0A34E010EE100A584908449B
:10088000B0F5A01F02D2B6EE080A2AE010EE100A58
:1008900054490844B0F5E01F02D2B6EE000A20E049
:1008A00010EE100A50490844B0F5A00F02D2B5EE80
:1008B000000A16E010EE100A4C490844B0F5000F8B
:1008C00002D2B4EE000A0CE010EE100A4749494289
:1008D000884209DAB5EEC00AF1EE10FA04DB9FEDAA
:1008E000440A84ED030A01E0C4ED030AE06805460A
:1008F00005F05EFE94ED070AD4ED020A41EC190BF7
:1009000020EE208A18EE100A05F052FE94ED081B26
:1009100053EC112B05F064FC53EC192B05F060FC33
:1009200005F018FC7080284605F042FE41EC190BDA
:1009300018EE100A05F03CFE94ED0A1B53EC112B47
:1009400005F04EFC53EC192B05F04AFC05F002FCB7
:10095000F081284605F02CFE41EC190B18EE100A28
:1009600005F026FE94ED0C1B53EC112B05F038FC22
:1009700053EC192B05F034FC05F0ECFB7083284692
:1009800005F016FE41EC190B18EE100A05F010FEEA
:1009900094ED0E1B53EC112B05F022FC53EC192B9C
:1009A00005F01EFC05F0D6FBF084BDEC088B70BD95
:1009B000900000203C010020000070420060704761
:1009C00000007044B401002000000000000000009E
:1009D000000000000000D03F0000E0BD6666663FFA
:1009E0000000F4BD000010BE000060BE0000E0BECC
:1009F000CDCC4C3DF0B52F48DFED2D0AB2EE040A08
:100A000002882D482AB190ED021A31EE001A80EDCD
:100A1000021A2A490B882BB190ED031A31EE001A05
:100A200080ED031A26490C882CB190ED001A31EEA6
:100A3000001A80ED001A23490D882DB190ED011A9E
:100A400031EE001A80ED011A1F490E882EB190ED8B
:100A5000041A31EE001A80ED041A1C490F882FB1D8
:100A600090ED051A31EE000A80ED050A5FF00001F5
:100A700000EB810C9CED000AB4EEE00AF1EE10FAF6
:100A800001DDCCED000A491C0629F1DB1A432243A3
:100A90002A4332430BD1002F09D100219FED0C0ACC
:100AA00000EB8102491C82ED000A0629F8DBF0BD4B
:100AB00000606A460E0100209C4A002010010020C0
:100AC000120100201401002016010020180100204E
:100AD000000000002DE9F0476E4D6F4E2DED088BA4
:100AE000B5F90400323064281DD8B5F9060032305B
:100AF000642818D8B5F90800322814DC10F1320F38
:100B000011DB6648664900880988084365490988F9
:100B1000084365490988084364490988084302D1A4
:100B20006348008828B1A87A02283FD0032840D023
:100B300041E00024DFF87C914FF4347AA04600BFF6
:100B400004EB440109EB8107B7F9060000F5B47125
:100B500051451BD9584921F8148000EE100A31F98B
:100B60001400F8EEC00A00EE100A04EB84005349AA
:100B700000EBC400B8EEC00A01EB800004F0E2F91B
:100B8000BDEEC00A10EE100A788001E0A7F80280DE
:100B9000641C042CD4DB00209FED490A06EB800185
:100BA000401C81ED000A0628F8DB04E004F0A6FCF6
:100BB00001E0FFF71FFFF06805F0FAFC41EC1A0BAB
:100BC000B06805F0F5FC41EC1B0BB5F9060040429E
:100BD00005F0EFFA9FED3B8B53EC182B05F026F94F
:100BE0009FED3A9B53EC192B05F0FAFA53EC1B2BB3
:100BF00005F0F4FB53EC1A2B05F064F805F0AAFAA3
:100C00002D4C403C6080706805F0D2FC41EC1A0B22
:100C1000306805F0CDFC41EC1B0BB5F9040005F084
:100C2000C8FA53EC182B05F001F953EC192B05F019
:100C3000D7FA53EC1B2B05F045F853EC1A2B05F0B3
:100C4000CDFB05F087FA2080706905F0B1FC41EC1E
:100C50001A0B306905F0ACFC41EC1B0BB5F9080030
:100C6000404205F0A6FA53EC182B05F0DFF853ECE0
:100C7000192B05F0B5FA53EC1B2B05F023F853ECB8
:100C80001A2B05F0ABFB05F065FAA080BDEC088BD4
:100C9000BDE8F087744C00209C4A00200E01002023
:100CA0001001002012010020140100201601002074
:100CB00018010020B4010020D0000020740300209F
:100CC000000000000000000000A0844000000000C0
:100CD000004CCD400D4801884288114482880A4466
:100CE00000F140010A8002884388D21A83881A449E
:100CF0004A80428803881A4483889A1A8A804288E4
:100D000003888088D21A1044C88070479000002061
:100D1000014800F0C7BE0000E40B0020014800F0CD
:100D2000C1BE0000440C0020014800F0BBBE000022
:100D30009008002010B5044800F0A0F9BDE810406C
:100D4000024800F0AFBE0000E00A0020A40C002022
:100D5000014800F0A7BE0000840B0020014800F00D
:100D6000A1BE000030080020014800F09BBE00003A
:100D7000040D0020014800F095BE0000240B002067
:100D80002DE9F04F85680024099E802D18D0894DEB
:100D9000C563894D456490F83450012D15D0012567
:100DA00080F8345090F83550012D10D0002180F893
:100DB00034100224002180F834102046BDE8F08F62
:100DC0004FF4807141650120F8E70220F6E7022523
:100DD00080F835500025456505682F6847F4802761
:100DE0002F6005682B6103685E608368402B036891
:100DF0002AD099600168CA60714D704E704FDFF85B
:100E0000BC81DFF8B891DFF8B8A1DFF8B4B1EA141B
:100E1000DFF8A8E10168183630379302A9F14809D4
:100E20000AF1600A0BF1180BAEF1300E4FF0006CB6
:100E300041452DD9A94205D0494503D0514501D09E
:100E4000B14205D1202220E09A600268D160D3E748
:100E500059451AD0714518D0594D7835A94214D04A
:100E6000564D3035A94210D0B9420BD0534A183AEA
:100E7000914207D0524A9032914203D04F4A4832B1
:100E8000914201D11A4600E062464C494C392EE0AD
:100E9000DFF82C8108F1A80841452AD9A94205D0DC
:100EA000494503D0514501D0B14201D120221CE077
:100EB00059451AD0714518D0414D7835A94214D002
:100EC0003E4D3035A94210D0B9420BD03B4A183ABA
:100ED000914207D03A4A9032914203D0374A483281
:100EE000914201D11A4600E06246344950390A6005
:100EF0005AE0DFF8CC8008F1480841452AD9A942D8
:100F000005D0494503D0514501D0B14201D120223D
:100F10001CE059451AD0714518D0294D7835A942A1
:100F200014D0264D3035A94210D0B9420BD0234AF7
:100F3000183A914207D0224A9032914203D01F4A78
:100F40004832914201D11A4600E062461C491039EC
:100F5000CA6029E0A94205D0494503D0514501D0D6
:100F6000B14201D120221CE059451AD0714518D058
:100F7000134D7835A94214D0104D3035A94210D008
:100F8000B9420BD00D4A183A914207D00C4A903220
:100F9000914203D0094A4832914201D11A4600E0F9
:100FA0006246074910398A6001680A6842F0010206
:100FB0000A60FFE6C94D0008154E0008586402405B
:100FC0001060024001681823CAB2103AB2FBF3F273
:100FD000054B6FF30901032A9B5CC36500D9091D0A
:100FE00081650846704700001867000810B5014683
:100FF00000208B698A6A4FF0C07453B1B3F5005F6B
:1010000015D072B1012A0CD0022A0AD0032A09D1C4
:1010100004E01AB1012A06D0022A03D1C96AC90123
:1010200000D5012010BDC96AA142FAD010BD002A26
:10103000F7D0012AF2D0022AF3D0032AF3D010BD50
:1010400030B50468256825F4802525600468636050
:101050008368402B036803D099600068C26030BD8C
:101060009A600068C16030BD01680A68D20604D584
:10107000C968C90601D504F0B1BA704701680A68A9
:10108000D20604D5C968C90601D504F0A7BA7047CD
:101090007047082000F078BE102000F075BE2020B8
:1010A00000F072BE72B6FEE711489FED120ADFED46
:1010B000130A0188104811B180EC020A06E01049B9
:1010C000098819B1C0ED000A80ED010A0D490988AF
:1010D00021B180ED020AC0ED030A70470A49098870
:1010E0000029FAD0C0ED020A80ED030A7047000023
:1010F0002A01002000C055444401002000C055C40E
:1011000026010020220100202C01002070B5154E80
:10111000002400BF04EB440006EB8005B5F906008F
:10112000411D0B2918D311499FED0F0A01EB8401D2
:1011300000EE900A81ED000A04EB84000C4900EBFC
:10114000C400F8EEE00A01EB800003F0FBFEBDEE08
:10115000C00A10EE100A00E00020641C6880042C15
:10116000D8DB70BD600100200000000044010020B9
:101170000802002010B558B1084C491E0BD310F8D6
:10118000013B5340DBB234F8133083EA1222F4E718
:101190004FF6FF7010BD104610BD00003868000803
:1011A00010B5054C04E000BF10F8013B5340E25C71
:1011B000491EF9D2104610BD3867000890F820206B
:1011C000012A07D0022A05D0416A41F480214162F8
:1011D00001207047006842690A434261002070475D
:1011E000F0B590F820500468A468012D05D0022DB8
:1011F00003D0416A41F4802153E014F0406F01D1E3
:10120000E5004BD5C4F30164022C03D9416A41F4D3
:10121000000146E00125A5401D608D684FF4C073B4
:101220009DB1CE6835434E6845EAC605066803EBB6
:101230000417F5514FF4C275076805EB04150E69E4
:101240007E51097D012905D009E00E88CD6845EA67
:101250004655EBE701684E5946F480764E511179B8
:10126000D2F805504FF4C67641EA0525016806EB31
:1012700004168D511178D2F801204FF4C47541EA5B
:101280000221026805EB04155151006803EB0411BB
:10129000425842F0010242500020F0BD416A41F440
:1012A000001141620120F0BD10B590F82020012A04
:1012B00007D0022A05D0416A41F480214162012011
:1012C00010BD3B48D0F8002242F00102C0F80022D5
:1012D000D0F8002222F47C52C0F80022D0F800227C
:1012E0004B6A42EA0322C0F800220A7D02F01F0383
:1012F00001229A40D0F81C329343C0F81C32CB69CB
:10130000B3B9D0F80C329343C0F80C328C894B68D7
:1013100064F31F434C6900EBC404C4F840320C89E9
:101320000B6864F31F434C6900EBC404C4F84432F7
:10133000CB69012B16D1D0F80C321343C0F80C3214
:101340000C884B6864F31F434C6900EBC404C4F879
:1013500040320C89CB6864F31F434C6900EBC40432
:10136000C4F844328B69002BD0F804320ED01343FA
:10137000C0F804320B69002BD0F8143208D01343A4
:10138000C0F81432096A012904D008E09343EFE75A
:101390009343F5E7D0F81C121143C0F81C12D0F8A3
:1013A000001221F00101C0F80012002010BD000061
:1013B00000640040704730B590F82040012C05D003
:1013C000022C03D0416A41F480215DE004680029C9
:1013D00055D02469A40754D04FF4D874056804EBA1
:1013E00001142D5915F00405956005682D594ED04E
:1013F000ED08556005682C5904F00204D4604FF4E0
:10140000DA74056804EB01142D5905F00F05156118
:1014100005682D59C5F30725956105682C59240CDD
:1014200054614FF4DC72046802EB0112A4581C7082
:101430000468A458240A5C700468A458240C9C70A6
:101440000468A258120EDA704FF4DE72046802EBE0
:101450000112A4581C710468A458240A5C71046821
:10146000A458240C9C710468A258120EDA7100680A
:1014700081B1016941F020010161002030BDE468C3
:10148000A8E7416A41F400114162012030BD6D0DB1
:101490001560AFE7C16841F02001C160EDE72DE9BB
:1014A000F05F0546006800244669D0F8049087681C
:1014B000D0F80CB0D0F810A0D0F81880F10748D0C0
:1014C000F90714D001218160B80703D5284600F040
:1014D00088FA0CE0780702D54FF4006407E038077B
:1014E00002D54FF4805402E0284600F079FAF8055E
:1014F00016D529684FF480708860B80503D5284652
:1015000000F071FA0CE0780502D544F4005407E0CD
:10151000380502D544F4804402E0284600F062FA1F
:10152000F80316D529684FF480308860B80303D5D6
:10153000284600F05AFA0CE0780302D544F400443F
:1015400007E0380302D544F4803402E0284600F076
:101550004BFA300707D55FEACB6004D52968102025
:1015600044F40074C86070074FF0080707D55FEABD
:101570000B7004D52868C760284600F0A9F9B007A9
:1015800006D52868C068800702D0284600F0A2F976
:10159000700607D55FEACA6004D52968102044F4B4
:1015A00080640861B00607D55FEA0A7004D5286830
:1015B0000761284600F0E4F9F00606D528680069BE
:1015C000800702D0284600F0DCF9B00308D55FEAB6
:1015D000C96005D5296810204860284600F0D2F976
:1015E000F00307D55FEA097004D5286847602846EC
:1015F00000F0FCF9300446D55FEA497040D5F005AB
:1016000004D55FEAC87001D044F00104B00504D5E8
:101610005FEA887001D544F00204700504D55FEAE2
:10162000487001D544F00404300529D518F0700F36
:1016300026D008F07000402815D006DC102809D00C
:1016400020280AD0302816D10AE050280ED0602871
:1016500011D10EE044F008040DE044F010040AE05B
:1016600044F0200407E044F0400404E044F0800427
:1016700001E044F480742868816921F0700181617F
:10168000296804204860002C05D0686A20436862FD
:101690002846FFF78FFEBDE8F09F70B5040003D029
:1016A00094F8200010B104E0012070BD204600F045
:1016B00081F82068016841F00101016000F06EFCD2
:1016C0000546052604E000F069FC401B0A2811D8F5
:1016D00020684068C007F6D02068016821F0020148
:1016E000016000F05BFC05460BE000F057FC401B7E
:1016F0000A2806D9606A40F40030606284F82060ED
:10170000D2E7206840688007EFD4207E0128206857
:1017100001683DD021F080010160607E01282068D1
:10172000016838D021F040010160A07E01282068C6
:10173000016833D021F020010160E07E012820689B
:1017400001682ED041F010010160207F012820683F
:10175000016829D021F008010160607F012820681C
:10176000016824D021F004010160D4E9020108439A
:10177000D4E90412114308436168491E08432168F3
:10178000C86100206062012084F82000002070BD44
:1017900041F08001C0E741F04001C5E741F0200180
:1017A000CAE721F01001CFE741F00801D4E741F08A
:1017B0000401D9E7F0B587B0044614216846FEF766
:1017C000C1FE3E4B3E48DFF8F0E01968D4F800C097
:1017D0003B4A03250226092710300024491CF44502
:1017E0002AD11960012907D1016841F00071016017
:1017F000006800F000700590106840F0080010606C
:101800001068CDE9005600F00800CDE90470694683
:101810002C48CDE9024500F0C3FA0022052113202F
:1018200000F070FD132000F05FFD00220521142060
:1018300000F068FD14203AE0DFF88CE0F44538D180
:10184000D0F800C04CF0806CC0F800C0D0F800C0E8
:1018500001290CF0806CCDF814C0196007D1016823
:1018600041F000710160006800F0007005901068A0
:1018700040F002001060106802AB00F0020005901A
:101880006020CDE9000683E8B00069460F4800F00B
:1018900087FA002205213F2000F034FD3F2000F0B0
:1018A00023FD00220521402000F02CFD402000F007
:1018B0001BFD07B0F0BD00000064004010000020D8
:1018C00030380240000C0240006800400004024032
:1018D0007047000010B50446006825498AB0884268
:1018E0001FD107AB6A4600212046FFF764FD009830
:1018F000A0F20120072814D2BDF81C10C0B24ABAC9
:1019000000EB40011B4800EB81018A80BDF81E00FE
:1019100040BAC880BDF8200040BA08819DF8220076
:1019200088721549206888421FD107AB6A4600219A
:101930002046FFF740FD0098A0F20120072814D2AE
:10194000C0B200EB40020D48BDF81C1000EB820055
:1019500049BA8180BDF81E1049BAC180BDF8201077
:1019600049BA01819DF8221081720AB010BD0000B1
:10197000006400406001002000680040B4010020C5
:10198000704770477047000070B5044690F820001B
:10199000012804D0606A40F40020606218E0022050
:1019A00084F820002068016821F00101016000F046
:1019B000F5FA05460EE000BF00F0F0FA401B0A28D9
:1019C00008D9606A40F400306062052084F8200085
:1019D000012070BD20684068C007EDD1606270BD15
:1019E00070477047704770477047704770472DE9E0
:1019F000F0410446876D00F0D1FA064694F83500B0
:101A00000025022806D08020606584F8345001202B
:101A1000BDE8F0812068016821F0160101602068AE
:101A2000416921F080014161206C08B9A06C20B1AE
:101A30002068016821F0080101602068016821F038
:101A4000010101600CE000F0A9FA801B052807D90C
:101A500020206065032084F8350084F83450D7E7EF
:101A600020680068C007EED194F85C103F208840E1
:101A7000B860012084F8350084F834500020C7E7AE
:101A800090F83510022903D080214165012070476C
:101A9000052180F835100068016821F0010101601E
:101AA000002070472DE9F84304464FF00009CDF8B7
:101AB000009063484FF41651A56D0068B0FBF1F734
:101AC0002E6894F85C10082000FA01F131420FD022
:101AD00021680A6852070BD50A6822F004020A60DE
:101AE00094F85C108840A860606D40F0010060656B
:101AF00094F85C104FF0010808FA01F0304208D069
:101B000021684969090604D5A860606D40F00200AB
:101B1000606594F85C1004208840304208D0216849
:101B20000968890704D5A860606D40F0040060650D
:101B300094F85C1010208840304218D02168096861
:101B4000090714D5A86020680168490304D5006816
:101B5000000308D5A16C07E00168C90503D401683A
:101B600021F008010160216C09B12046884794F8F2
:101B70005C1020208840304231D021680968C906B5
:101B80002DD5A86094F8350005282068016806D096
:101B9000490347D5006800031DD4616C1CE021F0A7
:101BA000160101602068416921F080014161206CCB
:101BB00008B9A06C20B12068016821F0080101601B
:101BC00094F85C103F208840A86084F8358084F841
:101BD0003490216D1FE0E16B09B120468847606DAC
:101BE00000282BD0606DC00714D0052084F8350084
:101BF0002068016821F0010101600098401C0090FC
:101C0000B84203D820680068C007F6D184F8358050
:101C100084F83490E16C002910D001B02046BDE872
:101C2000F04308470168C905D5D4016821F01001C7
:101C3000016084F8358084F83490CCE7BDE8F883FF
:101C4000200000202DE9F041044600F0A7F90646E7
:101C50005CB1022084F83500002584F834502068F7
:101C6000016821F0010101600DE00120BDE8F08173
:101C700000F094F9801B052805D920206065032019
:101C800084F83500F2E720680068C007F0D12268C8
:101C9000116820480140D4E901031843D4E9033610
:101CA0003343184363691843A3691843E36918432E
:101CB000236A18430843616A042903D1D4E90B134A
:101CC00019430843106020684069666A20F00701E4
:101CD00030460E43012704280CD1A06A0643E06A6F
:101CE00040B12046FFF782F920B14020606584F8BA
:101CF0003570BAE7206846612046FFF763F994F82B
:101D00005C203F2191408160656584F8357000203A
:101D1000ACE700003F8010F02DE9F0410446866DED
:101D200090F83400002501280DD0012084F83400FB
:101D300094F835700020012F07D084F83400022574
:101D40002846BDE8F0810220FBE7022784F83570C1
:101D500060652046FFF774F994F85C103F208840D6
:101D6000B0602068016841F016010160206C20B16C
:101D70002068016841F0080101602068016841F0B5
:101D800001010160DCE77047044910B50A680242AE
:101D900002D00860FFF7F7FF10BD0000143C0140BF
:101DA0002DE9F84FDFF8BCA10022012503264FF0F2
:101DB0000F090AF1040BAAF1040E00BF0B6805FA23
:101DC00002F42340A34270D10F7907F00307012FDB
:101DD00001D0022F16D187684FEA420806FA08FCA4
:101DE00027EA0C07D1F80CC00CFA08FC4CEA070CE7
:101DF000C0F808C04768A7430C79C4F300149440A6
:101E00003C4344600C79E443A4070AD0C4684FEA19
:101E1000420C06FA0CF7BC438F6807FA0CF727430D
:101E2000C7600C7904F00304022C12D1D40800EB33
:101E3000840CDCF820405707FF0E09FA07F824EA63
:101E40000804D1F8108008FA07F848EA0408CCF82A
:101E5000208004684FEA420C06FA0CF7BC430F7965
:101E600007F0030707FA0CF7274307604C6814F4E0
:101E7000403F70D03C4C276847F480472760246877
:101E800022F0030704F480440094384C07EB040C60
:101E9000DCF8084897074FEA177809FA08F7BC43B7
:101EA000334FB84202D1002724E054E0314FB8420A
:101EB00001D101271EE0304FB84201D1022719E0BD
:101EC0002E4FB84201D1032714E02D4FB84201D163
:101ED00004270FE02B4FB84201D105270AE02A4F13
:101EE000B84201D1062705E0284FB84201D10727A3
:101EF00000E0082707FA08F72743CCF80878DAF853
:101F000000405746D1F804C09C435FEACC2C00D572
:101F10001C433C60DBF800405F46D1F804C09C43A2
:101F20005FEA8C2C00D51C433C60DEF8004077460D
:101F3000D1F804C09C435FEA8C3C00D51C433C6054
:101F4000084F083F3C68D1F804C09C435FEACC3C92
:101F500000D51C433C60521C102AFFF42FAFBDE893
:101F6000F88F0000083C0140443802400030014036
:101F7000000002400004024000080240000C024041
:101F8000001002400014024000180240001C0240F1
:101F90000AB1816170470904FBE7000001488068CD
:101FA000704700001400002070B5040025D094F89C
:101FB0003D00002520B984F83C50204600F0B8F8D8
:101FC000242084F83D002068016821F001010160AF
:101FD0002068016841F4004101602068016821F433
:101FE0000041016000F07AFA4D4A6168914201D8DF
:101FF0004C4900E04C49884201D2012070BD4B4958
:102000002368B0FBF1F15E6826F03F060E435E6088
:102010006368934206D94FF4967359434FF47A7329
:10202000B1FBF3F12368491C1E6A26F03F063143D9
:1020300019626168914210D84900401EB0FBF1F26C
:10204000521CC2F30B02042A01D2042022E0B0FB8E
:10205000F1F0401CC0F30B001CE0A268F2B301EBEE
:10206000C10303EB0116431EB3FBF6F35B1C43F401
:1020700080431B0549D092B301EBC10202EB011171
:10208000401EB0FBF1F0401CC0F30B0040F4804058
:1020900040F400402168CA694CF6FF739A4310432C
:1020A000C861D4E9071001432068026822F0C00229
:1020B00011430160D4E9030101432068826848F2BA
:1020C000FF339A4311438160D4E905010843216835
:1020D000CA6822F0FF021043C86001E00EE016E07B
:1020E0002068016841F0010101602564202084F826
:1020F0003D00256384F83E50002070BD01EB410691
:10210000431EB3FBF6F35B1CB3E70120C2E701EB10
:102110004101401EB0FBF1F0401CC0F30B00B7E7DB
:10212000A086010080841E0000093D0040420F008F
:10213000F0B587B0044614216846FEF703FA1D493E
:102140002068884233D11C480024016841F0040112
:102150000160016801F004010591016841F001018D
:1021600001600068122500F0010005904FF4007036
:10217000CDE9000502AA0326042782E8D0006946BB
:102180000E48FFF70DFEB801CDE9000502AA694629
:1021900082E8D0000A48FFF703FE074810300168C4
:1021A00041F400010160006800F40000059007B0F0
:1021B000F0BD0000005C00403038024000080240E2
:1021C0000000024002488168027811448160704733
:1021D000140000200B4810B5016841F40071016043
:1021E000016841F480610160016841F4807101601F
:1021F000032000F0A7F80F2000F006F800F050F8D8
:10220000002010BD003C024030B505461F4887B095
:102210000024016841F002010160006806A900F095
:102220000200009001A800F039F90498A8B100F06C
:1022300055F940001649174AB0FBF1F11648491EFE
:10224000026040F2E732C0E90324C0E9011484616E
:1022500000F024FD040003D015E000F03FF9E9E7A9
:102260000D4800F0B1FD04000DD11D2000F03CF838
:10227000102D07D2002229461D2000F043F8074800
:10228000056000E0012407B0204630BD4038024020
:1022900040420F0000040040640D002018000020A0
:1022A000104808B5016841F480410160006800F4FD
:1022B000804000900B48001F016841F08051016090
:1022C0000068002200F08050009005216FF00B00A4
:1022D00000F018F800220F21BDE80840901E00F021
:1022E00011B8000044380240002809DB00F01F024A
:1022F000012191404009800000F1E020C0F8001168
:1023000070470000F0B40E4B1B680C46C3F3022369
:10231000C3F10705042D00D90425191D072901D291
:10232000002300E0DB1E012606FA05F1491E2140CC
:1023300099409E40761E16403143F0BC02F029BD04
:102340000CED00E0064900F0070208684FF6FF03B5
:10235000184040EA0220034A10430860704700001A
:102360000CED00E00000FA052DE9F0470E460500EF
:1023700065D0DFF81481D8F80000F7B200F007004C
:10238000B04207D288F80070D8F8000000F00700CB
:10239000B04254D128683D4C810712D5400703D57F
:1023A000206840F4E05020602878000703D52068BA
:1023B00040F4604020602068A96820F0F0000843E5
:1023C00020602878C0072DD0304968680839012876
:1023D00012D0022813D0032811D0096889070029D8
:1023E0002DDA216821F0030101432160FFF7D6FDBA
:1023F000814641F2883A0EE009688903EFE70968EF
:102400008901ECE7FFF7CAFDA0EB0901514502D9AC
:102410000320BDE8F0872068696800F00C00B0EB8D
:10242000810FEFD1D8F80010404601F00701B1420A
:1024300007D90770006800F00700B04201D0012002
:10244000E7E72878400705D52068E96820F4E050E0
:10245000084320602878000706D52068296920F401
:10246000604040EAC100206000F058F82168084A46
:10247000C1F30311515CC840064908600648006872
:10248000FFF7C2FE0020C4E7003C024008380240CB
:102490002067000820000020180000200F220260A2
:1024A0000C4A136803F003034360136803F0F0035E
:1024B0008360136803F4E053C36012684FF4E05381
:1024C00003EAD20202610448006800F007000860D5
:1024D0007047000008380240003C024004480549AB
:1024E00000680968044AC1F38221515CC840704702
:1024F00020000020083802403067000804480549E1
:1025000000680968044AC1F34231515CC840704711
:10251000200000200838024030670008154810B538
:10252000006810F00C02144813D01449042A0FD08C
:10253000082A0ED10F4C241F2268236802F03F02A4
:102540005B0207D52068C0F38810A0FB010106E0FC
:10255000084610BD2168C1F38811A1FB00010023CA
:10256000FDF702FF2168C1F30141491C4900B0FB9E
:10257000F1F010BD083802400024F400001BB70041
:102580002DE9F84F04006ED02078DFF84C93C00797
:10259000A9F104054AD009F104000168C1F38101E1
:1025A000012908D00068C0F3810002280AD1D9F8B7
:1025B0000000400206D52868800337D560680028EF
:1025C000E1D033E06068B0F5803F10D0B0F5A02FC7
:1025D000286810D020F480302860286820F48020FB
:1025E00028606068A8B1FFF7D9FC06460DE02868AE
:1025F00040F48030F4E740F480202860F7E700BF23
:10260000FFF7CCFC801B642873D828688003F7D5BB
:102610000CE0FFF7C3FC064605E000BFFFF7BEFC79
:10262000801B6428F0D828688003F7D42078DFF86E
:10263000AC8280074FF0000A3ED5A748001D016814
:1026400011F00C0F08D00068C0F3810002280BD1F4
:10265000D9F80000400207D42868800716D5E06842
:10266000012800D112E033E1E068B8B10120C8F8D8
:102670000000FFF793FC064605E000BFFFF78EFC65
:10268000801B0228C0D828688007F7D528682169F0
:1026900020F0F80040EAC10028600DE0C8F800A072
:1026A000FFF77CFC064604E0FFF778FC801B02285D
:1026B0001FD828688007F7D42078000722D5864FD6
:1026C00087486169703771B101210160FFF766FCCD
:1026D000064604E0FFF762FC801B022809D8386830
:1026E0008007F7D50EE0C0F800A0FFF757FC0646BC
:1026F00005E082E0FFF752FC801B02287DD8386895
:102700008007F7D42078400768D5DFF8CCB10027E0
:102710000BF13C0BDBF80000C0000BD4DBF8001021
:1027200041F08051CBF80010DBF80000012700F0E9
:10273000805000906B4E3068C00510D4306840F473
:1027400080703060FFF72AFC009005E0FFF726FC60
:102750000099401A022850D83068C005F6D55E4E60
:10276000A0686C3601280FD00528306810D020F002
:1027700001003060306820F004003060A068B8B11B
:10278000FFF70CFC00900FE0306840F00100F4E728
:1027900040F004003060F7E7FFF700FC0099411AB1
:1027A00041F28830814266D830688007F4D50EE067
:1027B000FFF7F4FB009007E0FFF7F0FB0099411AE8
:1027C00041F28830814256D830688007F4D42FB166
:1027D000DBF8001021F08051CBF80010A069C8B3DD
:1027E0003D49091D0968C1F3810102294AD0022827
:1027F000504607D0C8F8600000E03CE0FFF7CEFB91
:1028000004463BE04746C8F86000FFF7C7FB0646B2
:1028100005E000BFFFF7C2FB801B02282BD8286809
:102820008001F7D4D4E907010843A16A2E4A490878
:1028300002EB0141626A41EA8211084394F82C10CC
:1028400040EA0161C9F8001001203866FFF7A6FBD5
:10285000044606E03EE000BFFFF7A0FB001B022895
:1028600009D828688001F7D534E000BFFFF796FB50
:10287000001B022802D90320BDE8F88F28688001D8
:10288000F4D427E00128F7D0D9F80000E26900F479
:10289000800191421CD1226A00F03F01914217D180
:1028A00047F6C071626A0140B1EB821F10D1A26A83
:1028B0004FF0FF3300F4403103EB5202B1EB024F13
:1028C00006D194F82C1000F07060B0EB016F01D0CD
:1028D0000120D1E70020CFE7043802400000474242
:1028E000800E4742007000400000FFFF704700006C
:1028F00038B5016804464A688868C043430606D56F
:10290000C30704D1D3435B0601D4216C05E08307E0
:1029100008D4D3431B0605D4616C01B02046BDE842
:1029200030400847830603D5430601D5C30551D47B
:10293000D3439B064ED443060AD494F85130032B5C
:1029400049D0636D43F004036365CB688B680093E3
:10295000830609D4636D43F0010363658B680093BC
:102960000B6823F040030B60C00506D4606D40F097
:1029700008006065206880680090606D002829D09C
:102980002068416821F0E0014160012084F8510095
:10299000900701D4D00722D02068416821F00301BC
:1029A0004160114DE06C40B10565E06CFFF768F8DF
:1029B00018B1606D40F040006065A06C002809D03F
:1029C0000565A06CFFF75CF8002803D0606D40F04F
:1029D0004000606538BDC8688868009038BD2046F2
:1029E000FFF784FF38BD00006142000870B50400A5
:1029F00009D0606A002540B125616561A56294F83F
:102A0000510040B10CE0012070BD6068B0F5827FDC
:102A1000F4D0E561F2E784F85050204600F044F825
:102A2000022084F851002068016821F04001016013
:102A3000A088218900F4827001F404410843A1892F
:102A400001F400610843217C01F002010843217D6B
:102A500001F001010843218B01F400710843217F3B
:102A600001F03801084394F8201001F08001084378
:102A7000218D01F40051084321680860A0690421F8
:102A800001EA104094F8241001F010010843216875
:102A900048602068C16921F40061C1616565012059
:102AA00084F85100002070BD2DE9F04387B0064640
:102AB00014216846FDF746FD38493068884269D1DF
:102AC00037480025016841F480510160006800F436
:102AD0008050059032481438016841F002010160CD
:102AE000016801F002010591016841F001010160F6
:102AF0000068022400F001000590182001274FF023
:102B000003084FF005098DE8910369462548FFF752
:102B100047F980208DE8910369462348FFF740F983
:102B2000234C22484FF0C067E4E8020740204FF4EE
:102B30008068A4E82101C00244F81459A561C4E9E1
:102B400007501B486562FFF77DF808B1FEF7AAFA47
:102B5000B464A663164C1548603448382060C4E954
:102B60000175C4E9035865614FF44030A561C4E9BB
:102B7000075020466562FFF765F808B1FEF792FA44
:102B8000F464002205212320A663FFF7BBFB23206A
:102B9000FFF7AAFB07B0BDE8F0830000003001405A
:102BA00044380240000402400000024058640240E1
:102BB000300800207047704710B590F83C20012A7B
:102BC00022D0012280F83C20CA688C6822F440722E
:102BD00022434C6822F4806222430C6822F4006293
:102BE00022430C6922F4805222434C6922F40052A1
:102BF0002243C969002322F480420A4301684A64DF
:102C000080F83C30002010BD022010BD70B590F857
:102C10003C20012A32D0012480F83C40022280F876
:102C20003D2003685A689D6822F070060A683243A6
:102C30005A60134B02689A4214D0B2F1804F11D0FF
:102C4000104B9A420ED0104B9A420BD00F4B9A4227
:102C500008D00F4B9A4205D00E4B9A4202D00E4B31
:102C60009A4204D1496825F080031943916080F8A5
:102C70003D40002180F83C10084670BD022070BD28
:102C8000000001400004004000080040000C00402B
:102C900000040140004001400018004010B504004D
:102CA00003D094F83D0010B107E0012010BD0020D2
:102CB00084F83C00204600F01FF8022084F83D0014
:102CC000211D206801F02AFC012084F8460084F8C8
:102CD0003E0084F83F0084F8400084F8410084F806
:102CE000420084F8430084F8440084F8450084F8E6
:102CF0003D00002010BD000008B52E4A01682E4896
:102D0000914207D1016841F001010160006800F0C3
:102D1000010037E0B1F1804F19D0284A914227D104
:102D2000016841F0020101600068002200F0020029
:102D3000009005212B20FFF7E5FA2B20FFF7D4FAAE
:102D4000002205212C20FFF7DDFA2C2021E01A4873
:102D5000001F016841F0010101600068002200F0DD
:102D60000100009005211C20FFF7CCFA1C2010E088
:102D7000134A914211D1016841F480310160006829
:102D800000F480300090002205211820FFF7BAFAE5
:102D90001820BDE80840FFF7A7BA0A4A914207D1B8
:102DA000016841F400310160006800F400300090D7
:102DB00008BD00000000014044380240000401400A
:102DC000004001400044014090F83D10012901D02D
:102DD00001207047022180F83D100168CA6842F066
:102DE0000102CA6000681149884214D0B0F1804FD6
:102DF00011D00F4988420ED00E4988420BD00E499F
:102E0000884208D00D49884205D00D49884202D039
:102E10000C49884204D1816801F00701062903D0DA
:102E2000016841F00101016000207047000001408D
:102E30000004004000080040000C00400004014075
:102E4000004001400018004070B5044690F83C0076
:102E50000025012817D0012684F83C60022084F860
:102E60003D002068826822F0770222F47F4282606F
:102E70000868502838D00DDC20284FD005DC90B3EE
:102E8000102811D14AE0022070BD302846D04028D9
:102E90000AD13BE060282FD070280DD0B0F5805FBC
:102EA00003D0B0F5005F12D0012584F83D6000200A
:102EB00084F83C00284670BDCB68D1E90121206828
:102EC00001F09DFB2068816841F0770109E0CB6843
:102ED000D1E90121206801F092FB2068816841F46A
:102EE00080418160E1E719E0CA684968206801F023
:102EF0005BFC5021206806E0CA684968206801F040
:102F000064FC6021206801F084FBCEE7CA68496850
:102F1000206801F049FC40212068F4E7226801465E
:102F20001046F0E7704770B50446006801694FF03D
:102F30000005C943890715D4C168C943890711D45D
:102F4000E91E016101202077206880698007204602
:102F500002D0FFF7E7FF04E000F0D8F8204600F0C9
:102F60006AF9257720680169C943490717D4C16800
:102F7000C943490713D46FF004010161022020778F
:102F80002068806910F4407F204602D0FFF7CAFF16
:102F900004E000F0BBF8204600F04DF925772068EA
:102FA0000169C943090716D4C168C943090712D486
:102FB0006FF008010161042020772068C069800754
:102FC000204602D0FFF7AEFF04E000F09FF8204655
:102FD00000F031F9257720680169C943C90617D483
:102FE000C168C943C90613D46FF0100101610820FC
:102FF00020772068C06910F4407F204602D0FFF798
:1030000091FF04E000F082F8204600F014F92577E3
:1030100020680169C943C90708D1C168C943C90704
:1030200004D1891E0161204600F06AF92068016917
:10303000C943090609D4C168C943090605D46FF01C
:10304000800101612046FFF7B5FD20680169C94391
:10305000490609D4C168C943490605D46FF0400147
:103060000161204600F056F920680169C9438906CC
:103070000BD4C168C943890607D46FF020010161F0
:103080002046BDE87040FFF796BD70BD30B587B0F3
:10309000044614216846FDF755FA2468164D0022AF
:1030A000164802210123AC420FD1046844F01004F9
:1030B0000460006800F01000059008028DE8070029
:1030C00069460F48CDE9032312E00E4A944211D11C
:1030D000026842F020020260006800F020000590C3
:1030E00040208DE80B000320CDE903106946064817
:1030F000FEF756FE07B030BD0000014030380240F8
:10310000001002400044014000140240704770B5B6
:10311000044690F83C0000260D4601280FD00120FF
:1031200084F83C006AB1042A1DD0082A2FD00C2A4A
:103130003FD00126002084F83C00304670BD0220BC
:1031400070BD206801F06EFA2068816941F00801C5
:1031500081612068816921F00401816120688169B1
:103160002A69114311E0206801F08CFA2068816916
:1031700041F4006181612068816921F4806181618D
:10318000206881692A6941EA02218161D2E72068C9
:1031900001F0AEFA2068C16941F00801C161206800
:1031A000C16921F00401C1612068C1692A69114324
:1031B00011E0206801F0D0FA2068C16941F4006193
:1031C000C1612068C16921F48061C1612068C16961
:1031D0002A6941EA0221C161ACE710B5040003D0BD
:1031E00094F83D0010B107E0012010BD002084F8E4
:1031F0003C00204600F01EF8022084F83D00211D0E
:10320000206801F08BF9012084F8460084F83E0024
:1032100084F83F0084F8400084F8410084F84200BC
:1032200084F8430084F8440084F8450084F83D00A5
:10323000002010BD7047704710B50446022249B106
:1032400004290ED0082913D094F84100012816D083
:10325000012010BD94F83E000128F9D184F83E20E9
:103260000FE094F83F000128F2D184F83F2008E0F5
:1032700094F840000128EBD184F8402001E084F864
:1032800041200122206801F0ADF916492068164A54
:10329000884201D0904203D1436C43F4004343641D
:1032A0002068884213D0B0F1804F10D00F49884277
:1032B0000DD00F4988420AD00E49884207D090426B
:1032C00005D00D49884202D00C49884204D181685A
:1032D00001F00701062903D0016841F001010160F6
:1032E000002010BD00000140000401400004004027
:1032F00000080040000C0040004001400018004061
:1033000000680349884201D1FEF75CBF70470000A6
:10331000000400407047704770470000F8B501682E
:1033200004460868CA684B6910F00F0F4FF000059B
:1033300059D003F0010602F49077374365D0C107F6
:1033400005D0D10503D5216C41F00101216441076D
:1033500005D5D90703D0216C41F002012164810712
:1033600005D5D90703D0216C41F004012164010780
:1033700007D502F02001314303D0216C41F0080150
:103380002164216C00293AD0800604D5900602D52C
:10339000204601F0B4FA20684069216CC0F3801027
:1033A000090700D460B3204601F074FA2068406930
:1033B000400621D52068143050E8001F21F040015C
:1033C00040E80012002AF5D1A06BA8B16C49016554
:1033D000A06BFEF755FB002811D0A06B016D01B06A
:1033E000BDE8F040084783060FD593060DD520466B
:1033F000BDE8F84001F083BA2046FFF78DFFF8BD25
:103400002046FFF789FF2564F8BD266B2023012E97
:1034100079D1C60677D5D60675D508684868009074
:103420004869400640D5A16B086840680004000C5C
:10343000EAD0A28D8242E7D9E085C869B0F5807FE5
:103440002DD020680C3050E8001F21F4807140E836
:103450000012002AF5D12068143050E8001F21F036
:10346000010140E80012002AF5D12068143050E82C
:10347000001F21F0400140E80012002AF5D184F835
:103480003E30256320680C3050E8001F21F0100109
:1034900040E80012002AF5D1A06BFEF7A8FAA08D33
:1034A000E18D401A81B229E0A08DE18D401A81B2F0
:1034B000E08D0028A8D00029A6D020680C3050E864
:1034C000002F22F4907240E80026002EF5D12068EB
:1034D000143050E8002F22F0010240E80026002EB0
:1034E000F5D184F83E30256320680C3050E8002F79
:1034F00022F0100240E80023002BF5D12046FFF710
:103500000AFFF8BDFFE705062BD5150629D594F867
:103510003D002128F5D1A068B0F5805F01D1206978
:10352000B0B1206A411C2162216800784860E08CBB
:10353000401E0004000CE084E3D12068C16821F043
:103540008001C1602068C16841F04001C160D8E7D6
:10355000206A0088C0F308004860206A801C20624E
:10356000E5E74006CDD55006CBD5CA68204622F007
:103570004002CA6084F83D3000F0E0F9C1E7000085
:10358000EF47000870B5040004D094F83D00002512
:1035900010B106E0012070BD84F83C50204600F0D8
:1035A00023F8242084F83D002068C16821F40051EC
:1035B000C160204601F004FA2068016921F49041BD
:1035C00001612068416921F02A0141612068C168D8
:1035D00041F40051C1602564202084F83D0084F846
:1035E0003E00002070BD00002DE9F04F87B004467A
:1035F00014216846FCF7A6FFA148DFF88082143842
:103600000322D4F800C09E4B0221170400250615A2
:103610004FF0070E4FF0400A4FF48079C4456CD14B
:10362000D3F800C04CF0100CC3F800C01B6803F0C6
:1036300010030593036843F002030360036803F07B
:1036400002030593036843F00103036000680295D9
:1036500000F0010005908020CDE900010720CDE9B0
:1036600003208846934669468648FEF799FB70100A
:10367000CDE9000802950720CDE903B069468248EC
:10368000FEF78EFBDFF8088280494046C8F808A0A4
:10369000C0E90356C8F814504FF0006BC8F8185032
:1036A000C0E9001BC8E90757C8F82450FEF7CAFA5A
:1036B00008B1FDF7F7FC764D7448C4F834806035E6
:1036C0007838C8F83840C5E9000B0020A860C5E983
:1036D00003066861C5E90609C5E908702846FEF7D2
:1036E000B1FA08B1FDF7DEFCA56300220521252013
:1036F000AC63FEF707FE252057E0DFF89881C4454C
:1037000058D15F4BAB461B1FD3F800C04CF4802C44
:10371000C3F800C01B6803F480230593036843F0DB
:1037200004030360006800F0040005904FF440605B
:103730008DE82300CDE9032E69465748FEF730FB9C
:1037400053485649C0304FF000680160C0E9018518
:10375000C0E903564561C0E90659C0E90875FEF79E
:1037600071FA08B1FDF79EFC49484D4DC030A06389
:1037700084634A48303085E80105C5E903B6C5F8D9
:1037800014B0C5F818B0C5E907B72846C5F824B085
:10379000FEF758FA08B1FDF785FC656300220521A4
:1037A0002720AC63FEF7AEFD2720FEF79DFD07B096
:1037B000BDE8F08FDFF8EC80C445F8D1D3F800C045
:1037C0004CF0200CC3F800C01B6803F020030593E5
:1037D000036843F040030360006800F04000059078
:1037E0004FF48440CDE900010120CDE90202082018
:1037F000049069462C48FEF7D3FADFF8A4802349E9
:1038000008F16008903940464FF0206BC8F800106E
:10381000C0E901B5C0E90356C8F82070C8F81450D3
:10382000C8E90659C8F82450FEF70CFA08B1FDF7AC
:1038300039FC1B4FC4F83880C037C8F83840C7F887
:1038400008A0C7E9035611487D611838BD61C7E972
:10385000000B4FF48030C7E9075038467D62FEF711
:10386000F1F908B1FDF71EFC67630022052147202E
:10387000BC63FEF747FD472097E7000000100140BA
:10388000443802400004024000000240B864024094
:10389000240B00200048004000080240286002403D
:1038A000440C002000140140001802407047000042
:1038B00070B5044690F83D00202836D191B38AB304
:1038C00094F83C00012830D0012084F83C002162AB
:1038D000A284E28400252564212084F83D00636BE6
:1038E0001348D863636B13481864636B1248D86439
:1038F000606B134605652668606B321DFEF70CFA97
:1039000021686FF04000086084F83C502068143053
:1039100050E8001F41F0800140E80012002AF5D174
:10392000002070BDFFE70120FBE70220F9E700005F
:10393000494800088B480008FF4700087047704757
:10394000FEE700002DE9F0470E4607460025DFF8A8
:103950009491C0E0785DA52873D1781904460521BB
:1039600001F004FA00286CD06078A17840EA0128C0
:1039700005EB08000930B04246D8204608F109019D
:1039800001F0D6F900285CD06079A17940EA0120E5
:1039900040F20221A0F20222884261D018DCB0F588
:1039A000817F40D00ADC01281BD0032820D00528C5
:1039B0002BD0A0F58070013822D12DE0B0F5827FA8
:1039C00038D0A0F5807005383CD0FC2818D140E0F4
:1039D000092A15D2DFE802F0144B525960676E7560
:1039E00077000B20804602463E48E11D8F3805E0F7
:1039F0002020804602463B48E11D8338FCF72BFD22
:103A000005EB08000930C5B265E00D20804602468E
:103A10003448E11D6338F1E704208046024631480E
:103A2000E11D5638EAE70420804602462D48E11D94
:103A30005238E3E70220804602462A48E11D4E380C
:103A4000DCE746E00120804602462648E11D4C386E
:103A5000D4E71B20804602462248E11D4B38CDE7C3
:103A60001020804602461F48E11D3038C6E710206E
:103A7000804602461B48E11D2038BFE701208046F2
:103A800002461848E11D1038B8E70120804602467A
:103A90001448E11D0F38B1E7012080460246114865
:103AA000E11D0E38AAE70720804602460D48E11DB9
:103AB0000D38A3E70620804602460A48E11D801F14
:103AC0009CE7042000E0062080460246E11D4846AF
:103AD00094E76D1CEDB2B542FFF43CAFBDE8F04792
:103AE00001F0D0B81E4D00200F4810B50D490160FF
:103AF0000321416000214FF410228160C0E90312CC
:103B00004FF400124261017641768176C1760177E9
:103B10004177FDF7C2FD002803D0BDE81040FDF756
:103B2000C1BA10BD00640040340700200F4810B532
:103B30000D4901600321416000214FF41022816092
:103B4000C0E903124FF4001242610176417681769A
:103B5000C17601774177FDF7A0FD002803D0BDE8CD
:103B60001040FDF79FBA10BD006800405C070020C0
:103B7000294808B5016841F480010160016801F439
:103B800080010091016841F4001101600068002289
:103B900000F40010009005210C20FEF7B3FB0C2070
:103BA000FEF7A2FB002205210E20FEF7ABFB0E2044
:103BB000FEF79AFB002205213820FEF7A3FB3820F0
:103BC000FEF792FB002205213920FEF79BFB3920EE
:103BD000FEF78AFB002205213A20FEF793FB3A20EC
:103BE000FEF782FB002205213B20FEF78BFB3B20EA
:103BF000FEF77AFB002205214520FEF783FB4520D6
:103C0000FEF772FB002205214620FEF77BFBBDE894
:103C100008404620FEF768BB3038024010B59CB023
:103C20001C2216496846FCF75BFC0021684601F03F
:103C30005FF9134C11491C2260601C3107A8FCF786
:103C40004FFC002107A801F053F90C49A0601C2289
:103C500038310EA8FCF744FC00210EA801F048F909
:103C60000649E0601C22543115A8FCF739FC0021FC
:103C700015A801F03DF920601CB010BDA866000831
:103C8000000000202DE9F04F87B014216846FCF7B2
:103C900059FC6A480025016841F002010160016891
:103CA00001F002010591016841F0400101600168E5
:103CB00001F040010591016841F0010101600168D6
:103CC00001F001010591016841F0080101600168FE
:103CD00001F008010591016841F0040101600168EB
:103CE00001F004010591016841F080010160016863
:103CF00001F080010591016841F020010160016837
:103D000001F020010591016841F010010160006897
:103D1000DFF82CB100F010004FF480740590002201
:103D200021465846FEF734F9DFF818910122402168
:103D30004846FEF72DF9DFF810814FF4E0560022D7
:103D400031464046FEF724F9DFF800A10122102198
:103D50005046FEF71DF92701002239463C48FEF780
:103D600017F9012211463A48FEF712F9009401248E
:103D7000CDE90145694658460395FEF711F8402004
:103D8000CDE900040294694648460394FEF708F81A
:103D9000CDE9006469464046CDE90245FEF700F8EA
:103DA00008204FF48816CDE900066946029448467B
:103DB000FDF7F6FFCDE90045694650460294FDF750
:103DC000EFFF1020CDE90004022569465046CDE9F9
:103DD0000245FDF7E5FF3020CDE900066946029473
:103DE0005846FDF7DDFFCDE9007402946946184896
:103DF0000394FDF7D5FF0094694615480194CDE979
:103E00000245FDF7CDFF002205210920FEF77AFAD1
:103E10000920FEF769FA002205210A20FEF772FA4E
:103E20000A20FEF761FA002205211720FEF76AFA40
:103E30001720FEF759FA07B0BDE8F08F303802407E
:103E40000008024000180240001C0240000002402E
:103E5000000402400D4810B50B4901600C49416057
:103E600000214FF480428160C0E903124161816109
:103E7000C1610162FEF798F8002803D0BDE8104048
:103E8000FDF710B910BD0000005C00408407002061
:103E9000801A0600104810B50E4901604FF4827177
:103EA0004160002102228160C0E9031201224261C7
:103EB000520282613822C0E90721416281620A21EF
:103EC000C162FEF793FD002803D0BDE81040FDF766
:103ED000E9B810BD00300140D807002010B588B007
:103EE0001C216846FCF72EFB144813490024C0E946
:103EF000001441F28731C0E9024104618461FEF798
:103F0000CDFE08B1FDF7CEF80C48FFF766F908B111
:103F1000FDF7C8F86020CDE900040294002269464C
:103F200006480494FFF7F3F808B1FDF7BBF803481F
:103F3000FFF7ACF808B010BD00440140100A0020A3
:103F400010B596B000240F94109411941294139409
:103F50001C2108A81494FCF7F5FA20216846FCF708
:103F6000F1FA29482749016044F29F11C0E9011480
:103F70006321C0E9031444618461FEF78FFE08B138
:103F8000FDF790F84FF480500F900FA91E48FEF7F0
:103F90005BFF08B1FDF786F81B48FFF71EF908B173
:103FA000FDF780F8139413A917481494FEF72EFE1A
:103FB00008B1FDF777F8602008904FF4FA60CDE97A
:103FC00009040B940C940D94002208A90E480E9439
:103FD000FFF79DF808B1FDF765F800944FF4005025
:103FE000CDE904400294019403946946064807947D
:103FF000FEF7E2FD08B1FDF755F80348FFF746F874
:1040000016B010BD00000140F008002010B586B0C9
:1040100000241648009401940294039404944FF0F1
:1040200080410594016042F2CF01C0E9011463218F
:10403000C0E903148461FEF731FE08B1FDF732F8E0
:104040004FF48050009069460848FEF7FDFE08B125
:10405000FDF728F8049404A904480594FEF7D6FD5A
:10406000002801D0FDF71EF806B010BD3809002069
:1040700010B586B00024174800940194029403946C
:10408000049413490594016044F29F11C0E901149E
:104090006321C0E9031444618461FEF7FFFD08B1A8
:1040A000FDF700F84FF48050009069460948FEF78C
:1040B000CBFE08B1FCF7F6FF049404A9054805946B
:1040C000FEF7A4FD002801D0FCF7ECFF06B010BD00
:1040D00000040140800900201FB500211048009114
:1040E000019102910D4A0391026044F29F12C0E9CE
:1040F00001216322C0E903218161FEF7CFFD08B1F0
:10410000FCF7D0FF4FF48050009069460448FEF75A
:104110009BFE002801D0FCF7C5FF1FBD00400140F9
:10412000C80900200C4810B50A4901604FF4E1317C
:104130004160002181600C22C160C0E904128161EC
:10414000C161FFF71FFA002803D0BDE81040FCF75B
:10415000A9BF10BD00100140580A00200C4810B53E
:104160000A4901600B494160002181600C22C16055
:10417000C0E904128161C161FFF704FA002803D08D
:10418000BDE81040FCF78EBF10BD000000480040A5
:104190009C0A0020A08601000C4810B50A49016065
:1041A0004FF4E1314160002181600C22C160C0E91F
:1041B00004128161C161FFF7E5F9002803D0BDE871
:1041C0001040FCF76FBF10BD00140140E00A002052
:1041D000FEE7000070B5044600202DED028B02467C
:1041E0004FEA010534F91010002934F9101000DCF1
:1041F000494209B2914200DD0A46401CC0B204287F
:10420000F0D3AA4222DD104601F0D3FF41EC180B97
:10421000284601F0CEFF53EC182B01F007FE01F009
:104220001FFD00EE100A002034F9101000EE901A65
:10423000F8EEE00A60EE800AFDEEE00A10EE901A59
:1042400024F81010401CC0B20428EDD3BDEC028B42
:1042500070BDFEE70148FEF74BBB0000D807002009
:1042600010B5806B0021C187C186FEF73FFB10BDF2
:104270002DED028B82B01E4D1E4E002404EB8400F7
:1042800095EC040A00EBC40006EB800095ED052ACE
:1042900000F0ABFE641CE4B2042CEFD3144E0025F6
:1042A0009FED158B164C503E41F288373580758056
:1042B000B580FCF70FFCFCF70DFD0D4839461038B2
:1042C000FFF788FFB0EE480AF0EE680AFCF7F2F953
:1042D000B4F926000090B4F91A30B4F90E20B4F9FC
:1042E0000210002001F0DCF8012000F0F5FDDDE710
:1042F000E000002074030020000000000088D3408C
:10430000B4010020012000F0E7FDFBE70122D1020B
:104310000348FDF73DFE012000F0DEFDFBE7000055
:10432000001C024008B52E4D2E4E002404EB8400E4
:1043300095EC050A00EBC40006EB800000F055FE8A
:10434000641CE4B2042CF1D3DFF89C90DFF89CA04D
:10435000DFF89CB0DFF89C80274D00BFB9F8000063
:10436000BAF800100843BBF8001008432349098835
:10437000084332D0FCF798FE5FF0000404EB4400E1
:1043800005EB8007B7F9060000EE100A08EB840081
:10439000F8EEC00A90ED000A04EB840000EBC400C4
:1043A00006EB800000F0CEFDBDEEC00A641CE4B256
:1043B00010EE100A042C7880E0D3B5F926000090A6
:1043C000B5F91A30B5F90E20B5F90210002001F048
:1043D00039F8012000F080FDC0E7FCF797FECBE73D
:1043E000F400002008020020260100202A010020FD
:1043F0002201002044010020600100202C01002047
:1044000010B5502080F31188BFF34F8FBFF36F8F2B
:1044100001F05EFB18B104494FF0805008600020A5
:1044200080F3118810BD000004ED00E030B593B0BA
:1044300030216846FCF786F814210CA8FCF782F8B6
:104440001D480025016841F080510160006800F0BE
:10445000805011901948016841F480410160006862
:10446000022400F48040119001200090000401908B
:104470008001CDE9064006200890A820CDE9090476
:1044800004200B906846FEF77BF808B172B6FEE791
:104490000CA90F2081E831004FF4A0500F904FF489
:1044A0008050109005210CA8FDF75EFF002801D078
:1044B00072B6FEE713B030BD4038024000700040D5
:1044C0000248016841F470010160704788ED00E026
:1044D00010B50448FEF727FDBDE810400248FEF77E
:1044E00022BD0000F0080020C80900200148FEF7A6
:1044F0001ABD0000380900200148FEF714BD000075
:10450000640D00200148FEF70EBD00008009002068
:104510000148FEF708BD000080090020F0B50268E0
:10452000254C264D264E274F274B4FF0804CA0425E
:1045300009D0604507D0A84205D0B04203D0B842A8
:1045400001D0984204D122F0700E4A6842EA0E026D
:10455000A0421BD0604519D0A84217D0B04215D058
:10456000B84213D0984211D0184DA8420ED0184D21
:10457000A8420BD0174DA84208D0174DA84205D02D
:10458000164DA84202D0164DA84203D122F4407520
:10459000CA682A434D6922F080022A4302608A6871
:1045A000C2620A688262A04201D0984201D10969C0
:1045B000016301214161F0BD0000014000040040A1
:1045C00000080040000C0040000401400040014091
:1045D000004401400048014000180040001C004019
:1045E0000020004010B501F01F030121046A99402A
:1045F0008C430462016A9A401143016210BD10B5F8
:10460000846842EA032224F47F440A4322438260FE
:1046100010BD826822F070020A4342F007018160F7
:1046200070470000F0B5026A22F001020262036ADC
:1046300042688469124E24F073050C682C4323F001
:1046400002058B682B430D4DA84201D0B04205D125
:1046500023F00807CB683B4323F00403A84201D0B2
:10466000B04205D14D6922F4407215438A692A434C
:1046700042608461496841630362F0BD000001400B
:1046800000040140F0B5026A22F010020262026AE0
:10469000436884690D6824F4E64444EA05248D687F
:1046A00022F0200242EA05120F4D104EA84201D01E
:1046B000B04206D1CF6822F0800242EA071222F00F
:1046C0004002A84201D0B04207D14D6923F44063B3
:1046D00043EA85038D6943EA850343608461496841
:1046E00081630262F0BD000000000140000401404F
:1046F000F0B5026A22F480720262026A4368C469F9
:1047000022F4007224F073050C68124E2C438D685D
:1047100042EA05220E4DA84201D0B04206D1CF6830
:1047200022F4006242EA072222F48062A84201D009
:10473000B04207D14D6923F4405343EA05138D6914
:1047400043EA05134360C4614968C1630262F0BD76
:10475000000001400004014030B5026A22F480529A
:104760000262046A4268C3690D6823F4E64343EABF
:1047700005238D6824F4005444EA0534084DA8420A
:1047800002D0084DA84204D14D6922F4804242EA89
:1047900085124260C36149680164046230BD000053
:1047A000000001400004014010B5036A046A24F0CF
:1047B00001040462846924F0F00444EA021423F042
:1047C0000A020A438461026210BD10B5036A23F035
:1047D000100303628369046A23F4704343EA0232DC
:1047E00024F0A00343EA01118261016210BD10B5FB
:1047F000806B0021C185C184FEF78EFD10BD70B5B0
:10480000846B2068406994F83D10C0F3C010002507
:10481000212904D118B1E584204600F062F820680F
:10482000406994F83E10C0F38010222904D118B1D9
:10483000E585204600F02EF8206C40F01000206442
:104840002046FEF769FD70BD10B50146806B096812
:104850000968C90516D40021C1840168143151E8E2
:10486000002F22F0800241E80023002BF5D10168DF
:104870000C3151E8002F42F0400241E80023002BA8
:10488000F5D110BDFFF75AF810BD10B5806BFFF7DA
:1048900056F810BD01680C3151E8002F22F49072D7
:1048A00041E80023002BF5D10168143151E8002FB5
:1048B00022F0010241E80023002BF5D1016B012910
:1048C00009D101680C3151E8002F22F0100241E8B3
:1048D0000023002BF5D1202180F83E100021016338
:1048E000704701680C3151E8002F22F0C00241E806
:1048F0000023002BF5D1202180F83D10704708B52A
:1049000090F83E10222901D0022008BD82684FF4A1
:1049100080539A4201D1016921B1816A9A421BD028
:104920004AB10AE00268816A5268C2F308020A804A
:10493000816A891C08E0026972B10268526802F05B
:104940007F020A70816A491C8162C18D491E090477
:10495000090CC18503D019E002685268F1E70168CB
:10496000CA6822F02002CA600168CA6822F4807214
:10497000CA6001684A6922F001024A61202180F878
:104980003E10016B012903D0FEF790FF002008BD07
:104990000021016301680C3151E8002F22F0100260
:1049A00041E80023002BF5D101680A68D20602D540
:1049B0000A6849680091818DFEF7ADFCE6E70000CA
:1049C00070B5044600680169E26821F44051114362
:1049D00001612169A068E2690843616911430843E4
:1049E0002168CA6849F20C639A430243CA6020688E
:1049F0004169A26921F44071114341613149206844
:104A0000884202D03049884202D1FDF777FD01E0AB
:104A1000FDF764FDE2690023192164253226B2F511
:104A2000004F626828D0A0FB0101930F9200FBF7B2
:104A30009BFC0146B0FBF5F06FF01802504301EB10
:104A4000800006EB0010B0FBF5F000F0F002B1FBC7
:104A5000F5F002EB0012B1FBF5F06FF018035843CC
:104A600001EB800006EB0010B0FBF5F000F00F004A
:104A700021681044886070BDA0FB010192185B4161
:104A8000FBF772FC0146B0FBF5F00201B1FBF5F05B
:104A90006FF01803584301EB800006EBC000B0FB39
:104AA000F5F000F0F80002EB4002B1FBF5F05843DE
:104AB00001EB800006EBC000B0FBF5F000F0070052
:104AC000D6E7000000100140001401400148FEF745
:104AD00025BC0000580A002010B50448FCF7C4FAB1
:104AE000BDE810400148FEF719BC00009C0A0020F8
:104AF0000C4808B501680A684A680092CA6842F022
:104B00001002CA6001684A6942F040024A611221FB
:104B100000910168044B806BA3F11802091DFCF79A
:104B20002FF908BD9C0A00205C4C002070B505469A
:104B300000883F4CC0F30A0121806878AA78C00839
:104B400040EA4210C0F30A026280A878EB7880093C
:104B500040EA83002B79A1F5806140EA8320C0F30D
:104B60000A06A68028796B79400840EAC310C0F392
:104B70000A00E0806B79A2F58062C3F30113A3728F
:104B80006B79A6F580669B09E372EB88A3812B897C
:104B9000E3816B8923822B7BA3746B7BE374EB89AA
:104BA000A3822B8A21806280A680A0F58060E080AD
:104BB000A3F580632381122229461E48FEF778FE62
:104BC000A97B1D4801F00102428001F002028280AF
:104BD00001F00402C28001F00802028101F04002EB
:104BE000428101F08002828101F01002C28101F055
:104BF00020010182A17C0170E17C4170A18A01F455
:104C00008072428201F40072828201F48062C28268
:104C100001F40062028301F48052428301F40052E5
:104C2000828301F48042C28301F40041018470BD9B
:104C3000744C0020580A00200C0100200148FEF7A7
:104C40006DBB0000E00A00200C4808B501680A6846
:104C50004A680092CA6842F01002CA6001684A6954
:104C600042F040024A61C82100910168044B806B08
:104C7000A3F1C802091DFCF783F808BDE00A002073
:104C80007C4B002030B52648264987B090F8493043
:104C9000CB7090F84A208A70B0F85F20CA80B0F8D4
:104CA00061200A81B0F86C204A81826ECA60D0F817
:104CB0008A2000EE102AB5EEC00AF1EE10FA00D0FC
:104CC0000A6142794FF41675140902220C71072B00
:104CD00007D06B2B0AD00B78012B04D0022B06D007
:104CE0000BE001230B70B0F81B0002E00A70B0F873
:104CF0002B0010B1A84200D04A708DF818400878F7
:104D00008DF819001020009000200290CDE90302D8
:104D1000012306AA69460448FCF762FA07B030BDD1
:104D20008A4C00203001002034070020FEE70000FC
:104D300030B50C46050014D0022C12D90A48A11E29
:104D400002882846FCF716FA2919C2B211F8023C6B
:104D50009A4206D111F8011CB1EB102F01D10120AC
:104D600030BD002030BD00000801002030B50C46E9
:104D700005000CD0022C0AD9FF22611EFCF710FAA4
:104D8000291911F8011C814201D1012030BD0020F8
:104D900030BD0907090E002804DB00F1E02080F88F
:104DA0000014704700F00F0000F1E02080F8141D9F
:104DB00070472DED020B019820F0004001909DED11
:104DC000000B02B0704700000D49896B814207D18A
:104DD0000068016841F4002101600A48FFF7A6BE9F
:104DE0000949896B814209D10068016841F40021B9
:104DF0000160064801780648FEF7A4BD7047000030
:104E00009C0A0020444C0020E00A00200A010020F7
:104E1000B44A00200D49896B814207D100680168BE
:104E200021F4002101600A48FFF780BE0949896B1F
:104E300081420AD10068016821F40021016006481E
:104E400001780348E038FEF77DBD70479C0A0020DA
:104E50005C4C0020E00A00200A010020FDF7BAF9AE
:104E6000FFF7E4FAFEF70EFFFEF782FEFEF73CFEC8
:104E7000FEF75CFEFFF756F9FFF770F9FFF78CF9C4
:104E8000FFF708F8FEF7E6FFFFF75AF8FFF7BEF85E
:104E9000FFF7EEF8FFF720F9FFF720F800210A48A6
:104EA000FEF7CAF9002211461C20FDF72BFAFBF78A
:104EB000ADFBFBF7D5FBFFF7C7FEFFF719FEFEF7CB
:104EC000ADFE00F010F8FEE7100A002001460020B9
:104ED000842900D0C81C704710B500B9012000F02B
:104EE00093FC002010BD10B500F0B4FC002010BDF4
:104EF0007FB50D4604464169B0F9080081B1A1694A
:104F000071B1FFF7E3FFD4E905128DE80700D4E99A
:104F100000102B46226900F0B0FD039004B070BD74
:104F2000FFF7D4FF03A9CDE90001208A2B4682B206
:104F3000D4E9001000F074FD012801D00020EDE755
:104F40000398EBE780ED050AC0ED060A90ED071A1D
:104F500070EE600A80ED081AC0ED070A90ED000AB5
:104F600060EE201AC0ED091A90ED0A0A90ED012AB0
:104F700002EE200A70EEC10A80ED0A0A90ED021AD4
:104F800020EE812A80ED0B2AD0ED030AB1EE601AE3
:104F9000B4EEC10AF1EE10FA02D8B0EE410A06E012
:104FA000B4EEE00AF1EE10FA01DBB0EE600A80ED3B
:104FB0000A0A31EE800A30EE020A80ED0C0AD0EDCA
:104FC000040AB1EE601AB4EEC10AF1EE10FA02D88A
:104FD000B0EE410A06E0B4EEE00AF1EE10FA01DBB1
:104FE000B0EE600A80ED0C0A704780EC050A70474D
:104FF0002DE9F041184C0F460546E6682068001D73
:1050000000F03AFB38B9206890F82C100120884055
:10501000216981432161681C07D137B12168BDE84E
:10502000F0410E48091D00F06BBB20683544B542C5
:105030004560216805D2A06BBDE8F041091D00F074
:1050400047BB606B091D00F043FBA06A854200D29C
:10505000A562BDE8F081000024000020880E002039
:105060002DE9F041054600F057FB2E4CA068401C8E
:10507000A06020682C4F10B1606940B32DE025601E
:10508000A068012829D1002606EB860007EB8000E6
:1050900000F010FB761C072EF6D323488C3000F06E
:1050A00009FB2148A03000F005FB1F48B43000F098
:1050B00001FB1D48C83000F0FDFA1B48DC3000F051
:1050C000F9FA19488C3060631430A06305E0206859
:1050D000E96AC06A884200D82560606A401C606244
:1050E000E96A0120226988401043206101EB8100B8
:1050F00007EB8000291D00F003FB00F02DFB606929
:1051000000280CD02068E96AC06A884207D20749A3
:105110004FF080500860BFF34F8FBFF36F8FBDE833
:10512000F081000024000020AC0D002004ED00E020
:1051300010B5044690F8510058B101280CD002284F
:105140000FD0502080F31188BFF34F8FBFF36F8FC4
:10515000FEE7206B00F014FB2046BDE8104000F095
:105160000FBB10BD10484FF47051420706D0C01D50
:105170000D4920F00700411AC1F570510B4A002378
:105180000144C2E900030839183A21F0070111600F
:105190004B600B600B1AC0E9001393604FF00040A6
:1051A00053605061704700009C0E00207800002082
:1051B000144E154CA6F1C8074FF08058DFF84C90FC
:1051C00012E000BF00F0A8FAF068C568281D00F0E2
:1051D00053FAA068401EA0606068401E606000F046
:1051E000BBFA2846FFF7A4FF60680028EAD13868B8
:1051F0000128F9D9C9F80080BFF34F8FBFF36F8F33
:10520000F2E70000740E00202400002004ED00E00E
:105210002DE9F0479A46DDE9098481466FF00303E2
:10522000206B03EB82021044089E20F007077807EA
:1052300007D0502080F31188BFF34F8FBFF36F8FDB
:10524000FEE7002561B1002023180A5C83F83420B2
:105250000A5C12B1401C1028F6D384F8435001E0D8
:1052600084F83450072E00D30626E662C4E911659F
:10527000201D00F02AFA04F1180000F026FA24613B
:10528000C6F107006462A061E56484F8505052469C
:105290004946384600F0C0F82060B8F1000F01D050
:1052A000C8F80040BDE8F08730B5114900E011466C
:1052B0000A688242FBD34B685C18844203D1406881
:1052C00018444860084643681C18944209D1084CA9
:1052D000183C2468A24209D052681A4442600A6805
:1052E00012680260814200D0086030BD0460F9E7B6
:1052F000780000200648416B096829B1416BC968F4
:10530000C9684968816270474FF0FF31FAE70000D1
:105310002400002008484068401C4FF0500080F3F3
:10532000118804D0BFF34F8FBFF36F8FFEE7BFF339
:105330004F8FBFF36F8FFEE7800000202DE9F04113
:105340000546002700F0BCFA324E306808B9FFF776
:1053500009FF706905424ED1C5B3083568070ED004
:1053600005F00700C0F108000544680707D0502089
:1053700080F31188BFF34F8FBFF36F8FFEE72DB31C
:105380007068854237D82348183001460C6801E020
:1053900020460C466168A94202D221680029F7D153
:1053A00031688C4227D0076821680160606808373F
:1053B000411B10290FD96019420708D0502080F3F3
:1053C0001188BFF34F8FBFF36F8FFEE713E041608B
:1053D0006560FFF769FF61687068401A7060B268C5
:1053E000904200D2B060706901430020C4E900011E
:1053F000F068401CF06000F0D1FB780707D0502027
:1054000080F31188BFF34F8FBFF36F8FFEE73846ED
:10541000BDE8F0816000002010B5031F4FF08074DC
:105420001C601B1F21F001011960191F044B0B6048
:1054300014390A60091F6FF0020244380A6010BD77
:105440001553000810B588B00A9C18B340F2FF202D
:10545000029000200490059008200690080A8DF81C
:1054600000008DF80110100A8DF80200180A8DF85E
:1054700004008DF80530200A8DF806008DF8032011
:105480008DF8074001236A4602A90448FBF7A8FEED
:1054900008B010BD4FF40070DAE7000034070020B8
:1054A00010B588B00A9C18B340F2FF20029000208B
:1054B0000490059008200690080A8DF800008DF8E9
:1054C0000110100A8DF80200180A8DF804008DF8FA
:1054D0000530200A8DF806008DF803208DF807406E
:1054E00001236A4602A90448FBF77AFE08B010BD02
:1054F0004FF40070DAE700005C070020F0B52F4899
:10550000DFED2D0AB2EE040A02882D482AB190ED93
:10551000001A31EE001A80ED001A2A490B882BB1CF
:1055200090ED011A31EE001A80ED011A26490C881F
:105530002CB190ED021A31EE001A80ED021A2349C7
:105540000D882DB190ED031A31EE001A80ED031A8B
:105550001F490E882EB190ED041A31EE001A80ED2D
:10556000041A1C490F882FB190ED051A31EE000A7C
:1055700080ED050A5FF0000100EB810C9CED000A54
:10558000B4EEE00AF1EE10FA01DDCCED000A491CA0
:105590000629F1DB1A4322432A4332430BD1002F61
:1055A00009D100219FED0C0A00EB8102491C82ED1C
:1055B000000A0629F8DBF0BD00606A460E010020F3
:1055C0009C4A00201001002012010020140100203C
:1055D00016010020180100200000000038B5044624
:1055E0000068016840680090204884421BD1A06B8D
:1055F0000068016821F001010160A06B01684A6840
:10560000062A06D10968090301D5416C00E0C16B87
:105610008847A16B182009684860A06B0068016882
:1056200041F001010160124884421DD1A06B006865
:10563000016821F001010160A06B01684A680D4B0F
:10564000C2F1C8021A700968090301D5416C00E073
:10565000C16B8847A16BC82009684860A06B0068CF
:10566000016841F00101016038BD00009C0A002082
:10567000E00A00200A010020D0E9013201699A60A5
:10568000D0E901235A604A68824201D182684A60A7
:10569000002202610868401E086008687047000028
:1056A000034B036003F154000860802010607047D2
:1056B000E004002000F108014FF0FF32C0E90112C0
:1056C000C1600161002101607047002101617047E4
:1056D00030B50B685A1C02D000F1080202E00269E2
:1056E00004E02246546825689D42FAD953684B600D
:1056F00099608A60516008610168491C016030BD91
:1057000042684A6093688B60936859609160086151
:105710000168491C01607047502080F31188BFF375
:105720004F8FBFF36F8F0A494868401C48600128BB
:105730000CD10848006810F0FF0F07D0502080F30C
:105740001188BFF34F8FBFF36F8FFEE770470000E4
:105750008000002004ED00E00849486828B1401EA0
:10576000486001D180F311887047502080F3118880
:10577000BFF34F8FBFF36F8FFEE700008000002064
:1057800070B500282AD0164DA0F108046068696938
:10579000084207D1502080F31188BFF34F8FBFF329
:1057A0006F8FFEE722683AB1502080F31188BFF373
:1057B0004F8FBFF36F8FFEE78843606000F080F883
:1057C00060686968084468602046FFF76DFD2869D5
:1057D000401C2861BDE8704000F0E0B970BD0000D9
:1057E000600000204FF0E020002101618161054947
:1057F0004FF47A720968B1FBF2F1491E4161072149
:10580000016170472000002010B5020014D00F483D
:10581000006B38B1502080F31188BFF34F8FBFF376
:105820006F8FFEE700F04CF800211046FFF7E0FB19
:1058300000F0B4F9002807D105494FF08050086006
:10584000BFF34F8FBFF36F8F10BD00002400002007
:1058500004ED00E010B586B00024039405AA04A965
:1058600003A80494FFF71CFFDDE903010094CDE9D0
:10587000011000230EA11048059A00F0FEF80F4910
:105880000028C86211D0502080F31188BFF34F8FD9
:10589000BFF36F8F4FF0FF30886201204861CC600A
:1058A00006B0BDE8104000F041B806B010BD0000E1
:1058B00049444C4500000000B1510008240000207C
:1058C0000248016B491C016370470000240000205E
:1058D0001448016B11B10121C16170470021C16100
:1058E0000169B1FA81F1C1F11F0101EB81020E4999
:1058F00051F822306BB101EB820101F108034A68D3
:1059000052684A609A4201D152684A60D168016087
:105910007047502080F31188BFF34F8FBFF36F8F14
:10592000FEE7000024000020AC0D00201CB5374825
:105930000168374A914207D1502080F31188BFF3A4
:105940004F8FBFF36F8FFEE700683149491E8842D1
:1059500007D1502080F31188BFF34F8FBFF36F8FB3
:10596000FEE72C4908780190FF20087008788DF830
:1059700000009DF800009DF8002000F0F00090422B
:1059800007D0502080F31188BFF34F8FBFF36F8F84
:10599000FEE79DF80000204C00F05000207007202A
:1059A000A06005E09DF8002052008DF80020401E08
:1059B0009DF800201206F5D4A060032807D05020DF
:1059C00080F31188BFF34F8FBFF36F8FFEE74FF463
:1059D0004070A060019808700C482030016841F4C4
:1059E00070010160016841F070410160FFF7FAFE4B
:1059F00000206060FAF75CFC0848016841F0404113
:105A00000160FAF741FC00201CBD000000ED00E041
:105A100071C20F4100E400E08000002034EF00E09C
:105A20002DE9FF5F8346DDE90E87994616468A46D3
:105A30009000FFF783FC05001CD05420FFF77EFC8C
:105A4000040014D00020256384F85100CDE9024001
:105A5000CDE900874B46324651465846FFF7D8FB02
:105A60002046FFF7FDFA012004B0BDE8F09F28466C
:105A7000FFF786FE4FF0FF30F6E7F0B585B0DDE9C1
:105A80000B640A9DA6B1DCB1542700972663022659
:105A900084F85160002604AFCDE90246CDE90057F5
:105AA000FFF7B6FB2046FFF7DBFA049805B0F0BD20
:105AB000502080F31188BFF34F8FBFF36F8FFEE745
:105AC000502080F31188BFF34F8FBFF36F8FFEE735
:105AD0002DE9F0412F4C0026206B28B1A069401C15
