:020000040800F2
:10000000B871002029030008274700088D3F000829
:10001000B546000865070008997800080000000050
:10002000000000000000000000000000690200085D
:10003000690D000800000000C50200085D500008BE
:100040004303000843030008430300084303000878
:100050004303000843030008430300084303000868
:100060004303000843030008430300084303000858
:100070009D09000843030008A9090008430300087C
:10008000430300084303000843030008B1070008C6
:10009000A5070008430300084303000843030008C2
:1000A0004303000843030008430300084303000818
:1000B000430300082D5100084303000843030008D0
:1000C00043030008430300084303000843030008F8
:1000D00043030008CD5700084303000815580008E3
:1000E00043030008430300084303000843030008D8
:1000F00043030008430300084303000843030008C8
:1001000043030008430300084303000843030008B7
:1001100043030008430300084303000843030008A7
:1001200043030008B5090008C1090008430300089B
:1001300043030008430300084303000805080008C0
:10014000F90700084303000843030008AD4800080E
:1001500043030008CD090008D909000869580008C0
:100160004303000843030008430300084303000857
:100170004303000843030008430300080000000095
:10018000430300084303000800F002F800F05CF8A5
:100190000AA090E8000C82448344AAF10107DA45E2
:1001A00001D100F051F8AFF2090EBAE80F0013F0D8
:1001B000010F18BFFB1A43F001031847048D00001C
:1001C000248D00000A444FF0000C10F8013B13F09E
:1001D000070408BF10F8014B1D1108BF10F8015BA0
:1001E000641E05D010F8016B641E01F8016BF9D193
:1001F00013F0080F1EBF10F8014BAD1C0C1B09D1EA
:100200006D1E58BF01F801CBFAD505E014F8016B5B
:1002100001F8016B6D1EF9D59142D6D370470000ED
:100220000023002400250026103A28BF78C1FBD8FF
:10023000520728BF30C148BF0B6070471FB508F098
:1002400054FC1FBD10B510BD00F0A6F91146FFF714
:10025000F5FF07F0ABFC00F0C4F903B4FFF7F2FFC1
:1002600003BC00F0CBF900002C4B19680868B0E81B
:10027000F04F80F30988BFF36F8F4FF0000080F3D9
:10028000118870470000000008480068006880F38B
:1002900008884FF0000080F3148862B661B6BFF39F
:1002A0004F8FBFF36F8F00DF00BF00BF08ED00E08E
:1002B000DFF80C00016841F470010160704700BF75
:1002C00088ED00E0EFF30980BFF36F8F134B1A68DE
:1002D0001EF0100F08BF20ED108A20E9F04F1060CB
:1002E00009B44FF0500080F31188BFF34F8FBFF374
:1002F0006F8F08F0BBF94FF0000080F3118809BC44
:1003000019680868B0E8F04F1EF0100F08BFB0EC95
:10031000108A80F30988BFF36F8F704700010020B7
:10032000EFF30580704700000948804709480047FF
:10033000FEE7FEE7FEE7FEE7FEE7FEE7FEE7FEE795
:10034000FEE7FEE704480549054A064B70470000F2
:100350001D51000889010008B8690020B87100200B
:10036000B86D0020B86D002053EA020C00F06980DF
:100370002DE9F04B4FF00006002B1FBFB3FA83F5B9
:1003800003FA05F424FA05F65E4012BF1643B2FAEA
:1003900082F502FA05F4C5F120051EBF22FA05FC1C
:1003A00044EA0C04203556EA044C4FEA144418BFC2
:1003B000641C4FF000084FF00009904271EB030CF1
:1003C00039D3002919BFB1FA81F701FA07F6B0FA5B
:1003D00080F700FA07F6C7F120071EBF20FA07FCD6
:1003E00046EA0C062037B6FBF4FCA7EB0507103FE6
:1003F00007F01F0BCBF120060CFA0BFB2CFA06F6CC
:1004000044BFB3460026202FA4BF5E464FF0000B2A
:100410005BEA060C08BF4FF0010B19EB0B09ABFBB5
:10042000027C48EB0608C01B06FB02CC0BFB03CC8E
:1004300071EB0C01C1E70B46024641464846BDE858
:10044000F08B13B54FF000004FF00001AFF30080C8
:10045000BDE81C407047032A40F2308010F0030CC6
:1004600000F0158011F8013BBCF1020F624498BF07
:1004700011F801CB00F8013B38BF11F8013BA2F1A4
:10048000040298BF00F801CB38BF00F8013B11F01F
:10049000030300F02580083AC0F0088051F8043BBF
:1004A000083A51F804CBA0E80810F5E7121D5CBF2C
:1004B00051F8043B40F8043BAFF30080D20724BF5F
:1004C00011F8013B11F801CB48BF11F8012B24BFF3
:1004D00000F8013B00F801CB48BF00F8012B704742
:1004E00010B5203AC0F00B80B1E81850203AA0E8CF
:1004F0001850B1E81850A0E81850BFF4F5AF5FEA03
:10050000027C24BFB1E81850A0E8185044BF18C9B5
:1005100018C0BDE810405FEA827C24BF51F8043B5C
:1005200040F8043B08BF7047D20728BF31F8023BB0
:1005300048BF11F8012B28BF20F8023B48BF00F844
:10054000012B70474FF0000200B5134694469646C3
:10055000203922BFA0E80C50A0E80C50B1F12001D6
:10056000BFF4F7AF090728BFA0E80C5048BF0CC084
:100570005DF804EB890028BF40F8042B08BF7047E2
:1005800048BF20F8022B11F0804F18BF00F8012B54
:100590007047704770477047754600F02BF8AE46BD
:1005A00005006946534620F00700854618B020B57F
:1005B000FFF7C8FEBDE820404FF000064FF00007EF
:1005C0004FF000084FF0000B21F00701AC46ACE8FB
:1005D000C009ACE8C009ACE8C009ACE8C0098D4668
:1005E000704710B50446AFF300802046BDE81040C8
:1005F000FFF733BE004870475469002001491820B6
:10060000ABBEFEE726000200704700002DE9F04176
:100610004648484C2DED068B01784548D4ED000A3C
:1006200090ED070A11B130EE800A04E042480078EC
:1006300018B130EEC00A84ED000A4048404D3C49F4
:100640000078D5ED000A91ED080A10B170EE800A2D
:1006500004E03C48007818B170EEC00AC5ED000A0D
:1006600039483A4E0078D6ED000A10B130EE800AD3
:1006700004E03748007818B130EEC00A86ED000A71
:1006800034482B49344F0078D1ED060A97ED000A23
:1006900010B130EE200A04E03048007818B130EE96
:1006A000600A87ED000A2E48007808B104F084FA49
:1006B000306808F0A9F941EC1A0B286808F0A4F991
:1006C00041EC190B386808F09FF941EC180B2068D1
:1006D00008F09AF941EC100BB0EE4A3AF0EE6A3AA3
:1006E000B0EE492AF0EE692AB0EE481AF0EE681A28
:1006F00004F082FAD6ED001A95ED001AD7ED000A43
:1007000094ED000A03F0D7FF012007F09DFA07F0EF
:10071000E9F9012007F098FA07F094F9BDEC068B8F
:100720000120BDE8F04107F08FBA0000BC010020B5
:100730000000002084010020BD010020B80100203D
:100740008C010020B9010020C3010020900100208D
:10075000C5010020BA01002088010020BB01002053
:10076000C1010020FEE7000000B58BB00020012190
:10077000CDE906010590009001900290039004904D
:100780000E20CDE908106946054800F013FC02214F
:10079000034800F08FFB024801F06AF80BB000BD7F
:1007A0009C070020014800F000BD00009C070020CD
:1007B000014800F0FABC00009C07002000B58BB097
:1007C00001220E2100200792CDE90510039004902C
:1007D000CDE908210090019002906946054800F09B
:1007E000E9FB0221034800F065FB024801F040F8F4
:1007F0000BB000BDC4070020014800F0D6BC0000CB
:10080000C4070020014800F0D0BC0000C40700204D
:10081000024AC2E90001024870470000D4000020EB
:100820009C170020002070470020704710B5002260
:100830000449054805F050FA0449034805F03EFA1A
:10084000002010BD9C1F0020940B00209C1700204E
:1008500010B50C460146074805F030FA054805F08A
:10086000FDF90548416811B1208880B28847002011
:1008700010BD0000940B0020D4000020044810B5E7
:10088000026812B1088880B29047002010BD0000B5
:10089000D4000020094A10B5D2F8BC22D2F81422A4
:1008A0000AB1012010BD0A460146044805F014FAB9
:1008B000BDE81040014805F0A7BA0000940B0020E5
:1008C0002DE9F0472B48DFF8B0A0DFF8B480DFF85F
:1008D000B8902F4F2DED068B06682848CAF80060A7
:1008E00005682848C8F8005004682848C9F800403E
:1008F0000068386008F088F841EC1A0B204608F0D0
:1009000083F841EC190B284608F07EF841EC180BEF
:10091000304608F079F841EC100BB0EE4A3AF0EEB0
:100920006A3AB0EE492AF0EE692AB0EE481AF0EEC3
:10093000681A04F061F9D7ED001A99ED001AD8EDA4
:10094000000A9AED000A03F0B6FE07F0CBF801208A
:1009500007F07AF907F076F8012007F075F90D48ED
:100960000078002802D00C4900200870BDEC068BEE
:10097000BDE8F087440000208401002050000020E2
:1009800088010020480000208C0100204C0000203D
:1009900090010020BC01002000000020014800F070
:1009A000F5BF0000140A0020014800F0EFBF00006E
:1009B000740A0020014800F0E9BF0000D40A0020BA
:1009C000014800F0E3BF000054090020014800F096
:1009D000DDBF0000340B0020014800F0D7BF00004D
:1009E000B40900202DE9F04F85680024099E802D70
:1009F00018D0894DC563894D456490F83450012D58
:100A000015D0012580F8345090F83550012D10D0C4
:100A1000002180F834100224002180F83410204690
:100A2000BDE8F08F4FF4807141650120F8E70220A6
:100A3000F6E7022580F835500025456505682F68E2
:100A400047F480272F6005682B6103685E60836828
:100A5000402B03682AD099600168CA60714D704EBE
:100A6000704FDFF8BC81DFF8B891DFF8B8A1DFF88C
:100A7000B4B1EA14DFF8A8E1016818363037930200
:100A8000A9F148090AF1600A0BF1180BAEF1300E1A
:100A90004FF0006C41452DD9A94205D0494503D0FE
:100AA000514501D0B14205D1202220E09A60026870
:100AB000D160D3E759451AD0714518D0594D7835D2
:100AC000A94214D0564D3035A94210D0B9420BD0AE
:100AD000534A183A914207D0524A9032914203D079
:100AE0004F4A4832914201D11A4600E062464C49D1
:100AF0004C392EE0DFF82C8108F1A80841452AD9AD
:100B0000A94205D0494503D0514501D0B14201D198
:100B100020221CE059451AD0714518D0414D783536
:100B2000A94214D03E4D3035A94210D0B9420BD065
:100B30003B4A183A914207D03A4A9032914203D048
:100B4000374A4832914201D11A4600E062463449A0
:100B500050390A605AE0DFF8CC8008F14808414576
:100B60002AD9A94205D0494503D0514501D0B14207
:100B700001D120221CE059451AD0714518D0294DC9
:100B80007835A94214D0264D3035A94210D0B9424B
:100B90000BD0234A183A914207D0224A9032914210
:100BA00003D01F4A4832914201D11A4600E0624602
:100BB0001C491039CA6029E0A94205D0494503D033
:100BC000514501D0B14201D120221CE059451AD033
:100BD000714518D0134D7835A94214D0104D3035D9
:100BE000A94210D0B9420BD00D4A183A914207D011
:100BF0000C4A9032914203D0094A4832914201D1C5
:100C00001A4600E06246074910398A6001680A689E
:100C100042F001020A60FFE6557B0008817B000874
:100C2000586402401060024001681823CAB2103AAA
:100C3000B2FBF3F2054B6FF30901032A9B5CC3651A
:100C400000D9091D8165084670470000708B0008B7
:100C500010B5014600208B698A6A4FF0C07453B109
:100C6000B3F5005F15D072B1012A0CD0022A0AD068
:100C7000032A09D104E01AB1012A06D0022A03D1BD
:100C8000C96AC90100D5012010BDC96AA142FAD0C4
:100C900010BD002AF7D0012AF2D0022AF3D0032A8D
:100CA000F3D010BD30B50468256825F48025256093
:100CB000046863608368402B036803D09960006810
:100CC000C26030BD9A600068C16030BDF0B585B0CB
:100CD000012006F0B9FFFF24FC2501940294CDE920
:100CE0000345A61C2346224621463046009400F0C8
:100CF0007DF8012006F0A8FFFF2301940294CDE9BE
:100D00000345DF1C1A4619463846009400F06EF879
:100D1000012006F099FF01940294FF23CDE90345D9
:100D20001A4619463846009400F028F8012006F0CB
:100D30008BFF01940294FF23CDE903451A4619461F
:100D40003046009400F01AF805B00120BDE8F040EC
:100D500006F07ABF01680A68D20604D5C968C906D8
:100D600001D507F0F5BA7047704701B5009801E06A
:100D7000401E00900028FBD108BD00002DE9F04185
:100D800006AC94E8E050174C206000206060A06042
:100D9000E0600820206121766276A376E5762677EA
:100DA000677784F81EC084F81FE004F1180201235D
:100DB00014460C490C4800F08FF800280FD002238D
:100DC00022460849084800F087F8002807D0224644
:100DD000BDE8F04104230349034800F07DB8BDE8B5
:100DE000F08100003C6800209C0700202DE9F047BE
:100DF00008ACDFF8688094E8E0120124A8F800400D
:100E0000174C206000206060A060E0600820206136
:100E100021766276A376E5762677677784F81E904A
:100E200084F81FC004F11802012314460C490D4830
:100E300000F052F800280FD0022322460849094842
:100E400000F04AF8002807D02246BDE8F047042306
:100E50000349044800F040B8BDE8F087E4010020F1
:100E60005C680020C407002072B6FEE710B558B1D8
:100E7000084C491E0BD310F8013B5340DBB234F849
:100E8000133083EA1222F4E74FF6FF7010BD1046CC
:100E900010BD0000908C000810B5054C04E000BFA8
:100EA00010F8013B5340E25C491EF9D2104610BDD8
:100EB000908B000890F82020012A07D0022A05D044
:100EC000416A41F480214162012070470068426913
:100ED0000A43426100207047F0B590F82050046842
:100EE000A468012D05D0022D03D0416A41F4802170
:100EF0005DE014F0406F01D1E50055D5C4F3016405
:100F0000022C03D9416A41F4000150E00125A540BB
:100F10001D608D684FF4C0739DB1CE6835434E6837
:100F200045EAC605066803EB0417F5514FF4C27590
:100F3000076805EB04150E697E51097D012905D06E
:100F400009E00E88CD6845EA4655EBE701684E5941
:100F500046F480764E511179D579567941EA05618A
:100F600095792D0445EA062529434FF4C676056890
:100F700006EB0416A9511178D57841EA05619578F8
:100F800052782D0445EA022211434FF4C4750268D9
:100F900005EB04155151006803EB0411425842F06F
:100FA000010242500020F0BD416A41F4001141624B
:100FB0000120F0BD10B590F82020012A07D0022AA8
:100FC00005D0416A41F480214162012010BD3B48B7
:100FD000D0F8002242F00102C0F80022D0F800222E
:100FE00022F47C52C0F80022D0F800224B6A42EA78
:100FF0000322C0F800220A7D02F01F0301229A405A
:10100000D0F81C329343C0F81C32CB69B3B9D0F886
:101010000C329343C0F80C328C894B6864F31F4345
:101020004C6900EBC404C4F840320C890B6864F3CB
:101030001F434C6900EBC404C4F84432CB69012B54
:1010400016D1D0F80C321343C0F80C320C884B6820
:1010500064F31F434C6900EBC404C4F840320C89AC
:10106000CB6864F31F434C6900EBC404C4F84432FA
:101070008B69002BD0F804320ED01343C0F8043231
:101080000B69002BD0F8143208D01343C0F8143287
:10109000096A012904D008E09343EFE79343F5E799
:1010A000D0F81C121143C0F81C12D0F8001221F025
:1010B0000101C0F80012002010BD000000640040D3
:1010C000704730B590F82040012C05D0022C03D099
:1010D000416A41F480215DE00468002955D024690B
:1010E000A40754D04FF4D874056804EB01142D59AB
:1010F00015F00405956005682D594ED0ED08556032
:1011000005682C5904F00204D4604FF4DA740568C1
:1011100004EB01142D5905F00F05156105682D59D3
:10112000C5F30725956105682C59240C54614FF4CB
:10113000DC72046802EB0112A4581C700468A45805
:10114000240A5C700468A458240C9C700468A2589B
:10115000120EDA704FF4DE72046802EB0112A4582A
:101160001C710468A458240A5C710468A458240CF7
:101170009C710468A258120EDA71006881B101698D
:1011800041F020010161002030BDE468A8E7416A18
:1011900041F400114162012030BD6D0D1560AFE7D3
:1011A000C16841F02001C160EDE72DE9F05F05461F
:1011B000006800244669D0F804908768D0F80CB025
:1011C000D0F810A0D0F81880F10748D0F90714D053
:1011D00001218160B80703D5284600F076FB0CE0BA
:1011E000780702D54FF4006407E0380702D54FF4C2
:1011F000805402E0284600F067FBF80516D5296800
:101200004FF480708860B80503D5284600F05FFB76
:101210000CE0780502D544F4005407E0380502D507
:1012200044F4804402E0284600F050FBF80316D551
:1012300029684FF480308860B80303D5284600F051
:1012400048FB0CE0780302D544F4004407E038037F
:1012500002D544F4803402E0284600F039FB300720
:1012600007D55FEACB6004D52968102044F40074E8
:10127000C86070074FF0080707D55FEA0B7004D508
:101280002868C760284600F0A9F9B00706D5286885
:10129000C068800702D0284600F0A2F9700607D582
:1012A0005FEACA6004D52968102044F480640861AC
:1012B000B00607D55FEA0A7004D52868076128469A
:1012C00000F0D2FAF00606D528680069800702D03F
:1012D000284600F0CAFAB00308D55FEAC96005D510
:1012E000296810204860284600F0C0FAF00307D5AE
:1012F0005FEA097004D528684760284600F0EAFADA
:10130000300446D55FEA497040D5F00504D55FEA60
:10131000C87001D044F00104B00504D55FEA8870BC
:1013200001D544F00204700504D55FEA487001D588
:1013300044F00404300529D518F0700F26D008F0C9
:101340007000402815D006DC102809D020280AD0CB
:10135000302816D10AE050280ED0602811D10EE0B6
:1013600044F008040DE044F010040AE044F02004C6
:1013700007E044F0400404E044F0800401E044F459
:1013800080742868816921F07001816129680420D6
:101390004860002C05D0686A204368622846FFF741
:1013A0008FFEBDE8F09F70B5040003D094F82000D4
:1013B00010B104E0012070BD204600F081F82068E3
:1013C000016841F00101016000F06EFD054605264F
:1013D00004E000F069FD401B0A2811D8206840682D
:1013E000C007F6D02068016821F00201016000F01A
:1013F0005BFD05460BE000F057FD401B0A2806D9AF
:10140000606A40F40030606284F82060D2E72068AF
:1014100040688007EFD4207E0128206801683DD015
:1014200021F080010160607E01282068016838D0C9
:1014300021F040010160A07E01282068016833D0BE
:1014400021F020010160E07E0128206801682ED093
:1014500041F010010160207F01282068016829D037
:1014600021F008010160607F01282068016824D014
:1014700021F004010160D4E902010843D4E9041217
:10148000114308436168491E08432168C861002070
:101490006062012084F82000002070BD41F08001CE
:1014A000C0E741F04001C5E741F02001CAE721F063
:1014B0001001CFE741F00801D4E741F00401D9E77A
:1014C000F0B587B0044614216846FFF73BF83E4B61
:1014D0003E48DFF8F0E01968D4F800C03B4A032525
:1014E0000226092710300024491CF4452AD119602E
:1014F000012907D1016841F000710160006800F026
:1015000000700590106840F0080010601068CDE988
:10151000005600F00800CDE9047069462C48CDE97A
:10152000024500F0B7FB00220521132000F052FE17
:10153000132000F041FE00220521142000F04AFE95
:1015400014203AE0DFF88CE0F44538D1D0F800C040
:101550004CF0806CC0F800C0D0F800C001290CF03D
:10156000806CCDF814C0196007D1016841F000719A
:101570000160006800F000700590106840F0020003
:101580001060106802AB00F0020005906020CDE909
:10159000000683E8B00069460F4800F07BFB00229C
:1015A00005213F2000F016FE3F2000F005FE00223E
:1015B0000521402000F00EFE402000F0FDFD07B0A8
:1015C000F0BD000000640040800000203038024080
:1015D000000C024000680040000402407047000018
:1015E000F0B5064600689A4989B00125994C07AFC5
:1015F00088427DD13B466A4600213046FFF761FDB7
:10160000002879D19DF81C00012806D002282CD092
:10161000009901B96561012823D10098F0BBBDF89C
:101620001D008D4A40BAF2EE090A10609DF81F10A5
:10163000BAEE090A0B019DF8201043EA111353601A
:101640009DF8213001F00F0143EA01219160102142
:1016500006F0CCFE82ED030A206810B984ED060A7C
:1016600025609DF81C00022826D10098B0B97A4A5E
:10167000BDF81D00183240BA10609DF81F100B0114
:101680009DF8201043EA111353609DF8213001F0BA
:101690000F0143EA01219160102100E00CE0F2EE1D
:1016A000090ABAEE090A06F0A1FE82ED030A606893
:1016B00010B984ED070A65600098A0F201200728A0
:1016C00014D2C0B200EBC0026448BDF81C1000EB9D
:1016D000420049BA8180BDF81E1049BA8181BDF827
:1016E000201049BAC1819DF822100174022100E046
:1016F00002E03046FFF7DEFB5949306888427DD171
:101700003B466A4600213046FFF7DBFC002878D1D3
:101710009DF81C00012804D0022828D003284ED0B0
:101720004FE00098F0BB4C4ABDF81D00303240BA83
:1017300010609DF81F10F2EE090A0B019DF82010B1
:10174000BAEE090A43EA111353609DF8213001F003
:101750000F0143EA01219160102106F047FE82ED5E
:10176000030AA06850BB84ED080AA56043E0009816
:10177000C0B9394ABDF81D00483240BA10609DF822
:101780001F10F2EE090A0B019DF8201043EA111315
:1017900053609DF8213001F00F0143EA012191606F
:1017A000102100E00DE0BAEE090A06F01FFE82EDFE
:1017B000030AE06810B984ED090AE5601BE00098AF
:1017C00008B30098A0F20120072814D2C0B200EBA1
:1017D000C0022448BDF81C1000EB420049BA8180C9
:1017E000BDF81E1049BA8181BDF8201049BAC181E7
:1017F0009DF8221001740221304600E001E0FFF75D
:1018000059FB09B0F0BD144ABDF81D00603240BA62
:1018100010609DF81F10F2EE090A0B019DF82010D0
:10182000BAEE090A43EA111353609DF8213001F022
:101830000F0143EA01219160102106F0D7FD82EDEE
:10184000030A20690028D6D184ED0A0A2561D2E76F
:10185000006400406C010020F86600204C04002069
:1018600000680040CA0400207047704770470000BD
:1018700070B5044690F82000012804D0606A40F456
:101880000020606218E0022084F8200020680168CF
:1018900021F00101016000F007FB05460EE000BFEA
:1018A00000F002FB401B0A2808D9606A40F40030AF
:1018B0006062052084F82000012070BD2068406827
:1018C000C007EDD1606270BD7047704770477047C8
:1018D0007047704770472DE9F0410446876D00F06E
:1018E000E3FA064694F835000025022806D0802049
:1018F000606584F834500120BDE8F08120680168FB
:1019000021F0160101602068416921F080014161E8
:10191000206C08B9A06C20B12068016821F0080192
:1019200001602068016821F0010101600CE000F015
:10193000BBFA801B052807D920206065032084F8A6
:10194000350084F83450D7E720680068C007EED12E
:1019500094F85C103F208840B860012084F835007E
:1019600084F834500020C7E790F83510022903D0DE
:101970008021416501207047052180F835100068FD
:10198000016821F001010160002070472DE9F84352
:1019900004464FF00009CDF8009063484FF416510B
:1019A000A56D0068B0FBF1F72E6894F85C10082074
:1019B00000FA01F131420FD021680A6852070BD5B5
:1019C0000A6822F004020A6094F85C108840A8605B
:1019D000606D40F00100606594F85C104FF0010804
:1019E00008FA01F0304208D021684969090604D597
:1019F000A860606D40F00200606594F85C100420FF
:101A00008840304208D021680968890704D5A86059
:101A1000606D40F00400606594F85C101020884010
:101A2000304218D021680968090714D5A8602068D9
:101A30000168490304D50068000308D5A16C07E0DC
:101A40000168C90503D4016821F008010160216C17
:101A500009B12046884794F85C1020208840304225
:101A600031D021680968C9062DD5A86094F83500E1
:101A700005282068016806D0490347D5006800039F
:101A80001DD4616C1CE021F01601016020684169E1
:101A900021F080014161206C08B9A06C20B1206860
:101AA000016821F00801016094F85C103F20884033
:101AB000A86084F8358084F83490216D1FE0E16BD4
:101AC00009B120468847606D00282BD0606DC007A3
:101AD00014D0052084F835002068016821F0010148
:101AE00001600098401C0090B84203D8206800684C
:101AF000C007F6D184F8358084F83490E16C002971
:101B000010D001B02046BDE8F04308470168C90580
:101B1000D5D4016821F01001016084F8358084F883
:101B20003490CCE7BDE8F883FC0000202DE9F041BB
:101B3000044600F0B9F906465CB1022084F835008D
:101B4000002584F834502068016821F0010101600B
:101B50000DE00120BDE8F08100F0A6F9801B05280A
:101B600005D920206065032084F83500F2E720685D
:101B70000068C007F0D12268116820480140D4E90C
:101B800001031843D4E90336334318436369184308
:101B9000A3691843E3691843236A18430843616A39
:101BA000042903D1D4E90B131943084310602068BA
:101BB0004069666A20F0070130460E430127042879
:101BC0000CD1A06A0643E06A40B12046FFF740F816
:101BD00020B14020606584F83570BAE7206846611E
:101BE0002046FFF721F894F85C203F219140816066
:101BF000656584F835700020ACE700003F8010F088
:101C00002DE9F0410446866D90F834000025012846
:101C10000DD0012084F8340094F835700020012F95
:101C200007D084F8340002252846BDE8F081022060
:101C3000FBE7022784F8357060652046FFF732F82D
:101C400094F85C103F208840B0602068016841F043
:101C500016010160206C20B12068016841F0080184
:101C600001602068016841F001010160DCE70000CB
:101C700070B5044600F018F90546601C02D004480F
:101C80000078044400F010F9401BA042FAD370BD64
:101C9000F00000202DE9F84FDFF8BCA1002201255B
:101CA00003264FF00F090AF1040BAAF1040E00BF3E
:101CB0000B6805FA02F42340A34270D10F7907F0B4
:101CC0000307012F01D0022F16D187684FEA42087F
:101CD00006FA08FC27EA0C07D1F80CC00CFA08FC3D
:101CE0004CEA070CC0F808C04768A7430C79C4F356
:101CF000001494403C4344600C79E443A4070AD0A8
:101D0000C4684FEA420C06FA0CF7BC438F6807FA26
:101D10000CF72743C7600C7904F00304022C12D19E
:101D2000D40800EB840CDCF820405707FF0E09FABA
:101D300007F824EA0804D1F8108008FA07F848EAFE
:101D40000408CCF8208004684FEA420C06FA0CF72D
:101D5000BC430F7907F0030707FA0CF72743076026
:101D60004C6814F4403F70D03C4C276847F48047DF
:101D70002760246822F0030704F480440094384C60
:101D800007EB040CDCF8084897074FEA177809FAC4
:101D900008F7BC43334FB84202D1002724E054E097
:101DA000314FB84201D101271EE0304FB84201D176
:101DB000022719E02E4FB84201D1032714E02D4F1E
:101DC000B84201D104270FE02B4FB84201D10527BB
:101DD0000AE02A4FB84201D1062705E0284FB84251
:101DE00001D1072700E0082707FA08F72743CCF8B6
:101DF0000878DAF800405746D1F804C09C435FEAFF
:101E0000CC2C00D51C433C60DBF800405F46D1F889
:101E100004C09C435FEA8C2C00D51C433C60DEF878
:101E200000407746D1F804C09C435FEA8C3C00D563
:101E30001C433C60084F083F3C68D1F804C09C43F9
:101E40005FEACC3C00D51C433C60521C102AFFF4D6
:101E50002FAFBDE8F88F0000083C01404438024035
:101E6000003001400000024000040240000802402F
:101E7000000C024000100240001402400018024012
:101E8000001C02400069084000D0012070474269F0
:101E900021EA02030A4043EA0241816170470AB124
:101EA000816170470904FBE70148806870470000C2
:101EB000F000002070B5040025D094F83D00002506
:101EC00020B984F83C50204600F0B8F8242084F86B
:101ED0003D002068016821F001010160206801686F
:101EE00041F4004101602068016821F40041016073
:101EF00000F09CFF4D4A6168914201D84C4900E0D6
:101F00004C49884201D2012070BD4B492368B0FB87
:101F1000F1F15E6826F03F060E435E60636893420F
:101F200006D94FF4967359434FF47A73B1FBF3F12A
:101F30002368491C1E6A26F03F0631431962616816
:101F4000914210D84900401EB0FBF1F2521CC2F37E
:101F50000B02042A01D2042022E0B0FBF1F0401C65
:101F6000C0F30B001CE0A268F2B301EBC10303EB6A
:101F70000116431EB3FBF6F35B1C43F480431B05C1
:101F800049D092B301EBC10202EB0111401EB0FB3C
:101F9000F1F0401CC0F30B0040F4804040F40040DE
:101FA0002168CA694CF6FF739A431043C861D4E9AB
:101FB000071001432068026822F0C002114301604B
:101FC000D4E9030101432068826848F2FF339A4351
:101FD00011438160D4E9050108432168CA6822F0F1
:101FE000FF021043C86001E00EE016E020680168BF
:101FF00041F0010101602564202084F83D00256343
:1020000084F83E50002070BD01EB4106431EB3FB37
:10201000F6F35B1CB3E70120C2E701EB4101401E70
:10202000B0FBF1F0401CC0F30B00B7E7A086010045
:1020300080841E0000093D0040420F0010B586B0AC
:10204000044614216846FEF77DFA13492068884249
:102050001FD112480021026842F02002026000688D
:10206000122200F0200005900320CDE90210CDE9F6
:1020700000020420049069460948FFF70BFE074858
:102080001030016841F480010160006800F48000B4
:10209000059006B010BD00000058004030380240E6
:1020A0000014024002488168027811448160704740
:1020B000F00000200B4810B5016841F40071016088
:1020C000016841F480610160016841F48071016040
:1020D000032000F09FF80F2000F006F800F050F801
:1020E000002010BD003C024030B505461F4887B0B7
:1020F0000024016841F002010160006806A900F0B7
:102100000200009001A800F06BFE0498A8B100F056
:102110008DFE40001649174AB0FBF1F11648491EE2
:10212000026040F2E732C0E90324C0E9011484618F
:1021300001F0F8F8040003D015E000F077FEE9E7BD
:102140000D4801F031F904000DD11D2000F034F8E4
:10215000102D07D2002229461D2000F03BF8074829
:10216000056000E0012407B0204630BD4038024041
:1021700040420F000004004000280020F40000202E
:102180000C4882B0016841F480410160006800F4AD
:10219000804000900748001F016841F080510160B5
:1021A0000068002200F0805000900F21901E02B0C5
:1021B00000F010B844380240002809DB00F01F028C
:1021C000012191404009800000F1E020C0F8001199
:1021D00070470000F0B40E4B1B680C46C3F302239B
:1021E000C3F10705042D00D90425191D072901D2C3
:1021F000002300E0DB1E012606FA05F1491E2140FE
:1022000099409E40761E16403143F0BC05F00ABC52
:102210000CED00E0064900F0070208684FF6FF03E6
:10222000184040EA0220034A10430860704700004B
:102230000CED00E00000FA057047006841620020E4
:102240007047F0B50368586A39B19C6A4FF48276DA
:1022500000EB144400204D1E0AE040EA0240986260
:102260000FE006EB8007DF59401C04EB1744C0B2B7
:10227000A842F6D344EA02404FF4807202EB810197
:1022800058500020F0BDD0F8080504F035B901EB36
:10229000C10200EB8202D0F80805D26C04F056B8F7
:1022A00001EBC10200EB8202D0F80805D2F88C22C3
:1022B00004F0BAB8D0F8080504F020B90A0601F015
:1022C0000F0101EBC10100EB810101D53C3101E0BF
:1022D00001F51F71006805F0D3B870B504460B0610
:1022E00001F00F0000EBC00104EB81014FF001028F
:1022F0004FF0000503D581F83D203C3103E081F823
:102300007D5201F51F71087094F8BC04012808D0B3
:1023100084F8BC24206804F06DFD84F8BC540020CF
:1023200070BD022070BD70B5044601F00F006268F8
:10233000904201D9012070BD0B0601F00F0101EBA5
:10234000C10104EB81014FF001024FF0000503D5FC
:1023500081F83D203C3103E081F87D5201F51F7189
:102360008D70087094F8BC04012808D084F8BC244F
:10237000206804F03BFF84F8BC54002070BD0220AC
:1023800070BD01F00F0101EBC10100EB8100D0F83D
:102390009C0270472DE9F04104460F0601F00F0042
:1023A00000EBC00104EB81014FF001064FF0000586
:1023B00003D581F83D603C3103E081F87D5201F5A1
:1023C0001F710870CA600B714A7802B10881022B34
:1023D00000D14D7194F8BC04012809D084F8BC6484
:1023E000206804F05FFC284684F8BC54BDE8F08106
:1023F0000220FBE770B50C4601F00F0505EBC501A7
:1024000000EB8101C1F89432C1F88C220023C1F89D
:102410009C3281F87D3281F87C52036901F51F718D
:10242000012B00D14A612207027C006803D004F02E
:1024300035FF002070BD04F01FFEFAE770B50446BA
:102440000D4601F00F006168884201D9012070BD7E
:1024500029064FF000064FF0010207D500EBC0013E
:1024600004EB810181F83D203C3107E005EBC5011B
:1024700004EB810181F87D6201F51F718A7008709B
:1024800094F8BC04012807D084F8BC24206804F028
:10249000D9FE280702D007E0022070BD217C04F29B
:1024A000C442206804F076FE84F8BC64002070BD4D
:1024B00070B50C4601F00F0505EBC50100EB81017D
:1024C0004B65CA640023CB65012381F83D3001F8D8
:1024D0003C5F0369012B00D14A612207027C00683E
:1024E00003D004F0DBFE002070BD04F0C5FDFAE768
:1024F0002DE9FC5F05680446284605F062F80028CF
:102500007DD1206805F089F8002878D0D5F8080832
:10251000C0F30D20C4F8FC04206805F07EF88007A5
:1025200004D52068416901F002014161206805F08D
:1025300074F8C10604F2C440009034D52068816963
:1025400021F0100181612F6A07F00F0000EBC0003D
:1025500004EB8006C7F3434006F51F76022802D03D
:10256000062811D01AE047F6F070074216D0C7F3DC
:102570000A1217462846316905F053F83069384485
:102580003061306A384408E008222846009905F096
:1025900048F8306AC7F30A1108443062206881693C
:1025A00041F010018161206805F037F800034FF019
:1025B000080B4FF0000A4FF001097CD50026206877
:1025C00005F00AF8074674E0F80770D0F1B2206809
:1025D00005F01BF88046C00707D005EB4611C1F88F
:1025E000089B3146204602F08DF95FEA087024D539
:1025F00005EB4611C1F808BB2068016C00E025E23C
:1026000000EB46100191D0F8082BFC4B994205D9FC
:10261000110403D54FF40041C0F8081B204600F018
:1026200005FBF6490198884207D92069012804D1A1
:1026300020680121009A04F0ADFD5FEAC86004D56E
:1026400005EB46111020C1F8080B5FEA88701DD514
:102650006869000605D5D5F8040840F48061C5F81E
:10266000041806EBC60004EB800090F87F1200F51A
:102670001F70012905D180F803A0F1B2204600F0B7
:10268000EBF905EB46110220C1F8080B5FEA886000
:1026900004D505EB46102021C0F8081B5FEA8840EE
:1026A00005D505EB46104FF40051C0F8081B7F0814
:1026B000761C002F88D1206804F0AFFF40036FD54F
:1026C000206804F082FF0746002667E0F80763D021
:1026D000F1B2206804F087FF8046C00723D006F0DF
:1026E0000F0209FA02F0D5F834288243C5F83428DD
:1026F00005EB4610C0F80899206901280FD106EBB8
:10270000C60004EB8000D0E912211144C16436B93F
:10271000606D20B920680121009A04F03BFDF1B200
:102720002046FFF7B4FD5FEA087003D505EB4611BC
:10273000C1F808B95FEAC86004D505EB461110205E
:10274000C1F808095FEA486004D505EB461040214E
:10275000C0F808195FEA887017D53146284604F09A
:1027600003FF06EBC60004EB800090F83F103C30FE
:10277000012905D180F803A0F1B2204600F068F9E4
:1027800005EB46110220C1F808095FEA086003D58D
:102790003146204602F01CF97F08761C002F95D1A7
:1027A000206804F03AFF002811DAD5F8040820F078
:1027B0000101C5F8041894F8F40401282BD0204630
:1027C00000F018FA2068416901F000414161206879
:1027D00004F023FF00050BD5D5F80808C00702D088
:1027E000204600F04BFA2068416901F40061416124
:1027F000206804F012FFC00466D5D5F8040820F064
:102800000100C5F804081021206804F0ADFE002185
:102810004FF67F321FE084F8F4A400212046FFF732
:102820000BFDCFE705EB4110C0F80829D0F80039BF
:1028300023F40013C0F80039C0F8082BD0F8003B8F
:1028400023F40013C0F8003BD0F8003B43F00063D2
:10285000C0F8003B491C60688842E3D8D5F81C08E2
:1028600040F00111C5F81C18206B002828460DD037
:10287000D0F8840840F00B01C5F88418D5F8440856
:1028800040F00B012846C5F844180DE0D0F81408B4
:1028900042F22B010843C5F81408D5F8100840F09F
:1028A0000B012846C5F81018D0F8000820F4FE6186
:1028B000C5F80018217C2068009A04F06BFC2068A1
:1028C000416901F480514161206804F0A6FE800452
:1028D00015D5206804F026FA206804F065FEE06053
:1028E00000F09EFA0146227B206804F0F9FE2046A3
:1028F00000F06AF92068416901F4005141612068E3
:1029000004F08BFE000707D5204600F077F9206819
:10291000416901F008014161206804F07EFE000673
:1029200016D5A86920F08000A86101260DE000BF3F
:1029300006EBC60004EB800090F87F02012803D16B
:10294000F1B22046FFF7BAFC761C6068B042EFD8BF
:10295000206804F062FEC00221D501264F4616E031
:1029600005EB4610D0F8001906EBC60004EB80001A
:1029700090F84020012A09D1002907DA80F83F7039
:10298000F0B240F080012046FFF798FC761C6068AA
:10299000B042E5D82068416901F4801141612068A6
:1029A00004F03BFE800234D501204B4629E000BFF5
:1029B00005EB4011D1F8001B00EBC00204EB8206CE
:1029C00096F88022012A1BD1002919DA94F8FC24F8
:1029D00001F4803102F00102914211D186F87F3278
:1029E000A96941F08002AA616969090608D4D5F88D
:1029F000040840F40070C5F8040805E00A30544F9C
:102A0000401C61688142D3D82068416901F40011FB
:102A10004161206804F001FE400007D52046FFF721
:102A200032FC2068416901F080414161206804F076
:102A3000F4FD40070AD520684568680702D520469E
:102A4000FFF738FC2068416829434160BDE8FC9FDE
:102A5000D0F8080503F0A6BDD0F8080503F0B7BD0F
:102A60002DE9F0418AB0040005D094F8BD04266831
:102A7000002520B108E001200AB0BDE8F08184F80B
:102A8000BC54204600F05EF8032084F8BD04F06BCF
:102A9000C00500D42561206804F0E8FA04F11001B3
:102AA000282288466846FDF71BFD94E80F0004F0D5
:102AB00047F90226C8BB0021206804F0D1FD0020A0
:102AC00001270EE000EBC00104EB810181F83D70AD
:102AD00001F83C0F08810D71CD600D61401CC0B242
:102AE0008D6161688142EDD8002011E000EBC001EA
:102AF00004EB810181F87D5281F87C0281F88052DB
:102B0000C1F88852C1F88C52401CC0B2C1F894522E
:102B100061688142EAD8282241466846FDF7E0FC18
:102B200094E80F0004F0E8F910B184F8BD64A2E75E
:102B300084F8385084F8BD74206804F0CFF9002080
:102B40009AE7000010B586B0044614216846FDF7E8
:102B5000F9FC2068B0F1A04F2FD11948002102687C
:102B600042F001020260006800F0010005904FF49D
:102B7000C05000900220CDE90101032003900A20FB
:102B8000049069460F48FFF785F80D48001D01685D
:102B900041F0800101600A481430016841F480412D
:102BA00001600068002200F4804005900521432068
:102BB000FFF710FB4320FFF7FFFA06B010BD00003F
:102BC000303802400000024070B50446C06801255C
:102BD00070B1022801D0FEF747F92946D4F808055C
:102BE00003F066FDD4F80805BDE8704003F019BD98
:102BF0000025F2E7D0F8080503F043BDD0F808053A
:102C000003F049BD10B5044690F8BC0401280BD070
:102C1000012084F8BC0484F83810206804F04EFDCC
:102C2000002084F8BC0410BD022010BDD0F8082597
:102C300000F2C441104603F047BD10B504460068D9
:102C400094F8BC14012906D0012184F8BC14A16AAF
:102C5000012902D008E0022010BDA169012903D09A
:102C6000816B41F480318163206804F058FC206856
:102C700004F026F9002084F8BC0410BD10B5044609
:102C8000D0F8080503F064FD2068D0F8001E41F07C
:102C90000101C0F8001E206A002804D00248016823
:102CA00041F00601016010BD10ED00E02DE9F04794
:102CB0000E46050065D0DFF81481D8F80000F7B2A1
:102CC00000F00700B04207D288F80070D8F8000082
:102CD00000F00700B04254D128683D4C810712D55E
:102CE000400703D5206840F4E050206028780007B2
:102CF00003D5206840F4604020602068A96820F077
:102D0000F000084320602878C0072DD0304968685B
:102D10000839012812D0022813D0032811D00968DD
:102D2000890700292DDA216821F003010143216080
:102D3000FFF7BAF8814641F2883A0EE00968890344
:102D4000EFE709688901ECE7FFF7AEF8A0EB0901AE
:102D5000514502D90320BDE8F0872068696800F07A
:102D60000C00B0EB810FEFD1D8F80010404601F015
:102D70000701B14207D90770006800F00700B042B0
:102D800001D00120E7E72878400705D52068E968E9
:102D900020F4E050084320602878000706D520681A
:102DA000296920F4604040EAC100206000F05EF82C
:102DB0002168084AC1F30311515CC8400649086004
:102DC00006480068FFF790F90020C4E7003C024085
:102DD00008380240788B0008FC000020F400002036
:102DE0000F2202600C4A136803F003034360136868
:102DF00003F0F0038360136803F4E053C3601268C8
:102E00004FF4E05303EAD20202610448006800F084
:102E1000070008607047000008380240003C02408C
:102E20000148006870470000FC0000200448054984
:102E300000680968044AC1F38221515CC8407047A8
:102E4000FC00002008380240888B0008044805492F
:102E500000680968044AC1F34231515CC8407047B8
:102E6000FC00002008380240888B0008154810B587
:102E7000006810F00C02144813D01449042A0FD033
:102E8000082A0ED10F4C241F2268236802F03F024B
:102E90005B0207D52068C0F38810A0FB010106E0A3
:102EA000084610BD2168C1F38811A1FB0001002371
:102EB000FDF75AFA2168C1F30141491C4900B0FBF2
:102EC000F1F010BD083802400024F400001BB700E8
:102ED0002DE9F84F04006ED02078DFF84C93C0073E
:102EE000A9F104054AD009F104000168C1F3810188
:102EF000012908D00068C0F3810002280AD1D9F85E
:102F00000000400206D52868800337D56068002895
:102F1000E1D033E06068B0F5803F10D0B0F5A02F6D
:102F2000286810D020F480302860286820F48020A1
:102F300028606068A8B1FEF7B7FF06460DE0286874
:102F400040F48030F4E740F480202860F7E700BFC9
:102F5000FEF7AAFF801B642873D828688003F7D582
:102F60000CE0FEF7A1FF064605E000BFFEF79CFF60
:102F7000801B6428F0D828688003F7D42078DFF815
:102F8000AC8280074FF0000A3ED5A748001D0168BB
:102F900011F00C0F08D00068C0F3810002280BD19B
:102FA000D9F80000400207D42868800716D5E068E9
:102FB000012800D112E033E1E068B8B10120C8F87F
:102FC0000000FEF771FF064605E000BFFEF76CFF4C
:102FD000801B0228C0D828688007F7D52868216997
:102FE00020F0F80040EAC10028600DE0C8F800A019
:102FF000FEF75AFF064604E0FEF756FF801B022844
:103000001FD828688007F7D42078000722D5864F7C
:1030100087486169703771B101210160FEF744FF93
:10302000064604E0FEF740FF801B022809D83868F6
:103030008007F7D50EE0C0F800A0FEF735FF064682
:1030400005E082E0FEF730FF801B02287DD838685B
:103050008007F7D42078400768D5DFF8CCB1002787
:103060000BF13C0BDBF80000C0000BD4DBF80010C8
:1030700041F08051CBF80010DBF80000012700F090
:10308000805000906B4E3068C00510D4306840F41A
:1030900080703060FEF708FF009005E0FEF704FF47
:1030A0000099401A022850D83068C005F6D55E4E07
:1030B000A0686C3601280FD00528306810D020F0A9
:1030C00001003060306820F004003060A068B8B1C2
:1030D000FEF7EAFE00900FE0306840F00100F4E7F0
:1030E00040F004003060F7E7FEF7DEFE0099411A79
:1030F00041F28830814266D830688007F4D50EE00E
:10310000FEF7D2FE009007E0FEF7CEFE0099411ACE
:1031100041F28830814256D830688007F4D42FB10C
:10312000DBF8001021F08051CBF80010A069C8B383
:103130003D49091D0968C1F3810102294AD00228CD
:10314000504607D0C8F8600000E03CE0FEF7ACFE57
:1031500004463BE04746C8F86000FEF7A5FE064679
:1031600005E000BFFEF7A0FE801B02282BD82868D0
:103170008001F7D4D4E907010843A16A2E4A49081F
:1031800002EB0141626A41EA8211084394F82C1073
:1031900040EA0161C9F8001001203866FEF784FE9C
:1031A000044606E03EE000BFFEF77EFE001B02285C
:1031B00009D828688001F7D534E000BFFEF774FE17
:1031C000001B022802D90320BDE8F88F286880017F
:1031D000F4D427E00128F7D0D9F80000E26900F420
:1031E000800191421CD1226A00F03F01914217D127
:1031F00047F6C071626A0140B1EB821F10D1A26A2A
:103200004FF0FF3300F4403103EB5202B1EB024FB9
:1032100006D194F82C1000F07060B0EB016F01D073
:103220000120D1E70020CFE70438024000004742E8
:10323000800E4742007000400000FFFF704770475B
:1032400010B590F83C20012A22D0012280F83C20C1
:10325000CA688C6822F4407222434C6822F480626F
:1032600022430C6822F4006222430C6922F480524B
:1032700022434C6922F400522243C969002322F4FC
:1032800080420A4301684A6480F83C30002010BD47
:10329000022010BD70B590F83C20012A32D00124E4
:1032A00080F83C40022280F83D2003685A689D68FF
:1032B00022F070060A6832435A60134B02689A4241
:1032C00014D0B2F1804F11D0104B9A420ED0104B57
:1032D0009A420BD00F4B9A4208D00F4B9A4205D01E
:1032E0000E4B9A4202D00E4B9A4204D1496825F007
:1032F00080031943916080F83D40002180F83C1024
:10330000084670BD022070BD00000140000400406E
:1033100000080040000C0040000401400040014053
:103320000018004010B5040003D094F83D0010B11F
:1033300007E0012010BD002084F83C00204600F08A
:103340001FF8022084F83D00211D206801F0F4FEE2
:10335000012084F8460084F83E0084F83F0084F899
:10336000400084F8410084F8420084F8430084F867
:10337000440084F8450084F83D00002010BD0000A2
:1033800008B500680649884208D10648016841F03E
:1033900001010160006800F00100009008BD00001C
:1033A000000001404438024090F83D10012901D04E
:1033B00001207047022180F83D100168CA6842F080
:1033C0000102CA6000681149884214D0B0F1804FF0
:1033D00011D00F4988420ED00E4988420BD00E49B9
:1033E000884208D00D49884205D00D49884202D054
:1033F0000C49884204D1816801F00701062903D0F5
:10340000016841F0010101600020704700000140A7
:103410000004004000080040000C0040000401408F
:10342000004001400018004070B5044690F83C0090
:103430000025012817D0012684F83C60022084F87A
:103440003D002068826822F0770222F47F42826089
:103450000868502838D00DDC20284FD005DC90B308
:10346000102811D14AE0022070BD302846D04028F3
:103470000AD13BE060282FD070280DD0B0F5805FD6
:1034800003D0B0F5005F12D0012584F83D60002024
:1034900084F83C00284670BDCB68D1E90121206842
:1034A00001F0BBFE2068816841F0770109E0CB683C
:1034B000D1E90121206801F0B0FE2068816841F463
:1034C00080418160E1E719E0CA684968206801F03D
:1034D00079FF5021206806E0CA684968206801F039
:1034E00082FF6021206801F0A2FECEE7CA68496829
:1034F000206801F067FF40212068F4E72268014658
:103500001046F0E7704770B50446006801694FF057
:103510000005C943890715D4C168C943890711D477
:10352000E91E01610120207720688069800720461C
:1035300002D0FFF7E7FF04E000F0C2F8204600F0F9
:1035400054F9257720680169C943490717D4C16830
:10355000C943490713D46FF00401016102202077A9
:103560002068806910F4407F204602D0FFF7CAFF30
:1035700004E000F0A5F8204600F037F92577206830
:103580000169C943090716D4C168C943090712D4A0
:103590006FF008010161042020772068C06980076E
:1035A000204602D0FFF7AEFF04E000F089F8204685
:1035B00000F01BF9257720680169C943C90617D4B3
:1035C000C168C943C90613D46FF010010161082016
:1035D00020772068C06910F4407F204602D0FFF7B2
:1035E00091FF04E000F06CF8204600F0FEF825772B
:1035F00020680169C943C90708D1C168C943C9071F
:1036000004D1891E0161204600F092F92068016909
:10361000C943090609D4C168C943090605D46FF036
:10362000800101612046FFF709FE20680169C94356
:10363000490609D4C168C943490605D46FF0400161
:103640000161204600F07EF920680169C9438906BE
:103650000BD4C168C943890607D46FF0200101610A
:103660002046BDE87040FFF7EABD70BD10B586B0DA
:10367000044614216846FCF765FF0E49206888421D
:1036800016D10D480021026842F010020260006865
:1036900000F0100005904FF4007000900220CDE97A
:1036A00001010120CDE9031069460448FEF7F2FA52
:1036B00006B010BD0000014030380240001002404A
:1036C000704770B5044690F83C0000260D4601286E
:1036D0000FD0012084F83C006AB1042A1DD0082ACA
:1036E0002FD00C2A3FD00126002084F83C00304621
:1036F00070BD022070BD206801F0A2FD20688169C4
:1037000041F0080181612068816921F00401816133
:10371000206881692A69114311E0206801F0C0FD29
:103720002068816941F4006181612068816921F428
:1037300080618161206881692A6941EA0221816191
:10374000D2E7206801F0E2FD2068C16941F008017C
:10375000C1612068C16921F00401C1612068C169AB
:103760002A69114311E0206801F004FE2068C16954
:1037700041F40061C1612068C16921F48061C161C7
:103780002068C1692A6941EA0221C161ACE710B52C
:10379000040003D094F83D0010B107E0012010BDF3
:1037A000002084F83C00204600F01EF8022084F837
:1037B0003D00211D206801F0BFFC012084F8460077
:1037C00084F83E0084F83F0084F8400084F841000B
:1037D00084F8420084F8430084F8440084F84500EB
:1037E00084F83D00002010BD7047704710B50446B6
:1037F000022249B104290ED0082913D094F84100BF
:10380000012816D0012010BD94F83E000128F9D1FE
:1038100084F83E200FE094F83F000128F2D184F8AC
:103820003F2008E094F840000128EBD184F84020C4
:1038300001E084F841200122206801F0E1FC1649F2
:103840002068164A884201D0904203D1436C43F469
:10385000004343642068884213D0B0F1804F10D0F9
:103860000F4988420DD00F4988420AD00E4988423C
:1038700007D0904205D00D49884202D00C498842B9
:1038800004D1816801F00701062903D0016841F0E5
:1038900001010160002010BD000001400004014052
:1038A0000004004000080040000C004000400140BF
:1038B0000018004030B504460D460068002201F0B3
:1038C0009FFC194B41F2111120688A10984202D0D6
:1038D000164B984209D1036A0B4206D1036A134280
:1038E00003D1436C23F4004343642068036A0B4212
:1038F00006D1016A114203D1016821F00101016082
:1039000001203DB1042D08D0082D09D084F84100D4
:10391000002030BD84F83E00FAE784F83F00F7E766
:1039200084F84000F4E7000000000140000401407A
:1039300000680349884201D1FEF7B4BB704700001C
:10394000000400407047704710B5044600684069A5
:1039500094F83D10C0F3C010212911D180B1206826
:10396000143050E8001F21F0800140E80012002AC6
:10397000F5D1606B08B1FDF7AEFF204601F0E7FD21
:103980002068406994F83E10C0F38010222911D1BC
:1039900080B12068143050E8001F21F0400140E859
:1039A0000012002AF5D1A06B08B1FDF794FF204664
:1039B00001F0A6FD002010BD70470000F8B50168B9
:1039C00004460868CA684B6910F00F0F4FF00005F5
:1039D00059D003F0010602F49077374365D0C10750
:1039E00005D0D10503D5216C41F0010121644107C7
:1039F00005D5D90703D0216C41F00201216481076C
:103A000005D5D90703D0216C41F0040121640107D9
:103A100007D502F02001314303D0216C41F00801A9
:103A20002164216C00293AD0800604D5900602D585
:103A3000204601F09AFD20684069216CC0F3801097
:103A4000090700D460B3204601F05AFD20684069A0
:103A5000400621D52068143050E8001F21F04001B5
:103A600040E80012002AF5D1A06BA8B16C490165AD
:103A7000A06BFDF779FF002811D0A06B016D01B09C
:103A8000BDE8F040084783060FD593060DD52046C4
:103A9000BDE8F84001F069BD2046FFF78DFFF8BD95
:103AA0002046FFF789FF2564F8BD266B2023012EF1
:103AB00079D1C60677D5D60675D5086848680090CE
:103AC0004869400640D5A16B086840680004000CB6
:103AD000EAD0A28D8242E7D9E085C869B0F5807F3F
:103AE0002DD020680C3050E8001F21F4807140E890
:103AF0000012002AF5D12068143050E8001F21F090
:103B0000010140E80012002AF5D12068143050E885
:103B1000001F21F0400140E80012002AF5D184F88E
:103B20003E30256320680C3050E8001F21F0100162
:103B300040E80012002AF5D1A06BFDF7CCFEA08D65
:103B4000E18D401A81B229E0A08DE18D401A81B249
:103B5000E08D0028A8D00029A6D020680C3050E8BD
:103B6000002F22F4907240E80026002EF5D1206844
:103B7000143050E8002F22F0010240E80026002E09
:103B8000F5D184F83E30256320680C3050E8002FD2
:103B900022F0100240E80023002BF5D12046FFF769
:103BA000D2FEF8BDFFE705062BD5150629D594F8FA
:103BB0003D002128F5D1A068B0F5805F01D12069D2
:103BC000B0B1206A411C2162216800784860E08C15
:103BD000401E0004000CE084E3D12068C16821F09D
:103BE0008001C1602068C16841F04001C160D8E730
:103BF000206A0088C0F308004860206A801C2062A8
:103C0000E5E74006CDD55006CBD5CA68204622F060
:103C10004002CA6084F83D3000F0B7F9C1E7000007
:103C20000B54000870B5040004D094F83D00002542
:103C300010B106E0012070BD84F83C50204600F031
:103C400023F8242084F83D002068C16821F4005145
:103C5000C160204601F0EAFC2068016921F490412E
:103C600001612068416921F02A0141612068C16831
:103C700041F40051C1602564202084F83D0084F89F
:103C80003E00002070BD00002DE9F04F87B00546D2
:103C900014216846FCF756FCA548DFF890821438DA
:103CA000D5F800C0A24B02210322402700240615AC
:103CB0004FF0070BC44570D1D3F800C04CF0100C86
:103CC000C3F800C01B6803F010030593036843F0BA
:103CD00002030360036803F002030593036843F0E3
:103CE000010303600068884600F001000590802011
:103CF000CDE90008CDE902429246D9466946CDF8A1
:103D000010B08C48FDF7C6FF7010CDE90008CDE972
:103D1000024A6946CDF810908748FDF7BBFFDFF8EF
:103D20002092864948464FF00068C9F80010C0E963
:103D30000184C0E90346C9F81440C9F81840C9F81D
:103D40001C40C9F82040B246C9F82440FDF7EEFEF9
:103D500008B1FDF789F87A4EC5F838906036C9F891
:103D60003850C6E90274C6E904A4B4617348F4612A
:103D7000346278307462C6E900083046FDF7D6FE3A
:103D800008B1FDF771F86E63002205212520B563A7
:103D9000FEF720FA252062E0FFE7DFF8A881C4459E
:103DA00062D1634BA1461B1FD3F800C04CF4802C9A
:103DB000C3F800C01B6803F480230593036843F035
:103DC00004030360006800F0040005904FF44060B5
:103DD0008DE81300CDE9032B69465B48FDF75AFFD8
:103DE000DFF85C81594908F1C00840464FF0006A8D
:103DF000C8F80010C0E901A4C0E90346C8F814409F
:103E00004FF4403BC8F81840C8E9074BC8F82440B5
:103E1000FDF78CFE08B1FDF727F84D4CC5F838804A
:103E20004A48C8F838503030A760C4E9000AC4E9ED
:103E30000396C4F81490C4F81890C4E9079B204670
:103E4000C4F82490FDF772FE08B1FDF70DF86C631D
:103E5000002205212720A563FEF7BCF92720FEF7E5
:103E6000ABF907B0BDE8F08FDFF8E880C445F8D1C2
:103E7000D3F800C04CF0200CC3F800C01B6803F05E
:103E800020030593036843F040030360006800F0DB
:103E9000400005904FF484408DE813000820CDE9E0
:103EA000032069462C48FDF7F5FEDFF8A49023496E
:103EB00009F16009183948464FF0206AC9F8001026
:103EC000C0E901A4C0E90346C9F81440C9F8184084
:103ED000C9F81C40C9F82040B046C9F82440FDF795
:103EE00025FE08B1FCF7C0FF194EC5F83890C03662
:103EF000C9F83850C6E90274C6E90484B4610F48B1
:103F0000F461346260307462C6E9000A3046FDF73D
:103F10000DFE08B1FCF7A8FF6E63002205214720C3
:103F2000B563FEF757F9472099E7000000100140FC
:103F30004438024000040240000002404064024055
:103F40005409002000480040000802402860024058
:103F5000740A0020001401400018024090F83E301E
:103F6000202B0ED159B152B190F83C30012B08D022
:103F7000012380F83C300023036301F0DDBB012006
:103F8000704702207047704770477047FEE7000097
:103F90002DE9F04786B014216846FCF7D3FA0025D6
:103FA0004FF430400124022603958DE85100DFF8DC
:103FB0007CA069465046FDF76DFECDE900641C4FBC
:103FC000CDE9026569463846FDF764FE4FF4805836
:103FD000012241465046FDF762FF4FF4005901228D
:103FE00049465046FDF75BFFA6030096CDE9015414
:103FF00069465046FDF74EFECDE900456946384614
:104000000294FDF747FE012231465046FDF747FF77
:10401000002241465046FDF742FF012249465046E4
:10402000FDF73DFF06B0BDE8F08700000004024048
:1040300000140240F0B500230A24302537261F461D
:1040400011E000BFB4EB107F02D905EB107C01E05A
:1040500006EB107C01F813C001EB430C00015B1C64
:104060008CF80170DBB29342ECD3F0BD08480068D5
:104070000278A52A0AD107490A7050F8012F8A60F0
:1040800042684A6182680A61C068C860704700007F
:10409000DC010020246800202DE9F0470E46074689
:1040A0000025DFF89491C0E0785DA52873D17819D8
:1040B0000446052103F010FC00286CD06078A1783C
:1040C00040EA012805EB08000930B04246D82046F6
:1040D00008F1090103F0E2FB00285CD06079A179C6
:1040E00040EA012040F20221A0F20222884261D07F
:1040F00018DCB0F5817F40D00ADC01281BD00328F2
:1041000020D005282BD0A0F58070013822D12DE0D9
:10411000B0F5827F38D0A0F5807005383CD0FC28FF
:1041200018D140E0092A15D2DFE802F0144B5259A9
:1041300060676E7577000B20804602463E48E11DA1
:104140008F3805E02020804602463B48E11D833839
:10415000FCF781F905EB08000930C5B265E00D20D8
:10416000804602463448E11D6338F1E7042080466A
:1041700002463148E11D5638EAE7042080460246EF
:104180002D48E11D5238E3E70220804602462A48C6
:10419000E11D4E38DCE746E0012080460246264815
:1041A000E11D4C38D4E71B20804602462248E11D21
:1041B0004B38CDE71020804602461F48E11D3038BD
:1041C000C6E71020804602461B48E11D2038BFE7A5
:1041D0000120804602461848E11D1038B8E701204A
:1041E000804602461448E11D0F38B1E701208046A1
:1041F00002461148E11D0E38AAE707208046024614
:104200000D48E11D0D38A3E70620804602460A4806
:10421000E11D801F9CE7042000E006208046024646
:10422000E11D484694E76D1CEDB2B542FFF43CAF8A
:10423000BDE8F04703F0DCBA1A6800200F4810B55B
:104240000D4901600321416000214FF4102281607B
:10425000C0E903124FF40012426101764176817683
:10426000C17601774177FDF79EF8002803D0BDE8BD
:104270001040FCF7F9BD10BD006400409C07002011
:104280000F4810B50D4901600321416000214FF432
:1042900010228160C0E903124FF4001242610176DE
:1042A00041768176C17601774177FDF77CF8002869
:1042B00003D0BDE81040FCF7D7BD10BD006800403A
:1042C000C4070020214808B5016841F4800101605D
:1042D000016801F480010091016841F4001101605E
:1042E0000068002200F40010009005210C20FDF76A
:1042F00071FF0C20FDF760FF002205210E20FDF765
:1043000069FF0E20FDF758FF002205213920FDF737
:1043100061FF3920FDF750FF002205213A20FDF70B
:1043200059FF3A20FDF748FF002205214520FDF7FF
:1043300051FF4520FDF740FF002205214620FDF7F3
:1043400049FFBDE808404620FDF736BF303802403F
:1043500010B59CB01C2216496846FCF7C1F8002134
:10436000684603F07DFC134C11491C2220601C316F
:1043700007A8FCF7B5F8002107A803F071FC0C4969
:1043800060601C2238310EA8FCF7AAF800210EA8A4
:1043900003F066FC0649A0601C22543115A8FCF706
:1043A0009FF8002115A803F05BFCE0601CB010BD75
:1043B000008B000870000020F0B587B0142168461B
:1043C000FCF7C0F835480024016841F002010160A3
:1043D000016801F002010591016841F040010160AE
:1043E000016801F040010591016841F0010101609F
:1043F000016801F001010591016841F008010160C7
:10440000016801F008010591016841F004010160B3
:10441000016801F004010591016841F0200101608B
:10442000016801F020010591016841F080010160FF
:10443000016801F080010591016841F010010160FF
:104440000068174E00F010004FF4E0550590002270
:1044500029463046FDF723FD124F0122110338464D
:10446000FDF71DFD00224FF400513846FDF717FD02
:1044700000950125CDE90154694630460394FDF7C6
:1044800009FC4FF440500090CDE90154694638468C
:104490000394FDF7FFFB07B0F0BD00003038024089
:1044A000001C0240000402400D4810B50B49016099
:1044B0000C49416000214FF480428160C0E9031241
:1044C00041618161C1610162FDF7F4FC002803D004
:1044D000BDE81040FCF7C8BC10BD0000005800400B
:1044E000EC070020801A060010B596B000240F9447
:1044F00010941194129413941C2108A81494FCF79E
:1045000021F820216846FCF71DF82848264901605B
:10451000A721C0E9011444F61F61C0E903144461F6
:104520008461FEF7FFFE08B1FCF79EFC4FF480505B
:104530000F900FA91D48FEF777FF08B1FCF794FC18
:104540001A48FFF724F908B1FCF78EFC139413A95D
:1045500016481494FEF79EFE08B1FCF785FC602017
:10456000CDE908040A940B940C940D94002208A938
:104570000E480E94FFF7A5F808B1FCF775FC0094FF
:104580004FF40050CDE9044002940194039469462D
:1045900006480794FEF754FE08B1FCF765FC034893
:1045A000FFF764F816B010BD00000140400800207D
:1045B0000C4810B50A4901604FF4E1314160002117
:1045C00081600C22C160C0E904128161C161FFF702
:1045D00029FB002803D0BDE81040FCF745BC10BD06
:1045E00000100140880800200D4810B50B490160FB
:1045F0000C49416000214FF480628160C0E90312E0
:104600000C22C0E90521C161FFF70CFB002803D093
:10461000BDE81040FCF728BC10BD00000048004079
:10462000CC080020A08601000C4810B50A490160A2
:104630004FF4E1314160002181600C22C160C0E98A
:1046400004128161C161FFF7EDFA002803D0BDE8D3
:104650001040FCF709BC10BD0014014010090020F7
:1046600010B500220F49104801F04AFE08B1FCF7CE
:10467000FBFB0E490C4802F096F808B1FCF7F4FB7E
:104680000B49094801F00EFB08B1FCF7EDFB0648A9
:1046900002F05EF9002803D0BDE81040FCF7E4BB4F
:1046A00010BD000084000020940B00204402002074
:1046B000DC000020FEE770B540F201142DED048B04
:1046C000B0EE609AB0EE408AF0EE618AF6EE000A33
:1046D000B0EE410A204600F005FA012003F0B4FADA
:1046E000651CF6EE000AB0EE680A284600F0FAF9FA
:1046F000012003F0A9FAF6EE000AB0EE480A2046BF
:1047000000F0B8F9012003F09FFAF6EE000AB0EECF
:10471000490A284600F0AEF9BDEC048B0120BDE843
:10472000704003F091BAFEE71FB50FA10522D1E951
:104730000001CDE9020102A9302000F073F8052242
:104740006946102000F014F8002069460A5CA52A8A
:1047500003D1401CC0B20528F8D3052802D001209F
:1047600004B010BD0020FBE7A5A5A5A5A50000008D
:104770002DE9F047DFF8409015460F4604464FF408
:104780000058002241464846FDF789FB204600F0CC
:10479000B9FA0646002405E0002000F0B3FA3855C7
:1047A000641CE4B2AC42F7D3012241464846FDF70F
:1047B00076FB3046BDE8F0870004024070B50B4E32
:1047C00004464FF40055002229463046FDF767FBAA
:1047D000204600F097FA002000F094FA04460122E7
:1047E00029463046FDF75BFB204670BD00040240C1
:1047F00070B505460720FFF7E1FF04460146272074
:1048000000F036F860060AD5202229466120FFF71D
:10481000AFFFFF21E22000F02BF8002070BD012047
:1048200070BD00002DE9F047DFF8409016460D46B8
:1048300004464FF40058002241464846FDF72FFB3E
:10484000204600F05FFA0746002405E015F8010B4A
:1048500000F058FA641CE4B2B442F7D30122414696
:104860004846FDF71CFB3846BDE8F08700040240CF
:104870002DE9F0410C4E0F4604464FF4005500223E
:1048800029463046FDF70BFB204600F03BFA044674
:10489000384600F037FA012229463046FDF7FFFA84
:1048A0002046BDE8F0810000000402400148FDF709
:1048B0001FBE0000901000200B489FED0A0ADFED9C
:1048C0000B0A80ED000A0A489FED0A1ADFED0B1A69
:1048D000C0ED000A084880ED001A0948C0ED001A32
:1048E000FFF7E9BE8FC2353F8401002085EB51BF41
:1048F0008801002052B80E408C0100203D0A173F6D
:10490000900100202DE9F04103680D4604461E6C1D
:1049100003EB4511D1F8080BD4F810E04FF4004731
:104920004FF0200C04F2C442BEF1010F09D0DFF8B1
:1049300098E0764539D1020432D500BFC1F8087B32
:104940003FE0224B5FEA007E04D59E4239D9000445
:10495000F4D436E05FEA806E02D5C1F808CB30E0CF
:1049600010F0280F2DD19E4201D90004E6D405EBAA
:10497000C50004EB8000D1F8101BD0F89832C1F3C9
:104980001201591AC0F89C1200F51F70ADB9836965
:104990001BB10269114401610FE0012120680AE0A6
:1049A00080060AD5C1F808CB07E035B9D4F89402DF
:1049B00018B90021184602F0EDFBE9B22046FDF7D8
:1049C0006FFC0020BDE8F0810A31544F0A30544F8B
:1049D0002DE9F84F0E4601EBC60100EB810481463C
:1049E0000568616DE06D3C34884202D90120BDE864
:1049F000F88F081AE168814200D20846C01C870877
:104A000005EB46181BE000BFA0EB010AE06850452B
:104A100000D282460AF10300870899F8100000903E
:104A20001FFA8AF3F2B22846216902F0CDFE21690D
:104A300001EB0A002061216A01EB0A002062D8F82C
:104A4000180980B2B84205D3216AA069814201D217
:104A50000028D9D1216AA069884208D806F00F0140
:104A600001208840D5F834188143C5F83418002057
:104A7000BDE70000194910B5086000208860C860D3
:104A800010EE103A082008610B76180A4876180CC8
:104A90008876180E10EE902AC8760A77100A4877A2
:104AA000100C8877100EC87701F118020123144604
:104AB0000B48FCF711FA00280FD0022322460749C1
:104AC0000748FCF709FA002807D02246BDE8104045
:104AD000042302490248FCF7FFB910BDD468002046
:104AE0009C070020194910B5086000208860C86044
:104AF00010EE103A082008610B76180A4876180C58
:104B00008876180E10EE902AC8760A77100A487731
:104B1000100C8877100EC87701F118020123144693
:104B20000B48FCF7D9F900280FD002232246074989
:104B30000748FCF7D1F9002807D02246BDE810400D
:104B4000042302490248FCF7C7B910BDF4680020ED
:104B5000C407002070B5164D4FF480540022214642
:104B60002846FDF79CF9052212492A20FFF75AFE34
:104B700001212120FFF77CFE01212220FFF778FE92
:104B800028212520FFF774FE20213120FFF770FE39
:104B90000F212620FFF76CFE0F212020FFF768FE73
:104BA00021462846BDE870400122FDF778B9000093
:104BB00000040240F98A00080A480B4990ED090AEE
:104BC00081ED000A094990ED0A0A81ED000A0849C1
:104BD00090ED0B0A81ED000A90ED0C0A054880ED7E
:104BE000000A704700000020840100208801002096
:104BF0008C0100209001002036483749D0ED000A92
:104C000091ED000AF4EEC00AF1EE10FA01DCB0EE0C
:104C1000600A324980ED000AD1ED000AB4EEE00AE4
:104C2000F1EE10FA01D2B0EE600A80ED000A2C48D5
:104C30002C4990ED000AD1ED000AB4EEE00AF1EE45
:104C400010FA01DDB0EE600A274980ED000AD1EDCF
:104C5000000AB4EEE00AF1EE10FA01D2B0EE600AFA
:104C600080ED000A21482249D0ED000A91ED000AAA
:104C7000F4EEC00AF1EE10FA01DCB0EE600A1D4954
:104C800080ED000AD1ED000AB4EEE00AF1EE10FA70
:104C900001D2B0EE600A80ED000A1748174990ED86
:104CA000000AD1ED000AB4EEE00AF1EE10FA01DDDF
:104CB000B0EE600A124980ED000AD1ED000AB4EEB0
:104CC000E00AF1EE10FA01D2B0EE600A80ED000ABF
:104CD0007047000084010020980100209C01002002
:104CE00088010020A0010020A40100208C010020E8
:104CF000A8010020AC01002090010020B00100209C
:104D0000B40100202DE9F041DFF85C80174F044624
:104D100000254FF40046200601D5012200E00022C4
:104D200002214046FDF7BBF86006040E0122314621
:104D30003846FDF7B4F8FF20FCF717F8012140468C
:104D4000FDF7A0F808B144F00104002231463846CE
:104D5000FDF7A5F8FF20FCF708F86D1CADB2082D93
:104D6000D9D32046BDE8F08100140240000402407F
:104D7000FFF776FC012002F067FFFBE72DED048BC7
:104D800000216848FEF732FD664C4FF4FA60216856
:104D90004863FCF76DFF00212046FEF78BFD20687D
:104DA0004FF47A75456300212046FEF71FFD284623
:104DB00002F04AFFFBF78AFF012002F045FFB2EE46
:104DC000042AF2EE041A9FED588AB0EE481ADFED7D
:104DD000578AB0EE080A5648F0EE680A02F0BDFFA6
:104DE0005348B2EE042AF2EE041AB0EE481AF0EE7E
:104DF000680AB1EE040A343002F0AFFFDFED4D1A5D
:104E0000B0EE612A9FED4C1A4948F0EE680AB1EE07
:104E1000080A683002F0A1FFB0EE002AF0EE001A96
:104E2000B7EE001AF0EE480A9FED440A40489C3065
:104E300002F093FF9FED429AB0EE492ADFED419ACE
:104E4000F0EE691ADFED408A3948B2EE040AB0EE9E
:104E5000681AF0EE680AD03002F07FFFB0EE492AFF
:104E6000F0EE691AB0EE681AF0EE680AB2EE040AC3
:104E7000364802F072FF3548B0EE492AF0EE691A62
:104E8000B0EE681AF0EE480AB2EE040A343802F0C6
:104E900064FF284602F0D8FE2D4CDFF8B8A02E4E55
:104EA0002E4FDFF8BC80DFF8BC900025A07A0128E7
:104EB00001D1FFF701FDA07A032801D1FBF7A6FB82
:104EC000A07A022819D12848007818B101218AF85F
:104ED00000100AE02548007818B102218AF8001075
:104EE00009E09AF80000012801D1FBF7E9FC9AF8E3
:104EF0000000022801D102F003FD30783978084320
:104F000002D114483C30058098F8000099F8001050
:104F1000084302D10F4834300580012002F094FE8E
:104F2000C4E7000040080020CDCCCC3D0AD7233C8C
:104F30007C020020000048420000C8420000A4415A
:104F4000007C92480060EA4600000000B4030020A4
:104F50007067002000000020C7010020C20100206F
:104F6000BE010020BF010020C0010020C6010020BA
:104F70001D480068C16841F01001C16064221B49EE
:104F80001948FEF7EBFF1A4E1A4D1B4F00243078DC
:104F9000012824D12878122805D1144803F00AF9F1
:104FA0003888401C388034700020104902E00C54CE
:104FB000401CC0B22A789042F9D32C7064220B496D
:104FC0000948FEF7CBFF3888322808D14FF48061BA
:104FD0000A48FCF75CFF0A493C8001200870012068
:104FE00002F032FED3E7000088080020E80300202A
:104FF0005E0000205D0000206C000020001C0240CC
:105000005C00002088B0FEF7C3FFFFF78DFB124C59
:10501000012500B16561FFF79DFD0226202168464C
:10502000FBF790FA6846FFF7E3FB08B9C4E90456BA
:105030009DF80000A5280BD1DDF801002060DDF807
:105040000500E060DDF809006060DDF80D00A0609B
:10505000012002F0F9FDE1E74400002010B55020E6
:1050600080F31188BFF34F8FBFF36F8F03F0FEFB08
:1050700018B104494FF080500860002080F3118877
:1050800010BD000004ED00E030B593B0302168465B
:10509000FBF758FA14210CA8FBF754FA1D48002519
:1050A000016841F080510160006800F0805011906B
:1050B0001948016841F4804101600068022400F44D
:1050C0008040119001200090000401908001CDE902
:1050D000064006200890A820CDE9090407200B907F
:1050E0006846FDF7F5FE08B172B6FEE70CA90F2081
:1050F00081E831004FF4A0500F904FF48050109091
:1051000005210CA8FDF7D2FD002801D072B6FEE7FC
:1051100013B030BD403802400070004002480168C2
:1051200041F470010160704788ED00E00148FEF72E
:10513000EAB9000000280020F0B50268254C264D91
:10514000264E274F274B4FF0804CA04209D0604598
:1051500007D0A84205D0B04203D0B84201D098424F
:1051600004D122F0700E4A6842EA0E02A0421BD01F
:10517000604519D0A84217D0B04215D0B84213D01C
:10518000984211D0184DA8420ED0184DA8420BD00D
:10519000174DA84208D0174DA84205D0164DA84279
:1051A00002D0164DA84203D122F44075CA682A43A2
:1051B0004D6922F080022A4302608A68C2620A684E
:1051C0008262A04201D0984201D1096901630121A4
:1051D0004161F0BD000001400004004000080040B3
:1051E000000C004000040140004001400044014028
:1051F0000048014000180040001C00400020004012
:1052000010B501F01F030121046A99408C43046228
:10521000016A9A401143016210BD10B5846842EAE8
:10522000032224F47F440A432243826010BD826833
:1052300022F070020A4342F00701816070470000CB
:10524000F0B5026A22F001020262036A42688469D0
:10525000124E24F073050C682C4323F002058B6872
:105260002B430D4DA84201D0B04205D123F00807D1
:10527000CB683B4323F00403A84201D0B04205D1E0
:105280004D6922F4407215438A692A434260846161
:10529000496841630362F0BD000001400004014021
:1052A000F0B5026A22F010020262026A4368846961
:1052B0000D6824F4E64444EA05248D6822F02002B7
:1052C00042EA05120F4D104EA84201D0B04206D15D
:1052D000CF6822F0800242EA071222F04002A84280
:1052E00001D0B04207D14D6923F4406343EA8503FE
:1052F0008D6943EA85034360846149688163026282
:10530000F0BD00000000014000040140F0B5026A59
:1053100022F480720262026A4368C46922F4007255
:1053200024F073050C68124E2C438D6842EA052266
:105330000E4DA84201D0B04206D1CF6822F40062DF
:1053400042EA072222F48062A84201D0B04207D18B
:105350004D6923F4405343EA05138D6943EA05136D
:105360004360C4614968C1630262F0BD000001404E
:105370000004014030B5026A22F480520262046ADD
:105380004268C3690D6823F4E64343EA05238D6848
:1053900024F4005444EA0534084DA84202D0084DD4
:1053A000A84204D14D6922F4804242EA851242604B
:1053B000C36149680164046230BD0000000001401F
:1053C0000004014010B5036A046A24F00104046279
:1053D000846924F0F00444EA021423F00A020A4328
:1053E0008461026210BD10B5036A23F010030362EA
:1053F0008369046A23F4704343EA023224F0A00371
:1054000043EA01118261016210BD10B5806B002179
:10541000C185C184FEF7D0FA10BD70B5846B2068D9
:10542000406994F83D10C0F3C0100025212904D133
:1054300018B1E584204600F08AF82068406994F8A5
:105440003E10C0F38010222904D118B1E585204612
:1054500000F056F8206C40F0100020642046FEF763
:10546000ABFA70BD10B50146806B09680968C905C3
:105470002FD40021C18501680C3151E8002F22F49E
:10548000807241E80023002BF5D10168143151E806
:10549000002F22F0010241E80023002BF5D1016822
:1054A000143151E8002F22F0400241E80023002B84
:1054B000F5D1202180F83E10016B012909D1016846
:1054C0000C3151E8002F22F0100241E80023002B9C
:1054D000F5D1016B012902D0FEF755FD10BD818D7C
:1054E000FEF731FA10BD10B5806B016B012902D0B7
:1054F000FEF74AFD10BD818D4908FEF724FA10BD64
:1055000001680C3151E8002F22F4907241E8002329
:10551000002BF5D10168143151E8002F22F001026F
:1055200041E80023002BF5D1016B012909D1016865
:105530000C3151E8002F22F0100241E80023002B2B
:10554000F5D1202180F83E100021016370470168E9
:105550000C3151E8002F22F0C00241E80023002B5B
:10556000F5D1202180F83D10704708B590F83E1025
:10557000222901D0022008BD82684FF480539A424C
:1055800001D1016921B1816A9A421BD04AB10AE076
:105590000268816A5268C2F308020A80816A891C23
:1055A00008E0026972B10268526802F07F020A7074
:1055B000816A491C8162C18D491E0904090CC1859B
:1055C00003D019E002685268F1E70168CA6822F066
:1055D0002002CA600168CA6822F48072CA60016849
:1055E0004A6922F001024A61202180F83E10016BD5
:1055F000012903D0FEF7C7FC002008BD002101638C
:1056000001680C3151E8002F22F0100241E800231C
:10561000002BF5D101680A68D20602D50A684968EC
:105620000091818DFEF78FF9E6E7000070B5044622
:1056300000680169E26821F4405111430161216968
:10564000A068E26908436169114308432168CA6898
:1056500049F20C639A430243CA6020684169A26917
:1056600021F440711143416131492068884202D0E0
:105670003049884202D1FDF7E9FB01E0FDF7D6FB96
:10568000E2690023192164253226B2F5004F6268D1
:1056900028D0A0FB0101930F9200FAF765FE0146A6
:1056A000B0FBF5F06FF01802504301EB800006EB01
:1056B0000010B0FBF5F000F0F002B1FBF5F002EBEA
:1056C0000012B1FBF5F06FF01803584301EB8000B6
:1056D00006EB0010B0FBF5F000F00F00216810445D
:1056E000886070BDA0FB010192185B41FAF73CFE97
:1056F0000146B0FBF5F00201B1FBF5F06FF01803C5
:10570000584301EB800006EBC000B0FBF5F000F061
:10571000F80002EB4002B1FBF5F0584301EB8000CA
:1057200006EBC000B0FBF5F000F00700D6E7000084
:10573000001001400014014038B5816282850025C7
:10574000134604460564222084F83E00A26B1C48E0
:10575000D063A26B1B481064A26B1B48D064A06B83
:105760000A4605652168A06B091DFCF749FA206807
:1057700001684068009084F83C50206948B1206876
:105780000C3050E8001F41F4807140E80012002AFC
:10579000F5D12068143050E8001F41F0010140E8C5
:1057A0000012002AF5D12068143050E8001F41F0A3
:1057B000400140E80012002AF5D1002038BD000069
:1057C00065540008E75400081B5400080D4808B54C
:1057D00000680168C1F3001179B101684068009068
:1057E0000848FEF7B1F80848006840680749C0F16A
:1057F00064000870064901200870BDE808400148AF
:10580000FEF7DCB888080020540900205D00002065
:105810005E00002010B50448FBF79CFABDE810407C
:105820000148FEF7CBB80000CC0800200C4808B5B2
:1058300001680A684A680092CA6842F01002CA60A9
:1058400001684A6942F040024A61122100910168F0
:10585000044B806BA3F11802091DFBF7C3F808BDC8
:10586000CC080020E06600200F4808B500680168F9
:10587000C1F3001151B101684168009101684068AD
:105880000948FEF761F80948006840680648FEF7D5
:1058900095F80548FEF792F8BDE8084064220449EF
:1058A0000148FEF75BBB000010090020D40A00206D
:1058B0009C27002070B5D0F8C822D0F8D43200EB75
:1058C0008303D3F8C032002B28D001F00F0C0CEB6F
:1058D0008C0400EB84050026AC6954B10CEBCC0CB5
:1058E00002EB8C02D2F848C0B4FBFCF20CFB124273
:1058F000B2B1C3F81462D0F8D42200EB8200D0F821
:10590000C402D0F810C0BCF1000F05D00A4603F560
:105910000471D3F80802E047002070BD032070BD79
:10592000AE6100231A4600F01CFFF5E770B504468F
:10593000D4F8D40204EB8000D0F8C052002D12D06D
:10594000204600F0EBFDC5F80C02D4F8D412D5F8CF
:10595000040204EB8101D1F8C412CA6805F5037191
:105960009047002070BD032070BD000070B5044654
:10597000224D2046297800F0E0FC2878002600F02F
:105980000F0000EB800004EB8000868469782046DD
:1059900000F0D3FC687800F00F0000EB800004EB0F
:1059A0008000A0F86461A978204600F0C6FCA878C1
:1059B00000F00F0000EB800004EB80008684C684BA
:1059C000D4F8D40204EB8000D0F8C01299B1D0F81A
:1059D000C40240688047D4F8D40204EB8000D0F8B9
:1059E000C00201F050F9D4F8D40204EB8000C0F8F2
:1059F000C062C4F8BC62002070BD0000F00100204D
:105A000010B5D0F8D41200EB8100D0F8C042002CC1
:105A100010D0D0F8C41259B194F80002FF2807D072
:105A20008B6894F8012221469847FF2084F80002F1
:105A3000002010BD032010BD0A21018000487047DE
:105A4000F401002070B5064682210C4800F0DEFB10
:105A500005460121094800F0D9FB04468121074889
:105A600000F0D4FB0DB11021A971402104B1A18037
:105A700000B1818043203080004870BD00020020CA
:105A800070B5064682210D4800F0C0FB0546012195
:105A90000A4800F0BBFB04468121084800F0B6FB31
:105AA0000DB11021A9714FF4007104B1A18000B1B2
:105AB000818043203080014870BD0000000200203A
:105AC00070B5064682210C4800F0A0FB0546012176
:105AD000094800F09BFB04468121074800F096FB33
