:020000040800F2
:10000000A0510020E902000877390008A933000850
:1000100075390008B50700083D46000800000000DB
:10002000000000000000000000000000290200089D
:10003000270C00080000000085020008053D0008AC
:100040000303000803030008030300080303000878
:100050000303000803030008030300080303000868
:100060000303000803030008030300080303000858
:1000700061080008030300086D0800080303000876
:100080000303000803030008030300080108000835
:10009000F507000803030008030300080303000832
:1000A0000303000803030008030300080303000818
:1000B00003030008D53D00080303000803030008FC
:1000C00003030008030300080303000803030008F8
:1000D00003030008B144000803030008F9440008C2
:1000E00003030008030300080303000803030008D8
:1000F00003030008030300080303000803030008C8
:1001000003030008030300080303000803030008B7
:1001100003030008030300080303000803030008A7
:100120000303000879080008850800080303000895
:100130000303000803030008030300085508000830
:10014000490800080303000803030008030300082C
:1001500003030008910800089D0800084D450008A9
:100160000303000803030008030300080303000857
:100170000303000803030008030300080000000055
:10018000030300080303000800F002F800F03CF845
:100190000AA090E8000C82448344AAF10107DA45E2
:1001A00001D100F031F8AFF2090EBAE80F0013F0F8
:1001B000010F18BFFB1A43F001031847205B000032
:1001C000405B0000103A24BF78C878C1FAD85207C3
:1001D00024BF30C830C144BF04680C6070470000C1
:1001E0000023002400250026103A28BF78C1FBD840
:1001F000520728BF30C148BF0B6070471FB505F0DC
:1002000082FB1FBD10B510BD00F0A6F91146FFF727
:10021000F5FF04F0CDFA00F0C4F903B4FFF7F2FFE4
:1002200003BC00F0CBF900002C4B19680868B0E85B
:10023000F04F80F30988BFF36F8F4FF0000080F319
:10024000118870470000000008480068006880F3CB
:1002500008884FF0000080F3148862B661B6BFF3DF
:100260004F8FBFF36F8F00DF00BF00BF08ED00E0CE
:10027000DFF80C00016841F470010160704700BFB5
:1002800088ED00E0EFF30980BFF36F8F134B1A681E
:100290001EF0100F08BF20ED108A20E9F04F10600B
:1002A00009B44FF0500080F31188BFF34F8FBFF3B4
:1002B0006F8F04F0BFFF4FF0000080F3118809BC7E
:1002C00019680868B0E8F04F1EF0100F08BFB0ECD6
:1002D000108A80F30988BFF36F8F704748000020B1
:1002E000EFF3058070470000094880470948004740
:1002F000FEE7FEE7FEE7FEE7FEE7FEE7FEE7FEE7D6
:10030000FEE7FEE704480549054A064B7047000032
:10031000C53D000889010008A04B0020A051002025
:10032000A04D0020A04D002053EA020C00F069808F
:100330002DE9F04B4FF00006002B1FBFB3FA83F5F9
:1003400003FA05F424FA05F65E4012BF1643B2FA2A
:1003500082F502FA05F4C5F120051EBF22FA05FC5C
:1003600044EA0C04203556EA044C4FEA144418BF02
:10037000641C4FF000084FF00009904271EB030C31
:1003800039D3002919BFB1FA81F701FA07F6B0FA9B
:1003900080F700FA07F6C7F120071EBF20FA07FC16
:1003A00046EA0C062037B6FBF4FCA7EB0507103F26
:1003B00007F01F0BCBF120060CFA0BFB2CFA06F60C
:1003C00044BFB3460026202FA4BF5E464FF0000B6B
:1003D0005BEA060C08BF4FF0010B19EB0B09ABFBF6
:1003E000027C48EB0608C01B06FB02CC0BFB03CCCF
:1003F00071EB0C01C1E70B46024641464846BDE899
:10040000F08B13B54FF000004FF00001AFF3008008
:10041000BDE81C407047032A40F2308010F0030C06
:1004200000F0158011F8013BBCF1020F624498BF47
:1004300011F801CB00F8013B38BF11F8013BA2F1E4
:10044000040298BF00F801CB38BF00F8013B11F05F
:10045000030300F02580083AC0F0088051F8043BFF
:10046000083A51F804CBA0E80810F5E7121D5CBF6C
:1004700051F8043B40F8043BAFF30080D20724BF9F
:1004800011F8013B11F801CB48BF11F8012B24BF33
:1004900000F8013B00F801CB48BF00F8012B704782
:1004A00010B5203AC0F00B80B1E81850203AA0E80F
:1004B0001850B1E81850A0E81850BFF4F5AF5FEA43
:1004C000027C24BFB1E81850A0E8185044BF18C9F6
:1004D00018C0BDE810405FEA827C24BF51F8043B9D
:1004E00040F8043B08BF7047D20728BF31F8023BF1
:1004F00048BF11F8012B28BF20F8023B48BF00F885
:10050000012B70474FF0000200B513469446964603
:10051000203922BFA0E80C50A0E80C50B1F1200116
:10052000BFF4F7AF090728BFA0E80C5048BF0CC0C4
:100530005DF804EB890028BF40F8042B08BF704722
:1005400048BF20F8022B11F0804F18BF00F8012B94
:100550007047704770477047754600F02BF8AE46FD
:1005600005006946534620F00700854618B020B5BF
:10057000FFF7C8FEBDE820404FF000064FF000072F
:100580004FF000084FF0000B21F00701AC46ACE83B
:10059000C009ACE8C009ACE8C009ACE8C0098D46A8
:1005A000704710B50446AFF300802046BDE8104008
:1005B000FFF733BE004870473C4B0020014918202C
:1005C000ABBEFEE7260002007047000060480178DD
:1005D0006048D0ED010A604890ED000A11B130EE9C
:1005E000200A04E05D49097819B130EE600A80ED17
:1005F000000A5B49F0EE400A91ED000AF4EEC00AF1
:10060000F1EE10FA01DCB0EE600A564980ED000A06
:10061000D1ED000AB4EEE00AF1EE10FA01D2B0EE2C
:10062000600A80ED000A50484A4A01784F4892ED2E
:10063000020AD0ED000A11B170EE800A04E04C49C4
:10064000097819B170EEC00AC0ED000A4948017876
:100650004948D0ED000A11B130EE800A04E0474964
:10066000097819B130EEC00A80ED000A4449D0ED96
:10067000000A91ED000AF4EEC00AF1EE10FA01DC76
:10068000B0EE600A3F4980ED000AD1ED000AB4EEF9
:10069000E00AF1EE10FA01D2B0EE600A80ED000A35
:1006A000394801782B48D0ED000A384890ED000A0F
:1006B00011B130EE200A04E03549097819B130EE65
:1006C000600A80ED000A3349F0EE400A91ED000A1D
:1006D000F4EEC00AF1EE10FA01DCB0EE600A2E4929
:1006E00080ED000AD1ED000AB4EEE00AF1EE10FA56
:1006F00001D2B0EE600A80ED000A28480178154862
:100700000C3011B140F2B13101802549097811B1A5
:100710006FF46C710180234801780E48143011B1D8
:1007200040F2573101802049097811B14FF6A941B3
:1007300001801E48C17A1E480129006805D003299E
:1007400002D14FF47A71416370474FF4FA61FAE7CE
:100750000401002000000020C0000020050100204E
:10076000D0000020D400002000010020C4000020A0
:10077000010100200B010020C80000200D01002015
:10078000D8000020DC00002002010020CC00002066
:1007900003010020E0000020E40000200701002009
:1007A000060100200A0100200F0100200E4A00204F
:1007B00064060020FEE7000000B58BB00020012198
:1007C000CDE90601059000900190029003900490FD
:1007D0000E20CDE908106946054800F031FB0221E2
:1007E000034800F0B7FA024800F076FF0BB000BDF6
:1007F000C0050020014800F01EBC0000C00500201C
:10080000014800F018BC0000C005002000B58BB006
:1008100001220E2100200792CDE9051003900490DB
:10082000CDE908210090019002906946054800F04A
:1008300007FB0221034800F08DFA024800F04CFF4C
:100840000BB000BDE8050020014800F0F4BB00003B
:10085000E8050020014800F0EEBB0000E80500209C
:10086000014800F0C7BF000038080020014800F030
:10087000C1BF000098080020014800F0BBBF000085
:10088000F8080020014800F0B5BF000078070020FC
:10089000014800F0AFBF000058090020014800F0F7
:1008A000A9BF0000D80700202DE9F04F856800247B
:1008B000099E802D18D0894DC563894D456490F8F7
:1008C0003450012D15D0012580F8345090F8355062
:1008D000012D10D0002180F834100224002180F86E
:1008E00034102046BDE8F08F4FF48071416501203F
:1008F000F8E70220F6E7022580F835500025456527
:1009000005682F6847F480272F6005682B6103680E
:100910005E608368402B03682AD099600168CA60D2
:10092000714D704E704FDFF8BC81DFF8B891DFF881
:10093000B8A1DFF8B4B1EA14DFF8A8E1016818360D
:1009400030379302A9F148090AF1600A0BF1180B3C
:10095000AEF1300E4FF0006C41452DD9A94205D0C3
:10096000494503D0514501D0B14205D1202220E0B4
:100970009A600268D160D3E759451AD0714518D002
:10098000594D7835A94214D0564D3035A94210D072
:10099000B9420BD0534A183A914207D0524A90328A
:1009A000914203D04F4A4832914201D11A4600E0A9
:1009B00062464C494C392EE0DFF82C8108F1A8083A
:1009C00041452AD9A94205D0494503D0514501D016
:1009D000B14201D120221CE059451AD0714518D0EE
:1009E000414D7835A94214D03E4D3035A94210D042
:1009F000B9420BD03B4A183A914207D03A4A90325A
:100A0000914203D0374A4832914201D11A4600E060
:100A10006246344950390A605AE0DFF8CC8008F168
:100A2000480841452AD9A94205D0494503D0514536
:100A300001D0B14201D120221CE059451AD07145A4
:100A400018D0294D7835A94214D0264D3035A94209
:100A500010D0B9420BD0234A183A914207D0224A0B
:100A60009032914203D01F4A4832914201D11A4636
:100A700000E062461C491039CA6029E0A94205D04D
:100A8000494503D0514501D0B14201D120221CE09B
:100A900059451AD0714518D0134D7835A94214D054
:100AA000104D3035A94210D0B9420BD00D4A183A3A
:100AB000914207D00C4A9032914203D0094A483201
:100AC000914201D11A4600E06246074910398A6016
:100AD00001680A6842F001020A60FFE6594700080F
:100AE00085470008586402401060024001681823DE
:100AF000CAB2103AB2FBF3F2054B6FF30901032AB5
:100B00009B5CC36500D9091D8165084670470000DC
:100B10008C59000810B5014600208B698A6A4FF095
:100B2000C07453B1B3F5005F15D072B1012A0CD077
:100B3000022A0AD0032A09D104E01AB1012A06D0F8
:100B4000022A03D1C96AC90100D5012010BDC96AB2
:100B5000A142FAD010BD002AF7D0012AF2D0022A11
:100B6000F3D0032AF3D010BD30B50468256825F40E
:100B700080252560046863608368402B036803D088
:100B800099600068C26030BD9A600068C16030BD85
:100B9000F0B54FF47A7685B0304600F09DFFFF2423
:100BA000FC2501940294CDE90345A71C2346224667
:100BB00021463846009400F06FF8304600F08CFF74
:100BC000FF2301940294CDE903451A461946D81C27
:100BD000009400F061F8304600F07EFFFF2301949E
:100BE0000294CDE903451A461946181D009400F0F9
:100BF00053F8304600F070FF01940294FF23CDE9D2
:100C000003451A4619463846009400F00DF805B021
:100C1000F0BD01680A68D20604D5C968C90601D5C5
:100C200004F07AB9704770472DE9F04106AC94E8BA
:100C3000E050174C206000206060A060E060082059
:100C4000206121766276A376E5762677677784F849
:100C50001EC084F81FE004F11802012314460C4959
:100C60000C4800F089F800280FD0022322460849DA
:100C7000084800F081F8002807D02246BDE8F0417E
:100C800004230349034800F077B8BDE8F081000071
:100C9000244A0020C00500202DE9F04106AC94E86C
:100CA000E050174C206000206060A060E0600820E9
:100CB000206121766276A376E5762677677784F8D9
:100CC0001EC084F81FE004F11802012314460C49E9
:100CD0000C4800F051F800280FD0022322460849A2
:100CE000084800F049F8002807D02246BDE8F04146
:100CF00004230349034800F03FB8BDE8F081000039
:100D0000444A0020E805002072B6FEE710B558B14D
:100D1000084C491E0BD310F8013B5340DBB234F8AA
:100D2000133083EA1222F4E74FF6FF7010BD10462D
:100D300010BD0000AC5A000810B5054C04E000BF1F
:100D400010F8013B5340E25C491EF9D2104610BD39
:100D5000AC59000890F82020012A07D0022A05D0BB
:100D6000416A41F480214162012070470068426974
:100D70000A43426100207047F0B590F820500468A3
:100D8000A468012D05D0022D03D0416A41F48021D1
:100D900053E014F0406F01D1E5004BD5C4F301647A
:100DA000022C03D9416A41F4000146E00125A54027
:100DB0001D608D684FF4C0739DB1CE6835434E6899
:100DC00045EAC605066803EB0417F5514FF4C275F2
:100DD000076805EB04150E697E51097D012905D0D0
:100DE00009E00E88CD6845EA4655EBE701684E59A3
:100DF00046F480764E511179D2F805504FF4C676FC
:100E000041EA0525016806EB04168D511178D2F8E8
:100E100001204FF4C47541EA0221026805EB041574
:100E20005151006803EB0411425842F00102425054
:100E30000020F0BD416A41F4001141620120F0BD83
:100E400010B590F82020012A07D0022A05D0416A67
:100E500041F480214162012010BD3B48D0F80022BE
:100E600042F00102C0F80022D0F8002222F47C52A5
:100E7000C0F80022D0F800224B6A42EA0322C0F8F0
:100E800000220A7D02F01F0301229A40D0F81C3292
:100E90009343C0F81C32CB69B3B9D0F80C329343FA
:100EA000C0F80C328C894B6864F31F434C6900EB2B
:100EB000C404C4F840320C890B6864F31F434C69C6
:100EC00000EBC404C4F84432CB69012B16D1D0F82E
:100ED0000C321343C0F80C320C884B6864F31F4388
:100EE0004C6900EBC404C4F840320C89CB6864F34D
:100EF0001F434C6900EBC404C4F844328B69002BD7
:100F0000D0F804320ED01343C0F804320B69002B22
:100F1000D0F8143208D01343C0F81432096A0129FA
:100F200004D008E09343EFE79343F5E7D0F81C12B1
:100F30001143C0F81C12D0F8001221F00101C0F8D2
:100F40000012002010BD000000640040704730B562
:100F500090F82040012C05D0022C03D0416A41F4C6
:100F600080215DE00468002955D02469A40754D08D
:100F70004FF4D874056804EB01142D5915F00405DD
:100F8000956005682D594ED0ED08556005682C59BF
:100F900004F00204D4604FF4DA74056804EB011421
:100FA0002D5905F00F05156105682D59C5F3072565
:100FB000956105682C59240C54614FF4DC72046867
:100FC00002EB0112A4581C700468A458240A5C7037
:100FD0000468A458240C9C700468A258120EDA709D
:100FE0004FF4DE72046802EB0112A4581C7104680D
:100FF000A458240A5C710468A458240C9C710468E9
:10100000A258120EDA71006881B1016941F0200125
:101010000161002030BDE468A8E7416A41F4001195
:101020004162012030BD6D0D1560AFE7C16841F030
:101030002001C160EDE72DE9F05F0546006800245E
:101040004669D0F804908768D0F80CB0D0F810A0AA
:10105000D0F81880F10748D0F90714D00121816039
:10106000B80703D5284600F064FB0CE0780702D5EA
:101070004FF4006407E0380702D54FF4805402E0D3
:10108000284600F055FBF80516D529684FF4807006
:101090008860B80503D5284600F04DFB0CE07805C4
:1010A00002D544F4005407E0380502D544F48044E6
:1010B00002E0284600F03EFBF80316D529684FF4FD
:1010C00080308860B80303D5284600F036FB0CE07A
:1010D000780302D544F4004407E0380302D544F411
:1010E000803402E0284600F027FB300707D55FEA8E
:1010F000CB6004D52968102044F40074C8607007E0
:101100004FF0080707D55FEA0B7004D52868C76061
:10111000284600F0A9F9B00706D52868C0688007FE
:1011200002D0284600F0A2F9700607D55FEACA602F
:1011300004D52968102044F480640861B00607D5FE
:101140005FEA0A7004D528680761284600F0C0FAF3
:10115000F00606D528680069800702D0284600F00E
:10116000B8FAB00308D55FEAC96005D52968102030
:101170004860284600F0AEFAF00307D55FEA097030
:1011800004D528684760284600F0D8FA300446D5D0
:101190005FEA497040D5F00504D55FEAC87001D018
:1011A00044F00104B00504D55FEA887001D544F02D
:1011B0000204700504D55FEA487001D544F00404C8
:1011C000300529D518F0700F26D008F0700040289F
:1011D00015D006DC102809D020280AD0302816D1D6
:1011E0000AE050280ED0602811D10EE044F0080427
:1011F0000DE044F010040AE044F0200407E044F05D
:10120000400404E044F0800401E044F48074286861
:10121000816921F070018161296804204860002CF7
:1012200005D0686A204368622846FFF78FFEBDE854
:10123000F09F70B5040003D094F8200010B104E0D2
:10124000012070BD204600F081F82068016841F05F
:101250000101016000F058FD0546052604E000F09C
:1012600053FD401B0A2811D820684068C007F6D0FB
:101270002068016821F00201016000F045FD05468B
:101280000BE000F041FD401B0A2806D9606A40F4DB
:101290000030606284F82060D2E7206840688007F0
:1012A000EFD4207E0128206801683DD021F0800124
:1012B0000160607E01282068016838D021F040017B
:1012C0000160A07E01282068016833D021F0200150
:1012D0000160E07E0128206801682ED041F01001F5
:1012E0000160207F01282068016829D021F00801D1
:1012F0000160607F01282068016824D021F004018A
:101300000160D4E902010843D4E9041211430843FF
:101310006168491E08432168C8610020606201209D
:1013200084F82000002070BD41F08001C0E741F04A
:101330004001C5E741F02001CAE721F01001CFE7E5
:1013400041F00801D4E741F00401D9E7F0B587B0D6
:10135000044614216846FFF7D5F83E4B3E48DFF8B7
:10136000F0E01968D4F800C03B4A0325022609279B
:1013700010300024491CF4452AD11960012907D1F5
:10138000016841F000710160006800F00070059094
:10139000106840F0080010601068CDE9005600F0B9
:1013A0000800CDE9047069462C48CDE9024500F0FB
:1013B000A5FB00220521132000F03CFE132000F0C5
:1013C0002BFE00220521142000F034FE14203AE008
:1013D000DFF88CE0F44538D1D0F800C04CF0806CD8
:1013E000C0F800C0D0F800C001290CF0806CCDF826
:1013F00014C0196007D1016841F0007101600068F4
:1014000000F000700590106840F002001060106855
:1014100002AB00F0020005906020CDE9000683E8F1
:10142000B00069460F4800F069FB002205213F200B
:1014300000F000FE3F2000F0EFFD002205214020DB
:1014400000F0F8FD402000F0E7FD07B0F0BD00001F
:10145000006400403400002030380240000C02409C
:101460000068004000040240704700002DE9F04190
:10147000904C016807468E4A04F11C0001268E4DEF
:101480008046914268D10346224600213846FFF744
:101490005EFD002860D1207F012821D1B4F81D0015
:1014A00004F1240240BA1060E17FF2EE090A0B0158
:1014B00094F82010BAEE090A43EA1113536094F825
:1014C000213001F00F0143EA01219160102103F066
:1014D00071FD82ED030A286810B985ED040A2E60BB
:1014E0002068A0F20120072812D2C0B200EB40020F
:1014F0007248A18B00EB820049BA8180E18B49BA26
:10150000C180218C49BA018194F8221081721FE0B8
:10151000207F03281CD1674AB4F81D003C3240BA32
:101520001060E17FF2EE090A0B0194F82010BAEE88
:10153000090A43EA1113536094F8213001F00F01B6
:1015400043EA01219160102103F034FD82ED030A8A
:1015500002213846FFF7FEFB59493868884275D1A9
:101560004346544A00213846FFF7F1FC00286DD16C
:10157000207F012820D0022846D0032868D0206888
:10158000A0F20120072811D2C0B200EB40024D4862
:10159000A18B00EB820049BA8180E18B49BAC180FE
:1015A000218C49BA018194F8221081723846BDE835
:1015B000F0410221FFF7CEBB3E49242201F19C00FD
:1015C000FEF76EFF3B4A34F81D0F543240BA1060EC
:1015D000A178F2EE090A0B01E178BAEE090A43EAB2
:1015E00011135360237901F00F0143EA0121916047
:1015F000102103F0DFFC82ED030A68680028D5D1D2
:1016000085ED050A6E60D1E72A4A34F81D0F6C3269
:1016100040BA1060A178F2EE090A0B01E178BAEE47
:10162000090A43EA11135360237901F00F0143EAD9
:1016300001219160102103F0BDFC82ED030AA8682E
:101640000028B3D185ED060AAE60AFE72DE0FFE7D5
:10165000184A34F81D0F843240BA1060A178F2EEB7
:10166000090A0B01E178BAEE090A43EA1113536043
:10167000237901F00F0143EA01219160102103F069
:1016800099FC82ED030AE86800288FD110EE100A59
:1016900004F0C8F89FED0C1B53EC112B03F0C4FFB2
:1016A00003F090FFEE60E86180E7BDE8F0810000A4
:1016B00000640040F0460020B0000020C40200207A
:1016C000006800401803002066666666666616407D
:1016D000704770477047000070B5044690F82000CE
:1016E000012804D0606A40F40020606218E0022003
:1016F00084F820002068016821F00101016000F0F9
:1017000003FB05460EE000BF00F0FEFA401B0A286E
:1017100008D9606A40F400306062052084F8200037
:10172000012070BD20684068C007EDD1606270BDC7
:1017300070477047704770477047704770472DE992
:10174000F0410446876D00F0DFFA064694F8350054
:101750000025022806D08020606584F834500120DE
:10176000BDE8F0812068016821F016010160206861
:10177000416921F080014161206C08B9A06C20B161
:101780002068016821F0080101602068016821F0EB
:10179000010101600CE000F0B7FA801B052807D9B1
:1017A00020206065032084F8350084F83450D7E7A2
:1017B00020680068C007EED194F85C103F20884094
:1017C000B860012084F8350084F834500020C7E761
:1017D00090F83510022903D080214165012070471F
:1017E000052180F835100068016821F001010160D1
:1017F000002070472DE9F84304464FF00009CDF86A
:10180000009063484FF41651A56D0068B0FBF1F7E6
:101810002E6894F85C10082000FA01F131420FD0D4
:1018200021680A6852070BD50A6822F004020A6090
:1018300094F85C108840A860606D40F0010060651D
:1018400094F85C104FF0010808FA01F0304208D01B
:1018500021684969090604D5A860606D40F002005E
:10186000606594F85C1004208840304208D02168FC
:101870000968890704D5A860606D40F004006065C0
:1018800094F85C1010208840304218D02168096814
:10189000090714D5A86020680168490304D50068C9
:1018A000000308D5A16C07E00168C90503D40168ED
:1018B00021F008010160216C09B12046884794F8A5
:1018C0005C1020208840304231D021680968C90668
:1018D0002DD5A86094F8350005282068016806D049
:1018E000490347D5006800031DD4616C1CE021F05A
:1018F000160101602068416921F080014161206C7E
:1019000008B9A06C20B12068016821F008010160CD
:1019100094F85C103F208840A86084F8358084F8F3
:101920003490216D1FE0E16B09B120468847606D5E
:1019300000282BD0606DC00714D0052084F8350036
:101940002068016821F0010101600098401C0090AE
:10195000B84203D820680068C007F6D184F8358003
:1019600084F83490E16C002910D001B02046BDE825
:10197000F04308470168C905D5D4016821F010017A
:10198000016084F8358084F83490CCE7BDE8F883B2
:10199000440000202DE9F041044600F0B5F9064668
:1019A0005CB1022084F83500002584F834502068AA
:1019B000016821F0010101600DE00120BDE8F08126
:1019C00000F0A2F9801B052805D9202060650320BE
:1019D00084F83500F2E720680068C007F0D122687B
:1019E000116820480140D4E901031843D4E90336C3
:1019F0003343184363691843A3691843E3691843E1
:101A0000236A18430843616A042903D1D4E90B13FC
:101A100019430843106020684069666A20F0070196
:101A200030460E43012704280CD1A06A0643E06A21
:101A300040B12046FFF76EF820B14020606584F881
:101A40003570BAE7206846612046FFF74FF894F8F2
:101A50005C203F2191408160656584F835700020ED
:101A6000ACE700003F8010F02DE9F0410446866DA0
:101A700090F83400002501280DD0012084F83400AE
:101A800094F835700020012F07D084F83400022527
:101A90002846BDE8F0810220FBE7022784F8357074
:101AA00060652046FFF760F894F85C103F2088409E
:101AB000B0602068016841F016010160206C20B11F
:101AC0002068016841F0080101602068016841F068
:101AD00001010160DCE7000070B5044600F014F974
:101AE0000546601C02D004480078044400F00CF95C
:101AF000401BA042FAD370BD380000202DE9F84FFA
:101B0000DFF8BCA10022012503264FF00F090AF1DE
:101B1000040BAAF1040E00BF0B6805FA02F423407F
:101B2000A34270D10F7907F00307012F01D0022FD4
:101B300016D187684FEA420806FA08FC27EA0C0724
:101B4000D1F80CC00CFA08FC4CEA070CC0F808C02D
:101B50004768A7430C79C4F3001494403C434460A5
:101B60000C79E443A4070AD0C4684FEA420C06FA91
:101B70000CF7BC438F6807FA0CF72743C7600C7952
:101B800004F00304022C12D1D40800EB840CDCF81E
:101B900020405707FF0E09FA07F824EA0804D1F895
:101BA000108008FA07F848EA0408CCF82080046896
:101BB0004FEA420C06FA0CF7BC430F7907F0030713
:101BC00007FA0CF7274307604C6814F4403F70D0C5
:101BD0003C4C276847F480472760246822F00307BD
:101BE00004F480440094384C07EB040CDCF80848FB
:101BF00097074FEA177809FA08F7BC43334FB84202
:101C000002D1002724E054E0314FB84201D101272E
:101C10001EE0304FB84201D1022719E02E4FB842E2
:101C200001D1032714E02D4FB84201D104270FE062
:101C30002B4FB84201D105270AE02A4FB84201D103
:101C4000062705E0284FB84201D1072700E0082702
:101C500007FA08F72743CCF80878DAF80040574627
:101C6000D1F804C09C435FEACC2C00D51C433C60F7
:101C7000DBF800405F46D1F804C09C435FEA8C2C3F
:101C800000D51C433C60DEF800407746D1F804C024
:101C90009C435FEA8C3C00D51C433C60084F083FE6
:101CA0003C68D1F804C09C435FEACC3C00D51C439F
:101CB0003C60521C102AFFF42FAFBDE8F88F0000E3
:101CC000083C01404438024000300140000002401E
:101CD0000004024000080240000C024000100240D4
:101CE0000014024000180240001C0240426921EA30
:101CF00002030A4043EA0241816170470AB18161EF
:101D000070470904FBE70000014880687047000045
:101D10003800002070B5040025D094F83D0000255F
:101D200020B984F83C50204600F0B8F8242084F80C
:101D30003D002068016821F0010101602068016810
:101D400041F4004101602068016821F40041016014
:101D500000F05CFA4D4A6168914201D84C4900E0BC
:101D60004C49884201D2012070BD4B492368B0FB29
:101D7000F1F15E6826F03F060E435E6063689342B1
:101D800006D94FF4967359434FF47A73B1FBF3F1CC
:101D90002368491C1E6A26F03F06314319626168B8
:101DA000914210D84900401EB0FBF1F2521CC2F320
:101DB0000B02042A01D2042022E0B0FBF1F0401C07
:101DC000C0F30B001CE0A268F2B301EBC10303EB0C
:101DD0000116431EB3FBF6F35B1C43F480431B0563
:101DE00049D092B301EBC10202EB0111401EB0FBDE
:101DF000F1F0401CC0F30B0040F4804040F4004080
:101E00002168CA694CF6FF739A431043C861D4E94C
:101E1000071001432068026822F0C00211430160EC
:101E2000D4E9030101432068826848F2FF339A43F2
:101E300011438160D4E9050108432168CA6822F092
:101E4000FF021043C86001E00EE016E02068016860
:101E500041F0010101602564202084F83D002563E4
:101E600084F83E50002070BD01EB4106431EB3FBD9
:101E7000F6F35B1CB3E70120C2E701EB4101401E12
:101E8000B0FBF1F0401CC0F30B00B7E7A0860100E7
:101E900080841E0000093D0040420F0010B586B04E
:101EA000044614216846FEF72DFB1349206888423A
:101EB0001FD112480021026842F02002026000682F
:101EC000122200F0200005900320CDE90210CDE998
:101ED00000020420049069460948FFF70FFE0748F6
:101EE0001030016841F480010160006800F4800056
:101EF000059006B010BD0000005800403038024088
:101F000000140240024881680278114481607047E1
:101F1000380000200B4810B5016841F400710160E1
:101F2000016841F480610160016841F480710160E1
:101F3000032000F09FF80F2000F006F800F050F8A2
:101F4000002010BD003C024030B505461F4887B058
:101F50000024016841F002010160006806A900F058
:101F60000200009001A800F031F90498A8B100F037
:101F70004DF940001649174AB0FBF1F11648491EC9
:101F8000026040F2E732C0E90324C0E90114846131
:101F900000F0B8FB040003D015E000F037F9E9E7E2
:101FA0000D4800F0F1FB04000DD11D2000F034F8C5
:101FB000102D07D2002229461D2000F03BF80748CB
:101FC000056000E0012407B0204630BD40380240E3
:101FD00040420F0000040040B80900203C000020EF
:101FE0000C4882B0016841F480410160006800F44F
:101FF000804000900748001F016841F08051016057
:102000000068002200F0805000900F21901E02B066
:1020100000F010B844380240002809DB00F01F022D
:10202000012191404009800000F1E020C0F800113A
:1020300070470000F0B40E4B1B680C46C3F302233C
:10204000C3F10705042D00D90425191D072901D264
:10205000002300E0DB1E012606FA05F1491E21409F
:1020600099409E40761E16403143F0BC02F019BBE9
:102070000CED00E0064900F0070208684FF6FF0388
:10208000184040EA0220034A1043086070470000ED
:102090000CED00E00000FA052DE9F0470E460500C2
:1020A00065D0DFF81481D8F80000F7B200F007001F
:1020B000B04207D288F80070D8F8000000F007009E
:1020C000B04254D128683D4C810712D5400703D552
:1020D000206840F4E05020602878000703D520688D
:1020E00040F4604020602068A96820F0F0000843B8
:1020F00020602878C0072DD0304968680839012849
:1021000012D0022813D0032811D0096889070029AA
:102110002DDA216821F0030101432160FFF7F4FD6E
:10212000814641F2883A0EE009688903EFE70968C1
:102130008901ECE7FFF7E8FDA0EB0901514502D961
:102140000320BDE8F0872068696800F00C00B0EB60
:10215000810FEFD1D8F80010404601F00701B142DD
:1021600007D90770006800F00700B04201D00120D5
:10217000E7E72878400705D52068E96820F4E050B3
:10218000084320602878000706D52068296920F4D4
:10219000604040EAC100206000F058F82168084A19
:1021A000C1F30311515CC840064908600648006845
:1021B000FFF7CAFE0020C4E7003C02400838024096
:1021C00094590008440000203C0000200F220260C7
:1021D0000C4A136803F003034360136803F0F00331
:1021E0008360136803F4E053C36012684FF4E05354
:1021F00003EAD20202610448006800F007000860A8
:102200007047000008380240003C0240044805497D
:1022100000680968044AC1F38221515CC8407047D4
:102220004400002008380240A45900080448054929
:1022300000680968044AC1F34231515CC8407047E4
:102240004400002008380240A4590008154810B581
:10225000006810F00C02144813D01449042A0FD05F
:10226000082A0ED10F4C241F2268236802F03F0277
:102270005B0207D52068C0F38810A0FB010106E0CF
:10228000084610BD2168C1F38811A1FB000100239D
:10229000FEF74AF82168C1F30141491C4900B0FB2F
:1022A000F1F010BD083802400024F400001BB70014
:1022B0002DE9F84F04006ED02078DFF84C93C0076A
:1022C000A9F104054AD009F104000168C1F38101B4
:1022D000012908D00068C0F3810002280AD1D9F88A
:1022E0000000400206D52868800337D560680028C2
:1022F000E1D033E06068B0F5803F10D0B0F5A02F9A
:10230000286810D020F480302860286820F48020CD
:1023100028606068A8B1FFF7F7FC06460DE0286862
:1023200040F48030F4E740F480202860F7E700BFF5
:10233000FFF7EAFC801B642873D828688003F7D570
:102340000CE0FFF7E1FC064605E000BFFFF7DCFC10
:10235000801B6428F0D828688003F7D42078DFF841
:10236000AC8280074FF0000A3ED5A748001D0168E7
:1023700011F00C0F08D00068C0F3810002280BD1C7
:10238000D9F80000400207D42868800716D5E06815
:10239000012800D112E033E1E068B8B10120C8F8AB
:1023A0000000FFF7B1FC064605E000BFFFF7ACFCFC
:1023B000801B0228C0D828688007F7D528682169C3
:1023C00020F0F80040EAC10028600DE0C8F800A045
:1023D000FFF79AFC064604E0FFF796FC801B0228F4
:1023E0001FD828688007F7D42078000722D5864FA9
:1023F00087486169703771B101210160FFF784FC82
:10240000064604E0FFF780FC801B022809D83868E4
:102410008007F7D50EE0C0F800A0FFF775FC064670
:1024200005E082E0FFF770FC801B02287DD8386849
:102430008007F7D42078400768D5DFF8CCB10027B3
:102440000BF13C0BDBF80000C0000BD4DBF80010F4
:1024500041F08051CBF80010DBF80000012700F0BC
:10246000805000906B4E3068C00510D4306840F446
:1024700080703060FFF748FC009005E0FFF744FCF7
:102480000099401A022850D83068C005F6D55E4E33
:10249000A0686C3601280FD00528306810D020F0D5
:1024A00001003060306820F004003060A068B8B1EE
:1024B000FFF72AFC00900FE0306840F00100F4E7DD
:1024C00040F004003060F7E7FFF71EFC0099411A66
:1024D00041F28830814266D830688007F4D50EE03A
:1024E000FFF712FC009007E0FFF70EFC0099411A7D
:1024F00041F28830814256D830688007F4D42FB139
:10250000DBF8001021F08051CBF80010A069C8B3AF
:102510003D49091D0968C1F3810102294AD00228F9
:10252000504607D0C8F8600000E03CE0FFF7ECFB45
:1025300004463BE04746C8F86000FFF7E5FB064667
:1025400005E000BFFFF7E0FB801B02282BD82868BE
:102550008001F7D4D4E907010843A16A2E4A49084B
:1025600002EB0141626A41EA8211084394F82C109F
:1025700040EA0161C9F8001001203866FFF7C4FB8A
:10258000044606E03EE000BFFFF7BEFB001B02284A
:1025900009D828688001F7D534E000BFFFF7B4FB05
:1025A000001B022802D90320BDE8F88F28688001AB
:1025B000F4D427E00128F7D0D9F80000E26900F44C
:1025C000800191421CD1226A00F03F01914217D153
:1025D00047F6C071626A0140B1EB821F10D1A26A56
:1025E0004FF0FF3300F4403103EB5202B1EB024FE6
:1025F00006D194F82C1000F07060B0EB016F01D0A0
:102600000120D1E70020CFE7043802400000474214
:10261000800E4742007000400000FFFF7047704787
:1026200010B590F83C20012A22D0012280F83C20ED
:10263000CA688C6822F4407222434C6822F480629B
:1026400022430C6822F4006222430C6922F4805277
:1026500022434C6922F400522243C969002322F428
:1026600080420A4301684A6480F83C30002010BD73
:10267000022010BD70B590F83C20012A32D0012410
:1026800080F83C40022280F83D2003685A689D682B
:1026900022F070060A6832435A60134B02689A426D
:1026A00014D0B2F1804F11D0104B9A420ED0104B83
:1026B0009A420BD00F4B9A4208D00F4B9A4205D04A
:1026C0000E4B9A4202D00E4B9A4204D1496825F033
:1026D00080031943916080F83D40002180F83C1050
:1026E000084670BD022070BD00000140000400409B
:1026F00000080040000C0040000401400040014080
:102700000018004010B5040003D094F83D0010B14B
:1027100007E0012010BD002084F83C00204600F0B6
:102720001FF8022084F83D00211D206801F058FBAD
:10273000012084F8460084F83E0084F83F0084F8C5
:10274000400084F8410084F8420084F8430084F893
:10275000440084F8450084F83D00002010BD0000CE
:1027600008B500680649884208D10648016841F06A
:1027700001010160006800F00100009008BD000048
:10278000000001404438024090F83D10012901D07A
:1027900001207047022180F83D100168CA6842F0AC
:1027A0000102CA6000681149884214D0B0F1804F1C
:1027B00011D00F4988420ED00E4988420BD00E49E5
:1027C000884208D00D49884205D00D49884202D080
:1027D0000C49884204D1816801F00701062903D021
:1027E000016841F0010101600020704700000140D4
:1027F0000004004000080040000C004000040140BC
:10280000004001400018004070B5044690F83C00BC
:102810000025012817D0012684F83C60022084F8A6
:102820003D002068826822F0770222F47F428260B5
:102830000868502838D00DDC20284FD005DC90B334
:10284000102811D14AE0022070BD302846D040281F
:102850000AD13BE060282FD070280DD0B0F5805F02
:1028600003D0B0F5005F12D0012584F83D60002050
:1028700084F83C00284670BDCB68D1E9012120686E
:1028800001F01FFB2068816841F0770109E0CB6807
:10289000D1E90121206801F014FB2068816841F42E
:1028A00080418160E1E719E0CA684968206801F069
:1028B000DDFB5021206806E0CA684968206801F005
:1028C000E6FB6021206801F006FBCEE7CA68496894
:1028D000206801F0CBFB40212068F4E72268014624
:1028E0001046F0E7704770B50446006801694FF084
:1028F0000005C943890715D4C168C943890711D4A4
:10290000E91E016101202077206880698007204648
:1029100002D0FFF7E7FF04E000F0C2F8204600F025
:1029200054F9257720680169C943490717D4C1685C
:10293000C943490713D46FF00401016102202077D5
:102940002068806910F4407F204602D0FFF7CAFF5C
:1029500004E000F0A5F8204600F037F9257720685C
:102960000169C943090716D4C168C943090712D4CC
:102970006FF008010161042020772068C06980079A
:10298000204602D0FFF7AEFF04E000F089F82046B1
:1029900000F01BF9257720680169C943C90617D4DF
:1029A000C168C943C90613D46FF010010161082042
:1029B00020772068C06910F4407F204602D0FFF7DE
:1029C00091FF04E000F06CF8204600F0FEF8257757
:1029D00020680169C943C90708D1C168C943C9074B
:1029E00004D1891E0161204600F092F92068016936
:1029F000C943090609D4C168C943090605D46FF063
:102A0000800101612046FFF709FE20680169C94382
:102A1000490609D4C168C943490605D46FF040018D
:102A20000161204600F07EF920680169C9438906EA
:102A30000BD4C168C943890607D46FF02001016136
:102A40002046BDE87040FFF7EABD70BD10B586B006
:102A5000044614216846FDF755FD0E49206888425A
:102A600016D10D480021026842F010020260006891
:102A700000F0100005904FF4007000900220CDE9A6
:102A800001010120CDE9031069460448FFF736F83B
:102A900006B010BD00000140303802400010024076
:102AA000704770B5044690F83C0000260D4601289A
:102AB0000FD0012084F83C006AB1042A1DD0082AF6
:102AC0002FD00C2A3FD00126002084F83C0030464D
:102AD00070BD022070BD206801F006FA206881698F
:102AE00041F0080181612068816921F00401816160
:102AF000206881692A69114311E0206801F024FAF5
:102B00002068816941F4006181612068816921F454
:102B100080618161206881692A6941EA02218161BD
:102B2000D2E7206801F046FA2068C16941F0080147
:102B3000C1612068C16921F00401C1612068C169D7
:102B40002A69114311E0206801F068FA2068C16920
:102B500041F40061C1612068C16921F48061C161F3
:102B60002068C1692A6941EA0221C161ACE710B558
:102B7000040003D094F83D0010B107E0012010BD1F
:102B8000002084F83C00204600F01EF8022084F863
:102B90003D00211D206801F023F9012084F8460042
:102BA00084F83E0084F83F0084F8400084F8410037
:102BB00084F8420084F8430084F8440084F8450017
:102BC00084F83D00002010BD7047704710B50446E2
:102BD000022249B104290ED0082913D094F84100EB
:102BE000012816D0012010BD94F83E000128F9D12B
:102BF00084F83E200FE094F83F000128F2D184F8D9
:102C00003F2008E094F840000128EBD184F84020F0
:102C100001E084F841200122206801F045F91649BD
:102C20002068164A884201D0904203D1436C43F495
:102C3000004343642068884213D0B0F1804F10D025
:102C40000F4988420DD00F4988420AD00E49884268
:102C500007D0904205D00D49884202D00C498842E5
:102C600004D1816801F00701062903D0016841F011
:102C700001010160002010BD00000140000401407E
:102C80000004004000080040000C004000400140EB
:102C90000018004030B504460D460068002201F0DF
:102CA00003F9194B41F2111120688A10984202D0A1
:102CB000164B984209D1036A0B4206D1036A1342AC
:102CC00003D1436C23F4004343642068036A0B423E
:102CD00006D1016A114203D1016821F001010160AE
:102CE00001203DB1042D08D0082D09D084F8410001
:102CF000002030BD84F83E00FAE784F83F00F7E793
:102D000084F84000F4E700000000014000040140A6
:102D100000680349884201D1FFF7F4B8704700000A
:102D2000000400407047704710B5044600684069D1
:102D300094F83D10C0F3C010212911D180B1206852
:102D4000143050E8001F21F0800140E80012002AF2
:102D5000F5D1606B08B1FEF7F2FC204601F04BFAAA
:102D60002068406994F83E10C0F38010222911D1E8
:102D700080B12068143050E8001F21F0400140E885
:102D80000012002AF5D1A06B08B1FEF7D8FC20464E
:102D900001F00AFA002010BD70470000F8B5016884
:102DA00004460868CA684B6910F00F0F4FF0000521
:102DB00059D003F0010602F49077374365D0C1077C
:102DC00005D0D10503D5216C41F0010121644107F3
:102DD00005D5D90703D0216C41F002012164810798
:102DE00005D5D90703D0216C41F004012164010706
:102DF00007D502F02001314303D0216C41F00801D6
:102E00002164216C00293AD0800604D5900602D5B1
:102E1000204601F0FEF920684069216CC0F3801063
:102E2000090700D460B3204601F0BEF9206840696C
:102E3000400621D52068143050E8001F21F04001E1
:102E400040E80012002AF5D1A06BA8B16C490165D9
:102E5000A06BFEF7BDFC002811D0A06B016D01B086
:102E6000BDE8F040084783060FD593060DD52046F0
:102E7000BDE8F84001F0CDB92046FFF78DFFF8BD61
:102E80002046FFF789FF2564F8BD266B2023012E1D
:102E900079D1C60677D5D60675D5086848680090FA
:102EA0004869400640D5A16B086840680004000CE2
:102EB000EAD0A28D8242E7D9E085C869B0F5807F6B
:102EC0002DD020680C3050E8001F21F4807140E8BC
:102ED0000012002AF5D12068143050E8001F21F0BC
:102EE000010140E80012002AF5D12068143050E8B2
:102EF000001F21F0400140E80012002AF5D184F8BB
:102F00003E30256320680C3050E8001F21F010018E
:102F100040E80012002AF5D1A06BFEF710FCA08D4E
:102F2000E18D401A81B229E0A08DE18D401A81B275
:102F3000E08D0028A8D00029A6D020680C3050E8E9
:102F4000002F22F4907240E80026002EF5D1206870
:102F5000143050E8002F22F0010240E80026002E35
:102F6000F5D184F83E30256320680C3050E8002FFE
:102F700022F0100240E80023002BF5D12046FFF795
:102F8000D2FEF8BDFFE705062BD5150629D594F826
:102F90003D002128F5D1A068B0F5805F01D12069FE
:102FA000B0B1206A411C2162216800784860E08C41
:102FB000401E0004000CE084E3D12068C16821F0C9
:102FC0008001C1602068C16841F04001C160D8E75C
:102FD000206A0088C0F308004860206A801C2062D4
:102FE000E5E74006CDD55006CBD5CA68204622F08D
:102FF0004002CA6084F83D3000F0D5F9C1E7000016
:10300000B340000870B5040004D094F83D000025DA
:1030100010B106E0012070BD84F83C50204600F05D
:1030200023F8242084F83D002068C16821F4005171
:10303000C160204601F04EF92068016921F49041F9
:1030400001612068416921F02A0141612068C1685D
:1030500041F40051C1602564202084F83D0084F8CB
:103060003E00002070BD00002DE9F04F87B00546FE
:1030700014216846FDF746FAA548DFF89082143817
:10308000D5F800C0A24B02210322402700240615D8
:103090004FF0070BC44570D1D3F800C04CF0100CB2
:1030A000C3F800C01B6803F010030593036843F0E6
:1030B00002030360036803F002030593036843F00F
:1030C000010303600068884600F00100059080203D
:1030D000CDE90008CDE902429246D9466946CDF8CD
:1030E00010B08C48FEF70AFD7010CDE90008CDE95C
:1030F000024A6946CDF810908748FEF7FFFCDFF8DA
:103100002092864948464FF00068C9F80010C0E98F
:103110000184C0E90346C9F81440C9F81840C9F849
:103120001C40C9F82040B246C9F82440FEF732FCE2
:1031300008B1FDF7E9FD7A4EC5F838906036C9F858
:103140003850C6E90274C6E904A4B4617348F46156
:10315000346278307462C6E900083046FEF71AFC23
:1031600008B1FDF7D1FD6E63002205212520B5636E
:10317000FEF760FF252062E0FFE7DFF8A881C44585
:1031800062D1634BA1461B1FD3F800C04CF4802CC6
:10319000C3F800C01B6803F480230593036843F061
:1031A00004030360006800F0040005904FF44060E1
:1031B0008DE81300CDE9032B69465B48FEF79EFCC2
:1031C000DFF85C81594908F1C00840464FF0006AB9
:1031D000C8F80010C0E901A4C0E90346C8F81440CB
:1031E0004FF4403BC8F81840C8E9074BC8F82440E2
:1031F000FEF7D0FB08B1FDF787FD4D4CC5F83880D0
:103200004A48C8F838503030A760C4E9000AC4E919
:103210000396C4F81490C4F81890C4E9079B20469C
:10322000C4F82490FEF7B6FB08B1FDF76DFD6C63A2
:10323000002205212720A563FEF7FCFE2720FEF7CC
:10324000EBFE07B0BDE8F08FDFF8E880C445F8D1A9
:10325000D3F800C04CF0200CC3F800C01B6803F08A
:1032600020030593036843F040030360006800F007
:10327000400005904FF484408DE813000820CDE90C
:10328000032069462C48FEF739FCDFF8A490234957
:1032900009F16009183948464FF0206AC9F8001052
:1032A000C0E901A4C0E90346C9F81440C9F81840B0
:1032B000C9F81C40C9F82040B046C9F82440FEF7C0
:1032C00069FB08B1FDF720FD194EC5F83890C036EE
:1032D000C9F83850C6E90274C6E90484B4610F48DD
:1032E000F461346260307462C6E9000A3046FEF769
:1032F00051FB08B1FDF708FD6E6300220521472050
:10330000B563FEF797FE472099E7000000100140E3
:103310004438024000040240000002404064024081
:103320007807002000480040000802402860024062
:1033300098080020001401400018024090F83E3028
:10334000202B0ED159B152B190F83C30012B08D04E
:10335000012380F83C300023036301F041B80120D1
:1033600070470220704790F83E30202B0ED159B1A3
:1033700052B190F83C30012B08D0012380F83C304A
:103380000023036301F076B80120704702207047E4
:10339000132202490248FFF7E6BF00004C0200205A
:1033A0003407002070477047FEE700002DE9F04722
:1033B0000E4607460025DFF89491C0E0785DA52809
:1033C00073D178190446052101F058F900286CD012
:1033D0006078A17840EA012805EB08000930B04286
:1033E00046D8204608F1090101F02AF900285CD0EE
:1033F0006079A17940EA012040F20221A0F2022284
:10340000884261D018DCB0F5817F40D00ADC012809
:103410001BD0032820D005282BD0A0F580700138C0
:1034200022D12DE0B0F5827F38D0A0F5807005382C
:103430003CD0FC2818D140E0092A15D2DFE802F080
:10344000144B525960676E7577000B208046024618
:103450003E48E11D8F3805E02020804602463B486B
:10346000E11D8338FCF7D7FF05EB08000930C5B232
:1034700065E00D20804602463448E11D6338F1E7DF
:103480000420804602463148E11D5638EAE7042010
:10349000804602462D48E11D5238E3E7022080466F
:1034A00002462A48E11D4E38DCE746E0012080460E
:1034B00002462648E11D4C38D4E71B2080460246D0
:1034C0002248E11D4B38CDE71020804602461F48B8
:1034D000E11D3038C6E71020804602461B48E11D3A
:1034E0002038BFE70120804602461848E11D103809
:1034F000B8E70120804602461448E11D0F38B1E7C5
:103500000120804602461148E11D0E38AAE7072037
:10351000804602460D48E11D0D38A3E7062080468F
:1035200002460A48E11D801F9CE7042000E00620B7
:1035300080460246E11D484694E76D1CEDB2B54257
:10354000FFF43CAFBDE8F04701F024B8044A002086
:103550000F4810B50D4901600321416000214FF46F
:1035600010228160C0E903124FF40012426101761B
:1035700041768176C17601774177FDF75AFE0028C2
:1035800003D0BDE81040FDF7BFBB10BD0064004094
:10359000C00500200F4810B50D49016003214160AE
:1035A00000214FF410228160C0E903124FF4001291
:1035B0004261017641768176C17601774177FDF7E8
:1035C00038FE002803D0BDE81040FDF79DBB10BDBC
:1035D00000680040E8050020214808B5016841F472
:1035E00080010160016801F480010091016841F4EB
:1035F000001101600068002200F400100090052115
:103600000C20FEF717FD0C20FEF706FD0022052119
:103610000E20FEF70FFD0E20FEF7FEFC0022052116
:103620003920FEF707FD3920FEF7F6FC00220521C0
:103630003A20FEF7FFFC3A20FEF7EEFC00220521BF
:103640004520FEF7F7FC4520FEF7E6FC00220521A9
:103650004620FEF7EFFCBDE808404620FEF7DCBC44
:103660003038024010B59CB01C2216496846FCF761
:1036700017FF0021684601F0DBF8134C11491C22AA
:1036800020601C3107A8FCF70BFF002107A801F000
:10369000CFF80C4960601C2238310EA8FCF700FFFF
:1036A00000210EA801F0C4F80649A0601C22543184
:1036B00015A8FCF7F5FE002115A801F0B9F8E060A7
:1036C0001CB010BD1C59000824000020F0B587B0C4
:1036D00014216846FCF716FF35480024016841F0C4
:1036E00002010160016801F002010591016841F0E9
:1036F00040010160016801F040010591016841F05D
:1037000001010160016801F001010591016841F0CA
:1037100008010160016801F008010591016841F0AC
:1037200004010160016801F004010591016841F0A4
:1037300020010160016801F020010591016841F05C
:1037400080010160016801F080010591016841F08C
:10375000100101600068174E00F010004FF4E055B2
:103760000590002229463046FEF7C8FA124F012282
:1037700011033846FEF7C2FA00224FF400513846D2
:10378000FEF7BCFA00950125CDE9015469463046A3
:103790000394FEF7B3F94FF440500090CDE9015483
:1037A000694638460394FEF7A9F907B0F0BD00005A
:1037B00030380240001C0240000402400D4810B5A1
:1037C0000B4901600C49416000214FF48042816047
:1037D000C0E9031241618161C1610162FEF79AFA99
:1037E000002803D0BDE81040FDF78EBA10BD0000E0
:1037F0000058004010060020801A060010B596B050
:1038000000240F9410941194129413941C2108A86E
:103810001494FCF777FE20216846FCF773FE2848D5
:1038200026490160A721C0E9011444F61F61C0E9DF
:10383000031444618461FEF765FF08B1FDF764FA83
:103840004FF480500F900FA91D48FEF7DDFF08B11F
:10385000FDF75AFA1A48FFF78AF908B1FDF754FA4A
:10386000139413A916481494FEF704FF08B1FDF74A
:103870004BFA6020CDE908040A940B940C940D9443
:10388000002208A90E480E94FFF70BF908B1FDF7C6
:103890003BFA00944FF40050CDE9044002940194A7
:1038A0000394694606480794FEF7BAFE08B1FDF78F
:1038B0002BFA0348FFF7CAF816B010BD000001400C
:1038C000640600200C4810B50A4901604FF4E1314C
:1038D0004160002181600C22C160C0E90412816155
:1038E000C161FFF78FFB002803D0BDE81040FDF752
:1038F0000BBA10BD00100140AC0600200D4810B5F9
:103900000B4901600C49416000214FF480628160E5
:10391000C0E903120C22C0E90521C161FFF772FB67
:10392000002803D0BDE81040FDF7EEB910BD00003F
:1039300000480040F0060020A08601000C4810B5A9
:103940000A4901604FF4E1314160002181600C229D
:10395000C160C0E904128161C161FFF753FB002817
:1039600003D0BDE81040FDF7CFB910BD00140140F1
:1039700034070020FEE7FEE7194910B50860002073
:103980008860C86010EE103A082008610B76180AAB
:103990004876180C8876180E10EE902AC8760A77AA
:1039A000100A4877100C8877100EC87701F11802BA
:1039B000012314460B48FDF7DFF900280FD002233E
:1039C000224607490748FDF7D7F9002807D02246C5
:1039D000BDE81040042302490248FDF7CDB910BDEF
:1039E000BC4A0020C0050020194910B5086000201D
:1039F0008860C86010EE103A082008610B76180A3B
:103A00004876180C8876180E10EE902AC8760A7739
:103A1000100A4877100C8877100EC87701F1180249
:103A2000012314460B48FDF7A7F900280FD0022305
:103A3000224607490748FDF79FF9002807D022468C
:103A4000BDE81040042302490248FDF795B910BDB6
:103A5000DC4A0020E8050020012000F0DDFEFBE745
:103A60002DED048B00216748FFF7B0F8654C4FF44B
:103A7000FA6021684863FEF72FF800212046FFF71F
:103A800009F920684FF47A75456300212046FFF755
:103A90009DF82846FEF720F8FDF77AF82846FEF74D
:103AA0001BF8B2EE042AF2EE041A9FED578AB0EE2C
:103AB000481ADFED568AB0EE080A5548F0EE680A5B
:103AC00000F033FF5248B2EE042AF2EE041AB0EED0
:103AD000481AF0EE680AB1EE040A343000F025FF0F
:103AE000DFED4C1AB0EE612A9FED4B1A4848F0EE1C
:103AF000680AB1EE080A683000F017FFB0EE002A3D
:103B0000F0EE001AB7EE001AF0EE480A9FED430AF5
:103B10003F489C3000F009FF9FED419AB0EE492AE2
:103B2000DFED409AF0EE691ADFED3F8A3848B2EED9
:103B3000040AB0EE681AF0EE680AD03000F0F5FE24
:103B4000B0EE492AF0EE691AB0EE681AF0EE480AB3
:103B5000B2EE040A354800F0E8FE354E354FDFF886
:103B6000D880DFF8D890DFF8D8A0DFF8D8B00025EB
:103B700040F20114B07A012801D1FCF727FD387812
:103B800098F80010084301D12F48058099F80000EB
:103B90009AF80010084302D12B48083005802B48C2
:103BA000F0EE000A90ED000A2046FFF7E5FE012046
:103BB000FDF792FFF1EE040A9BED000A2046FFF7A5
:103BC00013FF0120FDF788FF2148F1EE040A90ED74
:103BD000000A4FF48170FFF707FF0120FDF77CFF1B
:103BE0001C48F2EE0E0A90ED000A40F20310FFF7B7
:103BF000FBFE0120FDF770FF00F064FD012000F0E6
:103C00000BFEB7E764060020CDCCCC3D0AD7233CA1
:103C100014010020000048420000C8420000A441F6
:103C2000007C92480060EA46000000001802002074
:103C30000E4A002006010020070100200A01002092
:103C40000F010020C40000200C000020C000002054
:103C5000C8000020CC00002013221F491F48FFF796
:103C600082FB1F480068C16841F01001C1606422F6
:103C70001C491B48FFF762FB1B4E1C4D1C4F0024C8
:103C80003078012824D12878122805D1154801F070
:103C900079F83888401C388034700020114902E0DF
:103CA0000C54401CC0B22A789042F9D32C70642284
:103CB0000C490B48FFF742FB3888322808D14FF4F3
:103CC00080610C48FEF712F80B493C800120087017
:103CD000012000F0A1FDD3E74C02002034070020B2
:103CE000AC0600205F0200201E0000201D00002006
:103CF00020000020001C02401C000020012000F0D9
:103D00008BFDFBE710B5502080F31188BFF34F8F78
:103D1000BFF36F8F01F08EFB18B104494FF0805054
:103D20000860002080F3118810BD000004ED00E061
:103D300030B593B030216846FCF7E4FB14210CA8A1
:103D4000FCF7E0FB1D480025016841F0805101604F
:103D5000006800F0805011901948016841F48041DA
:103D600001600068022400F480401190012000905E
:103D7000000401908001CDE9064006200890A820AB
:103D8000CDE9090404200B906846FEF791FA08B1CA
:103D900072B6FEE70CA90F2081E831004FF4A05065
:103DA0000F904FF48050109005210CA8FEF774F985
:103DB000002801D072B6FEE713B030BD4038024093
:103DC000007000400248016841F4700101607047D2
:103DD00088ED00E00148FEF786BD0000B80900202C
:103DE000F0B50268254C264D264E274F274B4FF045
:103DF000804CA04209D0604507D0A84205D0B0420F
:103E000003D0B84201D0984204D122F0700E4A6823
:103E100042EA0E02A0421BD0604519D0A84217D03A
:103E2000B04215D0B84213D0984211D0184DA842D4
:103E30000ED0184DA8420BD0174DA84208D0174DF0
:103E4000A84205D0164DA84202D0164DA84203D173
:103E500022F44075CA682A434D6922F080022A4341
:103E600002608A68C2620A688262A04201D09842F7
:103E700001D10969016301214161F0BD00000140E8
:103E80000004004000080040000C00400004014015
:103E9000004001400044014000480140001800403B
:103EA000001C00400020004010B501F01F0301215C
:103EB000046A99408C430462016A9A40114301628A
:103EC00010BD10B5846842EA032224F47F440A43FB
:103ED0002243826010BD826822F070020A4342F0E1
:103EE0000701816070470000F0B5026A22F001020C
:103EF0000262036A42688469124E24F073050C68FA
:103F00002C4323F002058B682B430D4DA84201D0B2
:103F1000B04205D123F00807CB683B4323F00403EC
:103F2000A84201D0B04205D14D6922F44072154338
:103F30008A692A4342608461496841630362F0BD33
:103F40000000014000040140F0B5026A22F01002B6
:103F50000262026A436884690D6824F4E64444EA14
:103F600005248D6822F0200242EA05120F4D104E02
:103F7000A84201D0B04206D1CF6822F0800242EAC6
:103F8000071222F04002A84201D0B04207D14D6989
:103F900023F4406343EA85038D6943EA8503436064
:103FA0008461496881630262F0BD00000000014045
:103FB00000040140F0B5026A22F480720262026AD3
:103FC0004368C46922F4007224F073050C68124E31
:103FD0002C438D6842EA05220E4DA84201D0B04222
:103FE00006D1CF6822F4006242EA072222F48062FE
:103FF000A84201D0B04207D14D6923F4405343EAAF
:1040000005138D6943EA05134360C4614968C163C0
:104010000262F0BD000001400004014030B5026AB8
:1040200022F480520262046A4268C3690D6823F474
:10403000E64343EA05238D6824F4005444EA05343A
:10404000084DA84202D0084DA84204D14D6922F47F
:10405000804242EA85124260C36149680164046299
:1040600030BD0000000001400004014010B5036AAB
:10407000046A24F001040462846924F0F00444EA30
:10408000021423F00A020A438461026210BD10B5D3
:10409000036A23F0100303628369046A23F4704304
:1040A00043EA023224F0A00343EA01118261016273
:1040B00010BD10B5806B0021C185C184FEF76CFE78
:1040C00010BD70B5846B2068406994F83D10C0F352
:1040D000C0100025212904D118B1E584204600F044
:1040E0008AF82068406994F83E10C0F380102229B5
:1040F00004D118B1E585204600F056F8206C40F058
:10410000100020642046FEF747FE70BD10B5014642
:10411000806B09680968C9052FD40021C185016831
:104120000C3151E8002F22F4807241E80023002B6B
:10413000F5D10168143151E8002F22F0010241E865
:104140000023002BF5D10168143151E8002F22F033
:10415000400241E80023002BF5D1202180F83E10D9
:10416000016B012909D101680C3151E8002F22F0BF
:10417000100241E80023002BF5D1016B012902D088
:10418000FFF706F910BD818DFEF7CDFD10BD10B50E
:10419000806B016B012902D0FFF704F910BD818DFE
:1041A0004908FEF7C0FD10BD01680C3151E8002F31
:1041B00022F4907241E80023002BF5D101681431FC
:1041C00051E8002F22F0010241E80023002BF5D135
:1041D000016B012909D101680C3151E8002F22F04F
:1041E000100241E80023002BF5D1202180F83E1079
:1041F00000210163704701680C3151E8002F22F063
:10420000C00241E80023002BF5D1202180F83D10A9
:10421000704708B590F83E10222901D0022008BD51
:1042200082684FF480539A4201D1016921B1816AB9
:104230009A421BD04AB10AE00268816A5268C2F30E
:1042400008020A80816A891C08E0026972B102686A
:10425000526802F07F020A70816A491C8162C18D36
:10426000491E0904090CC18503D019E0026852688F
:10427000F1E70168CA6822F02002CA600168CA68D2
:1042800022F48072CA6001684A6922F001024A6120
:10429000202180F83E10016B012903D0FFF778F848
:1042A000002008BD0021016301680C3151E8002F96
:1042B00022F0100241E80023002BF5D101680A68C2
:1042C000D20602D50A6849680091818DFEF72BFD60
:1042D000E6E7000070B5044600680169E26821F471
:1042E0004051114301612169A068E2690843616995
:1042F000114308432168CA6849F20C639A43024398
:10430000CA6020684169A26921F44071114341618A
:1043100031492068884202D03049884202D1FDF7F5
:1043200085FF01E0FDF772FFE26900231921642592
:104330003226B2F5004F626828D0A0FB0101930F2E
:104340009200FBF7F1FF0146B0FBF5F06FF01802A9
:10435000504301EB800006EB0010B0FBF5F000F0DD
:10436000F002B1FBF5F002EB0012B1FBF5F06FF0DB
:104370001803584301EB800006EB0010B0FBF5F08A
:1043800000F00F0021681044886070BDA0FB01019F
:1043900092185B41FBF7C8FF0146B0FBF5F0020144
:1043A000B1FBF5F06FF01803584301EB800006EB0A
:1043B000C000B0FBF5F000F0F80002EB4002B1FBEA
:1043C000F5F0584301EB800006EBC000B0FBF5F0C0
:1043D00000F00700D6E70000001001400014014083
:1043E00038B5816282850025134604460564222083
:1043F00084F83E00A26B1C48D063A26B1B4810647B
:10440000A26B1B48D064A06B0A4605652168A06BAF
:10441000091DFDF729FB206801684068009084F8B9
:104420003C50206948B120680C3050E8001F41F42E
:10443000807140E80012002AF5D12068143050E85D
:10444000001F41F0010140E80012002AF5D1206868
:10445000143050E8001F41F0400140E80012002AEB
:10446000F5D1002038BD00000D4100088F41000843
:10447000C340000881628285C28500210164222236
:1044800080F83E2080F83C10016921B10168CA68BB
:1044900042F48072CA6001684A6942F001024A61CE
:1044A0000068C16841F02001C16000207047000031
:1044B0000D4808B500680168C1F3001179B10168C1
:1044C000406800900848FEF72FFC084800684068E4
:1044D0000749C0F164000870064901200870BDE872
:1044E00008400148FEF75ABCAC06002078070020BF
:1044F0001D0000201E00002010B50448FCF789FBB9
:10450000BDE810400148FEF749BC0000F00600205D
:104510000C4808B501680A684A680092CA6842F007
:104520001002CA6001684A6942F040024A611221E1
:1045300000910168044B806BA3F11802091DFCF780
:10454000B3F908BDF0060020584900200148FEF7E5
:1045500025BC0000340700200C4808B501680A6833
:104560004A680092CA6842F01002CA6001684A694B
:1045700042F040024A61C82100910168044B806BFF
:10458000A3F1C802091DFCF78FF908BD340700200C
:104590007848002030B52648264987B090F8493041
:1045A000CB7090F84A208A70B0F85F20CA80B0F8CB
:1045B00061200A81B0F86C204A81826ECA60D0F80E
:1045C0008A2000EE102AB5EEC00AF1EE10FA00D0F3
:1045D0000A6142794FF41675140902220C71072BF7
:1045E00007D06B2B0AD00B78012B04D0022B06D0FE
:1045F0000BE001230B70B0F81B0002E00A70B0F86A
:104600002B0010B1A84200D04A708DF818400878ED
:104610008DF819001020009000200290CDE90302CF
:10462000012306AA69460448FCF7A6FB07B030BD83
:1046300070490020EC000020C0050020FEE70000CB
:1046400030B50C46050014D0022C12D90A48A11E20
:1046500002882846FCF75AFB2919C2B211F8023C1D
:104660009A4206D111F8011CB1EB102F01D10120A3
:1046700030BD002030BD00001001002030B50C46D8
:1046800005000CD0022C0AD9FF22611EFCF754FB56
:10469000291911F8011C814201D1012030BD0020EF
:1046A00030BD0907090E002804DB00F1E02080F886
:1046B0000014704700F00F0000F1E02080F8141D96
:1046C00070470000F8B5204CB4F9060000EE100A5F
:1046D0001E48F8EEC00AB0F9000000EE100A1C48AF
:1046E000B8EEC00A00F0CEF8BDEEC00A194D10EECB
:1046F000100A6080B5F9060000EE100A1348083071
:10470000F8EEC00AB0F9000000EE100A1048B8EE4A
:10471000C00A343000F0B6F8BDEEC00A00263346B9
:1047200010EE100A68800096B4F90E20B4F9021059
:10473000304600F095FB00230096B5F902101A46AA
:10474000184600F0BBFBF8BDC40200200C0000209E
:10475000E4010020180300200749896B814209D138
:104760000068016841F400210160044801780448B0
:10477000FEF71CBE7047000034070020E800002050
:10478000B04700200749896B814209D10068016860
:1047900021F400210160044801780448FEF706BEB8
:1047A0007047000034070020E8000020784800200F
:1047B000FDF7B0FBFFF7BCFAFEF788FFFEF70CFF32
:1047C000FEF7C6FEFEF7E6FEFFF77CF8FFF796F869
:1047D000FFF7B4F8FFF712F8FEF7F0FF00221146DA
:1047E0001C20FDF727FCFBF7E7FFFCF70FF8FFF7AE
:1047F000B3FEFFF78DFE0448FDF7C6FFFEF732FF5C
:1048000000F011F8FEE700006406002001460020D9
:10481000842900D0C81C704710B500B9012000F0F1
:10482000A5FC002010BD10B500F0C6FC002010BD96
:104830007FB50D4604464169B0F9080081B1A16910
:1048400071B1FFF7E3FFD4E905128DE80700D4E961
:1048500000102B46226900F0C2FD039004B070BD29
:10486000FFF7D4FF03A9CDE90001208A2B4682B2CD
:10487000D4E9001000F086FD012801D00020EDE70A
:104880000398EBE780ED050AC0ED060A90ED071AE4
:1048900070EE600A80ED081AC0ED070A90ED000A7C
:1048A00060EE201AC0ED091A90ED0A0A90ED012A77
:1048B00002EE200A70EEC10A80ED0A0A90ED021A9B
:1048C00020EE812A80ED0B2AD0ED030AB1EE601AAA
:1048D000B4EEC10AF1EE10FA02D8B0EE410A06E0D9
:1048E000B4EEE00AF1EE10FA01DBB0EE600A80ED02
:1048F0000A0A31EE800A30EE020A80ED0C0AD0ED91
:10490000040AB1EE601AB4EEC10AF1EE10FA02D850
:10491000B0EE410A06E0B4EEE00AF1EE10FA01DB77
:10492000B0EE600A80ED0C0A704780EC050A704713
:104930002DE9F041184C0F460546E6682068001D39
:1049400000F04CFB38B9206890F82C10012088400A
:10495000216981432161681C07D137B12168BDE815
:10496000F0410E48091D00F07DBB20683544B5427A
:104970004560216805D2A06BBDE8F041091D00F03B
:1049800059BB606B091D00F055FBA06A854200D23F
:10499000A562BDE8F081000048000020DC0A00208C
:1049A0002DE9F041054600F069FB2E4CA068401C43
:1049B000A06020682C4F10B1606940B32DE02560E5
:1049C000A068012829D1002606EB860007EB8000AD
:1049D00000F022FB761C072EF6D323488C3000F023
:1049E0001BFB2148A03000F017FB1F48B43000F03B
:1049F00013FB1D48C83000F00FFB1B48DC3000F0F3
:104A00000BFB19488C3060631430A06305E020680C
:104A1000E96AC06A884200D82560606A401C60620A
:104A2000E96A0120226988401043206101EB81007E
:104A300007EB8000291D00F015FB00F03FFB6069CB
:104A400000280CD02068E96AC06A884207D207496A
:104A50004FF080500860BFF34F8FBFF36F8FBDE8FA
:104A6000F081000048000020000A002004ED00E072
:104A700010B5044690F8510058B101280CD0022816
:104A80000FD0502080F31188BFF34F8FBFF36F8F8B
:104A9000FEE7206B00F026FB2046BDE8104000F04A
:104AA00021BB10BD10484FF47051420706D0C01D05
:104AB0000D4920F00700411AC1F570510B4A00233F
:104AC0000144C2E900030839183A21F007011160D6
:104AD0004B600B600B1AC0E9001393604FF000406D
:104AE0005360506170470000F00A00209C000020D5
:104AF000144E154CA6F1C8074FF08058DFF84C90C3
:104B000012E000BF00F0BAFAF068C568281D00F096
:104B100065FAA068401EA0606068401E606000F0FA
:104B2000CDFA2846FFF7A4FF60680028EAD138686C
:104B30000128F9D9C9F80080BFF34F8FBFF36F8FF9
:104B4000F2E70000C80A00204800002004ED00E061
:104B50002DE9F0479A46DDE9098481466FF00303A9
:104B6000206B03EB82021044089E20F007077807B1
:104B700007D0502080F31188BFF34F8FBFF36F8FA2
:104B8000FEE7002561B1002023180A5C83F8342079
:104B90000A5C12B1401C1028F6D384F8435001E09F
:104BA00084F83450072E00D30626E662C4E9116566
:104BB000201D00F03CFA04F1180000F038FA2461DE
:104BC000C6F107006462A061E56484F85050524663
:104BD0004946384600F0C0F82060B8F1000F01D017
:104BE000C8F80040BDE8F08730B5114900E0114633
:104BF0000A688242FBD34B685C18844203D1406848
:104C000018444860084643681C18944209D1084C6F
:104C1000183C2468A24209D052681A4442600A68CB
:104C200012680260814200D0086030BD0460F9E77C
:104C30009C0000200648416B096829B1416BC96896
:104C4000C9684968816270474FF0FF31FAE7000098
:104C50004800002008484068401C4FF0500080F396
:104C6000118804D0BFF34F8FBFF36F8FFEE7BFF300
:104C70004F8FBFF36F8FFEE7A40000202DE9F041B6
:104C80000546002700F0CEFA324E306808B9FFF72B
:104C900009FF706905424ED1C5B3083568070ED0CB
:104CA00005F00700C0F108000544680707D0502050
:104CB00080F31188BFF34F8FBFF36F8FFEE72DB3E3
:104CC0007068854237D82348183001460C6801E0E7
:104CD00020460C466168A94202D221680029F7D11A
:104CE00031688C4227D00768216801606068083706
:104CF000411B10290FD96019420708D0502080F3BA
:104D00001188BFF34F8FBFF36F8FFEE713E0416051
:104D10006560FFF769FF61687068401A7060B2688B
:104D2000904200D2B060706901430020C4E90001E4
:104D3000F068401CF06000F0E3FB780707D05020DB
:104D400080F31188BFF34F8FBFF36F8FFEE73846B4
:104D5000BDE8F0818400002010B5031F4FF080747F
:104D60001C601B1F21F001011960191F044B0B600F
:104D700014390A60091F6FF0020244380A6010BD3E
:104D8000554C00080188C1F30A0233490A80427871
:104D90008378D20842EA4312C2F30A024A80827838
:104DA000C378920942EA8302037942EA8322C2F37A
:104DB0000A028A8002794379520842EAC312C2F396
:104DC0000A02CA804279C2F301128A7242799209B8
:104DD000CA72C2888A810289CA8142890A82027B98
:104DE0008A74427BCA74C2898A82028A0A81827B5F
:104DF0001A4902F001030B7002F002034B7002F03B
:104E000004038B7002F00803CB7002F040030B71B7
:104E100002F080034B7102F010038B7102F020024C
:104E2000CA71C07B00F001020A7200F002024A72ED
:104E300000F004028A7200F00802CA7200F0100248
:104E40000A7300F020024A7300F040028A7300F0F7
:104E50008000C873704700000E4A00200001002047
:104E600010B588B00A9C18B340F2FF2002900020D1
:104E70000490059008200690080A8DF800008DF82F
:104E80000110100A8DF80200180A8DF804008DF840
:104E90000530200A8DF806008DF803208DF80740B4
:104EA00001236A4602A90448FBF766FF08B010BD5B
:104EB0004FF40070DAE70000C005002010B588B09C
:104EC0000A9C18B340F2FF20029000200490059045
:104ED00008200690080A8DF800008DF80110100ACD
:104EE0008DF80200180A8DF804008DF80530200AAC
:104EF0008DF806008DF803208DF8074001236A46DF
:104F000002A90448FBF738FF08B010BD4FF4007049
:104F1000DAE70000E805002038B5044600680168BB
:104F200040680090204884421BD1A06B0068016853
:104F300021F001010160A06B01684A68062A06D1D0
:104F40000968090301D5416C00E0C16B8847A16B7A
:104F5000182009684860A06B0068016841F00101F1
:104F60000160124884421DD1A06B0068016821F0E5
:104F700001010160A06B01684A680D4BC2F1C802D3
:104F80001A700968090301D5416C00E0C16B8847BC
:104F9000A16BC82009684860A06B0068016841F0F7
:104FA0000101016038BD0000F00600203407002038
:104FB000E800002001EE100A70EEC00A0120B8EEF1
:104FC000C11A8840401E21EE201A00EE900AF8EE29
:104FD000E01AC1EE210A30EE800A7047D0E90132B2
:104FE00001699A60D0E901235A604A68824201D17E
:104FF00082684A60002202610868401E08600868F2
:1050000070470000034B036003F1540008608020E8
:10501000106070476C03002000F108014FF0FF3270
:10502000C0E90112C16001610021016070470021E7
:105030000161704730B50B685A1C02D000F10802BC
:1050400002E0026904E02246546825689D42FAD9CC
:1050500053684B6099608A60516008610168491C1F
:10506000016030BD42684A6093688B609368596004
:10507000916008610168491C01607047502080F30D
:105080001188BFF34F8FBFF36F8F0A494868401CE8
:10509000486001280CD10848006810F0FF0F07D0C5
:1050A000502080F31188BFF34F8FBFF36F8FFEE75F
:1050B00070470000A400002004ED00E008494868A3
:1050C00028B1401E486001D180F3118870475020FC
:1050D00080F31188BFF34F8FBFF36F8FFEE700009F
:1050E000A400002070B500282AD0164DA0F10804B5
:1050F00060686969084207D1502080F31188BFF3C6
:105100004F8FBFF36F8FFEE722683AB1502080F3D4
:105110001188BFF34F8FBFF36F8FFEE78843606046
:1051200000F080F860686968084468602046FFF70E
:105130005BFD2869401C2861BDE8704000F0E0B9C3
:1051400070BD0000840000204FF0E02000210161CC
:10515000816105494FF47A720968B1FBF2F1491E89
:1051600041610721016170474400002010B5020031
:1051700014D00F48006B38B1502080F31188BFF372
:105180004F8FBFF36F8FFEE700F04CF80021104601
:10519000FFF7CEFB00F0B4F9002807D105494FF026
:1051A00080500860BFF34F8FBFF36F8F10BD0000BA
:1051B0004800002004ED00E010B586B00024039400
:1051C00005AA04A903A80494FFF71CFFDDE9030165
:1051D0000094CDE9011000230EA11048059A00F0BB
:1051E000FEF80F490028C86211D0502080F31188C2
:1051F000BFF34F8FBFF36F8F4FF0FF3088620120F6
:105200004861CC6006B0BDE8104000F041B806B07F
:1052100010BD000049444C4500000000F14A000860
:10522000480000200248016B491C016370470000E0
:10523000480000201448016B11B10121C161704781
:105240000021C1610169B1FA81F1C1F11F0101EBD6
:1052500081020E4951F822306BB101EB820101F15C
:1052600008034A6852684A609A4201D152684A600B
:10527000D16801607047502080F31188BFF34F8FD1
:10528000BFF36F8FFEE7000048000020000A0020F7
:105290001CB537480168374A914207D1502080F346
:1052A0001188BFF34F8FBFF36F8FFEE7006831495E
:1052B000491E884207D1502080F31188BFF34F8FD9
:1052C000BFF36F8FFEE72C4908780190FF2008702C
:1052D00008788DF800009DF800009DF8002000F08F
:1052E000F000904207D0502080F31188BFF34F8F19
:1052F000BFF36F8FFEE79DF80000204C00F05000D8
:1053000020700720A06005E09DF8002052008DF875
:105310000020401E9DF800201206F5D4A06003284E
:1053200007D0502080F31188BFF34F8FBFF36F8FEA
:10533000FEE74FF44070A060019808700C482030E0
:10534000016841F470010160016841F07041016041
:10535000FFF7FAFE00206060FAF78AFF084801684C
:1053600041F040410160FAF76FFF00201CBD0000D2
:1053700000ED00E071C20F4100E400E0A400002055
:1053800034EF00E02DE9FF5F8346DDE90E879946A3
:1053900016468A469000FFF771FC05001CD0542089
:1053A000FFF76CFC040014D00020256384F8510042
:1053B000CDE90240CDE900874B463246514658467A
:1053C000FFF7C6FB2046FFF7EBFA012004B0BDE86B
:1053D000F09F2846FFF786FE4FF0FF30F6E7F0B566
:1053E00085B0DDE90B640A9DA6B1DCB154270097B6
:1053F0002663022684F85160002604AFCDE90246F8
:10540000CDE90057FFF7A4FB2046FFF7C9FA04983F
:1054100005B0F0BD502080F31188BFF34F8FBFF36C
:105420006F8FFEE7502080F31188BFF34F8FBFF3DB
:105430006F8FFEE72DE9F0412F4C0026206B28B13D
:10544000A069401CA0613046BDE8F081E5686D1C94
:10545000E56013D1606B006838B1502080F311888B
:10546000BFF34F8FBFF36F8FFEE7606BA16B61637C
:10547000A063206A401C2062FFF7DCFBA06ADFF813
:105480007C80854209D3606B0068A0B1606BC06806
:10549000C7687868854211D2A0622068C06A00EBB4
:1054A000800158F82100012800D90126E069002870
:1054B000C9D00126C7E74FF0FF30EDE7381DFFF7F1
:1054C0008DFDB86A18B107F11800FFF787FDF96A7A
:1054D0000120226988401043206101EB810108EB23
:1054E0008100391DFFF7BEFDF86A2168C96A88424C
:1054F000C9D30126C7E7000048000020000A0020A9
:105500002DE9F0472C4D00242746286B38B1FFF7D2
:10551000B5FD286B401E2863286B40B146E0502043
:1055200080F31188BFF34F8FBFF36F8FFEE7A96839
:10553000224E0120D1B3A6F1B40980463068E8B10B
:10554000F068C46804F11800FFF748FD201DFFF75C
:1055500045FDE06A2A6908FA00F11143296100EB70
:10556000800109EB8100211DFFF77CFDE06A2968BD
:10557000C96A8842E2D3C5F81C80DFE70CB1FFF7A7
:1055800059FBAC6944B14646FFF754FF00B1EE61E8
:10559000641EF9D10020A861E86938B108490127E3
:1055A00038070860BFF34F8FBFF36F8FFFF786FD9B
:1055B0003846BDE8F087000048000020B40A00200B
:1055C00004ED00E021F00042A2F16052B2F5801F2C
:1055D00001F0004328BFD2F17F6C0BD95FEA001CB9
:1055E00043EAC20242EB507018BF704728BF20F058
:1055F00001007047B2F5801FBCBF184670474FEAE4
:10560000410C1CF5001F02D2084600F081B970B5AC
:1056100000F0B4F800000089FFF7F6BF4FF000403B
:10562000A0F5800070470000DFF848C170B51CEAA3
:10563000111E1EBF1CEA13159EEA0C0F95EA0C0FF3
:1056400000F06F8081EA030423EA4C134EEAD47E13
:1056500021EA4C1141F4801143F48013AE44A1FBC4
:10566000024CA0FB0365AEF17F7E361955EB0C05AD
:10567000A1FB034C4CF10003A0FB021C16EB0C0633
:10568000654153F10003094218BF46F0010613F4C7
:10569000007F0BD14FEA03314FEA0530340341EA72
:1056A000155140EA16506FF003020AE04FEAC32199
:1056B0004FEAC520F40241EA555140EA56506FF0D6
:1056C000020202EB2E4201EB025585EACE710AD0AE
:1056D0005FEA440C18BF24F0004450F1000041F18F
:1056E000000120EAD47040F2FE7C624500D270BD19
:1056F000A84214BF4FF080444FF04044002E08BF32
:105700000024BEF1806FA8BFA1F1C041BDE8704088
:1057100080F282804FF0000001F1C04101F00041B1
:1057200070479EEA0C0F0CEA131518BF95EA0C0F90
:1057300006D04FF0000081EA030E0EF0004170BD6C
:1057400000F01CF88900013E00F007B800F009B82D
:105750004FEA430C5FEA5C5C08D081EA030100F089
:105760005BB84FEA410C5FEA5C5CF6D14FF0000099
:10577000014970470000FF070000F87F0EF1020E9C
:105780002EF0030E5EF8046B364205D4012A43EB7B
:10579000030515F5001F12D8012841EB010C1CF57B
:1057A000001F0CD80ED14FEAD17C15F5001F0CEB71
:1057B0004C0C0CF1020C08BF4CEBD37C04E04FF016
:1057C000080C01E04FEAD37C0CEB4C0526FA05F6F9
:1057D00006F00706B6F1040C06D20EEB860CBDE807
:1057E00070404CF0010C6047DFE80CF0090B02023E
:1057F0004FF000414FF00000A1F5002170BD1946A7
:105800001046012851EB010418BFD4F5001484BFE1
:10581000002001F0004170BD0808A0F500114FEA1A
:105820003101704743004FEAD30C4FEA3C0C434030
:105830001FBF40070CF1605113F0FE4F70471CF082
:10584000006F03D100200CF0004170470CF00043C2
:1058500043EA507010B540EACC0000F00EF800BFEB
:10586000000000924FEA0001FFF7D6BF4FF0004161
:105870004FF00000A1F5002170470EF1020E2EF04E
:10588000030E5EF8044B244204D44FEA4102B2F105
:105890007F4F11D84FEA4003B3F17F4F0CD80ED1A0
:1058A0004FEAD07CB2F17F4F0CEB4C0C0CF1020CA8
:1058B00008BF4CEBD17C04E04FF0080C01E04FEA4C
:1058C000D17C0CEB4C0324FA03F404F00704B4F18C
:1058D000040C06D20EEB840CBDE810404CF0010C19
:1058E0006047DFE80CF0070802024FF00040A0F527
:1058F000800010BD0846420018BFD2F1807288BFF8
:1059000000F0004010BD4FF04070E1EE100A70470B
:10591000FF2141EAD050C00570470000C45C000878
:10592000593A00080000000000000000800000005C
:105930000000000000000000AC5C0008613A0008B4
:1059400000000000000000008000000000000000D7
:1059500000000000B85C0008593C0008000000008E
:1059600000000000800000000000000000000000B7
:10597000D05C0008FD3C00080000000000000000B2
:10598000800000000000000000000000000610166B
:1059900000061016000000000000000001020304D1
:1059A000060708090000000001020304005EBCE2D3
:1059B000613FDD83C29C7E20A3FD1F419DC3217FEB
:1059C000FCA2401E5F01E3BD3E6082DC237D9FC1DF
:1059D000421CFEA0E1BF5D0380DE3C62BEE0025CD3
:1059E000DF81633D7C22C09E1D43A1FF4618FAA4BF
:1059F00027799BC584DA3866E5BB5907DB856739AB
:105A0000BAE406581947A5FB7826C49A653BD9879E
:105A1000045AB8E6A7F91B45C6987A24F8A6441A92
:105A200099C7257B3A6486D85B05E7B98CD2306E7E
:105A3000EDB3510F4E10F2AC2F7193CD114FADF36A
:105A4000702ECC92D38D6F31B2EC0E50AFF1134D5E
:105A5000CE90722C6D33D18F0C52B0EE326C8ED052
:105A6000530DEFB1F0AE4C1291CF2D73CA9476283E
:105A7000ABF517490856B4EA6937D58B5709EBB52A
:105A800036688AD495CB2977F4AA4816E9B7550B1E
:105A900088D6346A2B7597C94A14F6A8742AC89612
:105AA000154BA9F7B6E80A54D7896B350000891160
:105AB00012239B322446AD573665BF74488CC19D76
:105AC0005AAFD3BE6CCAE5DB7EE9F7F88110080156
:105AD00093331A22A5562C47B7753E64C99C408D56
