:020000040800F2
:100000003052002009030008A73B000835350008DE
:10001000A53B0008A5090008254B000800000000CA
:10002000000000000000000000000000490200087D
:10003000130E000800000000A50200089D41000802
:1000400023030008230300082303000823030008F8
:1000500023030008230300082303000823030008E8
:1000600023030008230300082303000823030008D8
:10007000510A0008230300085D0A00082303000852
:10008000230300082303000823030008F1090008E4
:10009000E5090008230300082303000823030008E0
:1000A0002303000823030008230300082303000898
:1000B000230300086D4200082303000823030008FF
:1000C0002303000823030008230300082303000878
:1000D000230300080D4900082303000855490008C0
:1000E0002303000823030008230300082303000858
:1000F0002303000823030008230300082303000848
:100100002303000823030008230300082303000837
:100110002303000823030008230300082303000827
:1001200023030008690A0008750A00082303000871
:10013000230300082303000823030008450A0008DE
:10014000390A0008230300082303000823030008DA
:1001500023030008810A00088D0A0008A949000845
:1001600023030008230300082303000823030008D7
:1001700023030008230300082303000800000000F5
:10018000230300082303000800F002F800F04CF8F5
:100190000AA090E8000C82448344AAF10107DA45E2
:1001A00001D100F041F8AFF2090EBAE80F0013F0E8
:1001B000010F18BFFB1A43F001031847D85E000077
:1001C000F85E00000A4410F8014B14F00F0508BF58
:1001D00010F8015B240908BF10F8014B6D1E05D013
:1001E00010F8013B6D1E01F8013BF9D1641E03D0EC
:1001F000641E01F8015BFBD19142E4D3704700001B
:100200000023002400250026103A28BF78C1FBD81F
:10021000520728BF30C148BF0B6070471FB505F0BB
:100220004DFD1FBD10B510BD00F0A6F91146FFF73A
:10023000F5FF04F02DFE00F0C4F903B4FFF7F2FF60
:1002400003BC00F0CBF900002C4B19680868B0E83B
:10025000F04F80F30988BFF36F8F4FF0000080F3F9
:10026000118870470000000008480068006880F3AB
:1002700008884FF0000080F3148862B661B6BFF3BF
:100280004F8FBFF36F8F00DF00BF00BF08ED00E0AE
:10029000DFF80C00016841F470010160704700BF95
:1002A00088ED00E0EFF30980BFF36F8F134B1A68FE
:1002B0001EF0100F08BF20ED108A20E9F04F1060EB
:1002C00009B44FF0500080F31188BFF34F8FBFF394
:1002D0006F8F05F02BFB4FF0000080F3118809BCF5
:1002E00019680868B0E8F04F1EF0100F08BFB0ECB6
:1002F000108A80F30988BFF36F8F70478000002059
:10030000EFF305807047000009488047094800471F
:10031000FEE7FEE7FEE7FEE7FEE7FEE7FEE7FEE7B5
:10032000FEE7FEE704480549054A064B7047000012
:100330005D42000889010008304C00203052002046
:10034000304E0020304E002053EA020C00F069804D
:100350002DE9F04B4FF00006002B1FBFB3FA83F5D9
:1003600003FA05F424FA05F65E4012BF1643B2FA0A
:1003700082F502FA05F4C5F120051EBF22FA05FC3C
:1003800044EA0C04203556EA044C4FEA144418BFE2
:10039000641C4FF000084FF00009904271EB030C11
:1003A00039D3002919BFB1FA81F701FA07F6B0FA7B
:1003B00080F700FA07F6C7F120071EBF20FA07FCF6
:1003C00046EA0C062037B6FBF4FCA7EB0507103F06
:1003D00007F01F0BCBF120060CFA0BFB2CFA06F6EC
:1003E00044BFB3460026202FA4BF5E464FF0000B4B
:1003F0005BEA060C08BF4FF0010B19EB0B09ABFBD6
:10040000027C48EB0608C01B06FB02CC0BFB03CCAE
:1004100071EB0C01C1E70B46024641464846BDE878
:10042000F08B13B54FF000004FF00001AFF30080E8
:10043000BDE81C407047032A40F2308010F0030CE6
:1004400000F0158011F8013BBCF1020F624498BF27
:1004500011F801CB00F8013B38BF11F8013BA2F1C4
:10046000040298BF00F801CB38BF00F8013B11F03F
:10047000030300F02580083AC0F0088051F8043BDF
:10048000083A51F804CBA0E80810F5E7121D5CBF4C
:1004900051F8043B40F8043BAFF30080D20724BF7F
:1004A00011F8013B11F801CB48BF11F8012B24BF13
:1004B00000F8013B00F801CB48BF00F8012B704762
:1004C00010B5203AC0F00B80B1E81850203AA0E8EF
:1004D0001850B1E81850A0E81850BFF4F5AF5FEA23
:1004E000027C24BFB1E81850A0E8185044BF18C9D6
:1004F00018C0BDE810405FEA827C24BF51F8043B7D
:1005000040F8043B08BF7047D20728BF31F8023BD0
:1005100048BF11F8012B28BF20F8023B48BF00F864
:10052000012B70474FF0000200B5134694469646E3
:10053000203922BFA0E80C50A0E80C50B1F12001F6
:10054000BFF4F7AF090728BFA0E80C5048BF0CC0A4
:100550005DF804EB890028BF40F8042B08BF704702
:1005600048BF20F8022B11F0804F18BF00F8012B74
:100570007047704770477047754600F02BF8AE46DD
:1005800005006946534620F00700854618B020B59F
:10059000FFF7C8FEBDE820404FF000064FF000070F
:1005A0004FF000084FF0000B21F00701AC46ACE81B
:1005B000C009ACE8C009ACE8C009ACE8C0098D4688
:1005C000704710B50446AFF300802046BDE81040E8
:1005D000FFF733BE00487047D04B00200149182078
:1005E000ABBEFEE726000200704700002DE9F04197
:1005F0006F487049027891ED000A6F4822B1D0ED42
:10060000050A30EE200A06E06C4A12782AB1D0EDD5
:10061000050A30EE600A81ED000A694AD2ED000A4F
:10062000B4EEE00AF1EE10FA01DDB0EE600A654AC0
:1006300081ED000AD2ED000AB4EEE00AF1EE10FA04
:1006400001D2B0EE600A81ED000A5F495F4C097883
:10065000D4ED000A21B190ED061A70EE810A06E091
:100660005B49097829B190ED061A70EEC10AC4ED14
:10067000000A5849B0EE601AD1ED000AB4EEE01A53
:10068000F1EE10FA01DCF0EE410A5349C4ED000A24
:1006900091ED001AF4EEC10AF1EE10FA01D2F0EE7B
:1006A000410A4E494E4DC4ED000A0978D5ED000AC5
:1006B00021B190ED061A70EE810A06E049490978E9
:1006C00029B190ED061A70EEC10AC5ED000A46493F
:1006D00091ED001AF4EEC10AF1EE10FA01DDF0EE30
:1006E000410A4249C5ED000A91ED001AF4EEC10A33
:1006F000F1EE10FA01D2F0EE410A3D493D4EC5ED52
:10070000000A0978D6ED000A21B190ED041A70EEC6
:10071000810A06E03849097829B190ED041A70EE93
:10072000C10AC6ED000A3548B0EE601AD0ED000AE5
:10073000B4EEE01AF1EE10FA01DCF0EE410A3048B6
:10074000C6ED000A90ED001AF4EEC10AF1EE10FABF
:1007500001D2F0EE410AC6ED000A40F20117F6EEB2
:10076000000A384603F0E2FA012004F0D1FBF6EE6D
:10077000000A94ED000A384603F010FB012004F053
:10078000C7FBF6EE000A95ED000A781C03F006FBA5
:10079000012004F0BDFBF6EE000A96ED000AB81C3D
:1007A00003F0FCFABDE8F041012004F0B1BB000009
:1007B00031010020FC000020000000203201002058
:1007C0000C010020100100202D010020000100205C
:1007D0002E01002014010020180100203801002003
:1007E000040100203A0100201C010020200100200B
:1007F0002F010020080100203001002024010020EA
:100800002801002070B5584890ED000A9FED572A46
:1008100020EE021ADFED560A564C574881EE200AA8
:1008200084ED070A90ED001A544821EE021AC1EE39
:10083000201AC4ED081A90ED001A514861EE022A00
:1008400082EEA01A84ED091AD0ED002A4D4862EE1E
:10085000822A82EEA02A84ED0A2AD0ED000AB4EEA4
:10086000E00AF1EE10FA01DDB0EE600A464884EDD0
:10087000070AD0ED000AB4EEE00AF1EE10FA01D258
:10088000B0EE600A414884ED070AD0ED000AF4EEAC
:10089000E01AF1EE10FA01DDF0EE601A3C48C4ED0A
:1008A000081AD0ED000AF4EEE01AF1EE10FA01D3C6
:1008B000F0EE610A3748C4ED080AD0ED000AB4EE44
:1008C000E01AF1EE10FA01DDB0EE601A324884ED64
:1008D000091AD0ED000AB4EEE01AF1EE10FA01D3D5
:1008E000F0EE410A2D48C4ED090AD0ED000AB4EE3D
:1008F000E02AF1EE10FA01DDB0EE602A284884ED1E
:100900000A2AD0ED000AB4EEE02AF1EE10FA01D383
:10091000F0EE420AC4ED0A0A40F20115F6EE000AB2
:10092000284603F003FA012004F0F2FAF6EE000A7A
:1009300094ED080A284603F031FA012004F0E8FAA1
:10094000F6EE000A94ED090A681C03F027FA01206C
:1009500004F0DEFA94ED0A0AA81CBDE87040F6EE39
:10096000000A03F01BBA00003C000020C3F5484019
:10097000000034C30000002040000020440000209C
:10098000480000200C01002010010020140100206C
:10099000180100201C01002020010020240100205B
:1009A00028010020FEE7000000B58BB000200121E7
:1009B000CDE906010590009001900290039004900B
:1009C0000E20CDE908106946054800F047FB0221DA
:1009D000034800F0C3FA024800F05EFF0BB000BD10
:1009E000F0050020014800F034BC0000F0050020B4
:1009F000014800F02EBC0000F005002000B58BB0CF
:100A000001220E2100200792CDE9051003900490E9
:100A1000CDE908210090019002906946054800F058
:100A20001DFB0221034800F099FA024800F034FF50
:100A30000BB000BD18060020014800F00ABC000001
:100A400018060020014800F004BC00001806002031
:100A5000014800F0AFBF000068080020014800F026
:100A6000A9BF0000C8080020014800F0A3BF000093
:100A700028090020014800F09DBF0000A8070020C1
:100A8000014800F097BF000088090020014800F0ED
:100A900091BF0000080800202DE9F04F8568002470
:100AA000099E802D18D0894DC563894D456490F805
:100AB0003450012D15D0012580F8345090F8355070
:100AC000012D10D0002180F834100224002180F87C
:100AD00034102046BDE8F08F4FF48071416501204D
:100AE000F8E70220F6E7022580F835500025456535
:100AF00005682F6847F480272F6005682B6103681D
:100B00005E608368402B03682AD099600168CA60E0
:100B1000714D704E704FDFF8BC81DFF8B891DFF88F
:100B2000B8A1DFF8B4B1EA14DFF8A8E1016818361B
:100B300030379302A9F148090AF1600A0BF1180B4A
:100B4000AEF1300E4FF0006C41452DD9A94205D0D1
:100B5000494503D0514501D0B14205D1202220E0C2
:100B60009A600268D160D3E759451AD0714518D010
:100B7000594D7835A94214D0564D3035A94210D080
:100B8000B9420BD0534A183A914207D0524A903298
:100B9000914203D04F4A4832914201D11A4600E0B7
:100BA00062464C494C392EE0DFF82C8108F1A80848
:100BB00041452AD9A94205D0494503D0514501D024
:100BC000B14201D120221CE059451AD0714518D0FC
:100BD000414D7835A94214D03E4D3035A94210D050
:100BE000B9420BD03B4A183A914207D03A4A903268
:100BF000914203D0374A4832914201D11A4600E06F
:100C00006246344950390A605AE0DFF8CC8008F176
:100C1000480841452AD9A94205D0494503D0514544
:100C200001D0B14201D120221CE059451AD07145B2
:100C300018D0294D7835A94214D0264D3035A94217
:100C400010D0B9420BD0234A183A914207D0224A19
:100C50009032914203D01F4A4832914201D11A4644
:100C600000E062461C491039CA6029E0A94205D05B
:100C7000494503D0514501D0B14201D120221CE0A9
:100C800059451AD0714518D0134D7835A94214D062
:100C9000104D3035A94210D0B9420BD00D4A183A48
:100CA000914207D00C4A9032914203D0094A48320F
:100CB000914201D11A4600E06246074910398A6024
:100CC00001680A6842F001020A60FFE6394E000836
:100CD000654E000858640240106002400168182305
:100CE000CAB2103AB2FBF3F2054B6FF30901032AC3
:100CF0009B5CC36500D9091D8165084670470000EB
:100D0000405D000810B5014600208B698A6A4FF0EB
:100D1000C07453B1B3F5005F15D072B1012A0CD085
:100D2000022A0AD0032A09D104E01AB1012A06D006
:100D3000022A03D1C96AC90100D5012010BDC96AC0
:100D4000A142FAD010BD002AF7D0012AF2D0022A1F
:100D5000F3D0032AF3D010BD30B50468256825F41C
:100D600080252560046863608368402B036803D096
:100D700099600068C26030BD9A600068C16030BD93
:100D800070B586B0012004F0C3F8FF24FC2501945F
:100D90000294CDE90345A61C23462246214630464F
:100DA000009400F077F8012004F0B2F8FF230194DA
:100DB0000294CDE903451A461946D81C009400F068
:100DC00069F8012004F0A4F8FF2301940294CDE90E
:100DD00003451A461946181D009400F05BF80120DF
:100DE00004F096F801940294FF23CDE903451A46D6
:100DF00019463046009400F015F806B070BD016841
:100E00000A68D20604D5C968C90601D504F000BC39
:100E10007047704701B5009801E0401E009000281F
:100E2000FBD108BD2DE9F04106AC94E8E050174C29
:100E3000206000206060A060E060082020612176D2
:100E40006276A376E5762677677784F81EC084F805
:100E50001FE004F11802012314460C490C4800F06D
:100E60008FF800280FD0022322460849084800F0D6
:100E700087F8002807D02246BDE8F0410423034943
:100E8000034800F07DB8BDE8F0810000B84A0020BA
:100E9000F00500202DE9F04708ACDFF8688094E801
:100EA000E0120124A8F80040174C20600020606088
:100EB000A060E0600820206121766276A376E57666
:100EC0002677677784F81E9084F81FC004F1180213
:100ED000012314460C490D4800F052F800280FD0A9
:100EE000022322460849094800F04AF8002807D0A2
:100EF0002246BDE8F04704230349044800F040B807
:100F0000BDE8F08756010020D84A002018060020CE
:100F100072B6FEE710B558B1084C491E0BD310F855
:100F2000013B5340DBB234F8133083EA1222F4E77A
:100F30004FF6FF7010BD104610BD0000605E000847
:100F400010B5054C04E000BF10F8013B5340E25CD3
:100F5000491EF9D2104610BD605D000890F82020AF
:100F6000012A07D0022A05D0416A41F4802141625A
:100F700001207047006842690A43426100207047BF
:100F8000F0B590F820500468A468012D05D0022D1A
:100F900003D0416A41F480215DE014F0406F01D13B
:100FA000E50055D5C4F30164022C03D9416A41F42C
:100FB000000150E00125A5401D608D684FF4C0730D
:100FC0009DB1CE6835434E6845EAC605066803EB19
:100FD0000417F5514FF4C275076805EB04150E6947
:100FE0007E51097D012905D009E00E88CD6845EACA
:100FF0004655EBE701684E5946F480764E5111791B
:10100000D579567941EA056195792D0445EA062599
:1010100029434FF4C676056806EB0416A9511178EA
:10102000D57841EA0561957852782D0445EA022287
:1010300011434FF4C475026805EB04155151006863
:1010400003EB0411425842F0010242500020F0BD6F
:10105000416A41F4001141620120F0BD10B590F8E1
:101060002020012A07D0022A05D0416A41F48021BC
:101070004162012010BD3B48D0F8002242F001023D
:10108000C0F80022D0F8002222F47C52C0F80022DE
:10109000D0F800224B6A42EA0322C0F800220A7DFF
:1010A00002F01F0301229A40D0F81C329343C0F88B
:1010B0001C32CB69B3B9D0F80C329343C0F80C3270
:1010C0008C894B6864F31F434C6900EBC404C4F87B
:1010D00040320C890B6864F31F434C6900EBC40475
:1010E000C4F84432CB69012B16D1D0F80C3213432B
:1010F000C0F80C320C884B6864F31F434C6900EB5A
:10110000C404C4F840320C89CB6864F31F434C69B3
:1011100000EBC404C4F844328B69002BD0F80432CD
:101120000ED01343C0F804320B69002BD0F81432F0
:1011300008D01343C0F81432096A012904D008E02A
:101140009343EFE79343F5E7D0F81C121143C0F83F
:101150001C12D0F8001221F00101C0F8001200208A
:1011600010BD000000640040704730B590F820408A
:10117000012C05D0022C03D0416A41F480215DE0AE
:101180000468002955D02469A40754D04FF4D874BA
:10119000056804EB01142D5915F0040595600568E8
:1011A0002D594ED0ED08556005682C5904F0020405
:1011B000D4604FF4DA74056804EB01142D5905F07E
:1011C0000F05156105682D59C5F30725956105685B
:1011D0002C59240C54614FF4DC72046802EB0112A8
:1011E000A4581C700468A458240A5C700468A458AD
:1011F000240C9C700468A258120EDA704FF4DE7250
:10120000046802EB0112A4581C710468A458240A53
:101210005C710468A458240C9C710468A258120ED6
:10122000DA71006881B1016941F02001016100209B
:1012300030BDE468A8E7416A41F400114162012031
:1012400030BD6D0D1560AFE7C16841F02001C16090
:10125000EDE72DE9F05F0546006800244669D0F807
:1012600004908768D0F80CB0D0F810A0D0F818809F
:10127000F10748D0F90714D001218160B80703D5E0
:10128000284600F036FB0CE0780702D54FF40064E6
:1012900007E0380702D54FF4805402E0284600F0FA
:1012A00027FBF80516D529684FF480708860B805CB
:1012B00003D5284600F01FFB0CE0780502D544F466
:1012C000005407E0380502D544F4804402E0284683
:1012D00000F010FBF80316D529684FF480308860C1
:1012E000B80303D5284600F008FB0CE0780302D5CC
:1012F00044F4004407E0380302D544F4803402E0AB
:10130000284600F0F9FA300707D55FEACB6004D52C
:101310002968102044F40074C86070074FF0080773
:1013200007D55FEA0B7004D52868C760284600F02F
:10133000A9F9B00706D52868C068800702D02846FA
:1013400000F0A2F9700607D55FEACA6004D52968E3
:10135000102044F480640861B00607D55FEA0A7083
:1013600004D528680761284600F092FAF00606D5F1
:1013700028680069800702D0284600F08AFAB00386
:1013800008D55FEAC96005D529681020486028465D
:1013900000F080FAF00307D55FEA097004D52868E9
:1013A0004760284600F0AAFA300446D55FEA497043
:1013B00040D5F00504D55FEAC87001D044F00104BF
:1013C000B00504D55FEA887001D544F002047005C9
:1013D00004D55FEA487001D544F00404300529D5EE
:1013E00018F0700F26D008F07000402815D006DCE9
:1013F000102809D020280AD0302816D10AE0502819
:101400000ED0602811D10EE044F008040DE044F045
:1014100010040AE044F0200407E044F0400404E033
:1014200044F0800401E044F480742868816921F06C
:1014300070018161296804204860002C05D0686A29
:10144000204368622846FFF78FFEBDE8F09F70B525
:10145000040003D094F8200010B104E0012070BD16
:10146000204600F081F82068016841F00101016028
:1014700000F02EFD0546052604E000F029FD401B86
:101480000A2811D820684068C007F6D02068016893
:1014900021F00201016000F01BFD05460BE000F0A9
:1014A00017FD401B0A2806D9606A40F400306062CC
:1014B00084F82060D2E7206840688007EFD4207E5F
:1014C0000128206801683DD021F080010160607E24
:1014D00001282068016838D021F040010160A07E19
:1014E00001282068016833D021F020010160E07EEE
:1014F0000128206801682ED041F010010160207F92
:1015000001282068016829D021F008010160607F6E
:1015100001282068016824D021F004010160D4E989
:1015200002010843D4E90412114308436168491ECB
:1015300008432168C86100206062012084F820000F
:10154000002070BD41F08001C0E741F04001C5E7D7
:1015500041F02001CAE721F01001CFE741F0080176
:10156000D4E741F00401D9E7F0B587B0044614216F
:101570006846FEF7D7FF3E4B3E48DFF8F0E01968BB
:10158000D4F800C03B4A0325022609271030002466
:10159000491CF4452AD11960012907D1016841F09D
:1015A00000710160006800F000700590106840F064
:1015B000080010601068CDE9005600F00800CDE981
:1015C000047069462C48CDE9024500F077FB002203
:1015D0000521132000F012FE132000F001FE00226E
:1015E0000521142000F00AFE14203AE0DFF88CE018
:1015F000F44538D1D0F800C04CF0806CC0F800C081
:10160000D0F800C001290CF0806CCDF814C019602E
:1016100007D1016841F000710160006800F00070BE
:101620000590106840F002001060106802AB00F0F6
:10163000020005906020CDE9000683E8B00069460D
:101640000F4800F03BFB002205213F2000F0D6FDB3
:101650003F2000F0C5FD00220521402000F0CEFD16
:10166000402000F0BDFD07B0F0BD00000064004068
:101670006C00002030380240000C0240006800403E
:1016800000040240704700002DE9F0417B4C0168E6
:101690000746794A04F11C000126794D80469142A3
:1016A00048D10346224600213846FFF75EFDE8BBDD
:1016B000207F012821D1B4F81D0004F1240240BA92
:1016C0001060E17FF2EE090A0B0194F82010BAEEE7
:1016D000090A43EA1113536094F8213001F00F0115
:1016E00043EA01219160102103F0E0FF82ED030A3B
:1016F000686810B985ED050A6E602068A0F20120C7
:10170000072811D2C0B200EB40025E48A18B00EB6B
:10171000820049BA8180E18B49BAC180218C49BAE3
:10172000018194F822108172022100E002E0384623
:10173000FFF714FC54483968814275D143464F4A3B
:1017400000213846FFF711FD00286DD1207F0128C8
:1017500020D0022846D0032868D02068A0F20120BB
:10176000072811D2C0B200EB40024848A18B00EB21
:10177000820049BA8180E18B49BAC180218C49BA83
:10178000018194F8221081723846BDE8F0410221AF
:10179000FFF7E4BB3949242201F18400FEF790FEF3
:1017A000364A34F81D0F3C3240BA1060A178F2EE90
:1017B000090A0B01E178BAEE090A43EA11135360F2
:1017C000237901F00F0143EA01219160102103F018
:1017D0006DFF82ED030AA8680028D5D185ED060AC1
:1017E000AE60D1E7254A34F81D0F543240BA10607C
:1017F000A178F2EE090A0B01E178BAEE090A43EA90
:1018000011135360237901F00F0143EA0121916024
:10181000102103F04BFF82ED030AE8680028B3D1E2
:1018200085ED070AEE60AFE723E0FFE72E80134A5D
:1018300034F81D0F6C3240BA1060A178F2EE090A3C
:101840000B01E178BAEE090A43EA111353602379D8
:1018500001F00F0143EA01219160102103F026FFFE
:1018600082ED030A286900288ED185ED080A2E61D1
:101870008AE7BDE8F0810000006400409C4700203A
:10188000E8000020F4020020006800404803002027
:10189000704770477047000070B5044690F820000C
:1018A000012804D0606A40F40020606218E0022041
:1018B00084F820002068016821F00101016000F037
:1018C00007FB05460EE000BF00F002FB401B0A28A4
:1018D00008D9606A40F400306062052084F8200076
:1018E000012070BD20684068C007EDD1606270BD06
:1018F00070477047704770477047704770472DE9D1
:10190000F0410446876D00F0E3FA064694F835008E
:101910000025022806D08020606584F8345001201C
:10192000BDE8F0812068016821F01601016020689F
:10193000416921F080014161206C08B9A06C20B19F
:101940002068016821F0080101602068016821F029
:10195000010101600CE000F0BBFA801B052807D9EB
:1019600020206065032084F8350084F83450D7E7E0
:1019700020680068C007EED194F85C103F208840D2
:10198000B860012084F8350084F834500020C7E79F
:1019900090F83510022903D080214165012070475D
:1019A000052180F835100068016821F0010101600F
:1019B000002070472DE9F84304464FF00009CDF8A8
:1019C000009063484FF41651A56D0068B0FBF1F725
:1019D0002E6894F85C10082000FA01F131420FD013
:1019E00021680A6852070BD50A6822F004020A60CF
:1019F00094F85C108840A860606D40F0010060655C
:101A000094F85C104FF0010808FA01F0304208D059
:101A100021684969090604D5A860606D40F002009C
:101A2000606594F85C1004208840304208D021683A
:101A30000968890704D5A860606D40F004006065FE
:101A400094F85C1010208840304218D02168096852
:101A5000090714D5A86020680168490304D5006807
:101A6000000308D5A16C07E00168C90503D401682B
:101A700021F008010160216C09B12046884794F8E3
:101A80005C1020208840304231D021680968C906A6
:101A90002DD5A86094F8350005282068016806D087
:101AA000490347D5006800031DD4616C1CE021F098
:101AB000160101602068416921F080014161206CBC
:101AC00008B9A06C20B12068016821F0080101600C
:101AD00094F85C103F208840A86084F8358084F832
:101AE0003490216D1FE0E16B09B120468847606D9D
:101AF00000282BD0606DC00714D0052084F8350075
:101B00002068016821F0010101600098401C0090EC
:101B1000B84203D820680068C007F6D184F8358041
:101B200084F83490E16C002910D001B02046BDE863
:101B3000F04308470168C905D5D4016821F01001B8
:101B4000016084F8358084F83490CCE7BDE8F883F0
:101B50007C0000202DE9F041044600F0B9F906466A
:101B60005CB1022084F83500002584F834502068E8
:101B7000016821F0010101600DE00120BDE8F08164
:101B800000F0A6F9801B052805D9202060650320F8
:101B900084F83500F2E720680068C007F0D12268B9
:101BA000116820480140D4E901031843D4E9033601
:101BB0003343184363691843A3691843E36918431F
:101BC000236A18430843616A042903D1D4E90B133B
:101BD00019430843106020684069666A20F00701D5
:101BE00030460E43012704280CD1A06A0643E06A60
:101BF00040B12046FFF786F820B14020606584F8A8
:101C00003570BAE7206846612046FFF767F894F818
:101C10005C203F2191408160656584F8357000202B
:101C2000ACE700003F8010F02DE9F0410446866DDE
:101C300090F83400002501280DD0012084F83400EC
:101C400094F835700020012F07D084F83400022565
:101C50002846BDE8F0810220FBE7022784F83570B2
:101C600060652046FFF778F894F85C103F208840C4
:101C7000B0602068016841F016010160206C20B15D
:101C80002068016841F0080101602068016841F0A6
:101C900001010160DCE7000070B5044600F018F9AE
:101CA0000546601C02D004480078044400F010F996
:101CB000401BA042FAD370BD700000202DE9F84F00
:101CC000DFF8BCA10022012503264FF00F090AF11D
:101CD000040BAAF1040E00BF0B6805FA02F42340BE
:101CE000A34270D10F7907F00307012F01D0022F13
:101CF00016D187684FEA420806FA08FC27EA0C0763
:101D0000D1F80CC00CFA08FC4CEA070CC0F808C06B
:101D10004768A7430C79C4F3001494403C434460E3
:101D20000C79E443A4070AD0C4684FEA420C06FACF
:101D30000CF7BC438F6807FA0CF72743C7600C7990
:101D400004F00304022C12D1D40800EB840CDCF85C
:101D500020405707FF0E09FA07F824EA0804D1F8D3
:101D6000108008FA07F848EA0408CCF820800468D4
:101D70004FEA420C06FA0CF7BC430F7907F0030751
:101D800007FA0CF7274307604C6814F4403F70D003
:101D90003C4C276847F480472760246822F00307FB
:101DA00004F480440094384C07EB040CDCF8084839
:101DB00097074FEA177809FA08F7BC43334FB84240
:101DC00002D1002724E054E0314FB84201D101276D
:101DD0001EE0304FB84201D1022719E02E4FB84221
:101DE00001D1032714E02D4FB84201D104270FE0A1
:101DF0002B4FB84201D105270AE02A4FB84201D142
:101E0000062705E0284FB84201D1072700E0082740
:101E100007FA08F72743CCF80878DAF80040574665
:101E2000D1F804C09C435FEACC2C00D51C433C6035
:101E3000DBF800405F46D1F804C09C435FEA8C2C7D
:101E400000D51C433C60DEF800407746D1F804C062
:101E50009C435FEA8C3C00D51C433C60084F083F24
:101E60003C68D1F804C09C435FEACC3C00D51C43DD
:101E70003C60521C102AFFF42FAFBDE8F88F000021
:101E8000083C01404438024000300140000002405C
:101E90000004024000080240000C02400010024012
:101EA0000014024000180240001C02400069084073
:101EB00000D001207047426921EA02030A4043EA48
:101EC0000241816170470AB1816170470904FBE7F3
:101ED00001488068704700007000002070B5040061
:101EE00025D094F83D00002520B984F83C502046C8
:101EF00000F0B8F8242084F83D002068016821F043
:101F0000010101602068016841F40041016020681E
:101F1000016821F40041016000F05CFA4D4A6168FB
:101F2000914201D84C4900E04C49884201D201203D
:101F300070BD4B492368B0FBF1F15E6826F03F06A7
:101F40000E435E606368934206D94FF4967359431B
:101F50004FF47A73B1FBF3F12368491C1E6A26F033
:101F60003F06314319626168914210D84900401E12
:101F7000B0FBF1F2521CC2F30B02042A01D204207E
:101F800022E0B0FBF1F0401CC0F30B001CE0A268A3
:101F9000F2B301EBC10303EB0116431EB3FBF6F3EF
:101FA0005B1C43F480431B0549D092B301EBC10293
:101FB00002EB0111401EB0FBF1F0401CC0F30B001E
:101FC00040F4804040F400402168CA694CF6FF7339
:101FD0009A431043C861D4E907100143206802689E
:101FE00022F0C00211430160D4E9030101432068DB
:101FF000826848F2FF339A4311438160D4E90501B6
:1020000008432168CA6822F0FF021043C86001E05B
:102010000EE016E02068016841F0010101602564CE
:10202000202084F83D00256384F83E50002070BDD8
:1020300001EB4106431EB3FBF6F35B1CB3E7012043
:10204000C2E701EB4101401EB0FBF1F0401CC0F3C0
:102050000B00B7E7A086010080841E0000093D0048
:1020600040420F0010B586B0044614216846FEF7C2
:1020700059FA1349206888421FD11248002102688A
:1020800042F0200202600068122200F02000059059
:102090000320CDE90210CDE9000204200490694636
:1020A0000948FFF70BFE07481030016841F4800132
:1020B0000160006800F48000059006B010BD0000CB
:1020C0000058004030380240001402400248816845
:1020D0000278114481607047700000200B4810B5F1
:1020E000016841F400710160016841F480610160A0
:1020F000016841F480710160032000F09FF80F2017
:1021000000F006F800F050F8002010BD003C02403E
:1021100030B505461F4887B00024016841F0020130
:102120000160006806A900F00200009001A800F01C
:1021300031F90498A8B100F04DF940001649174A4A
:10214000B0FBF1F11648491E026040F2E732C0E9E7
:102150000324C0E90114846100F0B8FB040003D03B
:1021600015E000F037F9E9E70D4800F0F1FB040055
:102170000DD11D2000F034F8102D07D20022294681
:102180001D2000F03BF80748056000E0012407B07F
:10219000204630BD4038024040420F00000400405D
:1021A000640A0020740000200C4882B0016841F4E9
:1021B00080410160006800F4804000900748001FE3
:1021C000016841F0805101600068002200F08050F9
:1021D00000900F21901E02B000F010B84438024069
:1021E000002809DB00F01F02012191404009800016
:1021F00000F1E020C0F8001170470000F0B40E4B71
:102200001B680C46C3F30223C3F10705042D00D954
:102210000425191D072901D2002300E0DB1E012639
:1022200006FA05F1491E214099409E40761E16404F
:102230003143F0BC02F066BD0CED00E0064900F051
:10224000070208684FF6FF03184040EA0220034ADD
:1022500010430860704700000CED00E00000FA0534
:102260002DE9F0470E46050065D0DFF81481D8F857
:102270000000F7B200F00700B04207D288F8007003
:10228000D8F8000000F00700B04254D128683D4C57
:10229000810712D5400703D5206840F4E050206044
:1022A0002878000703D5206840F46040206020684B
:1022B000A96820F0F000084320602878C0072DD0DE
:1022C000304968680839012812D0022813D0032841
:1022D00011D00968890700292DDA216821F003014E
:1022E00001432160FFF7F4FD814641F2883A0EE098
:1022F00009688903EFE709688901ECE7FFF7E8FD62
:10230000A0EB0901514502D90320BDE8F087206800
:10231000696800F00C00B0EB810FEFD1D8F8001025
:10232000404601F00701B14207D90770006800F08C
:102330000700B04201D00120E7E72878400705D523
:102340002068E96820F4E0500843206028780007FE
:1023500006D52068296920F4604040EAC100206069
:1023600000F058F82168084AC1F30311515CC840D5
:102370000649086006480068FFF7CAFE0020C4E767
:10238000003C024008380240485D00087C00002004
:10239000740000200F2202600C4A136803F003034C
:1023A0004360136803F0F0038360136803F4E053A1
:1023B000C36012684FF4E05303EAD202026104489A
:1023C000006800F00700086070470000083802400D
:1023D000003C02400448054900680968044AC1F30A
:1023E0008221515CC84070477C00002008380240C0
:1023F000585D00080448054900680968044AC1F3AB
:102400004231515CC84070477C00002008380240CF
:10241000585D0008154810B5006810F00C0214480B
:1024200013D01449042A0FD0082A0ED10F4C241FB0
:102430002268236802F03F025B0207D52068C0F3E0
:102440008810A0FB010106E0084610BD2168C1F319
:102450008811A1FB00010023FDF776FF2168C1F37D
:102460000141491C4900B0FBF1F010BD08380240A1
:102470000024F400001BB7002DE9F84F04006ED0D3
:102480002078DFF84C93C007A9F104054AD009F180
:1024900004000168C1F38101012908D00068C0F37C
:1024A000810002280AD1D9F80000400206D5286828
:1024B000800337D560680028E1D033E06068B0F56C
:1024C000803F10D0B0F5A02F286810D020F48030C5
:1024D0002860286820F4802028606068A8B1FFF791
:1024E000F7FC06460DE0286840F48030F4E740F43D
:1024F00080202860F7E700BFFFF7EAFC801B642814
:1025000073D828688003F7D50CE0FFF7E1FC064696
:1025100005E000BFFFF7DCFC801B6428F0D82868CA
:102520008003F7D42078DFF8AC8280074FF0000AF0
:102530003ED5A748001D016811F00C0F08D00068B7
:10254000C0F3810002280BD1D9F80000400207D463
:102550002868800716D5E068012800D112E033E131
:10256000E068B8B10120C8F80000FFF7B1FC0646EA
:1025700005E000BFFFF7ACFC801B0228C0D828682C
:102580008007F7D52868216920F0F80040EAC100EB
:1025900028600DE0C8F800A0FFF79AFC064604E0AA
:1025A000FFF796FC801B02281FD828688007F7D405
:1025B0002078000722D5864F87486169703771B14E
:1025C00001210160FFF784FC064604E0FFF780FC70
:1025D000801B022809D838688007F7D50EE0C0F8BC
:1025E00000A0FFF775FC064605E082E0FFF770FCEF
:1025F000801B02287DD838688007F7D420784007F0
:1026000068D5DFF8CCB100270BF13C0BDBF80000FC
:10261000C0000BD4DBF8001041F08051CBF8001063
:10262000DBF80000012700F0805000906B4E30680E
:10263000C00510D4306840F480703060FFF748FC6B
:10264000009005E0FFF744FC0099401A022850D89A
:102650003068C005F6D55E4EA0686C3601280FD0F4
:102660000528306810D020F001003060306820F07C
:1026700004003060A068B8B1FFF72AFC00900FE0BA
:10268000306840F00100F4E740F004003060F7E704
:10269000FFF71EFC0099411A41F28830814266D84A
:1026A00030688007F4D50EE0FFF712FC009007E0D9
:1026B000FFF70EFC0099411A41F28830814256D84A
:1026C00030688007F4D42FB1DBF8001021F080517E
:1026D000CBF80010A069C8B33D49091D0968C1F3D2
:1026E000810102294AD00228504607D0C8F860006C
:1026F00000E03CE0FFF7ECFB04463BE04746C8F84F
:102700006000FFF7E5FB064605E000BFFFF7E0FBD2
:10271000801B02282BD828688001F7D4D4E9070150
:102720000843A16A2E4A490802EB0141626A41EA64
:102730008211084394F82C1040EA0161C9F8001096
:1027400001203866FFF7C4FB044606E03EE000BF08
:10275000FFF7BEFB001B022809D828688001F7D5C7
:1027600034E000BFFFF7B4FB001B022802D90320AE
:10277000BDE8F88F28688001F4D427E00128F7D05D
:10278000D9F80000E26900F4800191421CD1226A6C
:1027900000F03F01914217D147F6C071626A0140D3
:1027A000B1EB821F10D1A26A4FF0FF3300F4403129
:1027B00003EB5202B1EB024F06D194F82C1000F05B
:1027C0007060B0EB016F01D00120D1E70020CFE7AE
:1027D0000438024000004742800E4742007000402B
:1027E0000000FFFF7047704710B590F83C20012AA9
:1027F00022D0012280F83C20CA688C6822F4407202
:1028000022434C6822F4806222430C6822F4006266
:1028100022430C6922F4805222434C6922F4005274
:102820002243C969002322F480420A4301684A64B2
:1028300080F83C30002010BD022010BD70B590F82B
:102840003C20012A32D0012480F83C40022280F84A
:102850003D2003685A689D6822F070060A6832437A
:102860005A60134B02689A4214D0B2F1804F11D0D3
:10287000104B9A420ED0104B9A420BD00F4B9A42FB
:1028800008D00F4B9A4205D00E4B9A4202D00E4B05
:102890009A4204D1496825F080031943916080F879
:1028A0003D40002180F83C10084670BD022070BDFC
:1028B000000001400004004000080040000C0040FF
:1028C00000040140004001400018004010B5040021
:1028D00003D094F83D0010B107E0012010BD0020A6
:1028E00084F83C00204600F01FF8022084F83D00E8
:1028F000211D206801F0C0FC012084F8460084F806
:102900003E0084F83F0084F8400084F8410084F8D9
:10291000420084F8430084F8440084F8450084F8B9
:102920003D00002010BD000008B50068064988423F
:1029300008D10648016841F001010160006800F01B
:102940000100009008BD0000000001404438024032
:1029500090F83D10012901D001207047022180F834
:102960003D100168CA6842F00102CA60006811495E
:10297000884214D0B0F1804F11D00F4988420ED058
:102980000E4988420BD00E49884208D00D49884232
:1029900005D00D49884202D00C49884204D1816893
:1029A00001F00701062903D0016841F0010101602F
:1029B0000020704700000140000400400008004073
:1029C000000C00400004014000400140001800409D
:1029D00070B5044690F83C000025012817D0012668
:1029E00084F83C60022084F83D002068826822F070
:1029F000770222F47F4282600868502838D00DDCCC
:102A000020284FD005DC90B3102811D14AE00220D5
:102A100070BD302846D040280AD13BE060282FD036
:102A200070280DD0B0F5805F03D0B0F5005F12D0F4
:102A3000012584F83D60002084F83C00284670BDE4
:102A4000CB68D1E90121206801F087FC206881680A
:102A500041F0770109E0CB68D1E90121206801F05C
:102A60007CFC2068816841F480418160E1E719E0E5
:102A7000CA684968206801F045FD5021206806E0D9
:102A8000CA684968206801F04EFD6021206801F0A5
:102A90006EFCCEE7CA684968206801F033FD40212A
:102AA0002068F4E7226801461046F0E7704770B5E9
:102AB0000446006801694FF00005C943890715D431
:102AC000C168C943890711D4E91E0161012020773B
:102AD000206880698007204602D0FFF7E7FF04E006
:102AE00000F0C2F8204600F054F92577206801690B
:102AF000C943490717D4C168C943490713D46FF0C4
:102B000004010161022020772068806910F4407F71
:102B1000204602D0FFF7CAFF04E000F0A5F82046E7
:102B200000F037F9257720680169C943090716D4F1
:102B3000C168C943090712D46FF00801016104207C
:102B400020772068C0698007204602D0FFF7AEFFDB
:102B500004E000F089F8204600F01BF92577206892
:102B60000169C943C90617D4C168C943C90613D44A
:102B70006FF010010161082020772068C06910F40F
:102B8000407F204602D0FFF791FF04E000F06CF890
:102B9000204600F0FEF8257720680169C943C9077F
:102BA00008D1C168C943C90704D1891E0161204603
:102BB00000F092F920680169C943090609D4C16887
:102BC000C943090605D46FF0800101612046FFF773
:102BD00009FE20680169C943490609D4C168C9438F
:102BE000490605D46FF040010161204600F07EF9EE
:102BF00020680169C94389060BD4C168C9438906A5
:102C000007D46FF0200101612046BDE87040FFF756
:102C1000EABD70BD10B586B0044614216846FDF7C4
:102C200081FC0E492068884216D10D4800210268B7
:102C300042F010020260006800F0100005904FF4AE
:102C4000007000900220CDE901010120CDE90310C0
:102C500069460448FFF732F806B010BD0000014095
:102C60003038024000100240704770B5044690F8BA
:102C70003C0000260D4601280FD0012084F83C00BE
:102C80006AB1042A1DD0082A2FD00C2A3FD0012671
:102C9000002084F83C00304670BD022070BD2068E2
:102CA00001F06EFB2068816941F0080181612068B4
:102CB000816921F004018161206881692A691143D9
:102CC00011E0206801F08CFB2068816941F400610B
:102CD00081612068816921F4806181612068816956
:102CE0002A6941EA02218161D2E7206801F0AEFB46
:102CF0002068C16941F00801C1612068C16921F003
:102D00000401C1612068C1692A69114311E020688A
:102D100001F0D0FB2068C16941F40061C161206805
:102D2000C16921F48061C1612068C1692A6941EAF1
:102D30000221C161ACE710B5040003D094F83D0056
:102D400010B107E0012010BD002084F83C002046AF
:102D500000F01EF8022084F83D00211D206801F0DB
:102D60008BFA012084F8460084F83E0084F83F0086
:102D700084F8400084F8410084F8420084F843005D
:102D800084F8440084F8450084F83D00002010BD1C
:102D90007047704710B50446022249B104290ED08D
:102DA000082913D094F84100012816D0012010BD45
:102DB00094F83E000128F9D184F83E200FE094F801
:102DC0003F000128F2D184F83F2008E094F8400049
:102DD0000128EBD184F8402001E084F84120012251
:102DE000206801F0ADFA16492068164A884201D0E1
:102DF000904203D1436C43F400434364206888420B
:102E000013D0B0F1804F10D00F4988420DD00F4938
:102E100088420AD00E49884207D0904205D00D4919
:102E2000884202D00C49884204D1816801F0070130
:102E3000062903D0016841F001010160002010BDA6
:102E40000000014000040140000400400008004070
:102E5000000C0040004001400018004030B504461E
:102E60000D460068002201F06BFA194B41F2111176
:102E700020688A10984202D0164B984209D1036A02
:102E80000B4206D1036A134203D1436C23F400437F
:102E900043642068036A0B4206D1016A114203D1E0
:102EA000016821F00101016001203DB1042D08D02D
:102EB000082D09D084F84100002030BD84F83E0080
:102EC000FAE784F83F00F7E784F84000F4E70000F1
:102ED000000001400004014000680349884201D11C
:102EE000FFF7F4B8704700000004004070477047D7
:102EF00010B504460068406994F83D10C0F3C01056
:102F0000212911D180B12068143050E8001F21F030
:102F1000800140E80012002AF5D1606B08B1FEF78D
:102F2000EEFC204601F0B3FB2068406994F83E10A7
:102F3000C0F38010222911D180B12068143050E8EC
:102F4000001F21F0400140E80012002AF5D1A06BDB
:102F500008B1FEF7D4FC204601F072FB002010BD42
:102F600070470000F8B5016804460868CA684B69F4
:102F700010F00F0F4FF0000559D003F0010602F4D6
:102F80009077374365D0C10705D0D10503D5216CB3
:102F900041F001012164410705D5D90703D0216C17
:102FA00041F002012164810705D5D90703D0216CC6
:102FB00041F004012164010707D502F020013143EB
:102FC00003D0216C41F008012164216C00293AD022
:102FD000800604D5900602D5204601F066FB2068E5
:102FE0004069216CC0F38010090700D460B320460B
:102FF00001F026FB20684069400621D52068143086
:1030000050E8001F21F0400140E80012002AF5D1ED
:10301000A06BA8B16C490165A06BFEF7B9FC002854
:1030200011D0A06B016D01B0BDE8F04008478306E8
:103030000FD593060DD52046BDE8F84001F035BB0D
:103040002046FFF78DFFF8BD2046FFF789FF256476
:10305000F8BD266B2023012E79D1C60677D5D6067A
:1030600075D50868486800904869400640D5A16B4E
:10307000086840680004000CEAD0A28D8242E7D9BB
:10308000E085C869B0F5807F2DD020680C3050E80D
:10309000001F21F4807140E80012002AF5D1206859
:1030A000143050E8001F21F0010140E80012002A0E
:1030B000F5D12068143050E8001F21F0400140E8AD
:1030C0000012002AF5D184F83E30256320680C30C8
:1030D00050E8001F21F0100140E80012002AF5D14D
:1030E000A06BFEF70CFCA08DE18D401A81B229E0A7
:1030F000A08DE18D401A81B2E08D0028A8D0002972
:10310000A6D020680C3050E8002F22F4907240E8DE
:103110000026002EF5D12068143050E8002F22F050
:10312000010240E80026002EF5D184F83E302563E8
:1031300020680C3050E8002F22F0100240E80023F5
:10314000002BF5D12046FFF7D2FEF8BDFFE70506BC
:103150002BD5150629D594F83D002128F5D1A06876
:10316000B0F5805F01D12069B0B1206A411C2162B5
:10317000216800784860E08C401E0004000CE08468
:10318000E3D12068C16821F08001C1602068C16876
:1031900041F04001C160D8E7206A0088C0F3080010
:1031A0004860206A801C2062E5E74006CDD55006C5
:1031B000CBD5CA68204622F04002CA6084F83D3070
:1031C00000F0B7F9C1E700004B45000870B50400F6
:1031D00004D094F83D00002510B106E0012070BD38
:1031E00084F83C50204600F023F8242084F83D0069
:1031F0002068C16821F40051C160204601F0B6FA90
:103200002068016921F4904101612068416921F041
:103210002A0141612068C16841F40051C160256400
:10322000202084F83D0084F83E00002070BD00009E
:103230002DE9F04F87B0054614216846FDF772F975
:10324000A548DFF890821438D5F800C0A24B0221BF
:1032500003224027002406154FF0070BC44570D108
:10326000D3F800C04CF0100CC3F800C01B6803F08A
:1032700010030593036843F002030360036803F03F
:1032800002030593036843F0010303600068884666
:1032900000F0010005908020CDE90008CDE9024250
:1032A0009246D9466946CDF810B08C48FEF706FD27
:1032B0007010CDE90008CDE9024A6946CDF81090BA
:1032C0008748FEF7FBFCDFF82092864948464FF01E
:1032D0000068C9F80010C0E90184C0E90346C9F8D4
:1032E0001440C9F81840C9F81C40C9F82040B2463B
:1032F000C9F82440FEF72EFC08B1FDF709FE7A4E0E
:10330000C5F838906036C9F83850C6E90274C6E985
:1033100004A4B4617348F461346278307462C6E91D
:1033200000083046FEF716FC08B1FDF7F1FD6E63AC
:10333000002205212520B563FEF760FF252062E00D
:10334000FFE7DFF8A881C44562D1634BA1461B1F8C
:10335000D3F800C04CF4802CC3F800C01B6803F401
:1033600080230593036843F004030360006800F0C2
:10337000040005904FF440608DE81300CDE9032B65
:1033800069465B48FEF79AFCDFF85C81594908F111
:10339000C00840464FF0006AC8F80010C0E901A418
:1033A000C0E90346C8F814404FF4403BC8F8184041
:1033B000C8E9074BC8F82440FEF7CCFB08B1FDF77D
:1033C000A7FD4D4CC5F838804A48C8F83850303011
:1033D000A760C4E9000AC4E90396C4F81490C4F8CD
:1033E0001890C4E9079B2046C4F82490FEF7B2FB6E
:1033F00008B1FDF78DFD6C63002205212720A56330
:10340000FEF7FCFE2720FEF7EBFE07B0BDE8F08FCD
:10341000DFF8E880C445F8D1D3F800C04CF0200CA8
:10342000C3F800C01B6803F020030593036843F052
:1034300040030360006800F0400005904FF48440B2
:103440008DE813000820CDE9032069462C48FEF7DB
:1034500035FCDFF8A490234909F160091839484682
:103460004FF0206AC9F80010C0E901A4C0E9034682
:10347000C9F81440C9F81840C9F81C40C9F82040E0
:10348000B046C9F82440FEF765FB08B1FDF740FDE2
:10349000194EC5F83890C036C9F83850C6E90274DC
:1034A000C6E90484B4610F48F46134626030746228
:1034B000C6E9000A3046FEF74DFB08B1FDF728FDCE
:1034C0006E63002205214720B563FEF797FE472073
:1034D00099E7000000100140443802400004024017
:1034E0000000024040640240A8070020004800405D
:1034F0000008024028600240C80800200014014073
:103500000018024090F83E30202B0ED159B152B134
:1035100090F83C30012B08D0012380F83C30002388
:10352000036301F0A9B9012070470220704770477A
:1035300070477047FEE700002DE9F04786B0142180
:103540006846FCF7EFFF00254FF4304001240226C7
:1035500003958DE85100DFF87CA069465046FEF7E0
:10356000ADFBCDE900641C4FCDE9026569463846E4
:10357000FEF7A4FB4FF48058012241465046FEF767
:10358000A2FC4FF40059012249465046FEF79BFC2D
:10359000A6030096CDE9015469465046FEF78EFB1E
:1035A000CDE90045694638460294FEF787FB0122C3
:1035B00031465046FEF787FC002241465046FEF752
:1035C00082FC012249465046FEF77DFC06B0BDE86C
:1035D000F087000000040240001402402DE9F0478B
:1035E0000E4607460025DFF89491C0E0785DA528D7
:1035F00073D178190446052101F0B4FA00286CD083
:103600006078A17840EA012805EB08000930B04253
:1036100046D8204608F1090101F086FA00285CD05E
:103620006079A17940EA012040F20221A0F2022251
:10363000884261D018DCB0F5817F40D00ADC0128D7
:103640001BD0032820D005282BD0A0F5807001388E
:1036500022D12DE0B0F5827F38D0A0F580700538FA
:103660003CD0FC2818D140E0092A15D2DFE802F04E
:10367000144B525960676E7577000B2080460246E6
:103680003E48E11D8F3805E02020804602463B4839
:10369000E11D8338FCF7CFFE05EB08000930C5B209
:1036A00065E00D20804602463448E11D6338F1E7AD
:1036B0000420804602463148E11D5638EAE70420DE
:1036C000804602462D48E11D5238E3E7022080463D
:1036D00002462A48E11D4E38DCE746E001208046DC
:1036E00002462648E11D4C38D4E71B20804602469E
:1036F0002248E11D4B38CDE71020804602461F4886
:10370000E11D3038C6E71020804602461B48E11D07
:103710002038BFE70120804602461848E11D1038D6
:10372000B8E70120804602461448E11D0F38B1E792
:103730000120804602461148E11D0E38AAE7072005
:10374000804602460D48E11D0D38A3E7062080465D
:1037500002460A48E11D801F9CE7042000E0062085
:1037600080460246E11D484694E76D1CEDB2B54225
:10377000FFF43CAFBDE8F04701F080B9AE4A00204D
:103780000F4810B50D4901600321416000214FF43D
:1037900010228160C0E903124FF4001242610176E9
:1037A00041768176C17601774177FDF750FE00289A
:1037B00003D0BDE81040FDF7ABBB10BD0064004076
:1037C000F00500200F4810B50D490160032141604C
:1037D00000214FF410228160C0E903124FF400125F
:1037E0004261017641768176C17601774177FDF7B6
:1037F0002EFE002803D0BDE81040FDF789BB10BDA8
:103800000068004018060020214808B5016841F40E
:1038100080010160016801F480010091016841F4B8
:10382000001101600068002200F4001000900521E2
:103830000C20FEF7E3FC0C20FEF7D2FC0022052151
:103840000E20FEF7DBFC0E20FEF7CAFC002205214D
:103850003920FEF7D3FC3920FEF7C2FC00220521F7
:103860003A20FEF7CBFC3A20FEF7BAFC00220521F5
:103870004520FEF7C3FC4520FEF7B2FC00220521DF
:103880004620FEF7BBFCBDE808404620FEF7A8BC7A
:103890003038024010B59CB01C2216496846FCF72F
:1038A0000FFE0021684601F03FFB134C11491C221A
:1038B00020601C3107A8FCF703FE002107A801F0D7
:1038C00033FB0C4960601C2238310EA8FCF7F8FD70
:1038D00000210EA801F028FB0649A0601C225431EB
:1038E00015A8FCF7EDFD002115A801F01DFBE06017
:1038F0001CB010BDD05C00085C000020F0B587B0A3
:1039000014216846FCF70EFE35480024016841F09A
:1039100002010160016801F002010591016841F0B6
:1039200040010160016801F040010591016841F02A
:1039300001010160016801F001010591016841F098
:1039400008010160016801F008010591016841F07A
:1039500004010160016801F004010591016841F072
:1039600020010160016801F020010591016841F02A
:1039700080010160016801F080010591016841F05A
:10398000100101600068174E00F010004FF4E05580
:103990000590002229463046FEF795FA124F012283
:1039A00011033846FEF78FFA00224FF400513846D3
:1039B000FEF789FA00950125CDE9015469463046A4
:1039C0000394FEF77BF94FF440500090CDE9015489
:1039D000694638460394FEF771F907B0F0BD000060
:1039E00030380240001C0240000402400D4810B56F
:1039F0000B4901600C49416000214FF48042816015
:103A0000C0E9031241618161C1610162FEF766FA9A
:103A1000002803D0BDE81040FDF77ABA10BD0000C1
:103A20000058004040060020801A060010B596B0ED
:103A300000240F9410941194129413941C2108A83C
:103A40001494FCF76FFD20216846FCF76BFD2848B5
:103A500026490160A721C0E9011444F61F61C0E9AD
:103A6000031444618461FEF731FF08B1FDF750FA99
:103A70004FF480500F900FA91D48FEF7A9FF08B121
:103A8000FDF746FA1A48FFF756F908B1FDF740FA74
:103A9000139413A916481494FEF7D0FE08B1FDF74D
:103AA00037FA6020CDE908040A940B940C940D9425
:103AB000002208A90E480E94FFF7D7F808B1FDF7C9
:103AC00027FA00944FF40050CDE904400294019489
:103AD0000394694606480794FEF786FE08B1FDF791
:103AE00017FA0348FFF796F816B010BD0000014022
:103AF000940600200C4810B50A4901604FF4E131EA
:103B00004160002181600C22C160C0E90412816122
:103B1000C161FFF75BFB002803D0BDE81040FDF753
:103B2000F7B910BD00100140DC0600200D4810B5AB
:103B30000B4901600C49416000214FF480628160B3
:103B4000C0E903120C22C0E90521C161FFF73EFB69
:103B5000002803D0BDE81040FDF7DAB910BD000021
:103B60000048004020070020A08601000C4810B546
:103B70000A4901604FF4E1314160002181600C226B
:103B8000C160C0E904128161C161FFF71FFB002819
:103B900003D0BDE81040FDF7BBB910BD00140140D3
:103BA00064070020FEE7FEE71FB50FA10522D1E95B
:103BB0000001CDE9020102A9302000F073F80522CE
:103BC0006946102000F014F8002069460A5CA52A16
:103BD00003D1401CC0B20528F8D3052802D001202B
:103BE00004B010BD0020FBE7A5A5A5A5A500000019
:103BF0002DE9F047DFF8409015460F4604464FF494
:103C00000058002241464846FEF75DF9204600F084
:103C10002FF90646002405E0002000F029F9385568
:103C2000641CE4B2AC42F7D3012241464846FEF799
:103C30004AF93046BDE8F0870004024070B50B4EEB
:103C400004464FF40055002229463046FEF73BF962
:103C5000204600F00DF9002000F00AF90446012288
:103C600029463046FEF72FF9204670BD0004024079
:103C700070B505460720FFF7E1FF044601462720FF
:103C800000F036F860060AD5202229466120FFF7A9
:103C9000AFFFFF21E22000F02BF8002070BD0120D3
:103CA00070BD00002DE9F047DFF8409016460D4644
:103CB00004464FF40058002241464846FEF703F9F7
:103CC000204600F0D5F80746002405E015F8010B62
:103CD00000F0CEF8641CE4B2B442F7D301224146AE
:103CE0004846FEF7F0F83846BDE8F0870004024089
:103CF0002DE9F0410C4E0F4604464FF400550022CA
:103D000029463046FEF7DFF8204600F0B1F80446B9
:103D1000384600F0ADF8012229463046FEF7D3F8C8
:103D20002046BDE8F081000000040240194910B5AA
:103D3000086000208860C86010EE103A0820086112
:103D40000B76180A4876180C8876180E10EE902A12
:103D5000C8760A77100A4877100C8877100EC87753
:103D600001F11802012314460B48FDF709F9002858
:103D70000FD00223224607490748FDF701F9002822
:103D800007D02246BDE81040042302490248FDF74F
:103D9000F7B810BD504B0020F0050020194910B5B0
:103DA000086000208860C86010EE103A08200861A2
:103DB0000B76180A4876180C8876180E10EE902AA2
:103DC000C8760A77100A4877100C8877100EC877E3
:103DD00001F11802012314460B48FDF7D1F8002821
:103DE0000FD00223224607490748FDF7C9F80028EB
:103DF00007D02246BDE81040042302490248FDF7DF
:103E0000BFB810BD704B00201806002070B5164DCD
:103E10004FF48054002221462846FEF754F805222C
:103E200012492A20FFF73EFF01212120FFF760FF02
:103E300001212220FFF75CFF28212520FFF758FFF2
:103E400020213120FFF754FF0F212620FFF750FFDC
:103E50000F212020FFF74CFF21462846BDE8704087
:103E60000122FEF730B8000000040240CB5C0008DD
:103E70002DE9F041DFF85C80174F044600254FF430
:103E80000046200601D5012200E000220221404622
:103E9000FEF719F86006040E012231463846FEF797
:103EA00012F8FF20FCF7B6FF01214046FDF7FEFFA8
:103EB00008B144F00104002231463846FEF703F809
:103EC000FF20FCF7A7FF6D1CADB2082DD9D320460B
:103ED000BDE8F0810014024000040240012001F01E
:103EE00017F8FBE72DED048B00215D48FEF752FF2C
:103EF0005B4C4FF4FA6021684863FDF7CDFE00216A
:103F00002046FEF7ABFF21684FF47A70486300212A
:103F10002046FEF73FFF012000F0FAFFFCF730FFDC
:103F2000012000F0F5FFB2EE042AF2EE041A9FED34
:103F30004D8AB0EE481ADFED4C8AB0EE080A4B48C5
:103F4000F0EE680A01F06DF84848B2EE042AF2EE8D
:103F5000041AB0EE481AF0EE680AB1EE040A3430E2
:103F600001F05FF8DFED421AB0EE612A9FED411AD1
:103F70003E48F0EE680AB1EE080A683001F051F8E8
:103F80003A48B0EE002AF0EE001AB7EE001AF0EE52
:103F9000480A9FED390A9C3001F043F8DFED398A79
:103FA0009FED369ADFED369A3048B0EE492AF0EEB2
:103FB000691AB0EE681AF0EE680AB2EE040AD03060
:103FC00001F02FF8B0EE492AF0EE691AB0EE681A47
:103FD000F0EE480AB2EE040A2B4801F022F82B4E0C
:103FE0002B4C2C4FDFF8B080DFF8B0B0DFF8B0908A
:103FF000DFF8B0A05FF0000596ED000AA07AB5EEFC
:10400000C00AF1EE10FA04D0032804D1FCF7FAFB41
:104010000AE0032803D0C0B2022803D004E0FCF772
:10402000E5FA01E000F0B2FD00F0C6FE387898F83D
:104030000010084301D1ABF8005099F800009AF83D
:104040000010084302D1154808300580012000F017
:104050005FFF00F067FE012000F05AFFCCE7000090
:1040600094060020CDCCCC3D0AD7233C580100203B
:10407000000048420000C8420000A441007C924871
:104080000060EA46000000005C0200204C000020B6
:10409000044A002033010020340100202C000020BD
:1040A000370100203C0100201D480068C16841F034
:1040B0001001C16064221B491948FFF723FA1A4E08
:1040C0001A4D1B4F00243078012824D1287812285B
:1040D00005D1144801F0D2F93888401C388034707A
:1040E0000020104902E00C54401CC0B22A789042D3
:1040F000F9D32C7064220B490948FFF703FA38887A
:10410000322808D14FF480610A48FDF7D4FE0A49ED
:104110003C8001200870012000F0FAFED3E7000087
:10412000DC060020900200205600002055000020F0
:1041300058000020001C02405400002088B0FFF707
:10414000FBF9FFF731FD144C012500B16561FFF764
:104150005DFE022620216846FCF7E4F96846FFF779
:1041600087FD08B9C4E904569DF80000AB280FD1BB
:104170009DF81100CD280BD1DDF801002060DDF89D
:104180000500E060DDF80900A060DDF80D0060606A
:10419000012000F0BDFEDDE73C00002010B55020FE
:1041A00080F31188BFF34F8FBFF36F8F01F0BEFC18
:1041B00018B104494FF080500860002080F3118846
:1041C00010BD000004ED00E030B593B0302168462A
:1041D000FCF7A8F914210CA8FCF7A4F91D48002548
:1041E000016841F080510160006800F0805011903A
:1041F0001948016841F4804101600068022400F41C
:104200008040119001200090000401908001CDE9D0
:10421000064006200890A820CDE9090404200B9050
:104220006846FEF729F908B172B6FEE70CA90F201F
:1042300081E831004FF4A0500F904FF4805010905F
:1042400005210CA8FEF70CF8002801D072B6FEE795
:1042500013B030BD40380240007000400248016891
:1042600041F470010160704788ED00E00148FEF7FD
:104270001EBC0000640A0020F0B50268254C264DE3
:10428000264E274F274B4FF0804CA04209D0604567
:1042900007D0A84205D0B04203D0B84201D098421E
:1042A00004D122F0700E4A6842EA0E02A0421BD0EE
:1042B000604519D0A84217D0B04215D0B84213D0EB
:1042C000984211D0184DA8420ED0184DA8420BD0DC
:1042D000174DA84208D0174DA84205D0164DA84248
:1042E00002D0164DA84203D122F44075CA682A4371
:1042F0004D6922F080022A4302608A68C2620A681D
:104300008262A04201D0984201D109690163012172
:104310004161F0BD00000140000400400008004081
:10432000000C0040000401400040014000440140F6
:104330000048014000180040001C004000200040E0
:1043400010B501F01F030121046A99408C430462F7
:10435000016A9A401143016210BD10B5846842EAB7
:10436000032224F47F440A432243826010BD826802
:1043700022F070020A4342F007018160704700009A
:10438000F0B5026A22F001020262036A426884699F
:10439000124E24F073050C682C4323F002058B6841
:1043A0002B430D4DA84201D0B04205D123F00807A0
:1043B000CB683B4323F00403A84201D0B04205D1AF
:1043C0004D6922F4407215438A692A434260846130
:1043D000496841630362F0BD0000014000040140F0
:1043E000F0B5026A22F010020262026A4368846930
:1043F0000D6824F4E64444EA05248D6822F0200286
:1044000042EA05120F4D104EA84201D0B04206D12B
:10441000CF6822F0800242EA071222F04002A8424E
:1044200001D0B04207D14D6923F4406343EA8503CC
:104430008D6943EA85034360846149688163026250
:10444000F0BD00000000014000040140F0B5026A28
:1044500022F480720262026A4368C46922F4007224
:1044600024F073050C68124E2C438D6842EA052235
:104470000E4DA84201D0B04206D1CF6822F40062AE
:1044800042EA072222F48062A84201D0B04207D15A
:104490004D6923F4405343EA05138D6943EA05133C
:1044A0004360C4614968C1630262F0BD000001401D
:1044B0000004014030B5026A22F480520262046AAC
:1044C0004268C3690D6823F4E64343EA05238D6817
:1044D00024F4005444EA0534084DA84202D0084DA3
:1044E000A84204D14D6922F4804242EA851242601A
:1044F000C36149680164046230BD000000000140EE
:104500000004014010B5036A046A24F00104046247
:10451000846924F0F00444EA021423F00A020A43F6
:104520008461026210BD10B5036A23F010030362B8
:104530008369046A23F4704343EA023224F0A0033F
:1045400043EA01118261016210BD10B5806B002148
:10455000C185C184FEF704FD10BD70B5846B206871
:10456000406994F83D10C0F3C0100025212904D102
:1045700018B1E584204600F08AF82068406994F874
:104580003E10C0F38010222904D118B1E5852046E1
:1045900000F056F8206C40F0100020642046FEF732
:1045A000DFFC70BD10B50146806B09680968C9055C
:1045B0002FD40021C18501680C3151E8002F22F46D
:1045C000807241E80023002BF5D10168143151E8D5
:1045D000002F22F0010241E80023002BF5D10168F1
:1045E000143151E8002F22F0400241E80023002B53
:1045F000F5D1202180F83E10016B012909D1016815
:104600000C3151E8002F22F0100241E80023002B6A
:10461000F5D1016B012902D0FEF789FF10BD818D14
:10462000FEF765FC10BD10B5806B016B012902D04F
:10463000FEF77EFF10BD818D4908FEF758FC10BDC6
:1046400001680C3151E8002F22F4907241E80023F8
:10465000002BF5D10168143151E8002F22F001023E
:1046600041E80023002BF5D1016B012909D1016834
:104670000C3151E8002F22F0100241E80023002BFA
:10468000F5D1202180F83E100021016370470168B8
:104690000C3151E8002F22F0C00241E80023002B2A
:1046A000F5D1202180F83D10704708B590F83E10F4
:1046B000222901D0022008BD82684FF480539A421B
:1046C00001D1016921B1816A9A421BD04AB10AE045
:1046D0000268816A5268C2F308020A80816A891CF2
:1046E00008E0026972B10268526802F07F020A7043
:1046F000816A491C8162C18D491E0904090CC1856A
:1047000003D019E002685268F1E70168CA6822F034
:104710002002CA600168CA6822F48072CA60016817
:104720004A6922F001024A61202180F83E10016BA3
:10473000012903D0FEF7FBFE002008BD0021016324
:1047400001680C3151E8002F22F0100241E80023EB
:10475000002BF5D101680A68D20602D50A684968BB
:104760000091818DFEF7C3FBE6E7000070B50446BB
:1047700000680169E26821F4405111430161216937
:10478000A068E26908436169114308432168CA6867
:1047900049F20C639A430243CA6020684169A269E6
:1047A00021F440711143416131492068884202D0AF
:1047B0003049884202D1FDF71DFE01E0FDF70AFEF7
:1047C000E2690023192164253226B2F5004F6268A0
:1047D00028D0A0FB0101930F9200FBF7B5FD014625
:1047E000B0FBF5F06FF01802504301EB800006EBD0
:1047F0000010B0FBF5F000F0F002B1FBF5F002EBB9
:104800000012B1FBF5F06FF01803584301EB800084
:1048100006EB0010B0FBF5F000F00F00216810442B
:10482000886070BDA0FB010192185B41FBF78CFD15
:104830000146B0FBF5F00201B1FBF5F06FF0180393
:10484000584301EB800006EBC000B0FBF5F000F030
:10485000F80002EB4002B1FBF5F0584301EB800099
:1048600006EBC000B0FBF5F000F00700D6E7000053
:10487000001001400014014038B581628285002596
:10488000134604460564222084F83E00A26B1C48AF
:10489000D063A26B1B481064A26B1B48D064A06B52
:1048A0000A4605652168A06B091DFDF7BDF9206862
:1048B00001684068009084F83C50206948B1206845
:1048C0000C3050E8001F41F4807140E80012002ACB
:1048D000F5D12068143050E8001F41F0010140E894
:1048E0000012002AF5D12068143050E8001F41F072
:1048F000400140E80012002AF5D1002038BD000038
:10490000A5450008274600085B4500080D4808B586
:1049100000680168C1F3001179B101684068009036
:104920000848FEF7E5FA0848006840680749C0F102
:1049300064000870064901200870BDE8084001487D
:10494000FEF710BBDC060020A80700205500002061
:104950005600002010B50448FCF751FABDE810409D
:104960000148FEF7FFBA0000200700200C4808B5F8
:1049700001680A684A680092CA6842F01002CA6078
:1049800001684A6942F040024A61122100910168BF
:10499000044B806BA3F11802091DFCF77DF808BDDC
:1049A00020070020EC49002038B531480068016834
:1049B000C1F30011F1B301684168009101684068DA
:1049C0002B48FEF795FA2B48006840682A48027881
:1049D000A52A4BD1A0F118010A700379C478827816
:1049E000457823432A43134300EE103AB8EE400AB9
:1049F00081ED010A037A2343134300EE103AB8EE27
:104A0000400A81ED020A027BC37A447A1A43837A10
:104A100023431A4300EE102AB8EE400A81ED030A40
:104A2000027CC37B447B1A43837B23431A4300EEFF
:104A3000102A00E010E0B8EE400A81ED040A027D81
:104A4000C37C1A43837C407C03431A4300EE102A44
:104A5000B8EE400A81ED050A0548FEF783FABDE885
:104A60003840642204490248FEF74CBD38BD0000BE
:104A70006407002028090020000A002030B52648DD
:104A8000264987B090F84930CB7090F84A208A7058
:104A9000B0F85F20CA80B0F861200A81B0F86C20BD
:104AA0004A81826ECA60D0F88A2000EE102AB5EEE4
:104AB000C00AF1EE10FA00D00A6142794FF416757F
:104AC000140902220C71072B07D06B2B0AD00B782C
:104AD000012B04D0022B06D00BE001230B70B0F8A1
:104AE0001B0002E00A70B0F82B0010B1A84200D001
:104AF0004A708DF8184008788DF819001020009041
:104B000000200290CDE90302012306AA6946044869
:104B1000FCF736FA07B030BD1A4A002040010020E9
:104B2000F0050020FEE7000030B50C46050014D06B
:104B3000022C12D90A48A11E02882846FCF7EAF97D
:104B40002919C2B211F8023C9A4206D111F8011C8F
:104B5000B1EB102F01D1012030BD002030BD00008D
:104B60005401002030B50C4605000CD0022C0AD9A7
:104B7000FF22611EFCF7E4F9291911F8011C81429A
:104B800001D1012030BD002030BD00002DE9F041F1
:104B90004F495048504A91ED000A80ED000AD2ED8D
:104BA000000AB4EEE00AF1EE10FA01DDB0EE600AA0
:104BB0004A4A80ED000AD2ED000AB4EEE00AF1EEB6
:104BC00010FA01D2B0EE600A80ED000A444ED1ED39
:104BD000010A4448C6ED000A90ED001AF4EEC10A3D
:104BE000F1EE10FA01DDF0EE410A3F48C6ED000A91
:104BF00090ED001AF4EEC10AF1EE10FA01D2F0EED7
:104C0000410AC6ED000A394CD1ED020A3848C4ED1C
:104C1000000A90ED001AF4EEC10AF1EE10FA01DD7F
:104C2000F0EE410A3348C4ED000A90ED001AF4EEAC
:104C3000C10AF1EE10FA01D2F0EE410AC4ED000A09
:104C40002D4DD1ED030A2D48C5ED000A90ED001A57
:104C5000F4EEC10AF1EE10FA01DDF0EE410A284847
:104C6000C5ED000A90ED001AF4EEC10AF1EE10FA5B
:104C700001D2F0EE410AC5ED000A40F20117F6EE4E
:104C8000000A3846FFF752F8012000F041F9F6EE2D
:104C9000000A96ED000A3846FFF780F8012000F080
:104CA00037F9F6EE000A94ED000A781CFFF776F863
:104CB000012000F02DF9F6EE000A95ED000AB81C6F
:104CC000FFF76CF8BDE8F041012000F021B90000C9
:104CD00000000020FC0000200C010020100100203A
:104CE0000001002014010020180100200401002010
:104CF0001C010020200100200801002024010020C8
:104D0000280100200907090E002804DB00F1E0203B
:104D100080F80014704700F00F0000F1E02080F8E8
:104D2000141D7047F8B5204CB4F9060000EE100AC7
:104D30001E48F8EEC00AB0F9000000EE100A1C4848
:104D4000B8EEC00A00F01AF9BDEEC00A194D10EE17
:104D5000100A6080B5F9060000EE100A134808300A
:104D6000F8EEC00AB0F9000000EE100A1048B8EEE4
:104D7000C00A343000F002F9BDEEC00A0026334606
:104D800010EE100A68800096B4F90E20B4F90210F3
:104D9000304600F0E1FB00230096B5F902101A46F8
:104DA000184600F007FCF8BDF40200202C0000209B
:104DB0002802002048030020184810B5037818483E
:104DC0004FF000010278174853EA020400D1018035
:104DD00013B140F2B133038012B16FF46C720280F0
:104DE000114802780F48083012B140F2573104E000
:104DF0000E4A12780AB14FF6A94101800C48C17AD7
:104E00000C480129006805D0032902D14FF47A71BA
:104E1000416310BD4FF4FA61FAE70000340100204D
:104E2000330100202C000020370100203C0100202D
:104E3000044A0020940600200749896B814209D169
:104E40000068016841F400210160044801780448C9
:104E5000FEF7C4BB70470000640700202C0100204F
:104E6000444800200749896B814209D100680168E4
:104E700021F400210160044801780448FEF7AEBB2C
:104E800070470000640700202C0100200C4900201E
:104E9000FDF724F9FFF798F9FEF730FDFEF7B4FCB3
:104EA000FEF76EFCFEF78EFCFEF724FEFEF73EFEDC
:104EB000FEF75CFEFEF7BAFDFEF798FD00221146F4
:104EC0001C20FDF79BF9FBF76FFDFBF797FDFFF744
:104ED0004DFD0948FDF73CFD08480068C16841F0F8
:104EE0001001C160642206490448FEF70BFBFEF77F
:104EF000D1FC00F014F8FEE79406002064070020BF
:104F0000000A002001460020842900D0C81C7047F8
:104F100010B500B9012000F0A5FC002010BD10B5AF
:104F200000F0C6FC002010BD7FB50D460446416967
:104F3000B0F9080081B1A16971B1FFF7E3FFD4E9CD
:104F400005128DE80700D4E900102B46226900F015
:104F5000C2FD039004B070BDFFF7D4FF03A9CDE9F3
:104F60000001208A2B4682B2D4E9001000F086FDB1
:104F7000012801D00020EDE70398EBE780ED050A5A
:104F8000C0ED060A90ED071A70EE600A80ED081A6F
:104F9000C0ED070A90ED000A60EE201AC0ED091A74
:104FA00090ED0A0A90ED012A02EE200A70EEC10A85
:104FB00080ED0A0A90ED021A20EE812A80ED0B2A7C
:104FC000D0ED030AB1EE601AB4EEC10AF1EE10FAA8
:104FD00002D8B0EE410A06E0B4EEE00AF1EE10FAB3
:104FE00001DBB0EE600A80ED0A0A31EE800A30EE95
:104FF000020A80ED0C0AD0ED040AB1EE601AB4EE9C
:10500000C10AF1EE10FA02D8B0EE410A06E0B4EEA1
:10501000E00AF1EE10FA01DBB0EE600A80ED0C0A56
:10502000704780EC050A70472DE9F041184C0F4697
:105030000546E6682068001D00F04CFB38B9206882
:1050400090F82C1001208840216981432161681C5F
:1050500007D137B12168BDE8F0410E48091D00F0C5
:105060007DBB20683544B5424560216805D2A06B00
:10507000BDE8F041091D00F059BB606B091D00F04F
:1050800055FBA06A854200D2A562BDE8F081000010
:1050900080000020880B00202DE9F041054600F03B
:1050A00069FB2E4CA068401CA06020682C4F10B1FA
:1050B000606940B32DE02560A068012829D1002651
:1050C00006EB860007EB800000F022FB761C072E23
:1050D000F6D323488C3000F01BFB2148A03000F0B1
:1050E00017FB1F48B43000F013FB1D48C83000F018
:1050F0000FFB1B48DC3000F00BFB19488C30606361
:105100001430A06305E02068E96AC06A884200D8CC
:105110002560606A401C6062E96A0120226988405B
:105120001043206101EB810007EB8000291D00F096
:1051300015FB00F03FFB606900280CD02068E96A8D
:10514000C06A884207D207494FF080500860BFF319
:105150004F8FBFF36F8FBDE8F0810000800000200B
:10516000AC0A002004ED00E010B5044690F85100B0
:1051700058B101280CD002280FD0502080F311889C
:10518000BFF34F8FBFF36F8FFEE7206B00F026FB5E
:105190002046BDE8104000F021BB10BD10484FF480
:1051A0007051420706D0C01D0D4920F00700411A7A
:1051B000C1F570510B4A00230144C2E900030839CC
:1051C000183A21F0070111604B600B600B1AC0E91F
:1051D000001393604FF0004053605061704700002F
:1051E0009C0B0020D4000020144E154CA6F1C807DB
:1051F0004FF08058DFF84C9012E000BF00F0BAFA90
:10520000F068C568281D00F065FAA068401EA0601F
:105210006068401E606000F0CDFA2846FFF7A4FFEA
:1052200060680028EAD138680128F9D9C9F80080F7
:10523000BFF34F8FBFF36F8FF2E70000740B0020B6
:105240008000002004ED00E02DE9F0479A46DDE9FA
:10525000098481466FF00303206B03EB8202104444
:10526000089E20F00707780707D0502080F31188A8
:10527000BFF34F8FBFF36F8FFEE7002561B10020B2
:1052800023180A5C83F834200A5C12B1401C1028F1
:10529000F6D384F8435001E084F83450072E00D34D
:1052A0000626E662C4E91165201D00F03CFA04F10F
:1052B000180000F038FA2461C6F107006462A061AA
:1052C000E56484F8505052464946384600F0C0F82C
:1052D0002060B8F1000F01D0C8F80040BDE8F087A9
:1052E00030B5114900E011460A688242FBD34B6891
:1052F0005C18844203D140681844486008464368FB
:105300001C18944209D1084C183C2468A24209D0C8
:1053100052681A4442600A6812680260814200D0F2
:10532000086030BD0460F9E7D40000200648416BF6
:10533000096829B1416BC968C968496881627047C9
:105340004FF0FF31FAE70000800000200848406875
:10535000401C4FF0500080F3118804D0BFF34F8FF2
:10536000BFF36F8FFEE7BFF34F8FBFF36F8FFEE783
:10537000DC0000202DE9F0410546002700F0CEFAC0
:10538000324E306808B9FFF709FF706905424ED107
:10539000C5B3083568070ED005F00700C0F1080056
:1053A0000544680707D0502080F31188BFF34F8F62
:1053B000BFF36F8FFEE72DB37068854237D823485F
:1053C000183001460C6801E020460C466168A9428D
:1053D00002D221680029F7D131688C4227D00768B2
:1053E0002168016060680837411B10290FD96019D6
:1053F000420708D0502080F31188BFF34F8FBFF3CE
:105400006F8FFEE713E041606560FFF769FF616839
:105410007068401A7060B268904200D2B0607069E3
:1054200001430020C4E90001F068401CF06000F076
:10543000E3FB780707D0502080F31188BFF34F8F2C
:10544000BFF36F8FFEE73846BDE8F081BC00002057
:1054500010B5031F4FF080741C601B1F21F0010169
:105460001960191F044B0B6014390A60091F6FF093
:10547000020244380A6010BD4D5300080188C1F390
:105480000A0233490A8042788378D20842EA4312FA
:10549000C2F30A024A808278C378920942EA830200
:1054A000037942EA8322C2F30A028A8002794379AD
:1054B000520842EAC312C2F30A02CA804279C2F316
:1054C00001128A7242799209CA72C2888A8102895B
:1054D000CA8142890A82027B8A74427BCA74C28969
:1054E0008A82028A0A81827B1A4902F001030B70C8
:1054F00002F002034B7002F004038B7002F0080309
:10550000CB7002F040030B7102F080034B7102F08C
:1055100010038B7102F02002CA71C07B00F00102FF
:105520000A7200F002024A7200F004028A7200F06D
:105530000802CA7200F010020A7300F020024A73D7
:1055400000F040028A7300F08000C87370470000CA
:10555000044A00202D01002010B588B00A9C18B321
:1055600040F2FF2002900020049005900820069051
:10557000080A8DF800008DF80110100A8DF802005D
:10558000180A8DF804008DF80530200A8DF8060001
:105590008DF803208DF8074001236A4602A90448CC
:1055A000FBF7EEFC08B010BD4FF40070DAE7000026
:1055B000F005002010B588B00A9C18B340F2FF2017
:1055C000029000200490059008200690080A8DF8AB
:1055D00000008DF80110100A8DF80200180A8DF8ED
:1055E00004008DF80530200A8DF806008DF80320A0
:1055F0008DF8074001236A4602A90448FBF7C0FC66
:1056000008B010BD4FF40070DAE700001806002063
:1056100038B504460068016840680090204884421C
:105620001BD1A06B0068016821F001010160A06B33
:1056300001684A68062A06D10968090301D5416C48
:1056400000E0C16B8847A16B182009684860A06B17
:105650000068016841F001010160124884421DD1D7
:10566000A06B0068016821F001010160A06B016876
:105670004A680D4BC2F1C8021A700968090301D5C6
:10568000416C00E0C16B8847A16BC8200968486085
:10569000A06B0068016841F00101016038BD0000A5
:1056A00020070020640700202C01002001EE100AD2
:1056B00070EEC00A0120B8EEC11A8840401E21EEEB
:1056C000201A00EE900AF8EEE01AC1EE210A30EE40
:1056D000800A7047D0E9013201699A60D0E901235C
:1056E0005A604A68824201D182684A60002202619F
:1056F0000868401E0860086870470000034B03609C
:1057000003F1540008608020106070479C03002063
:1057100000F108014FF0FF32C0E90112C1600161E0
:1057200000210160704700210161704730B50B68AE
:105730005A1C02D000F1080202E0026904E022468D
:10574000546825689D42FAD953684B6099608A6015
:10575000516008610168491C016030BD42684A60BF
:1057600093688B6093685960916008610168491C77
:1057700001607047502080F31188BFF34F8FBFF353
:105780006F8F0A494868401C486001280CD10848BE
:10579000006810F0FF0F07D0502080F31188BFF38E
:1057A0004F8FBFF36F8FFEE770470000DC000020D3
:1057B00004ED00E00849486828B1401E486001D166
:1057C00080F311887047502080F31188BFF34F8F0A
:1057D000BFF36F8FFEE70000DC00002070B50028EB
:1057E0002AD0164DA0F1080460686969084207D103
:1057F000502080F31188BFF34F8FBFF36F8FFEE708
:1058000022683AB1502080F31188BFF34F8FBFF365
:105810006F8FFEE78843606000F080F86068696819
:10582000084468602046FFF75BFD2869401C28613A
:10583000BDE8704000F0E0B970BD0000BC00002081
:105840004FF0E02000210161816105494FF47A7237
:105850000968B1FBF2F1491E4161072101617047FE
:105860007C00002010B5020014D00F48006B38B146
:10587000502080F31188BFF34F8FBFF36F8FFEE787
:1058800000F04CF800211046FFF7CEFB00F0B4F911
:10589000002807D105494FF080500860BFF34F8FB3
:1058A000BFF36F8F10BD00008000002004ED00E00A
:1058B00010B586B00024039405AA04A903A8049493
:1058C000FFF71CFFDDE903010094CDE9011000237F
:1058D0000EA11048059A00F0FEF80F490028C86292
:1058E00011D0502080F31188BFF34F8FBFF36F8F1B
:1058F0004FF0FF30886201204861CC6006B0BDE8FF
:10590000104000F041B806B010BD000049444C45BD
:1059100000000000E9510008800000200248016BEF
:10592000491C016370470000800000201448016B8F
:1059300011B10121C16170470021C1610169B1FA52
:1059400081F1C1F11F0101EB81020E4951F82230B2
:105950006BB101EB820101F108034A6852684A60A9
:105960009A4201D152684A60D16801607047502064
:1059700080F31188BFF34F8FBFF36F8FFEE70000F6
:1059800080000020AC0A00201CB537480168374A67
:10599000914207D1502080F31188BFF34F8FBFF39E
:1059A0006F8FFEE700683149491E884207D15020B9
:1059B00080F31188BFF34F8FBFF36F8FFEE72C4941
:1059C00008780190FF20087008788DF800009DF895
:1059D00000009DF8002000F0F000904207D0502019
:1059E00080F31188BFF34F8FBFF36F8FFEE79DF8F1
:1059F0000000204C00F0500020700720A06005E05F
:105A00009DF8002052008DF80020401E9DF80020D7
:105A10001206F5D4A060032807D0502080F3118827
:105A2000BFF34F8FBFF36F8FFEE74FF44070A0605E
:105A3000019808700C482030016841F47001016041
:105A4000016841F070410160FFF7FAFE00206060DC
:105A5000FAF71EFC0848016841F040410160FAF77E
:105A600003FC00201CBD000000ED00E071C20F41EE
:105A700000E400E0DC00002034EF00E02DE9FF5FEF
:105A80008346DDE90E87994616468A469000FFF761
:105A900071FC05001CD05420FFF76CFC040014D0EE
:105AA0000020256384F85100CDE90240CDE900874C
:105AB0004B46324651465846FFF7C6FB2046FFF795
:105AC000EBFA012004B0BDE8F09F2846FFF786FE00
:105AD0004FF0FF30F6E7F0B585B0DDE90B640A9DC5
