:020000040800F2
:100000003852002029030008D33B0008753400084B
:10001000D13B000831080008994D0008000000009D
:10002000000000000000000000000000690200085D
:100030009F0C000800000000C5020008994300085A
:100040004303000843030008430300084303000878
:100050004303000843030008430300084303000868
:100060004303000843030008430300084303000858
:10007000DD08000843030008E908000843030008FE
:100080004303000843030008430300087D080008F9
:1000900071080008430300084303000843030008F5
:1000A0004303000843030008430300084303000818
:1000B00043030008694400084303000843030008A1
:1000C00043030008430300084303000843030008F8
:1000D00043030008814B000843030008C94B000894
:1000E00043030008430300084303000843030008D8
:1000F00043030008430300084303000843030008C8
:1001000043030008430300084303000843030008B7
:1001100043030008430300084303000843030008A7
:1001200043030008F508000801090008430300081C
:10013000430300084303000843030008D1080008F4
:10014000C5080008430300084303000843030008F0
:10015000430300080D090008190900081D4C000898
:100160004303000843030008430300084303000857
:100170004303000843030008430300080000000095
:10018000430300084303000800F002F800F05CF8A5
:100190000AA090E8000C82448344AAF10107DA45E2
:1001A00001D100F051F8AFF2090EBAE80F0013F0D8
:1001B000010F18BFFB1A43F00103184760660000E7
:1001C000806600000A444FF0000C10F8013B13F069
:1001D000070408BF10F8014B1D1108BF10F8015BA0
:1001E000641E05D010F8016B641E01F8016BF9D193
:1001F00013F0080F1EBF10F8014BAD1C0C1B09D1EA
:100200006D1E58BF01F801CBFAD505E014F8016B5B
:1002100001F8016B6D1EF9D59142D6D370470000ED
:100220000023002400250026103A28BF78C1FBD8FF
:10023000520728BF30C148BF0B6070471FB506F09A
:10024000F6F81FBD10B510BD00F0A6F91146FFF776
:10025000F5FF04F04DFF00F0C4F903B4FFF7F2FF1F
:1002600003BC00F0CBF900002C4B19680868B0E81B
:10027000F04F80F30988BFF36F8F4FF0000080F3D9
:10028000118870470000000008480068006880F38B
:1002900008884FF0000080F3148862B661B6BFF39F
:1002A0004F8FBFF36F8F00DF00BF00BF08ED00E08E
:1002B000DFF80C00016841F470010160704700BF75
:1002C00088ED00E0EFF30980BFF36F8F134B1A68DE
:1002D0001EF0100F08BF20ED108A20E9F04F1060CB
:1002E00009B44FF0500080F31188BFF34F8FBFF374
:1002F0006F8F05F04BFC4FF0000080F3118809BCB4
:1003000019680868B0E8F04F1EF0100F08BFB0EC95
:10031000108A80F30988BFF36F8F70478400002034
:10032000EFF30580704700000948804709480047FF
:10033000FEE7FEE7FEE7FEE7FEE7FEE7FEE7FEE795
:10034000FEE7FEE704480549054A064B70470000F2
:100350005944000889010008384C00203852002018
:10036000384E0020384E002053EA020C00F069801D
:100370002DE9F04B4FF00006002B1FBFB3FA83F5B9
:1003800003FA05F424FA05F65E4012BF1643B2FAEA
:1003900082F502FA05F4C5F120051EBF22FA05FC1C
:1003A00044EA0C04203556EA044C4FEA144418BFC2
:1003B000641C4FF000084FF00009904271EB030CF1
:1003C00039D3002919BFB1FA81F701FA07F6B0FA5B
:1003D00080F700FA07F6C7F120071EBF20FA07FCD6
:1003E00046EA0C062037B6FBF4FCA7EB0507103FE6
:1003F00007F01F0BCBF120060CFA0BFB2CFA06F6CC
:1004000044BFB3460026202FA4BF5E464FF0000B2A
:100410005BEA060C08BF4FF0010B19EB0B09ABFBB5
:10042000027C48EB0608C01B06FB02CC0BFB03CC8E
:1004300071EB0C01C1E70B46024641464846BDE858
:10044000F08B13B54FF000004FF00001AFF30080C8
:10045000BDE81C407047032A40F2308010F0030CC6
:1004600000F0158011F8013BBCF1020F624498BF07
:1004700011F801CB00F8013B38BF11F8013BA2F1A4
:10048000040298BF00F801CB38BF00F8013B11F01F
:10049000030300F02580083AC0F0088051F8043BBF
:1004A000083A51F804CBA0E80810F5E7121D5CBF2C
:1004B00051F8043B40F8043BAFF30080D20724BF5F
:1004C00011F8013B11F801CB48BF11F8012B24BFF3
:1004D00000F8013B00F801CB48BF00F8012B704742
:1004E00010B5203AC0F00B80B1E81850203AA0E8CF
:1004F0001850B1E81850A0E81850BFF4F5AF5FEA03
:10050000027C24BFB1E81850A0E8185044BF18C9B5
:1005100018C0BDE810405FEA827C24BF51F8043B5C
:1005200040F8043B08BF7047D20728BF31F8023BB0
:1005300048BF11F8012B28BF20F8023B48BF00F844
:10054000012B70474FF0000200B5134694469646C3
:10055000203922BFA0E80C50A0E80C50B1F12001D6
:10056000BFF4F7AF090728BFA0E80C5048BF0CC084
:100570005DF804EB890028BF40F8042B08BF7047E2
:1005800048BF20F8022B11F0804F18BF00F8012B54
:100590007047704770477047754600F02BF8AE46BD
:1005A00005006946534620F00700854618B020B57F
:1005B000FFF7C8FEBDE820404FF000064FF00007EF
:1005C0004FF000084FF0000B21F00701AC46ACE8FB
:1005D000C009ACE8C009ACE8C009ACE8C0098D4668
:1005E000704710B50446AFF300802046BDE81040C8
:1005F000FFF733BE00487047D44B00200149182054
:10060000ABBEFEE726000200704700006D4801788F
:100610006D48D0ED060A6D4890ED000A11B130EE3C
:10062000200A04E06A49097819B130EE600A80EDC9
:10063000000A6849F0EE400A91ED000AF4EEC00AA3
:10064000F1EE10FA01DCB0EE600A634980ED000AB9
:10065000D1ED000AB4EEE00AF1EE10FA01D2B0EEEC
:10066000600A80ED000A5D4801785748D0ED070A1E
:100670005B4890ED000A11B130EE200A04E05949C0
:10068000097819B130EE600A80ED000A5649B0EEE3
:10069000401A91ED000AB4EEC01AF1EE10FA01DC36
:1006A000B0EE410A514980ED000A91ED001AB4EE16
:1006B000C10AF1EE10FA01D2B0EE410A80ED000A53
:1006C0004B4801784B4890ED000A11B130EE200AFA
:1006D00004E04949097819B130EE600A80ED000A5A
:1006E0004649F0EE400A91ED000AF4EEC00AF1EE40
:1006F00010FA01DCB0EE600A414980ED000AD1ED4C
:10070000000AB4EEE00AF1EE10FA01D2B0EE600A8F
:1007100080ED000A3B4801782B48D0ED050A3A48A5
:1007200090ED000A11B130EE200A04E03749097853
:1007300019B130EE600A80ED000A3549F0EE400A4A
:1007400091ED000AF4EEC00AF1EE10FA01DCB0EE11
:10075000600A304980ED000AD1ED000AB4EEE00AEB
:10076000F1EE10FA01D2B0EE600A80ED000A2A48DC
:1007700001781548303011B140F2B131018027497C
:10078000097811B16FF46C710180254801780E4829
:10079000383011B140F2573101802249097811B146
:1007A0004FF6A94101802048C17A204801290068FC
:1007B00005D0032902D14FF47A71416370474FF499
:1007C000FA61FAE735010020000000200001002056
:1007D000360100201001002014010020310100200A
:1007E0000401002032010020180100201C0100201B
:1007F0003C010020080100203E01002020010020D3
:1008000024010020330100200C01002034010020CD
:10081000280100202C010020380100203701002091
:100820003B01002040010020084A002098060020DB
:10083000FEE7000000B58BB000200121CDE90601E4
:100840000590009001900290039004900E20CDE955
:1008500008106946054800F047FB0221034800F0F4
:10086000C3FA024800F05EFF0BB000BDF4050020A3
:10087000014800F034BC0000F4050020014800F0FD
:100880002EBC0000F405002000B58BB001220E2123
:1008900000200792CDE9051003900490CDE90821CE
:1008A0000090019002906946054800F01DFB02216E
:1008B000034800F099FA024800F034FF0BB000BD85
:1008C0001C060020014800F00ABC00001C060020A5
:1008D000014800F004BC00001C060020014800F0A4
:1008E000AFBF00006C080020014800F0A9BF000065
:1008F000CC080020014800F0A3BF00002C09002014
:10090000014800F09DBF0000AC070020014800F046
:1009100097BF00008C090020014800F091BF000043
:100920000C0800202DE9F04F85680024099E802DD9
:1009300018D0894DC563894D456490F83450012D18
:1009400015D0012580F8345090F83550012D10D085
:10095000002180F834100224002180F83410204651
:10096000BDE8F08F4FF4807141650120F8E7022067
:10097000F6E7022580F835500025456505682F68A3
:1009800047F480272F6005682B6103685E608368E9
:10099000402B03682AD099600168CA60714D704E7F
:1009A000704FDFF8BC81DFF8B891DFF8B8A1DFF84D
:1009B000B4B1EA14DFF8A8E10168183630379302C1
:1009C000A9F148090AF1600A0BF1180BAEF1300EDB
:1009D0004FF0006C41452DD9A94205D0494503D0BF
:1009E000514501D0B14205D1202220E09A60026831
:1009F000D160D3E759451AD0714518D0594D783593
:100A0000A94214D0564D3035A94210D0B9420BD06E
:100A1000534A183A914207D0524A9032914203D039
:100A20004F4A4832914201D11A4600E062464C4991
:100A30004C392EE0DFF82C8108F1A80841452AD96D
:100A4000A94205D0494503D0514501D0B14201D159
:100A500020221CE059451AD0714518D0414D7835F7
:100A6000A94214D03E4D3035A94210D0B9420BD026
:100A70003B4A183A914207D03A4A9032914203D009
:100A8000374A4832914201D11A4600E06246344961
:100A900050390A605AE0DFF8CC8008F14808414537
:100AA0002AD9A94205D0494503D0514501D0B142C8
:100AB00001D120221CE059451AD0714518D0294D8A
:100AC0007835A94214D0264D3035A94210D0B9420C
:100AD0000BD0234A183A914207D0224A90329142D1
:100AE00003D01F4A4832914201D11A4600E06246C3
:100AF0001C491039CA6029E0A94205D0494503D0F4
:100B0000514501D0B14201D120221CE059451AD0F3
:100B1000714518D0134D7835A94214D0104D303599
:100B2000A94210D0B9420BD00D4A183A914207D0D1
:100B30000C4A9032914203D0094A4832914201D185
:100B40001A4600E06246074910398A6001680A685F
:100B500042F001020A60FFE6715000089D50000853
:100B6000586402401060024001681823CAB2103A6B
:100B7000B2FBF3F2054B6FF30901032A9B5CC365DB
:100B800000D9091D8165084670470000C864000847
:100B900010B5014600208B698A6A4FF0C07453B1CA
:100BA000B3F5005F15D072B1012A0CD0022A0AD029
:100BB000032A09D104E01AB1012A06D0022A03D17E
:100BC000C96AC90100D5012010BDC96AA142FAD085
:100BD00010BD002AF7D0012AF2D0022AF3D0032A4E
:100BE000F3D010BD30B50468256825F48025256054
:100BF000046863608368402B036803D099600068D1
:100C0000C26030BD9A600068C16030BD70B586B00A
:100C1000012004F0ADFAFF24FC2501940294CDE9F3
:100C20000345A61C2346224621463046009400F088
:100C300077F8012004F09CFAFF2301940294CDE997
:100C400003451A461946D81C009400F069F80120A3
:100C500004F08EFA01940294FF23CDE903451A466D
:100C600019460320009400F05BF8012004F080FA9C
:100C700001940294FF23CDE903451A4619463046F4
:100C8000009400F015F806B070BD01680A68D2063D
:100C900004D5C968C90601D504F0EABD704770479C
:100CA00001B5009801E0401E00900028FBD108BD6E
:100CB0002DE9F04106AC94E8E050174C206000208C
:100CC0006060A060E0600820206121766276A376F3
:100CD000E5762677677784F81EC084F81FE004F174
:100CE0001802012314460C490C4800F08FF8002824
:100CF0000FD0022322460849084800F087F8002850
:100D000007D02246BDE8F04104230349034800F020
:100D10007DB8BDE8F0810000BC4A0020F405002049
:100D20002DE9F04708ACDFF8688094E8E012012470
:100D3000A8F80040174C206000206060A060E060D0
:100D40000820206121766276A376E576267767779C
:100D500084F81E9084F81FC004F118020123144681
:100D60000C490D4800F052F800280FD0022322460B
:100D70000849094800F04AF8002807D02246BDE893
:100D8000F04704230349044800F040B8BDE8F08769
:100D90005A010020DC4A00201C06002072B6FEE743
:100DA00010B558B1084C491E0BD310F8013B534005
:100DB000DBB234F8133083EA1222F4E74FF6FF7007
:100DC00010BD104610BD0000E865000810B5054CC8
:100DD00004E000BF10F8013B5340E25C491EF9D229
:100DE000104610BDE864000890F82020012A07D0C2
:100DF000022A05D0416A41F48021416201207047F6
:100E0000006842690A43426100207047F0B590F8DB
:100E100020500468A468012D05D0022D03D0416A3A
:100E200041F480215DE014F0406F01D1E50055D51B
:100E3000C4F30164022C03D9416A41F4000150E07B
:100E40000125A5401D608D684FF4C0739DB1CE682B
:100E500035434E6845EAC605066803EB0417F551AD
:100E60004FF4C275076805EB04150E697E51097DC4
:100E7000012905D009E00E88CD6845EA4655EBE723
:100E800001684E5946F480764E511179D5795679DC
:100E900041EA056195792D0445EA062529434FF479
:100EA000C676056806EB0416A9511178D57841EA93
:100EB0000561957852782D0445EA022211434FF4DA
:100EC000C475026805EB04155151006803EB041169
:100ED000425842F0010242500020F0BD416A41F404
:100EE000001141620120F0BD10B590F82020012AC8
:100EF00007D0022A05D0416A41F4802141620120D5
:100F000010BD3B48D0F8002242F00102C0F8002298
:100F1000D0F8002222F47C52C0F80022D0F800223F
:100F20004B6A42EA0322C0F800220A7D02F01F0346
:100F300001229A40D0F81C329343C0F81C32CB698E
:100F4000B3B9D0F80C329343C0F80C328C894B689B
:100F500064F31F434C6900EBC404C4F840320C89AD
:100F60000B6864F31F434C6900EBC404C4F84432BB
:100F7000CB69012B16D1D0F80C321343C0F80C32D8
:100F80000C884B6864F31F434C6900EBC404C4F83D
:100F900040320C89CB6864F31F434C6900EBC404F6
:100FA000C4F844328B69002BD0F804320ED01343BE
:100FB000C0F804320B69002BD0F8143208D0134368
:100FC000C0F81432096A012904D008E09343EFE71E
:100FD0009343F5E7D0F81C121143C0F81C12D0F867
:100FE000001221F00101C0F80012002010BD000025
:100FF00000640040704730B590F82040012C05D0C7
:10100000022C03D0416A41F480215DE0046800298C
:1010100055D02469A40754D04FF4D874056804EB64
:1010200001142D5915F00405956005682D594ED011
:10103000ED08556005682C5904F00204D4604FF4A3
:10104000DA74056804EB01142D5905F00F051561DC
:1010500005682D59C5F30725956105682C59240CA1
:1010600054614FF4DC72046802EB0112A4581C7046
:101070000468A458240A5C700468A458240C9C706A
:101080000468A258120EDA704FF4DE72046802EBA4
:101090000112A4581C710468A458240A5C710468E5
:1010A000A458240C9C710468A258120EDA710068CE
:1010B00081B1016941F020010161002030BDE46887
:1010C000A8E7416A41F400114162012030BD6D0D75
:1010D0001560AFE7C16841F02001C160EDE72DE97F
:1010E000F05F0546006800244669D0F804908768E0
:1010F000D0F80CB0D0F810A0D0F81880F10748D084
:10110000F90714D001218160B80703D5284600F003
:1011100036FB0CE0780702D54FF4006407E038078F
:1011200002D54FF4805402E0284600F027FBF80572
:1011300016D529684FF480708860B80503D5284615
:1011400000F01FFB0CE0780502D544F4005407E0E2
:10115000380502D544F4804402E0284600F010FB34
:10116000F80316D529684FF480308860B80303D59A
:10117000284600F008FB0CE0780302D544F4004454
:1011800007E0380302D544F4803402E0284600F03A
:10119000F9FA300707D55FEACB6004D5296810203B
:1011A00044F40074C86070074FF0080707D55FEA81
:1011B0000B7004D52868C760284600F0A9F9B0076D
:1011C00006D52868C068800702D0284600F0A2F93A
:1011D000700607D55FEACA6004D52968102044F478
:1011E00080640861B00607D55FEA0A7004D52868F4
:1011F0000761284600F092FAF00606D528680069D3
:10120000800702D0284600F08AFAB00308D55FEACA
:10121000C96005D5296810204860284600F080FA8A
:10122000F00307D55FEA097004D5286847602846AF
:1012300000F0AAFA300446D55FEA497040D5F005BF
:1012400004D55FEAC87001D044F00104B00504D5AC
:101250005FEA887001D544F00204700504D55FEAA6
:10126000487001D544F00404300529D518F0700FFA
:1012700026D008F07000402815D006DC102809D0D0
:1012800020280AD0302816D10AE050280ED0602835
:1012900011D10EE044F008040DE044F010040AE01F
:1012A00044F0200407E044F0400404E044F08004EB
:1012B00001E044F480742868816921F07001816143
:1012C000296804204860002C05D0686A20436862C1
:1012D0002846FFF78FFEBDE8F09F70B5040003D0ED
:1012E00094F8200010B104E0012070BD204600F009
:1012F00081F82068016841F00101016000F02EFDD5
:101300000546052604E000F029FD401B0A2811D8F7
:1013100020684068C007F6D02068016821F002010B
:10132000016000F01BFD05460BE000F017FD401BBF
:101330000A2806D9606A40F40030606284F82060B0
:10134000D2E7206840688007EFD4207E012820681B
:1013500001683DD021F080010160607E0128206895
:10136000016838D021F040010160A07E012820688A
:10137000016833D021F020010160E07E012820685F
:1013800001682ED041F010010160207F0128206803
:10139000016829D021F008010160607F01282068E0
:1013A000016824D021F004010160D4E9020108435E
:1013B000D4E90412114308436168491E08432168B7
:1013C000C86100206062012084F82000002070BD08
:1013D00041F08001C0E741F04001C5E741F0200144
:1013E000CAE721F01001CFE741F00801D4E741F04E
:1013F0000401D9E7F0B587B0044614216846FFF729
:10140000A1F83E4B3E48DFF8F0E01968D4F800C080
:101410003B4A03250226092710300024491CF445C5
:101420002AD11960012907D1016841F000710160DA
:10143000006800F000700590106840F0080010602F
:101440001068CDE9005600F00800CDE90470694647
:101450002C48CDE9024500F077FB0022052113203E
:1014600000F012FE132000F001FE002205211420DE
:1014700000F00AFE14203AE0DFF88CE0F44538D1A1
:10148000D0F800C04CF0806CC0F800C0D0F800C0AC
:1014900001290CF0806CCDF814C0196007D10168E7
:1014A00041F000710160006800F000700590106864
:1014B00040F002001060106802AB00F002000590DE
:1014C0006020CDE9000683E8B00069460F4800F0CF
:1014D0003BFB002205213F2000F0D6FD3F2000F01D
:1014E000C5FD00220521402000F0CEFD402000F087
:1014F000BDFD07B0F0BD000000640040700000209A
:1015000030380240000C02400068004000040240F5
:10151000704700002DE9F0417B4C01680746794A8D
:1015200004F11C000126794D8046914248D10346C2
:10153000224600213846FFF75EFDE8BB207F0128E8
:1015400021D1B4F81D0004F1240240BA1060E17FFB
:10155000F2EE090A0B0194F82010BAEE090A43EAE8
:101560001113536094F8213001F00F0143EA012177
:101570009160102104F0CAF982ED030A686810B97D
:1015800085ED050A6E602068A0F20120072811D2BF
:10159000C0B200EB40025E48A18B00EB820049BA6A
:1015A0008180E18B49BAC180218C49BA018194F8CC
:1015B00022108172022100E002E03846FFF714FC9D
:1015C00054483968814275D143464F4A0021384614
:1015D000FFF711FD00286DD1207F012820D00228BF
:1015E00046D0032868D02068A0F20120072811D235
:1015F000C0B200EB40024848A18B00EB820049BA20
:101600008180E18B49BAC180218C49BA018194F86B
:10161000221081723846BDE8F0410221FFF7E4BB99
:101620003949242201F18400FEF75AFF364A34F882
:101630001D0F3C3240BA1060A178F2EE090A0B018E
:10164000E178BAEE090A43EA11135360237901F0F5
:101650000F0143EA01219160102104F057F982ED56
:10166000030AA8680028D5D185ED060AAE60D1E747
:10167000254A34F81D0F543240BA1060A178F2EEBA
:10168000090A0B01E178BAEE090A43EA1113536023
:10169000237901F00F0143EA01219160102104F048
:1016A00035F982ED030AE8680028B3D185ED070A11
:1016B000EE60AFE723E0FFE72E80134A34F81D0FFA
:1016C0006C3240BA1060A178F2EE090A0B01E178A1
:1016D000BAEE090A43EA11135360237901F00F01AE
:1016E00043EA01219160102104F010F982ED030A10
:1016F000286900288ED185ED080A2E618AE7BDE8A9
:10170000F081000000640040A0470020EC000020B1
:10171000F8020020006800404C030020704770472A
:101720007047000070B5044690F82000012804D0EE
:10173000606A40F40020606218E0022084F8200013
:101740002068016821F00101016000F007FB0546F7
:101750000EE000BF00F002FB401B0A2808D9606AB7
:1017600040F400306062052084F82000012070BD44
:1017700020684068C007EDD1606270BD7047704757
:10178000704770477047704770472DE9F041044635
:10179000876D00F0E3FA064694F83500002502282C
:1017A00006D08020606584F834500120BDE8F081C7
:1017B0002068016821F0160101602068416921F06C
:1017C00080014161206C08B9A06C20B120680168DB
:1017D00021F0080101602068016821F00101016029
:1017E0000CE000F0BBFA801B052807D920206065BB
:1017F000032084F8350084F83450D7E72068006867
:10180000C007EED194F85C103F208840B8600120FA
:1018100084F8350084F834500020C7E790F835107C
:10182000022903D08021416501207047052180F8FD
:1018300035100068016821F0010101600020704747
:101840002DE9F84304464FF00009CDF800906348B5
:101850004FF41651A56D0068B0FBF1F72E6894F8AF
:101860005C10082000FA01F131420FD021680A68AB
:1018700052070BD50A6822F004020A6094F85C1043
:101880008840A860606D40F00100606594F85C10CD
:101890004FF0010808FA01F0304208D02168496988
:1018A000090604D5A860606D40F00200606594F8F8
:1018B0005C1004208840304208D0216809688907FC
:1018C00004D5A860606D40F00400606594F85C1079
:1018D00010208840304218D021680968090714D5C3
:1018E000A86020680168490304D50068000308D592
:1018F000A16C07E00168C90503D4016821F0080163
:101900000160216C09B12046884794F85C102020C2
:101910008840304231D021680968C9062DD5A860B9
:1019200094F8350005282068016806D0490347D59A
:10193000006800031DD4616C1CE021F016010160F9
:101940002068416921F080014161206C08B9A06CD8
:1019500020B12068016821F00801016094F85C1052
:101960003F208840A86084F8358084F83490216D49
:101970001FE0E16B09B120468847606D00282BD03D
:10198000606DC00714D0052084F835002068016818
:1019900021F0010101600098401C0090B84203D87A
:1019A00020680068C007F6D184F8358084F8349048
:1019B000E16C002910D001B02046BDE8F043084793
:1019C0000168C905D5D4016821F01001016084F8CF
:1019D000358084F83490CCE7BDE8F883800000209F
:1019E0002DE9F041044600F0B9F906465CB1022049
:1019F00084F83500002584F834502068016821F00F
:101A0000010101600DE00120BDE8F08100F0A6F9C0
:101A1000801B052805D920206065032084F8350047
:101A2000F2E720680068C007F0D1226811682048FA
:101A30000140D4E901031843D4E903363343184382
:101A400063691843A3691843E3691843236A184379
:101A50000843616A042903D1D4E90B1319430843ED
:101A6000106020684069666A20F0070130460E4326
:101A7000012704280CD1A06A0643E06A40B1204641
:101A8000FFF786F820B14020606584F83570BAE72A
:101A9000206846612046FFF767F894F85C203F21F4
:101AA00091408160656584F835700020ACE70000E6
:101AB0003F8010F02DE9F0410446866D90F8340027
:101AC000002501280DD0012084F8340094F83570E9
:101AD0000020012F07D084F8340002252846BDE8F5
:101AE000F0810220FBE7022784F83570606520460C
:101AF000FFF778F894F85C103F208840B0602068C9
:101B0000016841F016010160206C20B12068016875
:101B100041F0080101602068016841F001010160A5
:101B2000DCE7000070B5044600F018F90546601CBB
:101B300002D004480078044400F010F9401BA04291
:101B4000FAD370BD740000202DE9F84FDFF8BCA176
:101B50000022012503264FF00F090AF1040BAAF118
:101B6000040E00BF0B6805FA02F42340A34270D1B3
:101B70000F7907F00307012F01D0022F16D18768D4
:101B80004FEA420806FA08FC27EA0C07D1F80CC015
:101B90000CFA08FC4CEA070CC0F808C04768A743D9
:101BA0000C79C4F3001494403C4344600C79E44342
:101BB000A4070AD0C4684FEA420C06FA0CF7BC43EB
:101BC0008F6807FA0CF72743C7600C7904F0030409
:101BD000022C12D1D40800EB840CDCF8204057070B
:101BE000FF0E09FA07F824EA0804D1F8108008FA71
:101BF00007F848EA0408CCF8208004684FEA420C51
:101C000006FA0CF7BC430F7907F0030707FA0CF745
:101C1000274307604C6814F4403F70D03C4C276861
:101C200047F480472760246822F0030704F48044C7
:101C30000094384C07EB040CDCF8084897074FEA8F
:101C4000177809FA08F7BC43334FB84202D100278E
:101C500024E054E0314FB84201D101271EE0304F5B
:101C6000B84201D1022719E02E4FB84201D1032713
:101C700014E02D4FB84201D104270FE02B4FB8429A
:101C800001D105270AE02A4FB84201D1062705E015
:101C9000284FB84201D1072700E0082707FA08F7C4
:101CA0002743CCF80878DAF800405746D1F804C04A
:101CB0009C435FEACC2C00D51C433C60DBF8004021
:101CC0005F46D1F804C09C435FEA8C2C00D51C43CE
:101CD0003C60DEF800407746D1F804C09C435FEAE0
:101CE0008C3C00D51C433C60084F083F3C68D1F851
:101CF00004C09C435FEACC3C00D51C433C60521CB2
:101D0000102AFFF42FAFBDE8F88F0000083C014017
:101D1000443802400030014000000240000402400C
:101D200000080240000C0240001002400014024073
:101D300000180240001C02400069084000D0012049
:101D40007047426921EA02030A4043EA0241816185
:101D500070470AB1816170470904FBE70148806858
:101D6000704700007400002070B5040025D094F87E
:101D70003D00002520B984F83C50204600F0B8F81A
:101D8000242084F83D002068016821F001010160F1
:101D90002068016841F4004101602068016821F475
:101DA0000041016000F05CFA4D4A6168914201D83F
:101DB0004C4900E04C49884201D2012070BD4B499A
:101DC0002368B0FBF1F15E6826F03F060E435E60CB
:101DD0006368934206D94FF4967359434FF47A736C
:101DE000B1FBF3F12368491C1E6A26F03F0631431C
:101DF00019626168914210D84900401EB0FBF1F2AF
:101E0000521CC2F30B02042A01D2042022E0B0FBD0
:101E1000F1F0401CC0F30B001CE0A268F2B301EB30
:101E2000C10303EB0116431EB3FBF6F35B1C43F443
:101E300080431B0549D092B301EBC10202EB0111B3
:101E4000401EB0FBF1F0401CC0F30B0040F480409A
:101E500040F400402168CA694CF6FF739A4310436E
:101E6000C861D4E9071001432068026822F0C0026B
:101E700011430160D4E9030101432068826848F2FC
:101E8000FF339A4311438160D4E905010843216877
:101E9000CA6822F0FF021043C86001E00EE016E0BD
:101EA0002068016841F0010101602564202084F868
:101EB0003D00256384F83E50002070BD01EB4106D3
:101EC000431EB3FBF6F35B1CB3E70120C2E701EB53
:101ED0004101401EB0FBF1F0401CC0F30B00B7E71E
:101EE000A086010080841E0000093D0040420F00D2
:101EF00010B586B0044614216846FEF723FB13494B
:101F0000206888421FD112480021026842F0200256
:101F100002600068122200F0200005900320CDE945
:101F20000210CDE900020420049069460948FFF739
:101F30000BFE07481030016841F480010160006821
:101F400000F48000059006B010BD0000005800406D
:101F5000303802400014024002488168027811447F
:101F600081607047740000200B4810B5016841F48F
:101F700000710160016841F480610160016841F411
:101F800080710160032000F09FF80F2000F006F838
:101F900000F050F8002010BD003C024030B505466E
:101FA0001F4887B00024016841F002010160006809
:101FB00006A900F00200009001A800F031F9049891
:101FC000A8B100F04DF940001649174AB0FBF1F1F5
:101FD0001648491E026040F2E732C0E90324C0E916
:101FE0000114846100F0B8FB040003D015E000F098
:101FF00037F9E9E70D4800F0F1FB04000DD11D2091
:1020000000F034F8102D07D2002229461D2000F0E0
:102010003BF80748056000E0012407B0204630BDCA
:102020004038024040420F0000040040680A00208F
:10203000780000200C4882B0016841F480410160C2
:10204000006800F4804000900748001F016841F0DC
:10205000805101600068002200F0805000900F2144
:10206000901E02B000F010B844380240002809DB8E
:1020700000F01F02012191404009800000F1E020A2
:10208000C0F8001170470000F0B40E4B1B680C46FE
:10209000C3F30223C3F10705042D00D90425191D3C
:1020A000072901D2002300E0DB1E012606FA05F114
:1020B000491E214099409E40761E16403143F0BC97
:1020C00002F09DBE0CED00E0064900F00702086832
:1020D0004FF6FF03184040EA0220034A104308600D
:1020E000704700000CED00E00000FA052DE9F04714
:1020F0000E46050065D0DFF81481D8F80000F7B26D
:1021000000F00700B04207D288F80070D8F800004D
:1021100000F00700B04254D128683D4C810712D529
:10212000400703D5206840F4E0502060287800077D
:1021300003D5206840F4604020602068A96820F042
:10214000F000084320602878C0072DD03049686827
:102150000839012812D0022813D0032811D00968A9
:10216000890700292DDA216821F00301014321604C
:10217000FFF7F4FD814641F2883A0EE009688903D1
:10218000EFE709688901ECE7FFF7E8FDA0EB09013B
:10219000514502D90320BDE8F0872068696800F046
:1021A0000C00B0EB810FEFD1D8F80010404601F0E1
:1021B0000701B14207D90770006800F00700B0427C
:1021C00001D00120E7E72878400705D52068E968B5
:1021D00020F4E050084320602878000706D52068E6
:1021E000296920F4604040EAC100206000F058F8FE
:1021F0002168084AC1F30311515CC84006490860D0
:1022000006480068FFF7CAFE0020C4E7003C024011
:1022100008380240D06400088000002078000020C8
:102220000F2202600C4A136803F003034360136833
:1022300003F0F0038360136803F4E053C360126893
:102240004FF4E05303EAD20202610448006800F050
:10225000070008607047000008380240003C024058
:102260000448054900680968044AC1F38221515CA9
:10227000C84070478000002008380240E064000831
:102280000448054900680968044AC1F34231515CB9
:10229000C84070478000002008380240E064000811
:1022A000154810B5006810F00C02144813D01449FA
:1022B000042A0FD0082A0ED10F4C241F226823684D
:1022C00002F03F025B0207D52068C0F38810A0FB34
:1022D000010106E0084610BD2168C1F38811A1FB89
:1022E00000010023FEF740F82168C1F30141491CB9
:1022F0004900B0FBF1F010BD083802400024F400A2
:10230000001BB7002DE9F84F04006ED02078DFF8ED
:102310004C93C007A9F104054AD009F104000168F3
:10232000C1F38101012908D00068C0F381000228AF
:102330000AD1D9F80000400206D52868800337D5B5
:1023400060680028E1D033E06068B0F5803F10D0CD
:10235000B0F5A02F286810D020F4803028602868BD
:1023600020F4802028606068A8B1FFF7F7FC0646DB
:102370000DE0286840F48030F4E740F480202860C5
:10238000F7E700BFFFF7EAFC801B642873D82868D2
:102390008003F7D50CE0FFF7E1FC064605E000BF3F
:1023A000FFF7DCFC801B6428F0D828688003F7D492
:1023B0002078DFF8AC8280074FF0000A3ED5A748AE
:1023C000001D016811F00C0F08D00068C0F38100F7
:1023D00002280BD1D9F80000400207D428688007F2
:1023E00016D5E068012800D112E033E1E068B8B109
:1023F0000120C8F80000FFF7B1FC064605E000BF69
:10240000FFF7ACFC801B0228C0D828688007F7D5EE
:102410002868216920F0F80040EAC10028600DE03A
:10242000C8F800A0FFF79AFC064604E0FFF796FC08
:10243000801B02281FD828688007F7D4207800075F
:1024400022D5864F87486169703771B101210160DB
:10245000FFF784FC064604E0FFF780FC801B02289F
:1024600009D838688007F7D50EE0C0F800A0FFF75C
:1024700075FC064605E082E0FFF770FC801B022831
:102480007DD838688007F7D42078400768D5DFF812
:10249000CCB100270BF13C0BDBF80000C0000BD4E3
:1024A000DBF8001041F08051CBF80010DBF80000A1
:1024B000012700F0805000906B4E3068C00510D4AA
:1024C000306840F480703060FFF748FC009005E011
:1024D000FFF744FC0099401A022850D83068C00524
:1024E000F6D55E4EA0686C3601280FD005283068FE
:1024F00010D020F001003060306820F0040030601F
:10250000A068B8B1FFF72AFC00900FE0306840F0F7
:102510000100F4E740F004003060F7E7FFF71EFC2D
:102520000099411A41F28830814266D830688007AC
:10253000F4D50EE0FFF712FC009007E0FFF70EFC69
:102540000099411A41F28830814256D8306880079C
:10255000F4D42FB1DBF8001021F08051CBF800103B
:10256000A069C8B33D49091D0968C1F38101022969
:102570004AD00228504607D0C8F8600000E03CE08E
:10258000FFF7ECFB04463BE04746C8F86000FFF766
:10259000E5FB064605E000BFFFF7E0FB801B0228D5
:1025A0002BD828688001F7D4D4E907010843A16A31
:1025B0002E4A490802EB0141626A41EA821108434E
:1025C00094F82C1040EA0161C9F800100120386627
:1025D000FFF7C4FB044606E03EE000BFFFF7BEFB8A
:1025E000001B022809D828688001F7D534E000BF15
:1025F000FFF7B4FB001B022802D90320BDE8F88FC7
:1026000028688001F4D427E00128F7D0D9F8000029
:10261000E26900F4800191421CD1226A00F03F017E
:10262000914217D147F6C071626A0140B1EB821F37
:1026300010D1A26A4FF0FF3300F4403103EB520295
:10264000B1EB024F06D194F82C1000F07060B0EBA3
:10265000016F01D00120D1E70020CFE7043802400C
:1026600000004742800E4742007000400000FFFF1C
:102670007047704710B590F83C20012A22D0012203
:1026800080F83C20CA688C6822F4407222434C686F
:1026900022F4806222430C6822F4006222430C6917
:1026A00022F4805222434C6922F400522243C96929
:1026B000002322F480420A4301684A6480F83C30D7
:1026C000002010BD022010BD70B590F83C20012AFA
:1026D00032D0012480F83C40022280F83D2003687B
:1026E0005A689D6822F070060A6832435A60134B9C
:1026F00002689A4214D0B2F1804F11D0104B9A4226
:102700000ED0104B9A420BD00F4B9A4208D00F4B71
:102710009A4205D00E4B9A4202D00E4B9A4204D1F7
:10272000496825F080031943916080F83D400021FD
:1027300080F83C10084670BD022070BD00000140CA
:102740000004004000080040000C0040000401406C
:10275000004001400018004010B5040003D094F878
:102760003D0010B107E0012010BD002084F83C00BE
:10277000204600F01FF8022084F83D00211D20684B
:1027800001F078FE012084F8460084F83E0084F8C9
:102790003F0084F8400084F8410084F8420084F847
:1027A000430084F8440084F8450084F83D0000208C
:1027B00010BD000008B500680649884208D10648E7
:1027C000016841F001010160006800F00100009023
:1027D00008BD0000000001404438024090F83D1060
:1027E000012901D001207047022180F83D100168C5
:1027F000CA6842F00102CA6000681149884214D0D8
:10280000B0F1804F11D00F4988420ED00E49884256
:102810000BD00E49884208D00D49884205D00D4999
:10282000884202D00C49884204D1816801F0070136
:10283000062903D0016841F00101016000207047C2
:10284000000001400004004000080040000C00406F
:1028500000040140004001400018004070B50446EB
:1028600090F83C000025012817D0012684F83C6030
:10287000022084F83D002068826822F0770222F46A
:102880007F4282600868502838D00DDC20284FD065
:1028900005DC90B3102811D14AE0022070BD302829
:1028A00046D040280AD13BE060282FD070280DD0B8
:1028B000B0F5805F03D0B0F5005F12D0012584F839
:1028C0003D60002084F83C00284670BDCB68D1E90B
:1028D0000121206801F03FFE2068816841F0770106
:1028E00009E0CB68D1E90121206801F034FE2068BD
:1028F000816841F480418160E1E719E0CA68496874
:10290000206801F0FDFE5021206806E0CA68496891
:10291000206801F006FF6021206801F026FECEE766
:10292000CA684968206801F0EBFE40212068F4E79E
:10293000226801461046F0E7704770B5044600680B
:1029400001694FF00005C943890715D4C168C9431F
:10295000890711D4E91E0161012020772068806970
:102960008007204602D0FFF7E7FF04E000F0C2F83E
:10297000204600F054F9257720680169C9434907CA
:1029800017D4C168C943490713D46FF0040101612A
:10299000022020772068806910F4407F204602D012
:1029A000FFF7CAFF04E000F0A5F8204600F037F971
:1029B000257720680169C943090716D4C168C9434E
:1029C000090712D46FF00801016104202077206804
:1029D000C0698007204602D0FFF7AEFF04E000F098
:1029E00089F8204600F01BF9257720680169C94362
:1029F000C90617D4C168C943C90613D46FF01001C2
:102A00000161082020772068C06910F4407F2046CB
:102A100002D0FFF791FF04E000F06CF8204600F0D0
:102A2000FEF8257720680169C943C90708D1C16844
:102A3000C943C90704D1891E0161204600F092F9FB
:102A400020680169C943090609D4C168C943090658
:102A500005D46FF0800101612046FFF709FE206870
:102A60000169C943490609D4C168C943490605D467
:102A70006FF040010161204600F07EF92068016995
:102A8000C94389060BD4C168C943890607D46FF0CE
:102A9000200101612046BDE87040FFF7EABD70BD2E
:102AA00010B586B0044614216846FDF74BFD0E496B
:102AB0002068884216D10D480021026842F01002B9
:102AC0000260006800F0100005904FF40070009064
:102AD0000220CDE901010120CDE903106946044837
:102AE000FFF732F806B010BD000001403038024058
:102AF00000100240704770B5044690F83C00002674
:102B00000D4601280FD0012084F83C006AB1042A48
:102B10001DD0082A2FD00C2A3FD00126002084F88F
:102B20003C00304670BD022070BD206801F026FDDB
:102B30002068816941F0080181612068816921F084
:102B400004018161206881692A69114311E02068CC
:102B500001F044FD2068816941F4006181612068D1
:102B6000816921F480618161206881692A6941EA73
:102B700002218161D2E7206801F066FD2068C16909
:102B800041F00801C1612068C16921F00401C161FF
:102B90002068C1692A69114311E0206801F088FDAD
:102BA0002068C16941F40061C1612068C16921F4F4
:102BB0008061C1612068C1692A6941EA0221C1615D
:102BC000ACE710B5040003D094F83D0010B107E065
:102BD000012010BD002084F83C00204600F01EF8C3
:102BE000022084F83D00211D206801F043FC0120F3
:102BF00084F8460084F83E0084F83F0084F84000E2
:102C000084F8410084F8420084F8430084F84400CA
:102C100084F8450084F83D00002010BD70477047DF
:102C200010B50446022249B104290ED0082913D058
:102C300094F84100012816D0012010BD94F83E0000
:102C40000128F9D184F83E200FE094F83F000128D4
:102C5000F2D184F83F2008E094F840000128EBD13D
:102C600084F8402001E084F841200122206801F02E
:102C700065FC16492068164A884201D0904203D16B
:102C8000436C43F4004343642068884213D0B0F19E
:102C9000804F10D00F4988420DD00F4988420AD08A
:102CA0000E49884207D0904205D00D49884202D093
:102CB0000C49884204D1816801F00701062903D03C
:102CC000016841F001010160002010BD00000140D9
:102CD000000401400004004000080040000C0040D7
:102CE000004001400018004030B504460D46006821
:102CF000002201F023FC194B41F2111120688A10C7
:102D0000984202D0164B984209D1036A0B4206D171
:102D1000036A134203D1436C23F4004343642068E5
:102D2000036A0B4206D1016A114203D1016821F006
:102D30000101016001203DB1042D08D0082D09D00A
:102D400084F84100002030BD84F83E00FAE784F8A2
:102D50003F00F7E784F84000F4E70000000001407E
:102D60000004014000680349884201D1FFF7F4B82C
:102D700070470000000400407047704710B50446DB
:102D80000068406994F83D10C0F3C010212911D1AA
:102D900080B12068143050E8001F21F0800140E825
:102DA0000012002AF5D1606B08B1FEF7EEFC204658
:102DB00001F06BFD2068406994F83E10C0F380106C
:102DC000222911D180B12068143050E8001F21F071
:102DD000400140E80012002AF5D1A06B08B1FEF7CF
:102DE000D4FC204601F02AFD002010BD70470000F1
:102DF000F8B5016804460868CA684B6910F00F0FFF
:102E00004FF0000559D003F0010602F490773743E4
:102E100065D0C10705D0D10503D5216C41F0010172
:102E20002164410705D5D90703D0216C41F0020187
:102E30002164810705D5D90703D0216C41F0040135
:102E40002164010707D502F02001314303D0216C32
:102E500041F008012164216C00293AD0800604D594
:102E6000900602D5204601F01EFD20684069216CC5
:102E7000C0F38010090700D460B3204601F0DEFCE7
:102E800020684069400621D52068143050E8001FB2
:102E900021F0400140E80012002AF5D1A06BA8B152
:102EA0006C490165A06BFEF7B9FC002811D0A06B3E
:102EB000016D01B0BDE8F040084783060FD59306C9
:102EC0000DD52046BDE8F84001F0EDBC2046FFF7E7
:102ED0008DFFF8BD2046FFF789FF2564F8BD266BFE
:102EE0002023012E79D1C60677D5D60675D5086878
:102EF000486800904869400640D5A16B0868406862
:102F00000004000CEAD0A28D8242E7D9E085C869AE
:102F1000B0F5807F2DD020680C3050E8001F21F4E0
:102F2000807140E80012002AF5D12068143050E882
:102F3000001F21F0010140E80012002AF5D12068AD
:102F4000143050E8001F21F0400140E80012002A30
:102F5000F5D184F83E30256320680C3050E8001F1E
:102F600021F0100140E80012002AF5D1A06BFEF715
:102F70000CFCA08DE18D401A81B229E0A08DE18D7D
:102F8000401A81B2E08D0028A8D00029A6D0206880
:102F90000C3050E8002F22F4907240E80026002EFA
:102FA000F5D12068143050E8002F22F0010240E8EB
:102FB0000026002EF5D184F83E30256320680C30C1
:102FC00050E8002F22F0100240E80023002BF5D13A
:102FD0002046FFF7D2FEF8BDFFE705062BD5150604
:102FE00029D594F83D002128F5D1A068B0F5805F7F
:102FF00001D12069B0B1206A411C216221680078AA
:103000004860E08C401E0004000CE084E3D120689E
:10301000C16821F08001C1602068C16841F04001B1
:10302000C160D8E7206A0088C0F308004860206AC1
:10303000801C2062E5E74006CDD55006CBD5CA6896
:10304000204622F04002CA6084F83D3000F011FAB8
:10305000C1E700004747000870B5040004D094F8A9
:103060003D00002510B106E0012070BD84F83C5001
:10307000204600F023F8242084F83D002068C16831
:1030800021F40051C160204601F06EFC2068016906
:1030900021F4904101612068416921F02A014161D8
:1030A0002068C16841F40051C1602564202084F883
:1030B0003D0084F83E00002070BD00002DE9F04F77
:1030C00087B0054614216846FDF73CFAA548DFF8AD
:1030D00090821438D5F800C0A24B02210322402769
:1030E000002406154FF0070BC44570D1D3F800C07B
:1030F0004CF0100CC3F800C01B6803F010030593DC
:10310000036843F002030360036803F002030593BE
:10311000036843F0010303600068884600F0010083
:1031200005908020CDE90008CDE902429246D946BB
:103130006946CDF810B08C48FEF706FD7010CDE959
:103140000008CDE9024A6946CDF810908748FEF79D
:10315000FBFCDFF82092864948464FF00068C9F82A
:103160000010C0E90184C0E90346C9F81440C9F859
:103170001840C9F81C40C9F82040B246C9F824409C
:10318000FEF72EFC08B1FDF709FE7A4EC5F838901F
:103190006036C9F83850C6E90274C6E904A4B461BF
:1031A0007348F461346278307462C6E900083046CE
:1031B000FEF716FC08B1FDF7F1FD6E630022052154
:1031C0002520B563FEF760FF252062E0FFE7DFF80A
:1031D000A881C44562D1634BA1461B1FD3F800C030
:1031E0004CF4802CC3F800C01B6803F480230593C3
:1031F000036843F004030360006800F004000590D6
:103200004FF440608DE81300CDE9032B69465B481D
:10321000FEF79AFCDFF85C81594908F1C008404686
:103220004FF0006AC8F80010C0E901A4C0E90346E5
:10323000C8F814404FF4403BC8F81840C8E9074BA1
:10324000C8F82440FEF7CCFB08B1FDF7A7FD4D4CB4
:10325000C5F838804A48C8F838503030A760C4E90B
:10326000000AC4E90396C4F81490C4F81890C4E99D
:10327000079B2046C4F82490FEF7B2FB08B1FDF787
:103280008DFD6C63002205212720A563FEF7FCFE5F
:103290002720FEF7EBFE07B0BDE8F08FDFF8E880EF
:1032A000C445F8D1D3F800C04CF0200CC3F800C0DE
:1032B0001B6803F020030593036843F04003036099
:1032C000006800F0400005904FF484408DE8130042
:1032D0000820CDE9032069462C48FEF735FCDFF8CD
:1032E000A490234909F16009183948464FF0206A33
:1032F000C9F80010C0E901A4C0E90346C9F81440A8
:10330000C9F81840C9F81C40C9F82040B046C9F8AF
:103310002440FEF765FB08B1FDF740FD194EC5F8E6
:103320003890C036C9F83850C6E90274C6E904843A
:10333000B4610F48F461346260307462C6E9000A17
:103340003046FEF74DFB08B1FDF728FD6E63002205
:1033500005214720B563FEF797FE472099E7000057
:1033600000100140443802400004024000000240C6
:1033700040640240AC0700200048004000080240C2
:1033800028600240CC0800200014014000180240D0
:1033900090F83E30202B0ED159B152B190F83C300C
:1033A000012B08D0012380F83C300023036301F097
:1033B00061BB0120704702207047704770470000D2
:1033C0002DE9F843044690F83D001F4616460D4689
:1033D00020284CD1C5B1BEB194F83C00012846D09C
:1033E000012084F83C004FF00008C4F84080212000
:1033F00084F83D00FEF7B2FCA6848146E684A0680E
:10340000B0F5805F03D004E00120BDE8F8832069B7
:1034100028B12E465FF0000584F83C800EE00026BF
:10342000FAE78021204601F06FFBA0B9AEB116F893
:10343000010B21684860E08C401EE084E08C4B4624
:103440004FF0000200970028EBD14FF040012046DA
:1034500001F05AFB30B10320D7E735F8020BC0F377
:103460000800E6E7202084F83D000020CDE7022098
:10347000CBE77047FEE700002DE9F04786B0142146
:103480006846FDF75FF800254FF43040012402261E
:1034900003958DE85100DFF87CA069465046FEF7A1
:1034A00053FBCDE900641C4FCDE9026569463846FF
:1034B000FEF74AFB4FF48058012241465046FEF782
:1034C00048FC4FF40059012249465046FEF741FCA2
:1034D000A6030096CDE9015469465046FEF734FB39
:1034E000CDE90045694638460294FEF72DFB0122DE
:1034F00031465046FEF72DFC002241465046FEF76D
:1035000028FC012249465046FEF723FC06B0BDE8E0
:10351000F087000000040240001402402DE9F0474B
:103520000E4607460025DFF89491C0E0785DA52897
:1035300073D178190446052101F04EFC00286CD0A7
:103540006078A17840EA012805EB08000930B04214
:1035500046D8204608F1090101F020FC00285CD083
:103560006079A17940EA012040F20221A0F2022212
:10357000884261D018DCB0F5817F40D00ADC012898
:103580001BD0032820D005282BD0A0F5807001384F
:1035900022D12DE0B0F5827F38D0A0F580700538BB
:1035A0003CD0FC2818D140E0092A15D2DFE802F00F
:1035B000144B525960676E7577000B2080460246A7
:1035C0003E48E11D8F3805E02020804602463B48FA
:1035D000E11D8338FCF73FFF05EB08000930C5B259
:1035E00065E00D20804602463448E11D6338F1E76E
:1035F0000420804602463148E11D5638EAE704209F
:10360000804602462D48E11D5238E3E702208046FD
:1036100002462A48E11D4E38DCE746E0012080469C
:1036200002462648E11D4C38D4E71B20804602465E
:103630002248E11D4B38CDE71020804602461F4846
:10364000E11D3038C6E71020804602461B48E11DC8
:103650002038BFE70120804602461848E11D103897
:10366000B8E70120804602461448E11D0F38B1E753
:103670000120804602461148E11D0E38AAE70720C6
:10368000804602460D48E11D0D38A3E7062080461E
:1036900002460A48E11D801F9CE7042000E0062046
:1036A00080460246E11D484694E76D1CEDB2B542E6
:1036B000FFF43CAFBDE8F04701F01ABBB24A00206E
:1036C00070B5344AB0EE413AF0EE602A1060002046
:1036D0009060D060082010611020B2EE091AFAEE56
:1036E000090A01F0F1FC05460C209FED2B1ADFEDD5
:1036F0002B0AB0EE620A01F0E7FCDFED2A2A04464D
:103700000C209FED271AF0EE620AB0EE430A01F09A
:10371000DBFC03460C20B1EE041AF0EE620AB0EEB8
:10372000610A01F0D1FC06460C20B3EE021AFBEE52
:10373000020AB0EE420A01F0C7FC290A117655765A
:1037400021099176210141EA1321D17613773109BC
:103750005177310141EA10219177D0770D4A012349
:10376000183214460B491048FDF750FB00280FD0C3
:103770000223224607490C48FDF748FB002807D0E2
:103780002246BDE87040042302490748FDF73EBBCE
:1037900070BD0000B44B002000003442000034C271
:1037A0000000FA43000000001C0600200F4810B57E
:1037B0000D4901600321416000214FF41022816016
:1037C000C0E903124FF4001242610176417681761E
:1037D000C17601774177FDF780FD002803D0BDE871
:1037E0001040FDF7DBBA10BD00640040F405002076
:1037F0000F4810B50D4901600321416000214FF4CD
:1038000010228160C0E903124FF400124261017678
:1038100041768176C17601774177FDF75EFD00281C
:1038200003D0BDE81040FDF7B9BA10BD00680040F4
:103830001C060020214808B5016841F480010160A0
:10384000016801F480010091016841F400110160F8
:103850000068002200F40010009005210C20FEF703
:1038600013FC0C20FEF702FC002205210E20FEF7BF
:103870000BFC0E20FEF7FAFB002205213920FEF793
:1038800003FC3920FEF7F2FB002205213A20FEF767
:10389000FBFB3A20FEF7EAFB002205214520FEF75C
:1038A000F3FB4520FEF7E2FB002205214620FEF750
:1038B000EBFBBDE808404620FEF7D8BB303802409D
:1038C00010B59CB01C2216496846FCF709FE002181
:1038D000684601F059FC134C11491C2220601C3130
:1038E00007A8FCF7FDFD002107A801F04DFC0C49DD
:1038F00060601C2238310EA8FCF7F2FD00210EA8F2
:1039000001F042FC0649A0601C22543115A8FCF7C6
:10391000E7FD002115A801F037FCE0601CB010BDE8
:103920005864000860000020F0B587B01421684694
:10393000FCF708FE35480024016841F002010160EF
:10394000016801F002010591016841F04001016048
:10395000016801F040010591016841F00101016039
:10396000016801F001010591016841F00801016061
:10397000016801F008010591016841F0040101604E
:10398000016801F004010591016841F02001016026
:10399000016801F020010591016841F0800101609A
:1039A000016801F080010591016841F0100101609A
:1039B0000068174E00F010004FF4E055059000220B
:1039C00029463046FEF7C5F9124F01221103384649
:1039D000FEF7BFF900224FF400513846FEF7B9F95F
:1039E00000950125CDE90154694630460394FEF760
:1039F000ABF84FF440500090CDE901546946384689
:103A00000394FEF7A1F807B0F0BD00003038024083
:103A1000001C0240000402400D4810B50B49016033
:103A20000C49416000214FF480428160C0E90312DB
:103A300041618161C1610162FEF796F9002803D0FE
:103A4000BDE81040FDF7AAB910BD000000580040C5
:103A500044060020801A060010B596B000240F948A
:103A600010941194129413941C2108A81494FCF738
:103A700069FD20216846FCF765FD2848264901605C
:103A8000A721C0E9011444F61F61C0E90314446191
:103A90008461FEF761FE08B1FDF780F94FF48050B4
:103AA0000F900FA91D48FEF7D9FE08B1FDF776F972
:103AB0001A48FFF786F808B1FDF770F9139413A9B7
:103AC00016481494FEF700FE08B1FDF767F9602070
:103AD000CDE908040A940B940C940D94002208A9D3
:103AE0000E480E94FFF707F808B1FDF757F9009458
:103AF0004FF40050CDE904400294019403946946C8
:103B000006480794FEF7B6FD08B1FDF747F90348EC
:103B1000FEF7C6FF16B010BD000001409806002059
:103B20000C4810B50A4901604FF4E13141600021B1
:103B300081600C22C160C0E904128161C161FFF79C
:103B40008BFA002803D0BDE81040FDF727B910BD5F
:103B500000100140E00600200D4810B50B4901603F
:103B60000C49416000214FF480628160C0E903127A
:103B70000C22C0E90521C161FFF76EFA002803D0CD
:103B8000BDE81040FDF70AB910BD00000048004034
:103B900024070020A08601000C4810B50A490160E6
:103BA0004FF4E1314160002181600C22C160C0E925
:103BB00004128161C161FFF74FFA002803D0BDE80C
:103BC0001040FDF7EBB810BD00140140680700205D
:103BD000FEE7FEE71FB50FA10522D1E90001CDE9FF
:103BE000020102A9302000F073F805226946102076
:103BF00000F014F8002069460A5CA52A03D1401C95
:103C0000C0B20528F8D3052802D0012004B010BDA9
:103C10000020FBE7A5A5A5A5A50000002DE9F0471C
:103C2000DFF8409015460F4604464FF40058002236
:103C300041464846FEF78DF8204600F02FF906462B
:103C4000002405E0002000F029F93855641CE4B296
:103C5000AC42F7D3012241464846FEF77AF8304697
:103C6000BDE8F0870004024070B50B4E04464FF4E7
:103C70000055002229463046FEF76BF8204600F03A
:103C80000DF9002000F00AF90446012229463046C9
:103C9000FEF75FF8204670BD0004024070B505468F
:103CA0000720FFF7E1FF04460146272000F036F821
:103CB00060060AD5202229466120FFF7AFFFFF21C9
:103CC000E22000F02BF8002070BD012070BD000044
:103CD0002DE9F047DFF8409016460D4604464FF4B4
:103CE0000058002241464846FEF733F8204600F0CF
:103CF000D5F80746002405E015F8010B00F0CEF8D2
:103D0000641CE4B2B442F7D3012241464846FEF7B0
:103D100020F83846BDE8F087000402402DE9F04164
:103D20000C4E0F4604464FF40055002229463046FB
:103D3000FEF70FF8204600F0B1F80446384600F0D0
:103D4000ADF8012229463046FEF703F82046BDE8CB
:103D5000F081000000040240194910B508600020FD
:103D60008860C86010EE103A082008610B76180AC7
:103D70004876180C8876180E10EE902AC8760A77C6
:103D8000100A4877100C8877100EC87701F11802D6
:103D9000012314460B48FDF739F800280FD0022301
:103DA000224607490748FDF731F8002807D0224688
:103DB000BDE81040042302490248FDF727B810BDB2
:103DC000544B0020F4050020194910B5086000206C
:103DD0008860C86010EE103A082008610B76180A57
:103DE0004876180C8876180E10EE902AC8760A7756
:103DF000100A4877100C8877100EC87701F1180266
:103E0000012314460B48FDF701F800280FD00223C8
:103E1000224607490748FCF7F9FF002807D0224649
:103E2000BDE81040042302490248FCF7EFBF10BD73
:103E3000744B00201C06002070B5164D4FF48054C2
:103E4000002221462846FDF784FF052212492A2038
:103E5000FFF73EFF01212120FFF760FF0121222013
:103E6000FFF75CFF28212520FFF758FF2021312094
:103E7000FFF754FF0F212620FFF750FF0F212020CE
:103E8000FFF74CFF21462846BDE870400122FDF7B0
:103E900060BF000000040240516400082DE9F041B9
:103EA000DFF85C80174F044600254FF400462006DB
:103EB00001D5012200E0002202214046FDF749FF22
:103EC0006006040E012231463846FDF742FFFF200E
:103ED000FCF7E6FE01214046FDF72EFF08B144F055
:103EE0000104002231463846FDF733FFFF20FCF77E
:103EF000D7FE6D1CADB2082DD9D32046BDE8F081A8
:103F00000014024000040240012001F031F9FBE7F7
:103F10002DED048B82B00021C448FEF781FEC34C16
:103F20004FF4FA6021684863FDF7FCFD002120464C
:103F3000FEF7DAFE20684FF47A75456300212046CB
:103F4000FEF76EFE2846FDF7EDFDFCF75FFE284606
:103F5000FDF7E8FDB2EE042AF2EE041ADFEDB48AB2
:103F6000B0EE681A9FEDB38AB0EE080AB248F0EEE0
:103F7000480A01F086F9B048B2EE042AF2EE041ABB
:103F8000B0EE681AF0EE480AB1EE040A343001F0DF
:103F900078F9DFEDAA1AB0EE612A9FEDA91AA648BA
:103FA000F0EE480AB1EE080A683001F06AF9B0EEA6
:103FB000002AF0EE001AB7EE001AF0EE680A9FED44
:103FC000A10A9D489C3001F05CF99FED9F9AB0EEEC
:103FD000492ADFED9E9AF0EE691A9FED9D8A964878
:103FE000B2EE040AB0EE481AF0EE480AD03001F002
:103FF00048F9B0EE492AF0EE691AB0EE481AF0EE30
:10400000680AB2EE040A934801F03BF9924F934CD0
:10401000DFF84C82DFF84C92DFF84CA2DFF84CB2AC
:10402000002500BF97ED000AB5EEC00AF1EE10FAC8
:1040300002D0A07A032805D0A07A01286DD00228EA
:104040006ED09DE08A4E306860B3F0EE000AB0EEAC
:10405000480A40F20110FFF77FFE642001F088F863
:10406000F1EE040AB0EE480A40F20110FFF7ACFE90
:10407000642001F07DF8F1EE040AB0EE480A4FF436
:104080008170FFF7A1FE642001F072F8F1EE040ADE
:10409000B0EE480A40F20310FFF796FE642001F0EC
:1040A00067F8356000F0BCFE98F8001099F8000041
:1040B00051EA000202D16E4A3032158021B16C4AB9
:1040C00040F2B1313032118020B169486FF46C7127
:1040D000303001806748007810B140F2573104E079
:1040E0006548007828B14FF6A94161483830018011
:1040F00002E05F4838300580E07A012802D00328CA
:1041000003D007E04FF4FA6001E04FF47A704749BA
:104110000968486300F062FF83E0FCF777FA2FE05C
:10412000534E706802F012F99FED541B53EC112BA3
:1041300001F026FF01F0F2FECAF8000096ED020A37
:10414000F7EE080A30EE200A8BED000AF06802F064
:10415000FDF89FED4C1B53EC112B01F011FF01F00A
:10416000DDFE4A490860306902F0F0F89FED481B17
:1041700053EC112B02F000F801F0D0FE4649086024
:1041800099F8000098F80010084302D13848303000
:1041900005803848384900780978084302D1344806
:1041A0003830058040F20116F0EE000A9AED000A60
:1041B0003046FFF7D1FD0120FDF7B4FCF1EE040A13
:1041C0009BED000A3046FFF7FFFD0120FDF7AAFC3A
:1041D0002E48F1EE040A90ED000A701CFFF7F4FD82
:1041E0000120FDF79FFC2C48B0EE482AF0EE0C1A97
:1041F00090ED000AB3EE041AF0EE080A0320FFF770
:104200005FFA0120FDF78EFC00F0E8FE2348FF2353
:104210000822D0E90010CDE9001069462048FFF7D8
:10422000CFF8012000F0A4FFFCE600009806002073
:10423000CDCCCC3D0AD7233C5C0100200000484295
:104240000000C8420000A441007C92480060EA4699
:10425000000000006002002050000020084A0020FA
:104260003801002037010020000100200401002057
:10427000000000203B01002040010020E17A14AE44
:1042800047E1F6BF48E17A14AE47F5BF08010020C8
:104290002D431CEBE2363ABF0C01002044640008B9
:1042A000680700201D480068C16841F01001C16026
:1042B00064221B491948FFF76BF81A4E1A4D1B4F21
:1042C00000243078012824D12878122805D11448F8
:1042D00001F004FA3888401C3880347000201049FE
:1042E00002E00C54401CC0B22A789042F9D32C70E2
:1042F00064220B490948FFF74BF83888322808D167
:104300004FF480610A48FDF71CFD0A493C800120FA
:104310000870012000F02CFFD3E70000E006002029
:10432000940200205A000020590000205C00002068
:10433000001C02405800002088B0FFF79DF8FFF7EE
:1043400049FC144C012500B16561FFF775FD02269B
:1043500020216846FCF7F6F86846FFF79FFC08B98D
:10436000C4E904569DF80000AB280FD19DF8110058
:10437000CD280BD1DDF801002060DDF80500E060FC
:10438000DDF80900A060DDF80D006060012000F09C
:10439000EFFEDDE74000002010B5502080F31188CB
:1043A000BFF34F8FBFF36F8F01F0F0FC18B10449DA
:1043B0004FF080500860002080F3118810BD00008D
:1043C00004ED00E030B593B030216846FCF7BAF850
:1043D00014210CA8FCF7B6F81D480025016841F02F
:1043E00080510160006800F0805011901948016808
:1043F00041F4804101600068022400F48040119083
:1044000001200090000401908001CDE906400620C3
:104410000890A820CDE9090404200B906846FDF718
:1044200071FF08B172B6FEE70CA90F2081E83100D8
:104430004FF4A0500F904FF48050109005210CA81D
:10444000FDF754FE002801D072B6FEE713B030BD70
:1044500040380240007000400248016841F4700199
:104460000160704788ED00E00148FEF766BA000081
:10447000680A0020F0B50268254C264D264E274FCD
:10448000274B4FF0804CA04209D0604507D0A8428E
:1044900005D0B04203D0B84201D0984204D122F0F6
:1044A000700E4A6842EA0E02A0421BD0604519D045
:1044B000A84217D0B04215D0B84213D0984211D0BC
:1044C000184DA8420ED0184DA8420BD0174DA84247
:1044D00008D0174DA84205D0164DA84202D0164D5F
:1044E000A84203D122F44075CA682A434D6922F0DC
:1044F00080022A4302608A68C2620A688262A0421D
:1045000001D0984201D10969016301214161F0BDE7
:10451000000001400004004000080040000C004082
:1045200000040140004001400044014000480140B7
:1045300000180040001C00400020004010B501F0B1
:104540001F030121046A99408C430462016A9A4066
:104550001143016210BD10B5846842EA032224F4BD
:104560007F440A432243826010BD826822F07002B9
:104570000A4342F00701816070470000F0B5026A0B
:1045800022F001020262036A42688469124E24F03A
:1045900073050C682C4323F002058B682B430D4DEB
:1045A000A84201D0B04205D123F00807CB683B43B5
:1045B00023F00403A84201D0B04205D14D6922F492
:1045C000407215438A692A434260846149684163A5
:1045D0000362F0BD0000014000040140F0B5026A32
:1045E00022F010020262026A436884690D6824F4B2
:1045F000E64444EA05248D6822F0200242EA0512CE
:104600000F4D104EA84201D0B04206D1CF6822F023
:10461000800242EA071222F04002A84201D0B042D2
:1046200007D14D6923F4406343EA85038D6943EA6A
:10463000850343608461496881630262F0BD0000C4
:104640000000014000040140F0B5026A22F48072CB
:104650000262026A4368C46922F4007224F073059E
:104660000C68124E2C438D6842EA05220E4DA8427A
:1046700001D0B04206D1CF6822F4006242EA07229C
:1046800022F48062A84201D0B04207D14D6923F4E0
:10469000405343EA05138D6943EA05134360C4613F
:1046A0004968C1630262F0BD00000140000401409E
:1046B00030B5026A22F480520262046A4268C36919
:1046C0000D6823F4E64343EA05238D6824F400547F
:1046D00044EA0534084DA84202D0084DA84204D14E
:1046E0004D6922F4804242EA85124260C361496802
:1046F0000164046230BD000000000140000401407C
:1047000010B5036A046A24F001040462846924F089
:10471000F00444EA021423F00A020A4384610262AC
:1047200010BD10B5036A23F0100303628369046AA5
:1047300023F4704343EA023224F0A00343EA011158
:104740008261016210BD10B5806B0021C185C184FA
:10475000FEF74CFB10BD70B5846B2068406994F87F
:104760003D10C0F3C0100025212904D118B1E58403
:10477000204600F08AF82068406994F83E10C0F3A3
:104780008010222904D118B1E585204600F056F8A2
:10479000206C40F0100020642046FEF727FB70BD1F
:1047A00010B50146806B09680968C9052FD400213E
:1047B000C18501680C3151E8002F22F4807241E874
:1047C0000023002BF5D10168143151E8002F22F0AD
:1047D000010241E80023002BF5D10168143151E8B2
:1047E000002F22F0400241E80023002BF5D12021C8
:1047F00080F83E10016B012909D101680C3151E8A4
:10480000002F22F0100241E80023002BF5D1016BAC
:10481000012902D0FEF7D1FD10BD818DFEF7ADFA62
:1048200010BD10B5806B016B012902D0FEF7C6FDEB
:1048300010BD818D4908FEF7A0FA10BD01680C314A
:1048400051E8002F22F4907241E80023002BF5D1AB
:104850000168143151E8002F22F0010241E80023E1
:10486000002BF5D1016B012909D101680C3151E808
:10487000002F22F0100241E80023002BF5D1202167
:1048800080F83E1000210163704701680C3151E847
:10489000002F22F0C00241E80023002BF5D1202197
:1048A00080F83D10704708B590F83E10222901D0DD
:1048B000022008BD82684FF480539A4201D10169F9
:1048C00021B1816A9A421BD04AB10AE00268816A2A
:1048D0005268C2F308020A80816A891C08E00269F2
:1048E00072B10268526802F07F020A70816A491C44
:1048F0008162C18D491E0904090CC18503D019E0EC
:1049000002685268F1E70168CA6822F02002CA60B2
:104910000168CA6822F48072CA6001684A6922F09C
:1049200001024A61202180F83E10016B012903D069
:10493000FEF743FD002008BD0021016301680C3132
:1049400051E8002F22F0100241E80023002BF5D19E
:1049500001680A68D20602D50A6849680091818D0B
:10496000FEF70BFAE6E7000070B50446006801693F
:10497000E26821F44051114301612169A068E269B4
:1049800008436169114308432168CA6849F20C630E
:104990009A430243CA6020684169A26921F44071C8
:1049A0001143416131492068884202D03049884230
:1049B00002D1FDF765FC01E0FDF752FCE26900233E
:1049C000192164253226B2F5004F626828D0A0FB79
:1049D0000101930F9200FBF7C7FC0146B0FBF5F015
:1049E0006FF01802504301EB800006EB0010B0FBA3
:1049F000F5F000F0F002B1FBF5F002EB0012B1FBB4
:104A0000F5F06FF01803584301EB800006EB00103F
:104A1000B0FBF5F000F00F0021681044886070BD15
:104A2000A0FB010192185B41FBF79EFC0146B0FB25
:104A3000F5F00201B1FBF5F06FF01803584301EBFC
:104A4000800006EBC000B0FBF5F000F0F80002EBD0
:104A50004002B1FBF5F0584301EB800006EBC000CB
:104A6000B0FBF5F000F00700D6E7000000100140B1
:104A70000014014038B58162828500251346044642
:104A80000564222084F83E00A26B1C48D063A26B10
:104A90001B481064A26B1B48D064A06B0A460565D6
:104AA0002168A06B091DFDF705F8206801684068C2
:104AB000009084F83C50206948B120680C3050E8E0
:104AC000001F41F4807140E80012002AF5D12068EF
:104AD000143050E8001F41F0010140E80012002AA4
:104AE000F5D12068143050E8001F41F0400140E843
:104AF0000012002AF5D1002038BD0000A1470008AF
:104B000023480008574700082DE9F041984617460A
:104B10000E460446069D27E0681C25D02DB1FDF702
:104B20001DF9A0EB0800A8421ED920680C3050E8FF
:104B3000001F21F4D07140E80012002AF5D120684E
:104B4000143050E8001F21F0010140E80012002A53
:104B5000F5D1202084F83D0084F83E00002084F840
:104B60003C000320BDE8F0812068006836EA0000C0
:104B700004D00020B842CFD00020F3E70120F9E7AD
:104B80000D4808B500680168C1F3001179B10168EA
:104B9000406800900848FEF7F1F80848006840684F
:104BA0000749C0F164000870064901200870BDE89B
:104BB00008400148FEF71CB9E0060020AC070020C1
:104BC000590000205A00002010B50448FCF75DF899
:104BD000BDE810400148FEF70BB900002407002093
:104BE0000C4808B501680A684A680092CA6842F031
:104BF0001002CA6001684A6942F040024A6112210B
:104C000000910168044B806BA3F11802091DFBF7AA
:104C100089FE08BD24070020F049002038B531483E
:104C200000680168C1F30011F1B3016841680091A7
:104C3000016840682B48FEF7A1F82B4800684068DF
:104C40002A480278A52A4BD1A0F118010A700379ED
:104C5000C4788278457823432A43134300EE103A00
:104C6000B8EE400A81ED010A037A2343134300EEB4
:104C7000103AB8EE400A81ED020A027BC37A447A08
:104C80001A43837A23431A4300EE102AB8EE400AEF
:104C900081ED030A027CC37B447B1A43837B23435D
:104CA0001A4300EE102A00E010E0B8EE400A81ED51
:104CB000040A027DC37C1A43837C407C03431A436D
:104CC00000EE102AB8EE400A81ED050A0548FEF70D
:104CD0008FF8BDE83840642204490248FEF758BB0B
:104CE00038BD0000680700202C090020040A0020BD
:104CF00030B52648264987B090F84930CB7090F8F7
:104D00004A208A70B0F85F20CA80B0F861200A811A
:104D1000B0F86C204A81826ECA60D0F88A2000EE1A
:104D2000102AB5EEC00AF1EE10FA00D00A614279FD
:104D30004FF41675140902220C71072B07D06B2B48
:104D40000AD00B78012B04D0022B06D00BE00123F4
:104D50000B70B0F81B0002E00A70B0F82B0010B125
:104D6000A84200D04A708DF8184008788DF81900D4
:104D70001020009000200290CDE90302012306AA32
:104D800069460448FCF742F807B030BD1E4A0020CF
:104D900044010020F4050020FEE7000030B50C4679
:104DA000050014D0022C12D90A48A11E02882846F8
:104DB000FBF7F6FF2919C2B211F8023C9A4206D15C
:104DC00011F8011CB1EB102F01D1012030BD0020E2
:104DD00030BD00005801002030B50C4605000CD055
:104DE000022C0AD9FF22611EFBF7F0FF291911F8E6
:104DF000011C814201D1012030BD002030BD0907D6
:104E0000090E002804DB00F1E02080F80014704750
:104E100000F00F0000F1E02080F8141D7047000042
:104E200070B55E4890ED000A9FED5D2A20EE021AF3
:104E3000DFED5C0A5C4C5D4881EE200A84ED080AD7
:104E400090ED001A5A4861EE021A81EEA01A84ED24
:104E5000091AD0ED001A574861EE822AC2EEA01A54
:104E6000C4ED0A1AD0ED002A534862EE822A82EE7F
:104E7000A02AF3EE092AC2EE220AC4ED0B0A90ED35
:104E8000002AB4EEC20AF1EE10FA01DDB0EE420AD9
:104E90004A4884ED080A90ED002AB4EEC20AF1EE09
:104EA00010FA01D2B0EE420A454884ED080A90EDAE
:104EB000002AB4EEC21AF1EE10FA01DDB0EE421A89
:104EC000404884ED091A90ED002AB4EEC21AF1EEC2
:104ED00010FA01D2B0EE421A3B4884ED091A90ED67
:104EE000001AF4EEC11AF1EE10FA01DDF0EE411AEB
:104EF0003648C4ED0A1A90ED001AF4EEC11AF1EE2C
:104F000010FA01D3B0EE611A314884ED0A1A90ED1F
:104F1000001AF4EEC10AF1EE10FA01DDF0EE410ADA
:104F20002C48C4ED0B0A90ED001AF4EEC10AF1EE24
:104F300010FA01D2F0EE410AC4ED0B0A40F201155D
:104F4000F6EE000A2846FEF707FF012000F010F9F0
:104F5000F6EE000A94ED090A2846FEF735FF012017
:104F600000F006F9F1EE040A94ED0A0A681CFEF757
:104F70002BFF012000F0FCF89FED172AF0EE0C1A31
:104F8000B3EE041AF0EE080A94ED0B0A0320FEF7C4
:104F900097FBBDE87040012000F0EAB84000002017
:104FA000C3F54840000034C3000000204400002046
:104FB000480000204C0000201001002014010020B7
:104FC000180100201C0100202001002024010020E5
:104FD000280100202C01002000000000F8B5204C22
:104FE000B4F9060000EE100A1E48F8EEC00AB0F947
:104FF000000000EE100A1C48B8EEC00A00F0EEF8FF
:10500000BDEEC00A194D10EE100A6080B5F9060019
:1050100000EE100A13480830F8EEC00AB0F900009C
:1050200000EE100A1048B8EEC00A343000F0D6F88E
:10503000BDEEC00A0026334610EE100A68800096C6
:10504000B4F90E20B4F90210304600F0B5FB00238D
:105050000096B5F902101A46184600F0DBFBF8BDC1
:10506000F8020020300000202C0200204C03002019
:105070000749896B814209D10068016841F4002128
:105080000160044801780448FEF748BA7047000000
:105090006807002030010020484800200749896B3C
:1050A000814209D10068016821F4002101600448AF
:1050B00001780448FEF732BA704700006807002004
:1050C0003001002010490020012131EE601A81409A
:1050D00070EE600A491E00EE101AB8EEC00A20EE0B
:1050E000800AC0EE010ABDEEE00A10EE100A704719
:1050F000FCF73AFFFFF766F9FEF716FCFEF79AFB9E
:10510000FEF754FBFEF774FBFEF70AFDFEF724FDE5
:10511000FEF742FDFEF7A0FCFEF77EFC00221146E2
:105120001C20FCF7B1FFFBF785FBFBF7ADFBFFF79E
:1051300057FD0948FDF752FB08480068C16841F077
:105140001001C160642206490448FEF721F9FEF708
:10515000B7FB00F014F8FEE798060020680700206F
:10516000040A002001460020842900D0C81C704792
:1051700010B500B9012000F0A5FC002010BD10B54D
:1051800000F0C6FC002010BD7FB50D460446416905
:10519000B0F9080081B1A16971B1FFF7E3FFD4E96B
:1051A00005128DE80700D4E900102B46226900F0B3
:1051B000C2FD039004B070BDFFF7D4FF03A9CDE991
:1051C0000001208A2B4682B2D4E9001000F086FD4F
:1051D000012801D00020EDE70398EBE780ED050AF8
:1051E000C0ED060A90ED071A70EE600A80ED081A0D
:1051F000C0ED070A90ED000A60EE201AC0ED091A12
:1052000090ED0A0A90ED012A02EE200A70EEC10A22
:1052100080ED0A0A90ED021A20EE812A80ED0B2A19
:10522000D0ED030AB1EE601AB4EEC10AF1EE10FA45
:1052300002D8B0EE410A06E0B4EEE00AF1EE10FA50
:1052400001DBB0EE600A80ED0A0A31EE800A30EE32
:10525000020A80ED0C0AD0ED040AB1EE601AB4EE39
:10526000C10AF1EE10FA02D8B0EE410A06E0B4EE3F
:10527000E00AF1EE10FA01DBB0EE600A80ED0C0AF4
:10528000704780EC050A70472DE9F041184C0F4635
:105290000546E6682068001D00F04CFB38B9206820
:1052A00090F82C1001208840216981432161681CFD
:1052B00007D137B12168BDE8F0410E48091D00F063
:1052C0007DBB20683544B5424560216805D2A06B9E
:1052D000BDE8F041091D00F059BB606B091D00F0ED
:1052E00055FBA06A854200D2A562BDE8F0810000AE
:1052F000840000208C0B00202DE9F041054600F0D1
:1053000069FB2E4CA068401CA06020682C4F10B197
:10531000606940B32DE02560A068012829D10026EE
:1053200006EB860007EB800000F022FB761C072EC0
:10533000F6D323488C3000F01BFB2148A03000F04E
:1053400017FB1F48B43000F013FB1D48C83000F0B5
:105350000FFB1B48DC3000F00BFB19488C306063FE
:105360001430A06305E02068E96AC06A884200D86A
:105370002560606A401C6062E96A012022698840F9
:105380001043206101EB810007EB8000291D00F034
:1053900015FB00F03FFB606900280CD02068E96A2B
:1053A000C06A884207D207494FF080500860BFF3B7
:1053B0004F8FBFF36F8FBDE8F081000084000020A5
:1053C000B00A002004ED00E010B5044690F851004A
:1053D00058B101280CD002280FD0502080F311883A
:1053E000BFF34F8FBFF36F8FFEE7206B00F026FBFC
:1053F0002046BDE8104000F021BB10BD10484FF41E
:105400007051420706D0C01D0D4920F00700411A17
:10541000C1F570510B4A00230144C2E90003083969
:10542000183A21F0070111604B600B600B1AC0E9BC
:10543000001393604FF000405360506170470000CC
:10544000A00B0020D8000020144E154CA6F1C80770
:105450004FF08058DFF84C9012E000BF00F0BAFA2D
:10546000F068C568281D00F065FAA068401EA060BD
:105470006068401E606000F0CDFA2846FFF7A4FF88
:1054800060680028EAD138680128F9D9C9F8008095
:10549000BFF34F8FBFF36F8FF2E70000780B002050
:1054A0008400002004ED00E02DE9F0479A46DDE994
:1054B000098481466FF00303206B03EB82021044E2
:1054C000089E20F00707780707D0502080F3118846
:1054D000BFF34F8FBFF36F8FFEE7002561B1002050
:1054E00023180A5C83F834200A5C12B1401C10288F
:1054F000F6D384F8435001E084F83450072E00D3EB
:105500000626E662C4E91165201D00F03CFA04F1AC
:10551000180000F038FA2461C6F107006462A06147
:10552000E56484F8505052464946384600F0C0F8C9
:105530002060B8F1000F01D0C8F80040BDE8F08746
:1055400030B5114900E011460A688242FBD34B682E
:105550005C18844203D14068184448600846436898
:105560001C18944209D1084C183C2468A24209D066
:1055700052681A4442600A6812680260814200D090
:10558000086030BD0460F9E7D80000200648416B90
:10559000096829B1416BC968C96849688162704767
:1055A0004FF0FF31FAE7000084000020084840680F
:1055B000401C4FF0500080F3118804D0BFF34F8F90
:1055C000BFF36F8FFEE7BFF34F8FBFF36F8FFEE721
:1055D000E00000202DE9F0410546002700F0CEFA5A
:1055E000324E306808B9FFF709FF706905424ED1A5
:1055F000C5B3083568070ED005F00700C0F10800F4
:105600000544680707D0502080F31188BFF34F8FFF
:10561000BFF36F8FFEE72DB37068854237D82348FC
:10562000183001460C6801E020460C466168A9422A
:1056300002D221680029F7D131688C4227D007684F
:105640002168016060680837411B10290FD9601973
:10565000420708D0502080F31188BFF34F8FBFF36B
:105660006F8FFEE713E041606560FFF769FF6168D7
:105670007068401A7060B268904200D2B060706981
:1056800001430020C4E90001F068401CF06000F014
:10569000E3FB780707D0502080F31188BFF34F8FCA
:1056A000BFF36F8FFEE73846BDE8F081C0000020F1
:1056B00010B5031F4FF080741C601B1F21F0010107
:1056C0001960191F044B0B6014390A60091F6FF031
:1056D000020244380A6010BDAD5500080188C1F3CC
:1056E0000A0233490A8042788378D20842EA431298
:1056F000C2F30A024A808278C378920942EA83029E
:10570000037942EA8322C2F30A028A80027943794A
:10571000520842EAC312C2F30A02CA804279C2F3B3
:1057200001128A7242799209CA72C2888A810289F8
:10573000CA8142890A82027B8A74427BCA74C28906
:105740008A82028A0A81827B1A4902F001030B7065
:1057500002F002034B7002F004038B7002F00803A6
:10576000CB7002F040030B7102F080034B7102F02A
:1057700010038B7102F02002CA71C07B00F001029D
:105780000A7200F002024A7200F004028A7200F00B
:105790000802CA7200F010020A7300F020024A7375
:1057A00000F040028A7300F08000C8737047000068
:1057B000084A00203101002010B588B00A9C18B3B7
:1057C00040F2FF20029000200490059008200690EF
:1057D000080A8DF800008DF80110100A8DF80200FB
:1057E000180A8DF804008DF80530200A8DF806009F
:1057F0008DF803208DF8074001236A4602A904486A
:10580000FBF704FB08B010BD4FF40070DAE70000AE
:10581000F405002010B588B00A9C18B340F2FF20B0
:10582000029000200490059008200690080A8DF848
:1058300000008DF80110100A8DF80200180A8DF88A
:1058400004008DF80530200A8DF806008DF803203D
:105850008DF8074001236A4602A90448FBF7D6FAEF
:1058600008B010BD4FF40070DAE700001C060020FD
:1058700038B50446006801684068009020488442BA
:105880001BD1A06B0068016821F001010160A06BD1
:1058900001684A68062A06D10968090301D5416CE6
:1058A00000E0C16B8847A16B182009684860A06BB5
:1058B0000068016841F001010160124884421DD175
:1058C000A06B0068016821F001010160A06B016814
:1058D0004A680D4BC2F1C8021A700968090301D564
:1058E000416C00E0C16B8847A16BC8200968486023
:1058F000A06B0068016841F00101016038BD000043
:1059000024070020680700203001002001EE100A63
:1059100070EEC00A0120B8EEC11A8840401E21EE88
:10592000201A00EE900AF8EEE01AC1EE210A30EEDD
:10593000800A7047D0E9013201699A60D0E90123F9
:105940005A604A68824201D182684A60002202613C
:105950000868401E0860086870470000034B036039
:1059600003F154000860802010607047A0030020FD
:1059700000F108014FF0FF32C0E90112C16001617E
:1059800000210160704700210161704730B50B684C
:105990005A1C02D000F1080202E0026904E022462B
:1059A000546825689D42FAD953684B6099608A60B3
:1059B000516008610168491C016030BD42684A605D
:1059C00093688B6093685960916008610168491C15
:1059D00001607047502080F31188BFF34F8FBFF3F1
:1059E0006F8F0A494868401C486001280CD108485C
:1059F000006810F0FF0F07D0502080F31188BFF32C
:105A00004F8FBFF36F8FFEE770470000E00000206C
:105A100004ED00E00849486828B1401E486001D103
:105A200080F311887047502080F31188BFF34F8FA7
:105A3000BFF36F8FFEE70000E000002070B5002884
:105A40002AD0164DA0F1080460686969084207D1A0
:105A5000502080F31188BFF34F8FBFF36F8FFEE7A5
:105A600022683AB1502080F31188BFF34F8FBFF303
:105A70006F8FFEE78843606000F080F860686968B7
:105A8000084468602046FFF75BFD2869401C2861D8
:105A9000BDE8704000F0E0B970BD0000C00000201B
:105AA0004FF0E02000210161816105494FF47A72D5
:105AB0000968B1FBF2F1491E41610721016170479C
:105AC0008000002010B5020014D00F48006B38B1E0
:105AD000502080F31188BFF34F8FBFF36F8FFEE725
